:100000000C9498110C94AA110C94AA110C94AA1196
:100010000C94AA110C94AA110C94AA110C94761B9E
:100020000C94AA110C94AA110C94AA110C94AA1164
:100030000C94AA110C94AA110C94AA110C94AA1154
:100040000C94AA110C94AA110C94AA110C94AA1144
:100050000C94AA110C94AA110C94AA110C94AA1134
:100060000C94AA110C94AA116A2C6E2C752C7B2C62
:10007000782C782C7E2C110A0611060A050A06092E
:10008000060A050A0609060A090A06050A06050AF5
:100090000605060A052A26052A26092A26090A0629
:1000A000000000000000000000110A06000000101F
:1000B0000000C011000020120000201000002010DD
:1000C00000002010000020120000C01100000010ED
:1000D000000000087800000488000602880006017D
:1000E0007800860088004600880026007800160008
:1000F00000000E0000000600FCFF070000000600E4
:1001000000000E000000160000002602000046035A
:10011000000086030000C6030000E60300000004A0
:10012000000000080000E013000020100000201074
:100130000000E01100002010000020100000E0137B
:100140000000001000000000000000100000E0139C
:1001500000002010000020100000E011000020101E
:10016000000020100000E013000000100000000854
:10017000780040048800C6028800C6017800C603E3
:100180008800C607880026007800160000000E00D0
:1001900000000600FCFF07000000060000000E0043
:1001A0000000160000002600000046000000860047
:1001B0000000060100000602000000040000000824
:1001C0000000C011000020120000201000002010CC
:1001D00000002010000020120000C01100000010DC
:1001E00000000000000000100000E01000002011DE
:1001F0000000201200002012000020120000201138
:100200000036E010003600100036001000F6FF1F28
:100210000036000400360004003600040006000426
:1002200000060004003604040036863F003607044A
:1002300000F63F0E0036271F0036A63F383624044E
:1002400044062004040620046436200444362004B6
:100250004436200438F6FF1F003600100036001028
:10026000FE37C01100002012000020100000C01155
:1002700000000012000020120000C0110000000069
:10028000000000100000C01100002012000020102B
:100290000000C0110000001200002012FE37C01143
:1002A000003600100036001038F6FF1F44362004D8
:1002B0000436200464362004440620044406200446
:1002C000383621040036A33F0036270400F63F0EDF
:1002D0000036071F0036833F003601040006000485
:1002E0000006000400360004003600040036000456
:1002F00000F6FF1F00360010003600100036E01038
:100300000000201100002012000020120000201226
:10031000000020110000E0100000000000000010AC
:100320000000E01000002011000020120000201248
:1003300000002012000020110036E01000360010EE
:100340000036001000F6FF1F0036000400360004DF
:1003500000360004003600040036000400360404B1
:100360000036863F0036070400F63F0E0036271F92
:100370000036A63F383624044436200404362004D0
:1003800064362004443620044436200438F6FF1F27
:100390000036001000360010FE37C0110000201299
:1003A000000020100000C011000000120000201208
:1003B0000000C01100000000000000100000C0118B
:1003C00000002012000020100000C01100000012E8
:1003D00000002012FE37C011003600100036001059
:1003E00038F6FF1F44362004043620046436200407
:1003F0004436200444362004383621040036A33F16
:100400000036270400F63F0E0036071F0036833FF4
:1004100000360104003600040036000400360004F3
:10042000003600040036000400F6FF1F00360010FE
:10043000003600100036E0100000201100002012ED
:100440000000201200002012000020110000E01027
:1004500000000000000000103800C011440020120D
:10046000040020106400C011440000124400201257
:1004700038C2C01100C6001000CE0010FEFFFF1FE2
:1004800000CE000000C6000000C2000000C0000056
:1004900000C0000000C0000000C0000000C000005C
:1004A00000C0000000C0000000C0000000C000004C
:1004B00000C0000000C0000000C0000000C000003C
:1004C00000C0FF1F00C0001000C0001000C0E010FE
:1004D0000000201100002012000020120000201255
:1004E000000020110000E0100000001000000000DB
:1004F000000000100000E010000020110000201299
:1005000000002012000020120000201100C0E010A6
:1005100000C0001000C0001000C0FF1F00C000009D
:1005200000C0000000C0000000C0000000C00000CB
:1005300000C0000000C0000038C0000044C000003F
:1005400004C0000064C0000044C0000044C00000BB
:1005500038C8000000CC000000CE0000FEFFFF1FE6
:1005600000CE001000CC001000C8C0110000201206
:10057000000020100000C011000000120000201236
:100580000000C011000000100000000000000E106C
:100590000000111000000110000001100000011007
:1005A0000000111100000E0B000000070000000FFA
:1005B00000800D1F00808D0000807D0000800D00F8
:1005C00000800D00008001000080010000800D000F
:1005D00000800D0038803D0044804D0004808D0077
:1005E000648001004480010044800D0038800D00CB
:1005F00000807D0400808D06FEFF0D07000080074F
:100600000000C00700001F080000011000000110DA
:1006100000000F10000001100000011000001F106A
:10062000000000100000000038001F1044000110FE
:100630000400011064000F10440001104400011177
:1006400038001F0B000000070000000FFEFF0D1F09
:1006500000808D0000807D0000800D0000800D0076
:10066000008001000080010000800D0000800D006E
:1006700000803D0000804D0000808D000080010062
:100680000080010000800D0000800D0000807D04CE
:1006900000808D0600800D07000080070000C00765
:1006A00000000E08000011100000011000000110F1
:1006B000000001100000111000000E1000000010DA
:1006C000000000000000100000001007000090086B
:1006D000000090080000900F0000900800009008B3
:1006E0000000900800001000000010000000100042
:1006F000000010000000100000FCFF7F00F8FF3F2A
:1007000000F0FF1F00E0FF0F00C0FF070080FF03A5
:100710000000FF010000FE0000007C0038003800EF
:100720004400100004FCFF7F64FCFF7F44001800BD
:10073000440014003800120000001100008010076F
:10074000FE7F9008000090000000900000009000E4
:1007500000009008000010070000100000000000DA
:1007600000001000008E1100005112000011120054
:10077000001F1100009110000051100000D1130063
:100780000000100000001000000010000000100029
:1007900000FFFF3F00FC1F0200FC1F0700F80F07CF
:1007A00000F88F0F00F0870F00F0C71F00E0C31F95
:1007B00000E0E33F00C0E13F38C0F17F4480F07FBC
:1007C00004FCFFFF6480100044401000442010002F
:1007D000381010000008100000041047FE03906855
:1007E000000090480000904F0000904800009048A2
:1007F000000090E800001000000000000000100061
:100800000000100700009008000090080000900F02
:10081000FE1F9008002090080040900838801000CB
:100820004400110004001200640014004400180089
:1008300044FCFF7F38F8FF3F00F0FF1F00E0FF0F90
:1008400000C0FF070080FF030000FF010000FE0062
:1008500000007C00000038000000100000FCFF7F5A
:1008600000FCFF7F000010000000100000001000DE
:100870000000100000001007000090080000900029
:100880000000900000009000000090080000100799
:1008900000001000000000000000001000008F1198
:1008A000000051120000111200000F110000911001
:1008B0001E0051102000CF134000001080C800100F
:1008C00000CD00103ECEFF1F02CF000082CF0000FF
:1008D0001ED0000002E0000002C000003EC0000088
:1008E00000C0000000C0000000C0000000C0000008
:1008F00000C0000000C0000000C0000000C00000F8
:1009000000C0FF1F00C0001000C000100000001059
:1009100000001E110000A2110000221100001E1193
:10092000000022110000221100009E1300000010A0
:1009300000000000000000000000000000000000B7
:1009400000FE010080FF0700C0FF0F00E0FF1F0056
:10095000F0013E00F0FC3C0078027800780178015C
:1009600078017801780178010000780100003C01ED
:100970000000BE0000009F0000804F0000C0270064
:1009800000E0130000F0090000F80400007C020001
:10099000007C0100007C0100007C010000000100DF
:1009A00000F8010000000000000000000038000016
:1009B000007C0000007C0100007C01000038010088
:1009C000008000000078000000000000000000002F
:1009D0000000100000009008000090040000900249
:1009E00000009001000090020000900400009008B8
:1009F00000001000000410000004100000041000AB
:100A000000FCFF7F00FCFF7F00001040000038402A
:100A100000007C400000FE000000FF010080FF039A
:100A200000C0FF0700E0FF0F00F0FF1F00F8FF3FCE
:100A300000FCFF7F0000100000001000000010000C
:100A4000000010000000100700009008000090084F
:100A50000000900F0000900800009008000090082F
:100A60000000100000000000000000000000000076
:100A70000000000000000100000001000000010073
:100A80000000010000000100000001000000010062
:100A900000000100000001000000010080FFFF01D4
:100AA00080FFFF010000000000000000F0FFFF0FCA
:100AB000F0FFFF0FF0FFFF0FF0FFFF0FF0FFFF0F42
:100AC000F0FFFF0FF0FFFF0F00000000000000002C
:100AD00080FFFF0180FFFF01000001000000010016
:100AE0000000010000000100000001000000010002
:100AF00000000100000001000000010000000100F2
:100B000000000000000000000000801000008010C5
:100B10000000E013000080100000801000000010B2
:100B200000C07F1000404010007CC01F00444010F7
:100B300038C47F10480400108804001088E47F1037
:100B400088E47F1048E4FF1F38E47F0000E47F0062
:100B500000E47F00FCFF7F0000E07F0000E07F00FA
:100B600000E07F0000E0FF1F00E07F1000E07F104A
:100B70000000001000000010000000100000001035
:100B80000000001000000010000000100000001025
:100B900000000010000000100000E0130000001032
:100BA00000000000FF01020304050607FFFFFFFF2E
:100BB000FFFFFFFFFFFFFFFFFFFFFFFFFFFFFFFF45
:100BC000FFFFFFFF101112131415161718191A1B27
:100BD0001C1D1E1F202122232425262728292A2BDD
:100BE0002C2D2E2F303132333435363738393A3BCD
:100BF0003C3D3E3F404142434445464748494A4BBD
:100C00004C4D4E4F505152535455565758595A5BAC
:100C10005C5D5E5F606162636465666768696A6B9C
:100C20006C6D6EFFFFFFFFFFFFFFFFFFFFFFFFFF8A
:100C3000FFFFFFFFFFFFFFFFFFFFFFFFFFFFFFFFC4
:100C4000FFFFFFFFFFFFFFFFFFFFFFFFFFFFFFFFB4
:100C5000FFFFFFFF0FFFFFFFFF05FFFFFFFFFFFF8E
:100C6000FFFFFFFFFFFFFFFF08FFFFFFFFFFFFFF8B
:100C7000FFFFFFFFFFFFFFFFFFFF09FFFFFFFFFF7A
:100C80000AFFFF0BFFFFFFFF0CFFFFFFFFFFFFFF50
:100C9000FFFFFFFFFFFFFFFFFFFF0DFFFFFFFFFF56
:100CA0000EFFFFFF00000000000000000000000039
:100CB0000000000000000000000000000000000034
:100CC0000000000000000000000000000000000024
:100CD00000000000000000000000000000000470A0
:100CE0000C701C703C707C70FC70FC71FC73FC77A9
:100CF000FFFFFFFFFC77FC73FC71FC707C703C70A5
:100D00001C700C7004700000000000000000000067
:100D100000000E200E300E380E3C0E3E0E3F8E3F71
:100D2000CE3FEE3FFFFFFFFFEE3FCE3F8E3F0E3F39
:100D30000E3E0E3C0E380E300E200000000000006B
:100D40000000000000003C3C3C3C3C3C3C3C3C3C4B
:100D50003C3C3C3C3C3C3C3C3FFC3FFC3C3C3C3C4D
:100D60003C3C3C3C3C3C3C3C3C3C3C3C3C3C00003B
:100D700000000000000000000000C007E00F301875
:100D800018300C600C6006C006C006C006C00C60BF
:100D90000C6018303018600C628C7EFC7EFC000009
:100DA0000000000000000000000000000000000043
:100DB0000000000000001C381C381C381C381C388F
:100DC0001C381C381C381C381C383C3C7C3EFC3B16
:100DD000DC7B1C001C001C001C001C000000000030
:100DE000000000000000FEFFFEFF060006000600F7
:100DF00006000600070007000600060006000600C1
:100E00000600FEFFFEFF00000000000000000000E2
:100E100000000000000000000000FF7FFF7F006076
:100E2000006000600060006000E000E000600060C2
:100E3000006000600060FF7FFF7F00000000000096
:100E400000000000300C300C000000000000C00169
:100E5000C003E003600760077006300E380E381CD0
:100E6000181CFC3FFC3F0E380E700E7007E00000AF
:100E70000000000000000000300C300C00000000FA
:100E80000000E007F00F381C1C381C380E700E7084
:100E90000E700E700E700E701C381C38381CF00F5F
:100EA000E00700000000000000000000601860186B
:100EB0000000000000001C701C701C701C701C7076
:100EC0001C701C701C701C701C701C701C703C789A
:100ED0003838F01FE00F00000000000000000000A4
:100EE0000000F003F8073C0E1C0E1C0E1C061C072D
:100EF0009C039C039C039C071C0F1C1E1C3C1C7821
:100F00001C701C709C709C3F1C1F000000000000A7
:100F100000000000000000000000600C600C0000F9
:100F20000000E007F80F181E001C001CE01FF01F57
:100F3000381C1C1C1C1C1C1C3C1EF87BF078000080
:100F4000000000000000000000000000000030066B
:100F5000300600000000E003F80F3C1E1C1C0E3899
:100F60000E380E380E380E380E381C1C3C1EF80F8A
:100F7000E00300000000000000000000000000008E
:100F8000000030063006000000001C381C381C38F9
:100F90001C381C381C381C381C381C381C381C3CAD
:100FA0003C3EF83BF038000000000000000000006C
:100FB000000000008003C007600C600C600CC007DC
:100FC000800300000000000000000000000000009E
:100FD0000000000000000000000000000000000011
:100FE0000000000000000000000000000000000001
:100FF00000000000000000000000000000000000F1
:1010000000000000000000000000000000000000E0
:1010100000000000000000000000000080038003CA
:1010200080038003800380038003800380038003A8
:10103000800380038003800300000000800380039E
:101040008003000000000000000000000000380ED7
:10105000380E380E380E380E100410040000000050
:101060000000000000000000000000000000000080
:101070000000000000000000000000000000000070
:101080000000000080318031C018C018C018C0189E
:10109000FC7FFC7F600C60063006FE3FFE3F1803BD
:1010A0001803180318038C018C01000000000000D5
:1010B0000000000000030003C01FF03F702338034E
:1010C000380338037803F003E0038007001F001F94
:1010D000003B003B003B003B181BF81FE00F0003E8
:1010E0000003000000000000000000003CC066603B
:1010F000C330C318C318C30CC30666033C03800186
:10110000C03CC06660C330C318C318C30CC30666B6
:10111000033C000000000000000000000000000090
:10112000E003F007380E380E380E38067007F0016D
:10113000F800FCE0CEE1C7E387630767077E0F3E58
:101140001E3CFC7FF0F300000000000000000000E7
:101150000000C001C001C001C001C00180008000CA
:10116000000000000000000000000000000000007F
:10117000000000000000000000000000000000006F
:101180000000000000000018001E000F8003C001D6
:10119000E000E000E000700070007000700070007F
:1011A000700070007000E000E000E000C00180030B
:1011B000000F001E0018000000000C003C0078002A
:1011C000E000C001800380038003000700070007E0
:1011D0000007000700070007000780038003800363
:1011E000C001E00078003C000C000000000000009E
:1011F000800380038003981B7C3E300C4002E00794
:10120000700E381C200400000000000000000000E8
:1012100000000000000000000000000000000000CE
:10122000000000000000000000000000000080013D
:1012300080018001800180018001FE7FFE7F8001AE
:101240008001800180018001800100000000000019
:10125000000000000000000000000000000000008E
:10126000000000000000000000000000000000007E
:10127000000000000000C003C003C003C00300035F
:1012800080038001C000000000000000000000009A
:10129000000000000000000000000000000000004E
:1012A000F81FF81F00000000000000000000000010
:1012B000000000000000000000000000000000002E
:1012C000000000000000000000000000000000001E
:1012D0000000000000000000000000000000C0034B
:1012E000C003C003C00300000000000000000000B5
:1012F000000000600030003000180018000C000CE6
:10130000000600060003000380018001C000C00049
:101310006000600030003000180018000C000C0065
:101320000600000000000000E003F007380E1C1C5F
:101330001C1C0E380E380E380E380E380E380E388B
:101340000E380E381C1C1C1C380EF007E003000081
:101350000000000000000000000000000003E003A7
:10136000FC038C03800380038003800380038003DD
:101370008003800380038003800380038003FC7F5D
:10138000FC7F0000000000000000000000000000E2
:10139000F003FC070C0E001C001C001C001C000EBF
:1013A000000E00078003C001E0007000300038002C
:1013B0001C00FC1FFC1F00000000000000000000DB
:1013C00000000000F003F80F081E001C001C001CA9
:1013D000000C0006E003E007000F001E001C001CCC
:1013E000001C001E080FF807F803000000000000B2
:1013F0000000000000000000000E000F800F800FB2
:10140000C00EE00E600E300E180E180E0C0E060EFA
:10141000FE7FFE7F000E000E000E000E000E00008C
:10142000000000000000000000000000F03FF03F5E
:10143000F03F30003000300030003000F003F00F9B
:10144000001E003C003800380038003C101EF00F31
:10145000F003000000000000000000000000000099
:10146000801FE03FF0207000380038001C009C0F07
:10147000DC1F7C3C3C781C701C701C703870383849
:101480007038F01FC00700000000000000000000DE
:1014900000000000F83FF83FF83F00180018000C6B
:1014A000000C00060002000380018001C000C000A3
:1014B000600060007000300030000000000000009C
:1014C0000000000000000000C007F00F781E381C6C
:1014D000381C381C780CF00FE003F00F381F181E72
:1014E0001C3C1C381C381C38381CF00FE00700006E
:1014F000000000000000000000000000C007F01F16
:10150000381C38381C381C701C701C703C78787C77
:10151000F077E073007000380038001C081EF80FE8
:10152000F0030000000000000000000000000000C8
:1015300000000000000000000000C003C003C00362
:10154000C003000000000000000000000000C00315
:10155000C003C003C0030000000000000000000042
:101560000000000000000000000000000000C003B8
:10157000C003C003C0030000000000000000000022
:101580000000C003C003C003C00300038003800148
:10159000C00000000000000000000000000000008B
:1015A000000000400070003C000FC003F0003C0051
:1015B0003C00F000C003000F003C00700040000041
:1015C000000000000000000000000000000000001B
:1015D000000000000000000000000000FE7FFE7F11
:1015E000000000000000FE7FFE7F00000000000001
:1015F00000000000000000000000000000000000EB
:101600000000000000000000000002000E003C008E
:10161000F000C003000F003C003C000FC003F000CE
:101620003C000E000200000000000000000000006E
:1016300000000000F807FC1F0C3C0C380038003894
:10164000001C001E000F80078003C001C001C00104
:1016500000000000C001C001C00100000000000047
:101660000000000000000000C00FE01F70381830BC
:101670001C3E0C318E31C630C630C638C638C63C2A
:10168000C6348EF78CF31C003808F00FC00700003A
:10169000000000000000000000000000000000004A
:1016A0000000C001C003E003600760077006300E51
:1016B000380E381C181CFC3FFC3F0E380E700E70A4
:1016C00007E0000000000000000000000000000033
:1016D000000000000000FC07FC0F1C1E1C1C1C1C52
:1016E0001C0EFC07FC071C1E1C3C1C381C381C383C
:1016F0001C3CFC1FFC070000000000000000000074
:1017000000000000000000000000C01FF03F783023
:101710003C001C000E000E000E000E000E000E001D
:101720001C003C007820F03FC01F000000000000BB
:101730000000000000000000000000000000FC07A6
:10174000FC0F1C3C1C381C781C701C701C701C701E
:101750001C701C701C381C381C1EFC0FFC03000085
:101760000000000000000000000000000000000079
:101770000000F83FF83F38003800380038003800E3
:10178000F81FF81F38003800380038003800F87F9C
:10179000F87F0000000000000000000000000000D2
:1017A000000000000000F87FF87F380038003800A3
:1017B00038003800F83FF83F38003800380038006B
:1017C0003800380038000000000000000000000071
:1017D00000000000000000000000C01FF03F783053
:1017E0003C001C000E000E000E000E3F0E3F0E3897
:1017F0001C383C387838F03FC01F00000000000063
:1018000000000000000000000000000000001C3884
:101810001C381C381C381C381C381C38FC3FFC3F5A
:101820001C381C381C381C381C381C381C3800006C
:1018300000000000000000000000000000000000A8
:101840000000FC1FFC1FC001C001C001C001C0019D
:10185000C001C001C001C001C001C001C001FC1F26
:10186000FC1F00000000000000000000000000005D
:10187000000000000000F80FF80F000E000E000E30
:10188000000E000E000E000E000E000E000E000EE8
:101890000407FC03FC010000000000000000000041
:1018A000000000000000000000001C781C3C1C1E12
:1018B0001C0F1C079C03DC01FC00DC01DC039C0703
:1018C0001C0F1C1E1C3C1C781CF8000000000000B3
:1018D00000000000000000000000000000003800D0
:1018E0003800380038003800380038003800380038
:1018F00038003800380038003800F83FF83F000062
:1019000000000000000000000000000000000000D7
:1019100000000E381E3C1E3C1E3C3636363636362F
:10192000663266336633C631C631C631063006309C
:101930000630000000000000000000000000000071
:101940000000000000001C301C303C307C307C303B
:10195000FC30EC31CC31CC338C370C3F0C3E0C3EA0
:101960000C3C0C380C3800000000000000000000A7
:1019700000000000000000000000E007F00F381C2D
:101980001C381C380E700E700E700E700E700E70BB
:101990001C381C38381CF00FE00700000000000065
:1019A0000000000000000000000000000000F81F20
:1019B000F83F38783870387038703878383CF81F0D
:1019C000F8073800380038003800380038000000C8
:1019D0000000000000000000000000000000000007
:1019E0000000E007F00F381C1C381C380E700E7019
:1019F0000E700E700E700E701C381C38381CF00FF4
:101A0000E007001E007800F0004000000000000029
:101A1000000000000000FC07FC0F1C1E1C1C1C1C0E
:101A20001C1C1C0EFC07FC039C071C071C0F1C1E27
:101A30001C3C1C381C780000000000000000000066
:101A400000000000000000000000E00FF81F3C183C
:101A50001C001C003C00F800F007C01F003E0038CE
:101A6000003800380C1CFC1FF007000000000000CC
:101A70000000000000000000000000000000FF7FE8
:101A8000FF7FC001C001C001C001C001C001C00191
:101A9000C001C001C001C001C001C001C0010000FF
:101AA0000000000000000000000000000000000036
:101AB00000001C701C701C701C701C701C701C7052
:101AC0001C701C701C701C701C703C783838F01F27
:101AD000E00F000000000000000000000000000017
:101AE00000000000000007E00E700E701C701C3833
:101AF0003C383838381C701C700CE00EE00EE007E3
:101B0000C007C007800300000000000000000000C4
:101B10000000000000000000000003C003C007C078
:101B20008661C663C663C663C6634E766C366C3622
:101B30006C362C3E3C3C3C1C3C1C00000000000071
:101B400000000000000000000000000000001EE097
:101B50003C707838781CF00EE007C003C003C00763
:101B6000E007600F301E183C1C380E7807F00000AC
:101B70000000000000000000000000000000000065
:101B8000000007E00E701C301C18381C780E70071F
:101B9000E003E003C001C001C001C001C001C001F9
:101BA000C001000000000000000000000000000074
:101BB000000000000000FC3FFC3F0038001C000E4D
:101BC000000780038001C000E000700038001C00A6
:101BD0000E00FE3FFE3F000000000000000000007D
:101BE0000000C03FC03FC001C001C001C001C00132
:101BF000C001C001C001C001C001C001C001C001DD
:101C0000C001C001C001C001C001C001C001C03F8E
:101C1000C03F0000000006000C000C001800180077
:101C20003000300060006000C000C0008001800112
:101C30000003000300060006000C000C001800184A
:101C400000300030006000000000FC03FC03800353
:101C5000800380038003800380038003800380036C
:101C6000800380038003800380038003800380035C
:101C7000800380038003FC03FC03000000000000DD
:101C80000001000180038003C003C006E006600C71
:101C9000300C3018181818180C300C300660000082
:101CA0000000000000000000000000000000000034
:101CB0000000000000000000000000000000000024
:101CC0000000000000000000000000000000000014
:101CD00000000000000000000000FFFFFFFF000008
:101CE00000000000C00180030007000000000000A9
:101CF00000000000000000000000000000000000E4
:101D000000000000000000000000000000000000D3
:101D100000000000000000000000000000000000C3
:101D2000000000000000E007F80F181E001C001C57
:101D3000E01FF01F381C1C1C1C1C1C1C3C1EF87BCC
:101D4000F0780000000000000000000000001C000F
:101D50001C001C001C001C001C009C07DC1F7C1CC1
:101D60003C381C381C381C381C381C381C381C1CCF
:101D70003C1EFC0FCC07000000000000000000002B
:101D80000000000000000000000000000000C01F74
:101D9000F03F782038001C001C001C001C001C00B8
:101DA0003C003800F820F03FC01F00000000000099
:101DB00000000000000000700070007000700070F3
:101DC0000070C073F07F787C38701C701C701C70C1
:101DD0001C701C701C703C78387CF077E07300003D
:101DE00000000000000000000000000000000000F3
:101DF000000000000000C007F00F781C38381C38C5
:101E00001C38FC3FFC3F1C001C0038007820F03FD1
:101E1000C01F00000000000000000000000000FFE4
:101E200080FFC003C001C001C001FC7FFC7FC00176
:101E3000C001C001C001C001C001C001C001C0019A
:101E4000C001C001C001000000000000000000004F
:101E50000000000000000000000000000000C0734F
:101E6000F07F787C38701C701C701C701C701C70AB
:101E70001C703C78387CF077E07300700038183CB8
:101E8000F81F000700001C001C001C001C001C00A8
:101E90001C001C0FDC1F7C3C3C381C381C381C38D8
:101EA0001C381C381C381C381C381C381C380000E6
:101EB0000000000000000000000080038003800399
:101EC000000000000000FC03FC038003800380038B
:101ED00080038003800380038003800380038003EA
:101EE0008003000000000000000000000000000E61
:101EF000000E000E000000000000F80FF80F000EAA
:101F0000000E000E000E000E000E000E000E000E61
:101F1000000E000E000E000E000E0407FC07F80174
:101F20000000380038003800380038003800383CED
:101F3000381E380E380FB807B803F803B803B807CF
:101F4000380F380E381E383C38780000000000008A
:101F5000000000000000F807F8070007000700076E
:101F60000007000700070007000700070007000739
:101F70000007000700070007000700070007000030
:101F80000000000000000000000000000000000051
:101F9000000000000000CE31EE79FE7F9E779E7338
:101FA0008E738E738E738E738E738E738E738E7329
:101FB0008E73000000000000000000000000000020
:101FC000000000000000000000001C0FDC1F7C3C33
:101FD0003C381C381C381C381C381C381C381C3841
:101FE0001C381C381C3800000000000000000000F5
:101FF0000000000000000000000000000000E003FE
:10200000F80F3C1E1C1C0E380E380E380E380E38D9
:102010000E381C1C3C1EF80FE003000000000000FE
:1020200000000000000000000000000000000000B0
:1020300000009C07DC1F7C1C3C381C381C381C38FA
:102040001C381C381C381C1C3C1EFC0F9C071C0038
:102050001C001C001C001C00000000000000000010
:10206000000000000000E039F83F3C3E1C380E380C
:102070000E380E380E380E380E381E3C1C3EF83B1B
:10208000F038003800380038003800380000000010
:1020900000000000000000000000703E703FF031C2
:1020A000F030700070007000700070007000700000
:1020B00070007000700000000000000000000000D0
:1020C0000000000000000000000000000000E00F21
:1020D000F01F781038003800F801F007801F003C2E
:1020E00000380038183CF81FF0070000000000001E
:1020F0000000000000000000000000000000E00000
:10210000E000FC3FFC3FE000E000E000E000E00019
:10211000E000E000E000E000E001C03F803F0000A0
:1021200000000000000000000000000000000000AF
:102130000000000000001C381C381C381C381C38FB
:102140001C381C381C381C381C381C3C3C3EF83BE6
:10215000F038000000000000000000000000000057
:10216000000000000000000000001E701C381C3839
:102170003C383818381C701C700CE00EE00EE0067D
:10218000C007C0078003000000000000000000003E
:10219000000000000000000000000000000003C07C
:1021A00087C38743C663C66346626E666E266C3617
:1021B0002C363C3C3C3C3C1C181C00000000000041
:1021C000000000000000000000000000000000000F
:1021D00000001E303C18780C700EF006E003C003BF
:1021E000C003E007700F300E381E1C3C0E78000054
:1021F00000000000000000000000000000000000DF
:102200000000000000001E701C301C383818381CFC
:10221000781C700EF00EE007E007C003C003C00199
:102220008001C001C000E0007C003C000000000014
:1022300000000000000000000000FC3FFC3F0038F0
:10224000001C000E00078003C001E0007000380091
:102250001C00FC3FFC3F00000000000000000000EC
:102260000000001F801FC003C001C001C001800327
:10227000800380038003C001F800F800C0018003E0
:10228000800380038003C001C001C001C003801F20
:10229000001F00000000800180018001800180019A
:1022A0008001800180018001800180018001800126
:1022B0008001800180018001800180018001800116
:1022C000800180018001000000007C00FC00E00132
:1022D000C001C001C001E000E000E000E000C0017A
:1022E000800F800FC001E000E000E000E000C001CE
:1022F000C001C001E001FC007C0000000000000003
:1023000000000000000000000000000000000000CD
:10231000000000007860FC63C63F061E000000005D
:1023200000000000000000000000000000000000AD
:1023300011241FBECFEFD8E0DEBFCDBF21E0A0E06B
:10234000B1E001C01D92A63EB207E1F70E947C3ABF
:102350000C94A13D0C94000090919F01981303C030
:102360008091A20108959091A001891303C08091EA
:10237000A30108958091A401089580E00E9417228E
:1023800081E00E94172282E00E9417228DE30E94C2
:10239000673980E00E941B2281E00E941B2282E0BC
:1023A0000E941B220895A3E0B0E0E9EDF1E10C9456
:1023B000E83C89836A834B83CE0101967C0110E05F
:1023C000F70101917F01002351F0812F0E94172214
:1023D0000E942822802F0E9467390E9420221F5FBE
:1023E000133071F72396E6E00C94043D8CE392E001
:1023F0000E94082285E392E00E9431228EE08093C1
:10240000090183E00E94DD2380919D018F5F80930D
:102410009D010895809101018130C9F481EE91E020
:102420000E9408220E94E621809106010E94172244
:102430000E9428220E9420226091070170910801C9
:1024400080E090E026E54DEF0E94D9220895823089
:1024500011F40E94F6110895CF93C62F0E94673998
:1024600082EC90E00E9408228C2F0E9467390E9423
:102470002022EBE0F1E0638174818581968124E084
:1024800042810E94D922CF910895A0E0B0E0EBE410
:10249000F2E10C94E63C80910401813039F4F09033
:1024A0000B0100E010E0CBE0D1E05BC0833009F02D
:1024B0004CC000910E0110910F012091100130913C
:1024C0001101609115017091160180911701909191
:1024D0001801E0900D01409114010E94971781307E
:1024E00029F422E1C22E21E0D22E04C09BE0C92EA5
:1024F00091E0D92EF6010381148125813681609106
:102500001C0170911D0180911E0190911F01E280BC
:1025100040911B010E949717813021F489E1C82E58
:1025200081E0D82EFBE0CF16F1E0DF0619F4C2E11E
:10253000D1E002C0CBE0D1E08E01095F1F4FC01691
:10254000D10639F4095F1F4F04C002E111E0CBE06E
:10255000D1E08881F801F0808F1519F0F1808F119A
:10256000F9800E9483228881F81201C089810E942B
:10257000172282EC90E00E9408228F2D0E941722E1
:102580000115110561F082EC90E00E940822F8012B
:102590008081F81202C0F80181810E9417220E94F6
:1025A00071220E94E6216B817C818D819E8124E0D5
:1025B0004A810E94D9220115110551F00E94202262
:1025C000F801638174818581968124E0428112C083
:1025D000CE010E942635813079F40E94202260913C
:1025E000D8017091D9018091DA019091DB0128E442
:1025F0004091D7010E94D922CDB7DEB7E8E00C9414
:10260000023DEF920F931F93CF93DF930091480108
:102610001091490120914A0130914B01609156017E
:10262000709157018091580190915901E0904701B4
:10263000409155010E949717813019F4C3E5D1E00C
:1026400002C0C5E4D1E00B811C812D813E816091E7
:102650006401709165018091660190916701EA8043
:10266000409163010E949717813011F4C1E6D1E0D7
:102670000E94832288810E9417228FEC90E00E94A2
:10268000082289810E9417220E9471220E94E6215D
:102690006B817C818D819E8126E44A810E94D922B2
:1026A000CE010E94D1278C010F3F8FEF180749F010
:1026B0000E942022B80180E090E024E04EEF0E94CA
:1026C000D9228B859C85892B61F086EE90E00E9453
:1026D0003C226B857C8580E090E021E44D850E9462
:1026E000D922DF91CF911F910F91EF900895EF9232
:1026F0000F931F93CF93DF93EC016091B001709122
:10270000B1018091B2019091B30127EFE22E02E373
:1027100010E020E030E04091B4010E94971787FD5F
:1027200010C0CE010E943C226091B0017091B101B5
:102730008091B2019091B30121E44091B4010E94D3
:10274000D922DF91CF911F910F91EF90089540E032
:10275000FC01608181810E94B92BE5E4F1E0638195
:1027600074818581968126E442810E94D922089550
:10277000CF93C62F0E941B2281E00E9467398C2FC5
:102780000E941B22CF910895A0E0B0E0EAECF3E1B3
:102790000C94E53C0E94832280910501813051F424
:1027A000E0907001E5E0DE2EF5E0FF2E85E000E030
:1027B00010E01FC18230F1F4F0906F01D0907501EC
:1027C000C0907001E0907601FD1006C0DE2C75E02F
:1027D000E72EBB24B3945AC0CE1409F407C1FE10EF
:1027E000FFC0DC10FDC0EF2C35E0D32E45E0C42E39
:1027F000B12C4CC0833009F03FC080E066E0282F48
:1028000030E090E0629FF001639FF00D1124E059E9
:10281000FE4F492F50E0981769F0649FD001659FE3
:10282000B00D1124A159BE4FC0817C91C71302C0C5
:1028300095E085E09F5F933060F38F5F8330F8F21F
:10284000853048F086E0849F8001859F100D11241B
:1028500001591E4F02C000E010E086E0829FE001B7
:10286000839FD00D1124C159DE4FE98055E0D52E4C
:1028700065E0F62E83E0BFC08BEC90E00E942C2236
:1028800080910501805D0E946739BCC082E08F1590
:1028900090F0809170010E94172287EC90E00E94D6
:1028A00008228F2D0E941722CFE6D1E005E711E024
:1028B000EF1017C01BC005E711E0CFE6D1E088811B
:1028C0000E9417228BEC90E00E9408228E2D0E941D
:1028D00017220115110599F0FE1441F0F3E0FF15E0
:1028E00028F0F801E1808BEC90E004C0F801E08072
:1028F00087EC90E00E9408228E2D0E9417220E94F1
:102900007122F4E0FC15F8F049E16D2D8C2D0E9448
:102910008F278130C1F40E94202282E08F1518F0A9
:102920008FE491E002C083E591E00E9408228FE3EA
:102930000E9467390E94E62161E36D0D81E38C0DF1
:102940000E942C12B12C8AE391E00E943C226A8101
:102950007B8180E090E026E54DEF0E94D9220E9425
:1029600020220115110529F58C819D818A3F910551
:1029700060F488E20E9467396C817D8180E090E09C
:102980000E946E2389E20E946739688189810E94D2
:102990002A1F81E00E94902C80E391E00E9477132F
:1029A000E1E0BE122FC088E391E00E943C22CE01FC
:1029B00027C0F8016281738180E090E026E54DEF49
:1029C0000E94D922F1E0BF121DC088E391E00E946D
:1029D0003C22CE010E94A7130E942022C80110C0F1
:1029E00085E0D82E95E0F92E25E0E22E85E005E77A
:1029F00011E0CFE6D1E0CF2CF82EBB24B3945FCF0B
:102A00000E94A713CDB7DEB7E9E00C94013D8F9289
:102A10009F92AF92BF92EF92FF920F931F93CF932B
:102A2000DF938091010190919F01C091A101D0910C
:102A3000A00180FF09C0192F0D2F7801DC2F93E52D
:102A4000A92E91E0B92E08C01C2FC92F7E01012F9D
:102A50008FE4A82E81E0B82E60EE7FEF88EC91E045
:102A60000E946C2260EE7FEFC5010E945922809186
:102A7000010182FF03C08BE20E9467390E94E621B8
:102A80000E94BD11602F8D2F0E94F32C892B31F0F5
:102A90000E942022602F8D2F0E94B81349E1612FE0
:102AA0008C2F0E948F27813049F40E94E62165E433
:102AB00082E40E942C1284E080932A018BE491E04E
:102AC0000E943C226091AC017091AD018091AE01F9
:102AD0009091AF010E946E230E9420228091A50157
:102AE00080FF02C085E603C081FF03C083E60E9429
:102AF00067396C2F812F0E94F32C8C01892BA1F157
:102B000087E491E00E943C22F801C281D3812481B4
:102B100035818090AC019090AD01A090AE01B09055
:102B2000AF01F4E68F169104A104B10498F0CE0130
:102B3000821B930B63E070E00E94603C8AEF881672
:102B40009104A104B10418F4C61BD70B03C0EB0118
:102B5000C20FD31FCE01A0E0B0E026E54DEFBC01CF
:102B6000CD010E94D92202C0C0E0D0E08DE391E007
:102B70000E947713C53FD140E0F06E2D8F2D0E944B
:102B8000F32CEC01892BA9F08A819B81823C914036
:102B900080F40E94E6216E2D8F2D0E94B8130E94B2
:102BA00020226A817B8180E090E026E54DEF0E9443
:102BB000D922DF91CF911F910F91FF90EF90BF909D
:102BC000AF909F908F9008950F931F93CF93DF93B3
:102BD000909101018091A101C091A00190FF02C0DC
:102BE000D82F02C0DC2FC82F6C2F8D2F0E94F32C02
:102BF0008C01892B31F00E9420226C2F8D2F0E9496
:102C0000B8138091010182FF3BC08091A80190918F
:102C1000A901892B81F084E391E00E943C2260911C
:102C2000A8017091A901072E000C880B990B26E5CD
:102C30004DEF0E94732387E591E00E943C22609152
:102C4000B5017091B6018091B7019091B80126E469
:102C50004091B9010E94D9228091A6019091A701CB
:102C6000892B71F082EE90E00E943C226091A601D7
:102C70007091A70180E090E024E04EEF0E94D922FD
:102C800001151105A1F00E94E62181E00E9467393B
:102C90000E9420228AE391E00E942C22F8016281A6
:102CA000738180E090E026E54DEF0E94D922DF910C
:102CB000CF911F910F9108950E94202280910101D0
:102CC00080FF02C08EE401C080E50E9467398AE679
:102CD00091E00E94082208950E9420228091010123
:102CE00082FF03C085E691E002C080E691E00E9489
:102CF000082208950E9483228091010184FF05C06B
:102D000082E791E00E94082203C08AE40E946739AA
:102D10008EE691E00E9408220E945C1680910101DB
:102D200084FD0E946C160E9471220E94E6210E947E
:102D3000BD110E94E4158091010183FF1EC08AEE3F
:102D400090E00E9477138091AA019091AB01892BAA
:102D5000A1F088ED90E00E943C220E94E6210E94B2
:102D600020226091AA017091AB01072E000C880B04
:102D7000990B26E54DEF0E94732308950E9483224C
:102D80008BE591E00E9408220E945C160E946C165E
:102D90000E9471220E94E6210E94BD110E94E4154A
:102DA00008958091000160EE7FEF823219F484EC87
:102DB00091E002C08EEB91E00E9459220E94E62130
:102DC0000E94BD118091A6019091A701892B71F0FD
:102DD00082E491E00E943C226091A6017091A701DB
:102DE00080E090E026E54DEF0E94D9220895CF9330
:102DF000DF9360EE7FEF8AEB91E00E9459220E9400
:102E0000E6210E94BD118DE291E00E943C22C2E3C6
:102E1000D1E06D817E8180E090E026E54DEF0E945B
:102E2000D9228AE391E00E943C226B817C8180E080
:102E300090E026E54DEF0E94D922DF91CF910895D1
:102E400060EE7FEF8EEA91E00E9459220E94E62117
:102E50000E94BD1183ED90E00E943C22EBE0F1E086
:102E6000638174818581968124E042810E94D92208
:102E70000895CF93DF938EE00E94591EC3E9D1E0FD
:102E80009F838E8388EC8B838EE00E94591E209155
:102E9000D301820F911D27FD9A959F838E8389E12F
:102EA0008B83DF91CF9108950E949C388FEF97E03C
:102EB000909327018093260185EB91E00E940822E0
:102EC000F8940FB6F894A89580916000886180937B
:102ED0006000109260000FBE83B7817F846083BF63
:102EE00083B7816083BF889583B78E7F83BF089542
:102EF000CF92DF92EF92FF92CF93C1E02AE0C22EF1
:102F0000D12CE12CF12C6A3071058105910540F03E
:102F1000A70196010E94743CCA01B901CF5FF3CFAB
:102F20008C2FCF91FF90EF90DF90CF900895A0E08D
:102F3000B0E0EDE9F7E10C94DD3C4B015C01342E8F
:102F4000280139011E2D9B01AC01D1E09AE0C92E68
:102F5000D12CE12CF12C2A3031054105510540F0EE
:102F6000CA01B901A70196010E94743CDF5FF3CF4B
:102F7000A3019201C1E08AE0C82ED12CE12CF12CF2
:102F80002A3031054105510540F0CA01B901A701B8
:102F900096010E94743CCF5FF3CF81149104A10489
:102FA000B10459F1411451046104710409F1432D34
:102FB0004D0FE12EEC0EE4164CF14E1129C0ED2F11
:102FC000CD1754F4AAE0B0E0A30192010E94D13CD5
:102FD0002B013C01CF5FF4CFEC1754F4AAE0B0E032
:102FE000A50194010E94D13C4B015C01EF5FF4CF3D
:102FF000481459046A047B0448F081E08414950461
:10300000A604B70408F080E0819503C081E001C008
:103010008FEFCDB7DEB7E1E10C94F93CCF92DF92B0
:10302000EF92FF92CF93DF93C42FD22F2AE0C22ECC
:10303000D12CE12CF12CCD1791F0CD1744F4A70140
:1030400096010E94743CCA01B901CF5FF4CFAAE097
:10305000B0E09B01AC010E94D13CC150ECCFDF91AC
:10306000CF91FF90EF90DF90CF9008951F93CF9373
:10307000DF931AB18AB18E7D8AB90E946B3AC0E0A3
:10308000D0E089B18095982F917269F080FDDF5F63
:1030900085FDCF5F8D2F8C0F8A3038F48EE190E064
:1030A0000E94131BEECF90E001C092E0DD23A9F057
:1030B000C1111DC084E020912F01281308C0923057
:1030C00031F490913101973018F49F5F01C091E085
:1030D000909331019093300103C0C11106C080E08C
:1030E0001AB9DF91CF911F91089585E0E4CF86E072
:1030F000E2CFA0E0B0E0EFE7F8E10C94E43C6C0133
:10310000062F81E0809330018091940185FF04C0F7
:1031100088E7E82EF12C02C0E12CF12C02FF08C058
:103120008091930180FD02C00C7F02C0C12CD12C84
:10313000802F8370B82E19F081E00E94D939C0E049
:10314000D1E010E0802F8270A82E0870C114D10445
:1031500049F086E0C816D10420F085E0C81AD108ED
:1031600001C0D0E04F9935C08EE190E00E94131B62
:10317000C0E0DD2311F04F9B04C0CB3108F04CC000
:1031800008C0CF5FCB31C8F78AE090E00E94131BE4
:10319000F0CF002309F443C082E390E00E94131BA8
:1031A000C4E111E04F990CC08EE190E00E94131B26
:1031B0004F9906C088EC90E00E94131BC1E013E019
:1031C000C1508AE090E00E94131BC111EBCFD0E008
:1031D0002EC00E943618811137C085E090E00E9411
:1031E000131BCF5FC43619F5AA2059F0D13029F44A
:1031F00080E00E94D939D2E004C081E00E94D93930
:10320000D1E0E114F10471F081E0E816F10461F01D
:1032100081E0E81AF10806C0D0E012E008C0D0E072
:1032200011E005C0C0E003C0C0E0D0E017E6809127
:10323000940180FF06C0809194018E7F8093940159
:1032400004C0D11183CF01C0182FBB2019F080E03A
:103250000E94D93910932F01173611F40E94541788
:10326000812FCDB7DEB7EAE00C94003D65E188EB35
:103270009BE00E94791808950F931F93CF93DF93DB
:10328000D82F882321F009EF11E0C3E003C000E04C
:1032900012E0C0E00E94731FC817E9F00E949C383A
:1032A000C8010E9408228AEE91E00E9431220E9409
:1032B000731FC81305C088EC90E00E94131B0BC05D
:1032C00060E184E690E00E947918D13081F788238C
:1032D00071F380E001C081E0DF91CF911F910F91E8
:1032E0000895681310C080EE9FEF9093270180939C
:1032F00026018AE20E94673980EE97E090932701C9
:103300008093260108950E9420220895A0E0B0E055
:10331000ECE8F9E10C94DF3C762E642E552E590131
:103320000FEF080F90902401DD24DA94D90C0E944D
:1033300083220E9428220E94712212E0D0E0C0E085
:103340009A949A9481E0882E8D1881E0D81202C058
:103350001F5FDC2FE62CF52CED0EF11CED0EF11CA1
:10336000C12CCD1488F562E06C0D81E00E94093813
:10337000E1E0DE1629F06C2F8D2F8C0D0E94711963
:103380001130D1F0F1E07F1206C0F7018081918108
:103390000E94082208C0C7010E94833DBC0180E052
:1033A00090E00E946E23A114B10419F0C5010E949F
:1033B000082280E00E943438F2E0EF0EF11CC39442
:1033C0000C1578F6CD2CCDCF81E0D81209C06091D4
:1033D0002401809123010E9409388CE30E946739FF
:1033E00060E180E090E00E947918813091F18430B2
:1033F000D1F0853089F4C11106C00D1538F1D82DF2
:10340000D00FC02F07C0C150DC1321C0CD2FDD234A
:10341000F1F0D15012E099CF8230D9F08736B9F46B
:103420000E94541714C00C1304C00D1558F012E07C
:103430000AC0CF5F892D8D0FC81309C0C01738F49B
:10344000DF5FE8CF11E0D0E0C0E07FCFC02F11E018
:103450007CCF0E949C3884EF91E00E94131B8C2F3C
:10346000CDB7DEB7EFE00C94FB3CA9E0B0E0EBE3B6
:10347000FAE10C94EB3C182F82EF90E09A83898359
:1034800081E08F838FEE90E09C838B8382E088873E
:1034900085ED91E09E838D8319860E949C3860EEB5
:1034A0007FEF123019F488E192E002C083E192E0EC
:1034B0000E94592220E030E0AE014F5F5F4F61E093
:1034C00083E00E948619FE01E80FF11D67816623E3
:1034D00019F0812F0E94A31B2996E3E00C94073D6D
:1034E000A5E1B0E0E6E7FAE10C94EC3C82EA91E079
:1034F0009A83898383E18F878DE791E09C838B8317
:1035000089E2888B8DE192E09E838D8382E0898BB6
:1035100088E192E098878F8383E08A8B83E192E051
:103520009A87898784E08B8B87E092E09C878B87E2
:1035300085E08C8B85ED91E09E878D871D8A0E94AA
:103540009C3860EE7FEF88E292E00E94592220E0F2
:1035500030E0AE014F5F5F4F61E087E00E94861967
:10356000FE01E80FF11D87856596E2E00C94083DA9
:10357000CF930E94701A9091930190FF15C0909183
:1035800094019F7D909394018430D9F030F482307F
:1035900081F0A8F4882359F130C08331F9F08932E1
:1035A00001F18530C1F029C0843059F070F48230C7
:1035B00021F40E94461CC82F1BC08330B0F082E06B
:1035C00001C081E00E94351A0EC0833139F0893282
:1035D00041F08530C9F40E94DA1B05C00E946D36A7
:1035E00002C00E947937C1E003C081110DC0C9E655
:1035F0008091930180FD02C008C0C1E080919401D8
:1036000080628093940101C0C1E00E949C38C11186
:1036100003C08AED91E002C08FE292E00E9408228E
:103620008C2FCF91089520919501A0E0B0E0F4E0B7
:10363000880F991FAA1FBB1FFA95D1F72630D1F426
:10364000492F5A2F6B2F77274F5F5F4F6F4F7F4F59
:10365000E4E0440F551F661F771FEA95D1F748171E
:1036600059076A077B0728F4841B950BA60BB70B39
:1036700001C020E01092B1001092B20032E030930D
:10368000B0003093700033B7317F232B23BF0FB6C8
:1036900007FC03C0789430E001C031E047E00097B8
:1036A000A105B105F9F0A8958F3F9105A105B105D8
:1036B00009F010F4282F01C02FEF821B9109A109F6
:1036C000B10921502093B3004093B1002091B10083
:1036D000222329F323B7216023BF889523B72E7FA8
:1036E00023BFF4CF311101C0F89408951F920F92B7
:1036F0000FB60F9211241092B1000F900FBE0F90D1
:103700001F901895ECECF1E088EC90E091838083B9
:103710008CED90E09383828384E190E095838483B1
:103720008BE286831782108611860895ECECF1E017
:1037300080E09191890F91E0E63DF907D1F7811181
:1037400001C081E008951F93CF93DF93182F62305B
:1037500019F0C8E7D2E002C0CDE6D2E00E94961B85
:103760008093D6014BE050E0BE018CEC91E012302A
:1037700019F40E94893D1AC00E946B3D0E94961B5D
:103780009091D601992391F0891781F00E949C387D
:103790008CEC91E00E9408228AED91E00E94312297
:1037A00080ED97E00E94131B0E94821BDF91CF9156
:1037B0001F9108950F931F93CF93DF9381E0809320
:1037C00020010E949C388CE191E00E942C22CCECDC
:1037D000D1E06881798180E090E024E04FEF0E94A1
:1037E000D92288E191E00E943C226A817B8180E0BD
:1037F00090E024E04FEF0E94D92282E091E00E9405
:103800003C226E8170E080E090E026E444EF0E946C
:10381000D9228FEF90E00E943C226C817D8180E074
:1038200090E024E04EEF0E94D92288E291E00E94CD
:103830003C2203E911E0F8016681778180E090E0A5
:1038400026E54DEF0E94D9228BEF90E00E943C22AA
:10385000F8016085718580E090E026E54DEF0E94DB
:10386000D92285EF90E00E943C226885062E000C4C
:10387000770B880B990B26E54DEF0E9473230E946E
:103880003619DF91CF911F910F910895A5E0B0E017
:10389000ECE4FCE10C94DC3C81E00E943C19612CDE
:1038A000712C1B82A12CB12C1A82C12CD12C412C41
:1038B000882309F478C1812C912C212CE12CF12C46
:1038C00000E010E01D821C8262E0562E3324339407
:1038D00021E029830E949C380E94832281E40E9477
:1038E000673980E3850D0E9467390E9471220E942A
:1038F000202234E0531609F44EC0351568F082E0FA
:10390000581699F093E0591205C180E00E943C19C5
:1039100080E094E69983FFC025E0521609F464C064
:1039200036E0531609F49FC0F5C08FEF90E00E9477
:103930002C2285E091E00E94082260E081E00E9454
:103940002A1F80E00E9456249D838C83863991052E
:1039500018F4C80ED91E439460E082E00E942A1F2A
:1039600080E00E9456248C018639910518F4C80E17
:10397000D91E439461E082E00E942A1F80E00E94E9
:1039800056247C0186E9E816F10408F0C3C0CE0C89
:10399000DF1C4394BFC08CE191E00E94082218B85C
:1039A00037B835B834B880E00E94BA1E9D838C8346
:1039B00022E027B955B854B881E00E94BA1E8C01A4
:1039C0008C819D81800F911FA80EB91E57B830E1E0
:1039D00035B934B982E00E94BA1E7C01A80EB91E26
:1039E0008A818D5F8A8396C088E191E00E940822D7
:1039F00015B838B837B834B820919B0130919C0184
:103A00003D832C8380E00E94BA1E2C813D81281BBF
:103A1000390B3D832C8332E038B937B984E084B95F
:103A200000919B0110919C0181E00E94BA1E081B2D
:103A3000190B8C819D81800F911F680E791E94E077
:103A400098B997B920E124B9E0909B01F0909C01CE
:103A500082E00E94BA1EE81AF90A6E0C7F1C3B81B4
:103A60003D5F3B8357C082E091E00E942C2285E0BD
:103A700091E00E94082240E060E081E00E94B92BC2
:103A800080914701843F91F480914C0190914D01C8
:103A9000A0914E01B0914F0185369105A105B10568
:103AA00028F49D838C83880E991E239441E060E066
:103AB00082E00E94B92B80915501843F89F4809166
:103AC0005A0190915B01A0915C01B0915D01853636
:103AD0009105A105B10520F48C01880E991E23944F
:103AE00042E061E082E00E94B92B80916301843F53
:103AF00089F48091680190916901A0916A01B09167
:103B00006B0185369105A105B10520F47C01880E75
:103B1000991E239481E017B818B814B815B88823F3
:103B2000B9F00E94E6212C813D81B90180E090E04E
:103B30000E946E230E942022B80180E090E00E9443
:103B40006E230E942022B70180E090E00E946E2345
:103B50003981343681F060E188EE93E00E94791873
:103B6000882349F0823029F454E6552E84E689836F
:103B700002C094E6998329812F5F2983263008F4B7
:103B8000A9CE539436E0351508F0A2CE8FE0281266
:103B90000AC0C4016FE070E00E944C3C6093D20107
:103BA00091E0998301C019822FE042120CC0C60136
:103BB0006FE070E00E944C3C7093D1016093D001A3
:103BC00039813F5F39833A813F3009F069C08B8189
:103BD0008F3009F062C0E5E0F0E0C501BF010E944E
:103BE0004C3C9B01C301BF010E944C3C8B01809166
:103BF0009B0190919C016C01CC0CDD1CC80ED91E60
:103C0000C21AD30AC61AD70AE12CF12CD90120EA2C
:103C100039E041E050E00E94D13CA70196010E94AA
:103C2000743CCA01B9016B5F7F4F8F4F9F4F2AE0F1
:103C300030E040E050E00E94743C2A3F31054105ED
:103C4000510538F43093CD012093CC0199819F5FC9
:103C50009983D80120EA39E041E050E00E94D13C4C
:103C6000A70196010E94743CCA01B9016B5F7F4FA6
:103C70008F4F9F4F2AE030E040E050E00E94743CBC
:103C8000283181E038074105510538F43093CF01E0
:103C90002093CE0199819F5F99832981243011F06F
:103CA00080E003C00E94DA1B81E02596E2E10C94DB
:103CB000F83CCF93DF938F70C82FC064C0937C0013
:103CC000DC2FD07C80919801D81721F00E946F3AA8
:103CD000D093980180917A00806480937A008091DB
:103CE0007A0086FDFCCF20E030E0A90180E0E09181
:103CF00096018E1708F590917A00906490937A005F
:103D000090917A0096FDFCCF6091780070917900D7
:103D1000260F371F411D511D843061F4211594E099
:103D2000390740F4D03C31F090919701913011F473
:103D3000C06CC4CF8F5FDBCFD03C29F4A091990138
:103D4000B0919A0104C0A0919B01B0919C010E9486
:103D5000D13C2AE096958795779567952A95D1F776
:103D60002E2F30E040E050E00E94743CC901DF910A
:103D7000CF910895CF93C82F0E94663A8C2F0E944E
:103D8000591ECF910895CF93C82F0E94643A8C2F6B
:103D90000E94591ECF910895A0E0B0E0E2EDFEE14F
:103DA0000C94E63CE62E042FCAEBD1E088836983AD
:103DB0004A83C82ED12CC601875F9F4F0E947B3D4E
:103DC0008E83F12CC701875F9F4F0E947B3D8F83BD
:103DD00010E0C801875F9F4F0E947B3D8887C60126
:103DE0008A5F9F4F0E947B3D8987C7018A5F9F4FF3
:103DF0000E947B3D8A87C8018A5F9F4F0E947B3D5E
:103E00008B87C6018D5F9F4F0E947B3D8C87C701CA
:103E10008D5F9F4F0E947B3D8D87C8018D5F9F4FB7
:103E20000E947B3D8E87C601805090400E947B3D62
:103E30008F87C701805090400E947B3D888BC801CE
:103E4000805090400E947B3D898BCDB7DEB7E8E083
:103E50000C94023D43E0481B461B0E94CC1E089573
:103E6000EAEBF1E04581648183810E94CC1E0895D4
:103E7000EAEBF1E080818383818184838281858381
:103E80000895CF93DF930E942A1F17B89091C00125
:103E900095B98091C101892B84B98091C9010E9493
:103EA000BA1EEC018091CA010E94591EAC012091FA
:103EB0009B0130919C0136952795C9014E978C172F
:103EC0009D0760F4225E3F4FC217D30738F4841772
:103ED000950720F481E04217530708F080E014B8FA
:103EE000DF91CF910895CF9361E080E00E94411F60
:103EF000C82F62E080E00E94411FC80F62E081E0AD
:103F00000E94411F8C0FCF9108950F931F93CF9361
:103F1000DF93D82FC62F17B818B814B815B80E9459
:103F20002A1F8091C60187B98091CA010E94591E3B
:103F30008C018091C70187B98091C9010E94591EE7
:103F40000817190720F46D2F8C2F0E942A1F8091CB
:103F5000C60187B98091C10184B9C2E38091CA01C9
:103F60000E94591E9C01203981E0380738F0C15069
:103F700069F084E690E00E94131BF0CF87B1909126
:103F8000C701982B97B92832310588F717B814B8AC
:103F9000DF91CF911F910F910895A6E0B0E0E3ED7E
:103FA000FFE10C94E23C17B818B815B88FE384B958
:103FB00080E00E94591E9A83898381E00E94591EE5
:103FC0009C838B8382E00E94591E9E838D83E12C0B
:103FD00002E018E2FF24F394AA24A394B12C0F5F0B
:103FE000033009F400E0C02ED12C8E2D90E0002E7D
:103FF00002C0959587950A94E2F780FDF0CFC6013F
:10400000805090400E947B3D982E0E94591EF601E0
:10401000EE0FFF1F21E030E02C0F3D1FE20FF31FDA
:10402000208131818217930768F491838083212F47
:1040300030E02F1931092431310564F41B3E50F46E
:104040001C5E08C08A30910518F4183209F410E596
:10405000F39402C0FF24F3948330910540F4C5012A
:104060000C2C01C0880F0A94EAF7E82A0BC08032B2
:10407000934040F487B0C6018D5F9F4F0E947B3D07
:10408000882987B987E0E81681F11F1540F581E09E
:10409000809300018093010100930601C6018D5FAA
:1040A0009F4F0E947B3D97B18095982397B9C60199
:1040B0008A5F9F4F0E947B3D182FC601875F9F4FED
:1040C0000E947B3D94B1812B8095892384B9892DF1
:1040D0000E94591E909308018093070106C0A8957D
:1040E00082E390E00E94131B7ACF14B817B826968B
:1040F000ECE00C94FE3CCF93C82FC09595B160FFC7
:1041000002C0982B01C09C2395B994B1892B84B926
:1041100063FF03C00E946A3A02C00E94653A84B1FC
:104120008C2384B985B1C823C5B9CF910895A0E087
:10413000B0E0EDE9F0E20C94E73C613039F0623038
:1041400071F06330A9F080E090E04DC0CCE4D0E0A5
:10415000E7E0F0E002E310E028EE33E011C0CEE546
:10416000D0E0ECE2F0E009E110E02CE231E008C040
:10417000CCE0D0E0EEE1F0E009E110E028EC30E046
:104180008217930768F1821B930BB8010E944C3C85
:10419000D02ED81ACB019927E817F90708F46E2F0B
:1041A000C60FD11DC60FD11DCE010E94833D7C01DB
:1041B000CE0102960E94833DFC01E81AF90ADE9CBA
:1041C0009001DF9C300D1124C80196958795820FD0
:1041D000931FB8010E944C3CCF01860F971F03C06C
:1041E000D02E60E0DDCFCDB7DEB7E7E00C94033D25
:1041F000CF93DF9390910001913009F4C3C0A8954B
:104200000E94CC1E15B88091C10184B98091C6016D
:1042100087B988B960E18091C2010E947B208091BA
:10422000CA010E94BA1EEC019091C1018091C201A5
:10423000892B84B98091CA010E94BA1E2091C101C4
:1042400024B98C179D0720F48530910508F498C097
:10425000C13D23E0D20700F161E18091C2010E94DB
:104260007B208091CA010E94BA1EEC018091C2019C
:1042700085B99091C101892B84B98091CA010E94AE
:10428000BA1E15B82091C10124B98C179D0720F4DE
:104290008530910508F474C0C031D10560F080917B
:1042A0000201811103C0CE010E94FA30C13D83E0BA
:1042B000D80708F048C08091020181111BC080918D
:1042C000C10184B915B88091C60187B988B90E9427
:1042D000663A9091C1018091C201892B84B9809185
:1042E000CA010E94BA1E8F359D4020F0BE0182E0B7
:1042F0000E94432F8091020181112DC08091C7013E
:1043000087B918B89091C0018091C201892B84B9F6
:1043100085B98091C9010E94BA1E8034964060F42C
:104320000E94C232811108C080910001813221F0C7
:10433000BE0181E00E94432F8091020181110BC0D8
:104340000E94B43308C080910201811102C00E9412
:1043500063330E94062D80910001882311F08A307A
:1043600019F40E94222507C08F3129F480910101A0
:1043700084FD0E94052E17B818B814B815B802C0ED
:10438000EC0199CFDF91CF910895809103018823AB
:10439000E1F09091020190FD18C091FD04C0909150
:1043A00000019E3190F4809300018091320180934E
:1043B0009F01809133018093A0018091340180930B
:1043C000A10180910A01809309010895CF93609122
:1043D000220180912401681315C0C0912001C0FD05
:1043E0000E943619C1FF0BC0C0912401C23028F0D1
:1043F0008C2F0E943438C150F9CF62E004C00E9473
:104400009C3804C06F5F81E00E940938CF91089505
:10441000CF93DF93EC01CE010E947B3D882321F0F6
:104420000E9467392196F7CFDF91CF9108958F5C75
:104430000E94673908950E94AC110E94673908955F
:1044400080E20E94673908958DE20E9467390895DD
:104450008AE30E94673908950E9408220E94202260
:104460000895CF93DF93EC010E94E621CE010E94D4
:104470000822DF91CF910895CF93DF93EC010E9442
:10448000E621CE010E9408220E942022DF91CF91D6
:10449000089582E00E94343862E081E00E94093889
:1044A000089583E00E94343863E081E00E94093877
:1044B00008950F931F93CF93DF93C0E2D1E00E8155
:1044C0001F817F836E830E9408221F830E83DF91EA
:1044D000CF911F910F9108950E9459220E9420228E
:1044E0000895E0E2F1E080859185978386830895C1
:1044F000E0E2F1E0868197819187808780EE9FEFEF
:104500009783868308950E9478220895A0E0B0E002
:10451000ECE8F2E20C94E63C6B017C01D42F022F14
:104520000E9478222AE049E351E0C701B6010E94C7
:104530001F3DE9E3F1E001900020E9F73197CF0159
:1045400089539140F82EDD2369F08D1728F0C82F8C
:10455000CD1BD0E041F401C0D81B80E30E94673935
:10456000C0E001C0C4E689E3C82E81E0D82E10E087
:104570001F1598F41C130AC08CE20E946739DD23D2
:1045800029F080E30E946739D150F9CFF60181917B
:104590006F010E9467391F5FEBCF0E9471220023D9
:1045A00019F0802F0E946739CDB7DEB7E8E00C9490
:1045B000023DA0E0B0E0EFEDF2E20C94E23C6B01D2
:1045C0007C01C42F122F9AE0892E912CA12CB12CA2
:1045D00030E1C31637E2D306E104F10470F0C701FD
:1045E000B6016B5F7F4F8F4F9F4FA50194010E94D3
:1045F000743C69017A01CF5FEBCFC13FF4F08FE0EB
:104600008C0F63E00E943E3C282FD92F911107C0E8
:10461000E8EECE16E3E0DE06E104F10420F021E04E
:10462000280FD3E0D91B283048F4822F90E086541D
:104630009F4F0E947B3D082F02C0D0E000E00E9407
:1046400078224AE069E371E0C6010E94413DE9E356
:10465000F1E001900020E9F73197E953F140BE2ED7
:10466000CE2FCD1B1C165CF080E30E9467398CE2D4
:104670000E946739CC2319F080E30E946739D11179
:1046800001C0CFEFC15089E3C82E81E0D82EE12CC4
:10469000F12C0C2E000CDD0BEB1478F4F60181915B
:1046A0006F010E946739CE15DF0519F48CE20E9474
:1046B0006739FFEFEF1AFF0AEFCF0E947122002344
:1046C00019F0802F0E946739112319F0812F0E9461
:1046D0006739CDB7DEB7ECE00C94FE3C20E040E05B
:1046E0000E94D9220895CF92DF92EF92FF92CF934A
:1046F000DF936B017C01C42FD22F97FF0EC00E9465
:1047000078220E9424220E947122F094E094D09496
:10471000C094C11CD11CE11CF11C2D2F4C2FC701D2
:10472000B6010E94D922DF91CF91FF90EF90DF90E8
:10473000CF900895CF93C82F80910901982F990F9A
:10474000890FE62FF0E0E80FF11DEA58FF4FE491E2
:10475000EE2389F120912D018FEF820F60912E01C0
:10476000E4FF04C090912C019695690F3E2F3270A2
:10477000E1FF0BC090912B01E5FF04C0892F8695C6
:10478000820F01C0890FE3FD6150E2FF06C09091E6
:104790002C01690F311101C061500E9409388C2F22
:1047A0000E94AC11883721F48C2F0E941B2203C079
:1047B0008C2F0E941722CF910895CF93DF932091E1
:1047C0002C013091240193E0920F3917F0F1909170
:1047D0002301903120F02F5F280F231738F03093FA
:1047E00022010E94E62193E083E004C09F5F2091B4
:1047F0002B01921B90932D0180932E0160E08091FC
:104800009F010E949A2361E08091A0010E949A2357
:1048100062E08091A1010E949A23C0912601D0916B
:10482000270180EE9FEF90932701809326016091EE
:104830002E0180912D010E940938809109010E946A
:10484000E839D0932701C0932601DF91CF910895D5
:10485000FF920F931F93CF93DF93C82F90912C015A
:1048600081E0890F8C0F209124012817D0F08091CE
:1048700023018031B0F0F0902B018F5FD82FDF192A
:10488000192F1C0FC11769F06C2F8D2F0E9409384A
:104890000F2D002321F00E9420220150FACFCF5F7C
:1048A000F1CFCDB7DEB7E5E00C94053D4F925F92B6
:1048B0006F927F928F929F92AF92BF92CF92DF9230
:1048C000EF92FF921F93CF93DF93C82F0E94CD1FCB
:1048D00080910001813009F456C018B88091C70159
:1048E00087B98091C00185B984B90E94653AC12C0D
:1048F000D12C760181E0182F117080FF03C08091C8
:10490000C90102C08091CA01A895806C80937C0087
:104910000E946F3A80917A00806480937A0080913F
:104920007A0086FDFCCFD4E6812C912C5401809135
:104930007A00806480937A0080917A0086FDFCCFB3
:104940008091780090917900880E991EA11CB11C6D
:104950000E946C3AD15059F7A0919901B0919A01F7
:10496000A50194010E94D13C4B015C018AE0B69400
:10497000A794979487948A95D1F782E0112331F018
:1049800075016401B8CF80E090E04CC015B89091FB
:10499000C7018091C601892B87B98C149D04AE0490
:1049A000BF04D8F520919B0130919C01A4E6B0E0B2
:1049B0000E94BB3C9B01AC012C193D094E095F09CB
:1049C0000E94D13C2B013C01A7019601281939090D
:1049D0004A095B09A8EEB3E00E94D13C6B017C015F
:1049E0002091CE013091CF012057354E40E050E06C
:1049F000C301B2010E94743CC701B6010E94743C1D
:104A0000C901C13061F46091D0017091D101621788
:104A1000730718F4861B970B02C080E090E020EC2F
:104A200020939801DF91CF911F91FF90EF90DF903D
:104A3000CF90BF90AF909F908F907F906F905F903E
:104A40004F900895A0E0B0E0E8E2F5E20C94DC3C81
:104A5000A89518B88091C70187B98091C00184B921
:104A600085B98091CA010E94BA1E4C018091C9018A
:104A70000E94591EEC0115B88091C30184B9809140
:104A8000C9010E94BA1E459708F044C28091C30133
:104A900085B98091C9010E94BA1E6C018091C6013E
:104AA00087B988B915B88091C10184B98091C901CD
:104AB0000E94BA1E2C018091CA010E94591E3C011D
:104AC0008091C40184B98091CA010E94BA1E5C0120
:104AD000C03321E1D20728F432E6C316D10438F0FE
:104AE00019C24CE6C41643E1D40608F013C259EAD1
:104AF0006516710408F070C086E2A816B10408F4C7
:104B000009C2D60120EF3BE247E050E00E94D13CD1
:104B1000C0919B01D0919C019E012C193D0940E060
:104B200050E00E94743C29013A01DE01AA19BB0938
:104B300020EF3BE247E050E00E94D13C850120E0BD
:104B400030E0A90198010E94743CEEEDCE16E3E03E
:104B5000DE0680F4D301C201D2E0880F991FAA1F9C
:104B6000BB1FDA95D1F7BC01CD01620F731F841F03
:104B7000951F14C0FEEDAF16F3E0BF06B0F4DA01E6
:104B8000C901C2E0880F991FAA1FBB1FCA95D1F7A0
:104B9000BC01CD01640D751D861D971D25E030E01B
:104BA00040E050E00E94743C0CC0D301C201820F6F
:104BB000931FA41FB51F9C01AD01569547953795CE
:104BC0002795225A3E4F4F4F5F4FAAE0B0E00E9418
:104BD000D13C4B015C01B3C0C815D90508F483C0B2
:104BE0004614570408F47FC040919B0150919C01EA
:104BF000C417D50709F421972091CE013091CF0138
:104C00002057354EDE01A819B9090E94BB3C9A0114
:104C10002C1B3D0B40E050E00E94743C49015A01BE
:104C20002091CC013091CD012057354ED201A619EB
:104C3000B7090E94BB3C830120E030E0A901980144
:104C40000E94743CCE3DD34080F4D501C401F2E013
:104C5000880F991FAA1FBB1FFA95D1F7BC01CD0180
:104C6000620F731F841F951F1BC0EEED6E16E3E0ED
:104C70007E0660F5283FF4E23F07F1E04F0751055B
:104C8000A0F4DA01C901E2E0880F991FAA1FBB1F37
:104C9000EA95D1F7BC01CD01680D791D8A1D9B1DD8
:104CA00025E030E040E050E00CC0A9E0B0E00E9418
:104CB000D13C680D791D8A1D9B1D2AE030E040E043
:104CC00050E00E94743C49015A0139C0D501C40129
:104CD000820F931FA41FB51F4C015D01B694A794CA
:104CE000979487942CC02FE8621622E1720608F090
:104CF00001C181E00E9456242C01612C712C812C71
:104D0000912C540120E030E0A901280D391D4A1DE5
:104D10005B1DAAE0B0E00E94D13C611571058105E0
:104D2000910521F464E670E080E090E046165706B5
:104D30006806790658F453014201CEEF08C034E604
:104D400083169104A104B10408F4C0C0CFEF80E041
:104D5000D7E02AE0F22E90910401891708F09DC057
:104D6000682E712CD69D9001D79D300D1124F9012C
:104D7000E55FFE4F6F0120819091BA01291389C030
:104D800021819091BB01291384C0E12C02E010E045
:104D900020E030E04C2FC501B4010E9497178F3FEF
:104DA00009F03FC0F601638174818581968102E03C
:104DB00010E020E030E042810E9497178F3F51F5CC
:104DC000F6014281C41719F055245A9402C05524A3
:104DD0005394D69DC001D79D900D11249C01255F51
:104DE0003E4F6901F9016381748185819681EC2EC2
:104DF000950184010E949717F601581206C083801E
:104E00009480A580B680C28105C083829482A582E9
:104E1000B682C2831401250156944794379427948F
:104E20000AC0C501B40124E130E040E050E00E9436
:104E3000743C19012A01D69DC001D79D900D112403
:104E40009C01255F3E4F6901F90163817481858171
:104E50009681EC2E95018401021913092409350964
:104E600042810E94971787FD16C095018401020DAB
:104E7000131D241D351DF601638174818581968182
:104E800042810E949717181634F0F092000184E6D0
:104E900062CF8F5F60CF88EC5ECF8436D9F19330DC
:104EA000C8F527E0929FF0011124E55FFE4F809145
:104EB000BB0180838091BA01818383829482A58221
:104EC000B682C2839F5F9093040124C081E00E9458
:104ED00056242C01612C712CA5019401220F331F43
:104EE000441F551F85E088169104A104B10408F4FD
:104EF0000CCF0FCF81E00E9456242C01612C712C25
:104F00008AE0882E912CA12CB12C24E130E040E0E5
:104F100050E0FFCECDB7DEB7E2E10C94F83CEF9263
:104F20000F931F93CF93C42F109204010E942A1F46
:104F30000E942225809104018130B1F4CC23B1F08C
:104F400000910E0110910F0120911001309111017B
:104F50006C2F70E080E090E0E0900D0143E00E9453
:104F6000971791E0813019F090E001C091E0892F0E
:104F7000CF911F910F91EF900895813138F08151B9
:104F800015BC92E094BD87BD81E0089580E008954E
:104F900016BC81E085BDA99BFECF15BC82E085BB18
:104FA0000895A4E0B0E0E7EDF7E20C94DC3C009754
:104FB00029F46FEF7FEF7C836B8338C19C838B83F5
:104FC000FC016381748185819681A7EFEA2E0AE056
:104FD00010E020E030E042810E94971787FDE9CF82
:104FE0000E94CD1F80910001813019F3EB81FC817B
:104FF000618180810E94851FEB81FC8161818081BC
:105000000E942A1F0091C9018091CA01006C806C26
:105010008A8315BC82E084BD85E687BD18B80093FD
:105020007C000E94653AFFEFF983812C912C54019A
:105030008394412C512C3201439480E090E052E360
:10504000C52ED12C17EDA895C29758F48091C701B1
:1050500087B98091C00185B984B90E94783A14B8A3
:1050600015B822E3C216D10458F48091C60187B95D
:105070008091C10185B984B90E94783A14B815B8F5
:105080008091C60187B98091C00185B984B9009328
:105090007C0010937A0080917A0086FDFCCF1093FB
:1050A0007A0080917A0086FDFCCF209078003090C5
:1050B00079006A8160937C0010937A0080917A0075
:1050C00086FDFCCF10937A000E94743A0E94C82794
:1050D0008091C10185B984B90E94783A14B8809151
:1050E0007A0086FDFCCFC0907800D0907900809146
:1050F000C70187B98091C10185B984B97A8170935C
:105100007C0010937A0080917A0086FDFCCF10938A
:105110007A0080917A0086FDFCCFE0907800F090D4
:10512000790000937C0010937A0080917A0086FDCC
:10513000FCCF10937A000E94743A0E94C827809195
:10514000C00185B984B90E94783A14B880917A0078
:1051500086FDFCCF8091780090917900A70160E0F6
:1051600070E0420D531D611D711D440E551E661EDB
:10517000771EAC0160E070E04C0D5D1D611D711D7E
:10518000840E951EA61EB71EE981E150E983E11148
:105190005ACF17B815B8481459046A047B04E8F5C7
:1051A0008091CC019091CD012AE0289FD001299FC8
:1051B000B00D1124A5019401241935094609570998
:1051C0000E94D13CA30192010E94743C8091D001C5
:1051D0009091D1018217930720F4B901681B790BD4
:1051E00019C0EB81FC8163817481858196812AEFEE
:1051F000E22E08EE13E020E030E042810E94971793
:1052000021E030E0181614F420E030E0662777271C
:10521000621B730B7C836B8304C08FEF9FEF9C83B7
:105220008B8380EC809398010E94CD1F8B819C81A1
:105230002496E2E10C94F83CA0E0B0E0E2E2F9E26E
:105240000C94DD3C6C01D1E1C3E00E94CD1F809144
:105250000001813009F42AC118B88091C70187B9CB
:105260008091C10185B984B98091C9010E94591EFC
:105270005C018091CA010E94591EA81AB90A15B88A
:1052800014B8E12CF12C8FEFE81AF80A6D2F8091F9
:10529000C0010E947B208091C9010E94591EA8165E
:1052A000B9060CF00FC18C010A191B09EEE7EE16C6
:1052B000F10449F40C32F1E01F078CF491E00B3457
:1052C000110574F40CC00C3281E0180714F491E05D
:1052D00001C090E0E4EFEE16E1E0FE0609F490E094
:1052E000A8959111D0CF0C32F1E01F070CF4C1E06A
:1052F00081E0E816F10459F40531E5E01E073CF0C1
:105300008D2F8071D9E009F0A0CFC2E0D1C0C330A9
:1053100009F0CEC08091C9010E94591E5C0147016D
:1053200080E090E08114910449F0F1E08F1A910837
:105330008091C9010E94591EA895F4CF8A159B053A
:1053400040F4A81AB90A85E6A816B10420F0C0E016
:1053500002C0A12CB12C8091C9010E94591E4C01A0
:10536000ED2FE0713E2E19F00E945A3A02C00E94C1
:105370005F3A8091C9010E94591E8815990518F459
:10538000881A990A02C0812C912CC33009F090C070
:1053900062E0C8018A0D9B1D0E9497209C01D701E5
:1053A0000E94BB3C2B013C01332031F1AAE0B0E06C
:1053B0009B01AC010E94D13C2B013C016833F9E810
:1053C0007F07F1E48F07910508F474C0C301B201AF
:1053D00028EE33E040E050E00E94743C29013A019D
:1053E000A8EEB3E00E94D13CCAEF332089F022E45A
:1053F00034E040E050E010C06833794881449105C2
:1054000028F7A8EEB3E0A30192010E94D13CC7EFB8
:1054100020E134E040E050E00E94743C8091BB0108
:10542000F60180838091BA018183C28347825086CE
:105430006186728623833483458356839AE0492E9E
:10544000512C612C712C2130F5E33F07FCE04F0714
:10545000510540F0CA01B901A30192010E94743CB8
:10546000CF5FF1CFD4010E94D13C28EE33E040E081
:1054700050E00E94743CD3FDCF5F8AE0882E912CCF
:10548000A12CB12C2115310581E04807510540F0D0
:10549000CA01B901A50194010E94743CCF5FF2CF0B
:1054A000F60134872387C58783E014C080E012C0EB
:1054B0008C2F10C0A8EEB3E09B01AC010E94D13C40
:1054C000C7EF95CF00E010E08EE7E816F10409F091
:1054D000FECEF4CECDB7DEB7E1E10C94F93CA0E00E
:1054E000B0E0E5E7FAE20C94E43CEC010E94CD1F49
:1054F00080910001813009F471C015B897E097B927
:1055000018B88091C30184B980E480937B0084E45F
:1055100080BF8091C901806480937C0090937A0061
:105520000E946E3A109280001092810010928500C5
:105530001092840087E286BB8091C30185B9809177
:1055400000018F3129F48091C6018095877002C0D7
:105550008091C70191E09093810087B9E12CF12CF3
:1055600086B385FD0CC080FFFBCF96BBA8952FEFBF
:10557000E21AF20A20E8E2162CE0F20689F710920D
:10558000810090E296BBC0908600D090870014B84E
:105590002091840030918500C216D30638F480FF34
:1055A00005C081E086BB8FEFE81AF80A87E980938F
:1055B0007A0080917B008F7B80937B008091C90172
:1055C0000E94591E5C0115B88091C30184B920E87E
:1055D000E2162CE0F20620F081E0C6C080E0C4C0F4
:1055E000C601A0E0B0E06701E12CF12C7601DD24DA
:1055F000CC24C82AD92AEA2AFB2A83E0C816D10477
:10560000E104F104C8F082E0C81AD108E108F10809
:1056100028E3C21629E8D20621E4E206F10460F08C
:10562000C701B60128EE33E040E050E00E94743C30
:1056300069017A0117EF01C014EF2091D401809124
:10564000990190919A0161E0820F911D27FD9A9531
:105650000E949720DC01A70196010E94D13C20E422
:1056600036E040E050E00E94743C143F89F48091A1
:10567000D20190E0A0E0B0E0281739074A075B07A5
:1056800050F069017A01C81AD90AEA0AFB0A06C071
:1056900069017A0103C0C12CD12C76018091BB0134
:1056A00088838091BA0189831A832F833887498739
:1056B0005A87CB82DC82ED82FE82143F49F480EA75
:1056C000C81686E8D80681E0E806F10460F44BC00D
:1056D000173F09F048C021E2C2162EE4D206E104C9
:1056E000F10408F040C08091C9010E94591E853D17
:1056F0009340C8F714B8109297018091C9010E9495
:10570000591EEC0181E0809397018091C9010E94AC
:10571000591EAC018091C30184B9DE01A41BB50BF5
:10572000C0919901D0919A01CD010496099788F012
:105730009E010E94CA3C9A0140E050E00E94963CC3
:105740008091D301280F2093D301CC0DD11DC7FC2C
:10575000DA9585010C1B1D0BC801C1968336910596
:1057600010F40093D40183E0CDB7DEB7EAE00C94E7
:10577000003DA0E0B0E0EFEBFBE20C94E43CC42E73
:10578000D12C2EE0429FF0011124EB5BFE4F1082E2
:10579000118294EF928317821086118612861382EB
:1057A000148215821682148613869091000191301E
:1057B00009F47EC0B62EF82E9A3091F4CBE0D1E0F9
:1057C000A12C07C088818F1591F08B15A1F0A394AF
:1057D000279680910401A816A8F384E6A81268C051
:1057E0006B2D8F2D0E94F32C0097C9F41FC0998157
:1057F0009B11EBCF03C08981F812E9CF6B817C81CB
:105800008D819E81E12C0AE010E020E030E04A81A9
:105810000E9497178F3FD9F683E6A82ED8CFFC01B8
:10582000828193818C3D954008F442C08EE08C9D2E
:10583000E0018D9DD00D1124CB5BDE4F6B2D8F2DA4
:105840000E942A1FCE010E941C29823019F4CE0129
:105850000E946F2A80910001843120F58A3079F40A
:105860008EE08C9DF0018D9DF00D1124EB5BFE4FC1
:1058700082818A3FBCF08BE08093000113C08EE0F0
:105880008C9DF0018D9DF00D1124EB5BFE4F82810C
:10589000853F8CF783819481A581B6810597A10509
:1058A000B10548F70E94CD1F17B818B814B815B83D
:1058B000CDB7DEB7EAE00C94003DE09100018E2FF9
:1058C00090E0FC017E97E730F105E0F4EC5CFF4FDF
:1058D0000C94B53C85E493E422E41BC08091010163
:1058E00086FD14C083E594E413C085E493E410C0FE
:1058F00083E491E40DC081E392E30AC081E392E383
:1059000025E407C080E090E020E003C088E798E746
:1059100027E42093A2019093A3018093A40108950A
:10592000CF92DF92EF92FF92CF93C82F15B880915C
:10593000C10184B98091C60187B988B98091CA0133
:105940000E94BA1E8430910500F1C090CC01D09025
:10595000CD01E12CF12C893725E0920770F0C130A0
:1059600061F414B89091C6018091C701892B87B961
:105970008091CA010E94591E06C020E9C20E2AE188
:10598000D21EE11CF11CC9EF0FC08091C40184B983
:105990008091CA010E94BA1E20EFC22E2BE2D22EA5
:1059A00027E0E22EF12CC8EF17B818B814B815B8D4
:1059B000DC0120EA36E841E050E00E94D13CA7013A
:1059C00096010E94743C2093B0013093B101409342
:1059D000B2015093B301C093B401CF91FF90EF9007
:1059E000DF90CF90089590910501EFE6F1E09923C3
:1059F00049F02081281303C02181261729F09150F6
:105A00003696F5CFE0E0F0E0CF010895A0E0B0E0F9
:105A1000ECE0FDE20C94E23CA8950E94CD1F809141
:105A20000001813009F4ECC018B88091C70187B932
:105A30008091C9010E94591E982EA92E8091C30100
:105A400084B985B961E18091C2010E947B20809177
:105A5000C9010E94BA1EB82E892E8091C00184B956
:105A600085B961E18091C2010E947B208091C901CA
:105A70000E94BA1E6C018091CA010E94591E8C01BD
:105A80000E94CD1F80910001813009F4B9C018B87F
:105A90008091C70187B98091C9010E94591E7C017C
:105AA00017B88091C60188B987B915B88091C4012B
:105AB00084B960E18091C2010E947B208091C9017C
:105AC0000E94BA1EEC018091CA010E94591EC8179B
:105AD000D90718F0C81BD90B02C0C0E0D0E0C01A2B
