:100000000C9498110C94AA110C94AA110C94AA1196
:100010000C94AA110C94AA110C94AA110C94FA1B1A
:100020000C94AA110C94AA110C94AA110C94AA1164
:100030000C94AA110C94AA110C94AA110C94AA1154
:100040000C94AA110C94AA110C94AA110C94AA1144
:100050000C94AA110C94AA110C94AA110C94AA1134
:100060000C94AA110C94AA11352E392E402E462E2E
:10007000432E432E492E110A0611060A050A0609C7
:10008000060A050A0609060A090A06050A06050AF5
:100090000605060A052A26052A26092A26090A0629
:1000A000000000000000000000110A06000000101F
:1000B0000000C011000020120000201000002010DD
:1000C00000002010000020120000C01100000010ED
:1000D000000000087800000488000602880006017D
:1000E0007800860088004600880026007800160008
:1000F00000000E0000000600FCFF070000000600E4
:1001000000000E000000160000002602000046035A
:10011000000086030000C6030000E60300000004A0
:10012000000000080000E013000020100000201074
:100130000000E01100002010000020100000E0137B
:100140000000001000000000000000100000E0139C
:1001500000002010000020100000E011000020101E
:10016000000020100000E013000000100000000854
:10017000780040048800C6028800C6017800C603E3
:100180008800C607880026007800160000000E00D0
:1001900000000600FCFF07000000060000000E0043
:1001A0000000160000002600000046000000860047
:1001B0000000060100000602000000040000000824
:1001C0000000C011000020120000201000002010CC
:1001D00000002010000020120000C01100000010DC
:1001E00000000000000000100000E01000002011DE
:1001F0000000201200002012000020120000201138
:100200000036E010003600100036001000F6FF1F28
:100210000036000400360004003600040006000426
:1002200000060004003604040036863F003607044A
:1002300000F63F0E0036271F0036A63F383624044E
:1002400044062004040620046436200444362004B6
:100250004436200438F6FF1F003600100036001028
:10026000FE37C01100002012000020100000C01155
:1002700000000012000020120000C0110000000069
:10028000000000100000C01100002012000020102B
:100290000000C0110000001200002012FE37C01143
:1002A000003600100036001038F6FF1F44362004D8
:1002B0000436200464362004440620044406200446
:1002C000383621040036A33F0036270400F63F0EDF
:1002D0000036071F0036833F003601040006000485
:1002E0000006000400360004003600040036000456
:1002F00000F6FF1F00360010003600100036E01038
:100300000000201100002012000020120000201226
:10031000000020110000E0100000000000000010AC
:100320000000E01000002011000020120000201248
:1003300000002012000020110036E01000360010EE
:100340000036001000F6FF1F0036000400360004DF
:1003500000360004003600040036000400360404B1
:100360000036863F0036070400F63F0E0036271F92
:100370000036A63F383624044436200404362004D0
:1003800064362004443620044436200438F6FF1F27
:100390000036001000360010FE37C0110000201299
:1003A000000020100000C011000000120000201208
:1003B0000000C01100000000000000100000C0118B
:1003C00000002012000020100000C01100000012E8
:1003D00000002012FE37C011003600100036001059
:1003E00038F6FF1F44362004043620046436200407
:1003F0004436200444362004383621040036A33F16
:100400000036270400F63F0E0036071F0036833FF4
:1004100000360104003600040036000400360004F3
:10042000003600040036000400F6FF1F00360010FE
:10043000003600100036E0100000201100002012ED
:100440000000201200002012000020110000E01027
:1004500000000000000000103800C011440020120D
:10046000040020106400C011440000124400201257
:1004700038C2C01100C6001000CE0010FEFFFF1FE2
:1004800000CE000000C6000000C2000000C0000056
:1004900000C0000000C0000000C0000000C000005C
:1004A00000C0000000C0000000C0000000C000004C
:1004B00000C0000000C0000000C0000000C000003C
:1004C00000C0FF1F00C0001000C0001000C0E010FE
:1004D0000000201100002012000020120000201255
:1004E000000020110000E0100000001000000000DB
:1004F000000000100000E010000020110000201299
:1005000000002012000020120000201100C0E010A6
:1005100000C0001000C0001000C0FF1F00C000009D
:1005200000C0000000C0000000C0000000C00000CB
:1005300000C0000000C0000038C0000044C000003F
:1005400004C0000064C0000044C0000044C00000BB
:1005500038C8000000CC000000CE0000FEFFFF1FE6
:1005600000CE001000CC001000C8C0110000201206
:10057000000020100000C011000000120000201236
:100580000000C011000000100000000000000E106C
:100590000000111000000110000001100000011007
:1005A0000000111100000E0B000000070000000FFA
:1005B00000800D1F00808D0000807D0000800D00F8
:1005C00000800D00008001000080010000800D000F
:1005D00000800D0038803D0044804D0004808D0077
:1005E000648001004480010044800D0038800D00CB
:1005F00000807D0400808D06FEFF0D07000080074F
:100600000000C00700001F080000011000000110DA
:1006100000000F10000001100000011000001F106A
:10062000000000100000000038001F1044000110FE
:100630000400011064000F10440001104400011177
:1006400038001F0B000000070000000FFEFF0D1F09
:1006500000808D0000807D0000800D0000800D0076
:10066000008001000080010000800D0000800D006E
:1006700000803D0000804D0000808D000080010062
:100680000080010000800D0000800D0000807D04CE
:1006900000808D0600800D07000080070000C00765
:1006A00000000E08000011100000011000000110F1
:1006B000000001100000111000000E1000000010DA
:1006C000000000000000100000001007000090086B
:1006D000000090080000900F0000900800009008B3
:1006E0000000900800001000000010000000100042
:1006F000000010000000100000FCFF7F00F8FF3F2A
:1007000000F0FF1F00E0FF0F00C0FF070080FF03A5
:100710000000FF010000FE0000007C0038003800EF
:100720004400100004FCFF7F64FCFF7F44001800BD
:10073000440014003800120000001100008010076F
:10074000FE7F9008000090000000900000009000E4
:1007500000009008000010070000100000000000DA
:1007600000001000008E1100005112000011120054
:10077000001F1100009110000051100000D1130063
:100780000000100000001000000010000000100029
:1007900000FFFF3F00FC1F0200FC1F0700F80F07CF
:1007A00000F88F0F00F0870F00F0C71F00E0C31F95
:1007B00000E0E33F00C0E13F38C0F17F4480F07FBC
:1007C00004FCFFFF6480100044401000442010002F
:1007D000381010000008100000041047FE03906855
:1007E000000090480000904F0000904800009048A2
:1007F000000090E800001000000000000000100061
:100800000000100700009008000090080000900F02
:10081000FE1F9008002090080040900838801000CB
:100820004400110004001200640014004400180089
:1008300044FCFF7F38F8FF3F00F0FF1F00E0FF0F90
:1008400000C0FF070080FF030000FF010000FE0062
:1008500000007C00000038000000100000FCFF7F5A
:1008600000FCFF7F000010000000100000001000DE
:100870000000100000001007000090080000900029
:100880000000900000009000000090080000100799
:1008900000001000000000000000001000008F1198
:1008A000000051120000111200000F110000911001
:1008B0001E0051102000CF134000001080C800100F
:1008C00000CD00103ECEFF1F02CF000082CF0000FF
:1008D0001ED0000002E0000002C000003EC0000088
:1008E00000C0000000C0000000C0000000C0000008
:1008F00000C0000000C0000000C0000000C00000F8
:1009000000C0FF1F00C0001000C000100000001059
:1009100000001E110000A2110000221100001E1193
:10092000000022110000221100009E1300000010A0
:1009300000000000000000000000000000000000B7
:1009400000FE010080FF0700C0FF0F00E0FF1F0056
:10095000F0013E00F0FC3C0078027800780178015C
:1009600078017801780178010000780100003C01ED
:100970000000BE0000009F0000804F0000C0270064
:1009800000E0130000F0090000F80400007C020001
:10099000007C0100007C0100007C010000000100DF
:1009A00000F8010000000000000000000038000016
:1009B000007C0000007C0100007C01000038010088
:1009C000008000000078000000000000000000002F
:1009D0000000100000009008000090040000900249
:1009E00000009001000090020000900400009008B8
:1009F00000001000000410000004100000041000AB
:100A000000FCFF7F00FCFF7F00001040000038402A
:100A100000007C400000FE000000FF010080FF039A
:100A200000C0FF0700E0FF0F00F0FF1F00F8FF3FCE
:100A300000FCFF7F0000100000001000000010000C
:100A4000000010000000100700009008000090084F
:100A50000000900F0000900800009008000090082F
:100A60000000100000000000000000000000000076
:100A70000000000000000100000001000000010073
:100A80000000010000000100000001000000010062
:100A900000000100000001000000010080FFFF01D4
:100AA00080FFFF010000000000000000F0FFFF0FCA
:100AB000F0FFFF0FF0FFFF0FF0FFFF0FF0FFFF0F42
:100AC000F0FFFF0FF0FFFF0F00000000000000002C
:100AD00080FFFF0180FFFF01000001000000010016
:100AE0000000010000000100000001000000010002
:100AF00000000100000001000000010000000100F2
:100B000000000000000000000000801000008010C5
:100B10000000E013000080100000801000000010B2
:100B200000C07F1000404010007CC01F00444010F7
:100B300038C47F10480400108804001088E47F1037
:100B400088E47F1048E4FF1F38E47F0000E47F0062
:100B500000E47F00FCFF7F0000E07F0000E07F00FA
:100B600000E07F0000E0FF1F00E07F1000E07F104A
:100B70000000001000000010000000100000001035
:100B80000000001000000010000000100000001025
:100B900000000010000000100000E0130000001032
:100BA00000000000FF01020304050607FFFFFFFF2E
:100BB000FFFFFFFFFFFFFFFFFFFFFFFFFFFFFFFF45
:100BC000FFFFFFFF101112131415161718191A1B27
:100BD0001C1D1E1F202122232425262728292A2BDD
:100BE0002C2D2E2F303132333435363738393A3BCD
:100BF0003C3D3E3F404142434445464748494A4BBD
:100C00004C4D4E4F505152535455565758595A5BAC
:100C10005C5D5E5F606162636465666768696A6B9C
:100C20006C6D6EFFFFFFFFFFFFFFFFFFFFFFFFFF8A
:100C3000FFFFFFFFFFFFFFFFFFFFFFFFFFFFFFFFC4
:100C4000FFFFFFFFFFFFFFFFFFFFFFFFFFFFFFFFB4
:100C5000FFFFFFFF0FFFFFFFFF05FFFFFFFFFFFF8E
:100C6000FFFFFFFFFFFFFFFF08FFFFFFFFFFFFFF8B
:100C7000FFFFFFFFFFFFFFFFFFFF09FFFFFFFFFF7A
:100C80000AFFFF0BFFFFFFFF0CFFFFFFFFFFFFFF50
:100C9000FFFFFFFFFFFFFFFFFFFF0DFFFFFFFFFF56
:100CA0000EFFFFFF00000000000000000000000039
:100CB0000000000000000000000000000000000034
:100CC0000000000000000000000000000000000024
:100CD00000000000000000000000000000000470A0
:100CE0000C701C703C707C70FC70FC71FC73FC77A9
:100CF000FFFFFFFFFC77FC73FC71FC707C703C70A5
:100D00001C700C7004700000000000000000000067
:100D100000000E200E300E380E3C0E3E0E3F8E3F71
:100D2000CE3FEE3FFFFFFFFFEE3FCE3F8E3F0E3F39
:100D30000E3E0E3C0E380E300E200000000000006B
:100D40000000000000003C3C3C3C3C3C3C3C3C3C4B
:100D50003C3C3C3C3C3C3C3C3FFC3FFC3C3C3C3C4D
:100D60003C3C3C3C3C3C3C3C3C3C3C3C3C3C00003B
:100D700000000000000000000000C007E00F301875
:100D800018300C600C6006C006C006C006C00C60BF
:100D90000C6018303018600C628C7EFC7EFC000009
:100DA0000000000000000000000000000000000043
:100DB0000000000000001C381C381C381C381C388F
:100DC0001C381C381C381C381C383C3C7C3EFC3B16
:100DD000DC7B1C001C001C001C001C000000000030
:100DE000000000000000FEFFFEFF060006000600F7
:100DF00006000600070007000600060006000600C1
:100E00000600FEFFFEFF00000000000000000000E2
:100E100000000000000000000000FF7FFF7F006076
:100E2000006000600060006000E000E000600060C2
:100E3000006000600060FF7FFF7F00000000000096
:100E400000000000300C300C000000000000C00169
:100E5000C003E003600760077006300E380E381CD0
:100E6000181CFC3FFC3F0E380E700E7007E00000AF
:100E70000000000000000000300C300C00000000FA
:100E80000000E007F00F381C1C381C380E700E7084
:100E90000E700E700E700E701C381C38381CF00F5F
:100EA000E00700000000000000000000601860186B
:100EB0000000000000001C701C701C701C701C7076
:100EC0001C701C701C701C701C701C701C703C789A
:100ED0003838F01FE00F00000000000000000000A4
:100EE0000000F003F8073C0E1C0E1C0E1C061C072D
:100EF0009C039C039C039C071C0F1C1E1C3C1C7821
:100F00001C701C709C709C3F1C1F000000000000A7
:100F100000000000000000000000600C600C0000F9
:100F20000000E007F80F181E001C001CE01FF01F57
:100F3000381C1C1C1C1C1C1C3C1EF87BF078000080
:100F4000000000000000000000000000000030066B
:100F5000300600000000E003F80F3C1E1C1C0E3899
:100F60000E380E380E380E380E381C1C3C1EF80F8A
:100F7000E00300000000000000000000000000008E
:100F8000000030063006000000001C381C381C38F9
:100F90001C381C381C381C381C381C381C381C3CAD
:100FA0003C3EF83BF038000000000000000000006C
:100FB000000000008003C007600C600C600CC007DC
:100FC000800300000000000000000000000000009E
:100FD0000000000000000000000000000000000011
:100FE0000000000000000000000000000000000001
:100FF00000000000000000000000000000000000F1
:1010000000000000000000000000000000000000E0
:1010100000000000000000000000000080038003CA
:1010200080038003800380038003800380038003A8
:10103000800380038003800300000000800380039E
:101040008003000000000000000000000000380ED7
:10105000380E380E380E380E100410040000000050
:101060000000000000000000000000000000000080
:101070000000000000000000000000000000000070
:101080000000000080318031C018C018C018C0189E
:10109000FC7FFC7F600C60063006FE3FFE3F1803BD
:1010A0001803180318038C018C01000000000000D5
:1010B0000000000000030003C01FF03F702338034E
:1010C000380338037803F003E0038007001F001F94
:1010D000003B003B003B003B181BF81FE00F0003E8
:1010E0000003000000000000000000003CC066603B
:1010F000C330C318C318C30CC30666033C03800186
:10110000C03CC06660C330C318C318C30CC30666B6
:10111000033C000000000000000000000000000090
:10112000E003F007380E380E380E38067007F0016D
:10113000F800FCE0CEE1C7E387630767077E0F3E58
:101140001E3CFC7FF0F300000000000000000000E7
:101150000000C001C001C001C001C00180008000CA
:10116000000000000000000000000000000000007F
:10117000000000000000000000000000000000006F
:101180000000000000000018001E000F8003C001D6
:10119000E000E000E000700070007000700070007F
:1011A000700070007000E000E000E000C00180030B
:1011B000000F001E0018000000000C003C0078002A
:1011C000E000C001800380038003000700070007E0
:1011D0000007000700070007000780038003800363
:1011E000C001E00078003C000C000000000000009E
:1011F000800380038003981B7C3E300C4002E00794
:10120000700E381C200400000000000000000000E8
:1012100000000000000000000000000000000000CE
:10122000000000000000000000000000000080013D
:1012300080018001800180018001FE7FFE7F8001AE
:101240008001800180018001800100000000000019
:10125000000000000000000000000000000000008E
:10126000000000000000000000000000000000007E
:10127000000000000000C003C003C003C00300035F
:1012800080038001C000000000000000000000009A
:10129000000000000000000000000000000000004E
:1012A000F81FF81F00000000000000000000000010
:1012B000000000000000000000000000000000002E
:1012C000000000000000000000000000000000001E
:1012D0000000000000000000000000000000C0034B
:1012E000C003C003C00300000000000000000000B5
:1012F000000000600030003000180018000C000CE6
:10130000000600060003000380018001C000C00049
:101310006000600030003000180018000C000C0065
:101320000600000000000000E003F007380E1C1C5F
:101330001C1C0E380E380E380E380E380E380E388B
:101340000E380E381C1C1C1C380EF007E003000081
:101350000000000000000000000000000003E003A7
:10136000FC038C03800380038003800380038003DD
:101370008003800380038003800380038003FC7F5D
:10138000FC7F0000000000000000000000000000E2
:10139000F003FC070C0E001C001C001C001C000EBF
:1013A000000E00078003C001E0007000300038002C
:1013B0001C00FC1FFC1F00000000000000000000DB
:1013C00000000000F003F80F081E001C001C001CA9
:1013D000000C0006E003E007000F001E001C001CCC
:1013E000001C001E080FF807F803000000000000B2
:1013F0000000000000000000000E000F800F800FB2
:10140000C00EE00E600E300E180E180E0C0E060EFA
:10141000FE7FFE7F000E000E000E000E000E00008C
:10142000000000000000000000000000F03FF03F5E
:10143000F03F30003000300030003000F003F00F9B
:10144000001E003C003800380038003C101EF00F31
:10145000F003000000000000000000000000000099
:10146000801FE03FF0207000380038001C009C0F07
:10147000DC1F7C3C3C781C701C701C703870383849
:101480007038F01FC00700000000000000000000DE
:1014900000000000F83FF83FF83F00180018000C6B
:1014A000000C00060002000380018001C000C000A3
:1014B000600060007000300030000000000000009C
:1014C0000000000000000000C007F00F781E381C6C
:1014D000381C381C780CF00FE003F00F381F181E72
:1014E0001C3C1C381C381C38381CF00FE00700006E
:1014F000000000000000000000000000C007F01F16
:10150000381C38381C381C701C701C703C78787C77
:10151000F077E073007000380038001C081EF80FE8
:10152000F0030000000000000000000000000000C8
:1015300000000000000000000000C003C003C00362
:10154000C003000000000000000000000000C00315
:10155000C003C003C0030000000000000000000042
:101560000000000000000000000000000000C003B8
:10157000C003C003C0030000000000000000000022
:101580000000C003C003C003C00300038003800148
:10159000C00000000000000000000000000000008B
:1015A000000000400070003C000FC003F0003C0051
:1015B0003C00F000C003000F003C00700040000041
:1015C000000000000000000000000000000000001B
:1015D000000000000000000000000000FE7FFE7F11
:1015E000000000000000FE7FFE7F00000000000001
:1015F00000000000000000000000000000000000EB
:101600000000000000000000000002000E003C008E
:10161000F000C003000F003C003C000FC003F000CE
:101620003C000E000200000000000000000000006E
:1016300000000000F807FC1F0C3C0C380038003894
:10164000001C001E000F80078003C001C001C00104
:1016500000000000C001C001C00100000000000047
:101660000000000000000000C00FE01F70381830BC
:101670001C3E0C318E31C630C630C638C638C63C2A
:10168000C6348EF78CF31C003808F00FC00700003A
:10169000000000000000000000000000000000004A
:1016A0000000C001C003E003600760077006300E51
:1016B000380E381C181CFC3FFC3F0E380E700E70A4
:1016C00007E0000000000000000000000000000033
:1016D000000000000000FC07FC0F1C1E1C1C1C1C52
:1016E0001C0EFC07FC071C1E1C3C1C381C381C383C
:1016F0001C3CFC1FFC070000000000000000000074
:1017000000000000000000000000C01FF03F783023
:101710003C001C000E000E000E000E000E000E001D
:101720001C003C007820F03FC01F000000000000BB
:101730000000000000000000000000000000FC07A6
:10174000FC0F1C3C1C381C781C701C701C701C701E
:101750001C701C701C381C381C1EFC0FFC03000085
:101760000000000000000000000000000000000079
:101770000000F83FF83F38003800380038003800E3
:10178000F81FF81F38003800380038003800F87F9C
:10179000F87F0000000000000000000000000000D2
:1017A000000000000000F87FF87F380038003800A3
:1017B00038003800F83FF83F38003800380038006B
:1017C0003800380038000000000000000000000071
:1017D00000000000000000000000C01FF03F783053
:1017E0003C001C000E000E000E000E3F0E3F0E3897
:1017F0001C383C387838F03FC01F00000000000063
:1018000000000000000000000000000000001C3884
:101810001C381C381C381C381C381C38FC3FFC3F5A
:101820001C381C381C381C381C381C381C3800006C
:1018300000000000000000000000000000000000A8
:101840000000FC1FFC1FC001C001C001C001C0019D
:10185000C001C001C001C001C001C001C001FC1F26
:10186000FC1F00000000000000000000000000005D
:10187000000000000000F80FF80F000E000E000E30
:10188000000E000E000E000E000E000E000E000EE8
:101890000407FC03FC010000000000000000000041
:1018A000000000000000000000001C781C3C1C1E12
:1018B0001C0F1C079C03DC01FC00DC01DC039C0703
:1018C0001C0F1C1E1C3C1C781CF8000000000000B3
:1018D00000000000000000000000000000003800D0
:1018E0003800380038003800380038003800380038
:1018F00038003800380038003800F83FF83F000062
:1019000000000000000000000000000000000000D7
:1019100000000E381E3C1E3C1E3C3636363636362F
:10192000663266336633C631C631C631063006309C
:101930000630000000000000000000000000000071
:101940000000000000001C301C303C307C307C303B
:10195000FC30EC31CC31CC338C370C3F0C3E0C3EA0
:101960000C3C0C380C3800000000000000000000A7
:1019700000000000000000000000E007F00F381C2D
:101980001C381C380E700E700E700E700E700E70BB
:101990001C381C38381CF00FE00700000000000065
:1019A0000000000000000000000000000000F81F20
:1019B000F83F38783870387038703878383CF81F0D
:1019C000F8073800380038003800380038000000C8
:1019D0000000000000000000000000000000000007
:1019E0000000E007F00F381C1C381C380E700E7019
:1019F0000E700E700E700E701C381C38381CF00FF4
:101A0000E007001E007800F0004000000000000029
:101A1000000000000000FC07FC0F1C1E1C1C1C1C0E
:101A20001C1C1C0EFC07FC039C071C071C0F1C1E27
:101A30001C3C1C381C780000000000000000000066
:101A400000000000000000000000E00FF81F3C183C
:101A50001C001C003C00F800F007C01F003E0038CE
:101A6000003800380C1CFC1FF007000000000000CC
:101A70000000000000000000000000000000FF7FE8
:101A8000FF7FC001C001C001C001C001C001C00191
:101A9000C001C001C001C001C001C001C0010000FF
:101AA0000000000000000000000000000000000036
:101AB00000001C701C701C701C701C701C701C7052
:101AC0001C701C701C701C701C703C783838F01F27
:101AD000E00F000000000000000000000000000017
:101AE00000000000000007E00E700E701C701C3833
:101AF0003C383838381C701C700CE00EE00EE007E3
:101B0000C007C007800300000000000000000000C4
:101B10000000000000000000000003C003C007C078
:101B20008661C663C663C663C6634E766C366C3622
:101B30006C362C3E3C3C3C1C3C1C00000000000071
:101B400000000000000000000000000000001EE097
:101B50003C707838781CF00EE007C003C003C00763
:101B6000E007600F301E183C1C380E7807F00000AC
:101B70000000000000000000000000000000000065
:101B8000000007E00E701C301C18381C780E70071F
:101B9000E003E003C001C001C001C001C001C001F9
:101BA000C001000000000000000000000000000074
:101BB000000000000000FC3FFC3F0038001C000E4D
:101BC000000780038001C000E000700038001C00A6
:101BD0000E00FE3FFE3F000000000000000000007D
:101BE0000000C03FC03FC001C001C001C001C00132
:101BF000C001C001C001C001C001C001C001C001DD
:101C0000C001C001C001C001C001C001C001C03F8E
:101C1000C03F0000000006000C000C001800180077
:101C20003000300060006000C000C0008001800112
:101C30000003000300060006000C000C001800184A
:101C400000300030006000000000FC03FC03800353
:101C5000800380038003800380038003800380036C
:101C6000800380038003800380038003800380035C
:101C7000800380038003FC03FC03000000000000DD
:101C80000001000180038003C003C006E006600C71
:101C9000300C3018181818180C300C300660000082
:101CA0000000000000000000000000000000000034
:101CB0000000000000000000000000000000000024
:101CC0000000000000000000000000000000000014
:101CD00000000000000000000000FFFFFFFF000008
:101CE00000000000C00180030007000000000000A9
:101CF00000000000000000000000000000000000E4
:101D000000000000000000000000000000000000D3
:101D100000000000000000000000000000000000C3
:101D2000000000000000E007F80F181E001C001C57
:101D3000E01FF01F381C1C1C1C1C1C1C3C1EF87BCC
:101D4000F0780000000000000000000000001C000F
:101D50001C001C001C001C001C009C07DC1F7C1CC1
:101D60003C381C381C381C381C381C381C381C1CCF
:101D70003C1EFC0FCC07000000000000000000002B
:101D80000000000000000000000000000000C01F74
:101D9000F03F782038001C001C001C001C001C00B8
:101DA0003C003800F820F03FC01F00000000000099
:101DB00000000000000000700070007000700070F3
:101DC0000070C073F07F787C38701C701C701C70C1
:101DD0001C701C701C703C78387CF077E07300003D
:101DE00000000000000000000000000000000000F3
:101DF000000000000000C007F00F781C38381C38C5
:101E00001C38FC3FFC3F1C001C0038007820F03FD1
:101E1000C01F00000000000000000000000000FFE4
:101E200080FFC003C001C001C001FC7FFC7FC00176
:101E3000C001C001C001C001C001C001C001C0019A
:101E4000C001C001C001000000000000000000004F
:101E50000000000000000000000000000000C0734F
:101E6000F07F787C38701C701C701C701C701C70AB
:101E70001C703C78387CF077E07300700038183CB8
:101E8000F81F000700001C001C001C001C001C00A8
:101E90001C001C0FDC1F7C3C3C381C381C381C38D8
:101EA0001C381C381C381C381C381C381C380000E6
:101EB0000000000000000000000080038003800399
:101EC000000000000000FC03FC038003800380038B
:101ED00080038003800380038003800380038003EA
:101EE0008003000000000000000000000000000E61
:101EF000000E000E000000000000F80FF80F000EAA
:101F0000000E000E000E000E000E000E000E000E61
:101F1000000E000E000E000E000E0407FC07F80174
:101F20000000380038003800380038003800383CED
:101F3000381E380E380FB807B803F803B803B807CF
:101F4000380F380E381E383C38780000000000008A
:101F5000000000000000F807F8070007000700076E
:101F60000007000700070007000700070007000739
:101F70000007000700070007000700070007000030
:101F80000000000000000000000000000000000051
:101F9000000000000000CE31EE79FE7F9E779E7338
:101FA0008E738E738E738E738E738E738E738E7329
:101FB0008E73000000000000000000000000000020
:101FC000000000000000000000001C0FDC1F7C3C33
:101FD0003C381C381C381C381C381C381C381C3841
:101FE0001C381C381C3800000000000000000000F5
:101FF0000000000000000000000000000000E003FE
:10200000F80F3C1E1C1C0E380E380E380E380E38D9
:102010000E381C1C3C1EF80FE003000000000000FE
:1020200000000000000000000000000000000000B0
:1020300000009C07DC1F7C1C3C381C381C381C38FA
:102040001C381C381C381C1C3C1EFC0F9C071C0038
:102050001C001C001C001C00000000000000000010
:10206000000000000000E039F83F3C3E1C380E380C
:102070000E380E380E380E380E381E3C1C3EF83B1B
:10208000F038003800380038003800380000000010
:1020900000000000000000000000703E703FF031C2
:1020A000F030700070007000700070007000700000
:1020B00070007000700000000000000000000000D0
:1020C0000000000000000000000000000000E00F21
:1020D000F01F781038003800F801F007801F003C2E
:1020E00000380038183CF81FF0070000000000001E
:1020F0000000000000000000000000000000E00000
:10210000E000FC3FFC3FE000E000E000E000E00019
:10211000E000E000E000E000E001C03F803F0000A0
:1021200000000000000000000000000000000000AF
:102130000000000000001C381C381C381C381C38FB
:102140001C381C381C381C381C381C3C3C3EF83BE6
:10215000F038000000000000000000000000000057
:10216000000000000000000000001E701C381C3839
:102170003C383818381C701C700CE00EE00EE0067D
:10218000C007C0078003000000000000000000003E
:10219000000000000000000000000000000003C07C
:1021A00087C38743C663C66346626E666E266C3617
:1021B0002C363C3C3C3C3C1C181C00000000000041
:1021C000000000000000000000000000000000000F
:1021D00000001E303C18780C700EF006E003C003BF
:1021E000C003E007700F300E381E1C3C0E78000054
:1021F00000000000000000000000000000000000DF
:102200000000000000001E701C301C383818381CFC
:10221000781C700EF00EE007E007C003C003C00199
:102220008001C001C000E0007C003C000000000014
:1022300000000000000000000000FC3FFC3F0038F0
:10224000001C000E00078003C001E0007000380091
:102250001C00FC3FFC3F00000000000000000000EC
:102260000000001F801FC003C001C001C001800327
:10227000800380038003C001F800F800C0018003E0
:10228000800380038003C001C001C001C003801F20
:10229000001F00000000800180018001800180019A
:1022A0008001800180018001800180018001800126
:1022B0008001800180018001800180018001800116
:1022C000800180018001000000007C00FC00E00132
:1022D000C001C001C001E000E000E000E000C0017A
:1022E000800F800FC001E000E000E000E000C001CE
:1022F000C001C001E001FC007C0000000000000003
:1023000000000000000000000000000000000000CD
:10231000000000007860FC63C63F061E000000005D
:1023200000000000000000000000000000000000AD
:1023300011241FBECFEFD8E0DEBFCDBF21E0A0E06B
:10234000B1E001C01D92A93EB207E1F70E94493CED
:102350000C94673F0C9400009091A201981303C065
:102360008091A50108959091A301891303C08091E4
:10237000A60108958091A701089580E00E94BB23E3
:1023800081E00E94BB2382E00E94BB238DE30E9478
:10239000323B80E00E94BF2381E00E94BF2382E0A5
:1023A0000E94BF230895A3E0B0E0E9EDF1E10C94B1
:1023B000BA3E89836A834B83CE0101967C0110E08B
:1023C000F70101917F01002351F0812F0E94BB236F
:1023D0000E94CC23802F0E94323B0E94C4231F5FA7
:1023E000133071F72396E6E00C94D63E81E592E037
:1023F0000E94AC238AE492E00E94D5238EE0809371
:10240000090183E00E94A8258091A0018F5F80933D
:10241000A0010895809101018130C9F486EF91E017
:102420000E94AC230E948A23809106010E94BB2354
:102430000E94CC230E94C42360910701709108017F
:1024400080E090E026E54DEF0E94A42408958230BC
:1024500011F40E94F6110895CF93C62F0E94323BCB
:1024600082EC90E00E94AC238C2F0E94323B0E94B1
:10247000C423EBE0F1E0638174818581968124E0DF
:1024800042810E94A424CF910895A0E0B0E0EBE443
:10249000F2E10C94B83E80910401813039F4F0905F
:1024A0000B0100E010E0CBE0D1E05BC0833009F02D
:1024B0004CC000910E0110910F012091100130913C
:1024C0001101609115017091160180911701909191
:1024D0001801E0900D01409114010E940018813014
:1024E00029F422E1C22E21E0D22E04C09BE0C92EA5
:1024F00091E0D92EF6010381148125813681609106
:102500001C0170911D0180911E0190911F01E280BC
:1025100040911B010E940018813021F489E1C82EEE
:1025200081E0D82EFBE0CF16F1E0DF0619F4C2E11E
:10253000D1E002C0CBE0D1E08E01095F1F4FC01691
:10254000D10639F4095F1F4F04C002E111E0CBE06E
:10255000D1E08881F801F0808F1519F0F1808F119A
:10256000F9800E9427248881F81201C089810E9485
:10257000BB2382EC90E00E94AC238F2D0E94BB23F2
:102580000115110561F082EC90E00E94AC23F80186
:102590008081F81202C0F80181810E94BB230E9451
:1025A00015240E948A236B817C818D819E8124E089
:1025B0004A810E94A4240115110551F00E94C423F0
:1025C000F801638174818581968124E0428112C083
:1025D000CE010E94F136813079F40E94C4236091CB
:1025E000DB017091DC018091DD019091DE0128E436
:1025F0004091DA010E94A424CDB7DEB7E8E00C9444
:10260000D43EEF920F931F93CF93DF930091480135
:102610001091490120914A0130914B01609156017E
:10262000709157018091580190915901E0904701B4
:10263000409155010E940018813019F4C3E5D1E0A2
:1026400002C0C5E4D1E00B811C812D813E816091E7
:102650006401709165018091660190916701EA8043
:10266000409163010E940018813011F4C1E6D1E06D
:102670000E94272488810E94BB238FEC90E00E9457
:10268000AC2389810E94BB230E9415240E948A23C7
:102690006B817C818D819E8126E44A810E94A424E5
:1026A000CE010E949C298C010F3F8FEF180749F043
:1026B0000E94C423B80180E090E024E04EEF0E9425
:1026C000A4248B859C85892B61F086EE90E00E9486
:1026D000E0236B857C8580E090E021E44D850E94BD
:1026E000A424DF91CF911F910F91EF900895EF9265
:1026F0000F931F93CF93DF93EC016091B30170911F
:10270000B4018091B5019091B60127EFE22E02E36A
:1027100010E020E030E04091B7010E94001887FDF2
:1027200010C0CE010E94E0236091B3017091B4010A
:102730008091B5019091B60121E44091B7010E94CA
:10274000A424DF91CF911F910F91EF90089540E065
:10275000FC01608181810E94842DE5E4F1E06381C8
:1027600074818581968126E442810E94A424089583
:10277000CF93C62F0E94BF2381E00E94323B8C2F53
:102780000E94BF23CF910895A0E0B0E0EAECF3E10E
:102790000C94B73E0E94272480910501813051F4AA
:1027A000E0907001E5E0DE2EF5E0FF2E85E000E030
:1027B00010E01FC18230F1F4F0906F01D0907501EC
:1027C000C0907001E0907601FD1006C0DE2C75E02F
:1027D000E72EBB24B3945AC0CE1409F407C1FE10EF
:1027E000FFC0DC10FDC0EF2C35E0D32E45E0C42E39
:1027F000B12C4CC0833009F03FC080E066E0282F48
:1028000030E090E0629FF001639FF00D1124E059E9
:10281000FE4F492F50E0981769F0649FD001659FE3
:10282000B00D1124A159BE4FC0817C91C71302C0C5
:1028300095E085E09F5F933060F38F5F8330F8F21F
:10284000853048F086E0849F8001859F100D11241B
:1028500001591E4F02C000E010E086E0829FE001B7
:10286000839FD00D1124C159DE4FE98055E0D52E4C
:1028700065E0F62E83E0BFC08BEC90E00E94D02391
:1028800080910501805D0E94323BBCC082E08F15C3
:1028900090F0809170010E94BB2387EC90E00E9431
:1028A000AC238F2D0E94BB23CFE6D1E005E711E0DA
:1028B000EF1017C01BC005E711E0CFE6D1E088811B
:1028C0000E94BB238BEC90E00E94AC238E2D0E94D3
:1028D000BB230115110599F0FE1441F0F3E0FF153B
:1028E00028F0F801E1808BEC90E004C0F801E08072
:1028F00087EC90E00E94AC238E2D0E94BB230E94A7
:102900001524F4E0FC15F8F049E16D2D8C2D0E94A2
:102910005A298130C1F40E94C42382E08F1518F037
:102920008FE491E002C083E591E00E94AC238FE345
:102930000E94323B0E948A2361E36D0D81E38C0D7E
:102940000E942C12B12C8AE391E00E94E0236A815C
:102950007B8180E090E026E54DEF0E94A4240E9458
:10296000C4230115110529F58C819D818A3F9105AC
:1029700060F488E20E94323B6C817D8180E090E0CF
:102980000E94392589E20E94323B688189810E9438
:10299000CE2081E00E945B2E80E391E00E947713BD
:1029A000E1E0BE122FC088E391E00E94E023CE0157
:1029B00027C0F8016281738180E090E026E54DEF49
:1029C0000E94A424F1E0BF121DC088E391E00E94A0
:1029D000E023CE010E94A7130E94C423C80110C0A7
:1029E00085E0D82E95E0F92E25E0E22E85E005E77A
:1029F00011E0CFE6D1E0CF2CF82EBB24B3945FCF0B
:102A00000E94A713CDB7DEB7E9E00C94D33E8F92B6
:102A10009F92AF92BF92EF92FF920F931F93CF932B
:102A2000DF93809101019091A201C091A401D09106
:102A3000A30180FF09C0192F0D2F7801DC2F93E52A
:102A4000A92E91E0B92E08C01C2FC92F7E01012F9D
:102A50008FE4A82E81E0B82E60EE7FEF8DED91E03F
:102A60000E94102460EE7FEFC5010E94FD2380913B
:102A7000010182FF03C08BE20E94323B0E948A2345
:102A80000E94BD11602F8D2F0E94BE2E892B31F028
:102A90000E94C423602F8D2F0E94B81349E1612F3B
:102AA0008C2F0E945A29813049F40E948A2365E4C0
:102AB00082E40E942C1284E080932A018BE491E04E
:102AC0000E94E0236091AF017091B0018091B1014B
:102AD0009091B2010E9439250E94C4238091A801DF
:102AE00080FF02C085E603C081FF03C083E60E9429
:102AF000323B6C2F812F0E94BE2E8C01892BA1F1BD
:102B000087E491E00E94E023F801C281D38124810F
:102B100035818090AF019090B001A090B101B0904C
:102B2000B201F4E68F169104A104B10498F0CE012D
:102B3000821B930B63E070E00E94323E8AEF88169E
:102B40009104A104B10418F4C61BD70B03C0EB0118
:102B5000C20FD31FCE01A0E0B0E026E54DEFBC01CF
:102B6000CD010E94A42402C0C0E0D0E08DE391E03A
:102B70000E947713C53FD140E0F06E2D8F2D0E944B
:102B8000BE2EEC01892BA9F08A819B81823C914069
:102B900080F40E948A236E2D8F2D0E94B8130E940C
:102BA000C4236A817B8180E090E026E54DEF0E949E
:102BB000A424DF91CF911F910F91FF90EF90BF90D0
:102BC000AF909F908F9008950F931F93CF93DF93B3
:102BD000909101018091A401C091A30190FF02C0D6
:102BE000D82F02C0DC2FC82F6C2F8D2F0E94BE2E35
:102BF0008C01892B31F00E94C4236C2F8D2F0E94F1
:102C0000B8138091010182FF3BC08091AB0190918C
:102C1000AC01892B81F084E391E00E94E023609174
:102C2000AB017091AC01072E000C880B990B26E5C7
:102C30004DEF0E943E2587E591E00E94E0236091E0
:102C4000B8017091B9018091BA019091BB0126E45D
:102C50004091BC010E94A4248091A9019091AA01F5
:102C6000892B71F082EE90E00E94E0236091A9012F
:102C70007091AA0180E090E024E04EEF0E94A4242D
:102C800001151105A1F00E948A2381E00E94323BC8
:102C90000E94C4238AE391E00E94D023F80162815C
:102CA000738180E090E026E54DEF0E94A424DF913F
:102CB000CF911F910F9108950E94C423809101012B
:102CC00080FF02C08EE401C080E50E94323B8AE6AC
:102CD00091E00E94AC2308950E94C42380910101D9
:102CE00082FF03C085E691E002C080E691E00E9489
:102CF000AC2308950E9427248091010184FF05C020
:102D000082E791E00E94AC2303C08AE40E94323B38
:102D10008EE691E00E94AC230E945C168091010136
:102D200084FD0E946C160E9415240E948A230E9432
:102D3000BD110E94E4158091010183FF1EC08AEE3F
:102D400090E00E9477138091AD019091AE01892BA4
:102D5000A1F088ED90E00E94E0230E948A230E9467
:102D6000C4236091AD017091AE01072E000C880B59
:102D7000990B26E54DEF0E943E2508950E942724D9
:102D80008BE591E00E94AC230E945C160E946C16B9
:102D90000E9415240E948A230E94BD110E94E415FE
:102DA00008958091000160EE7FEF823219F489ED81
:102DB00091E002C083ED91E00E94FD230E948A23EE
:102DC0000E94BD118091A9019091AA01892B71F0F7
:102DD00082E491E00E94E0236091A9017091AA0130
:102DE00080E090E026E54DEF0E94A4240895CF9363
:102DF000DF9360EE7FEF8FEC91E00E94FD230E9455
:102E00008A230E94BD118DE291E00E94E023C2E37B
:102E1000D1E06D817E8180E090E026E54DEF0E945B
:102E2000A4248AE391E00E94E0236B817C8180E00E
:102E300090E026E54DEF0E94A424DF91CF91089504
:102E400060EE7FEF8EEA91E00E94FD230E948A23CC
:102E50000E94BD1183ED90E00E94E023EBE0F1E0E1
:102E6000638174818581968124E042810E94A4243B
:102E70000895CF93DF938EE00E94FD1FC3E9D1E058
:102E80009F838E8388EC8B838EE00E94FD1F2091B0
:102E9000D601820F911D27FD9A959F838E8389E12C
:102EA0008B83DF91CF9108950E94673A8FEF97E06F
:102EB00090932701809326018AEC91E00E94AC2335
:102EC000F8940FB6F894A89580916000886180937B
:102ED0006000109260000FBE80E48BB983B7817FE1
:102EE000846083BF83B7816083BF889583B78E7FFB
:102EF00083BF08958EEB91E00E94D02380919D01C5
:102F000090919E016AE070E00E941E3E80E090E099
:102F100026E54EEF0E94A4240E94C42380919D01C7
:102F200090919E01823126E1920748F480E098EF6B
:102F3000909327018093260182EB91E014C08037A3
:102F4000974148F480EE9FEF9093270180932601EC
:102F500086EB91E008C080EE97E090932701809384
:102F600026018BEB91E00E94AC2380EE97E09093DA
:102F7000270180932601089585E00E94FD1F9C0192
:102F8000A3EABFE00E948D3E28EE33E040E050E02F
:102F90000E94463E20573E4F30939E0120939D0154
:102FA00084E680939F012231364150F40E94673AB3
:102FB0000E947A1788EB9BE00E94961B0E94541790
:102FC0000895CF92DF92EF92FF92CF93C1E02AE073
:102FD000C22ED12CE12CF12C6A30710581059105AE
:102FE00040F0A70196010E94463ECA01B901CF5F99
:102FF000F3CF8C2FCF91FF90EF90DF90CF9008957B
:10300000A0E0B0E0E6E0F8E10C94AF3E4B015C01DB
:10301000342E280139011E2D9B01AC01D1E09AE02C
:10302000C92ED12CE12CF12C2A3031054105510556
:1030300040F0CA01B901A70196010E94463EDF5F38
:10304000F3CFA3019201C1E08AE0C82ED12CE12C7C
:10305000F12C2A3031054105510540F0CA01B90172
:10306000A70196010E94463ECF5FF3CF81149104E1
:10307000A104B10459F1411451046104710409F12E
:10308000432D4D0FE12EEC0EE4164CF14E1129C0EC
:10309000ED2FCD1754F4AAE0B0E0A30192010E94F5
:1030A000A33E2B013C01CF5FF4CFEC1754F4AAE010
:1030B000B0E0A50194010E94A33E4B015C01EF5FCB
:1030C000F4CF481459046A047B0448F081E0841466
:1030D0009504A604B70408F080E0819503C081E060
:1030E00001C08FEFCDB7DEB7E1E10C94CB3ECF92BC
:1030F000DF92EF92FF92CF93DF93C42FD22F2AE07B
:10310000C22ED12CE12CF12CCD1791F0CD1744F427
:10311000A70196010E94463ECA01B901CF5FF4CFD4
:10312000AAE0B0E09B01AC010E94A33EC150ECCFED
:10313000DF91CF91FF90EF90DF90CF9008951F9394
:10314000CF93DF931AB18AB18E7D8AB90E94363C43
:10315000C0E0D0E089B18095982F917269F080FD30
:10316000DF5F85FDCF5F8D2F8C0F8A3038F48EE1C5
:1031700090E00E94961BEECF90E001C092E0DD232C
:10318000A9F0C1111DC084E020912F01281308C0AF
:10319000923031F490913101973018F49F5F01C063
:1031A00091E0909331019093300103C0C11106C0AA
:1031B00080E01AB9DF91CF911F91089585E0E4CFA7
:1031C00086E0E2CFA0E0B0E0E8EEF8E10C94B43E97
:1031D0006C01062F81E0809330018091940185FF7E
:1031E00004C098E7E92EF12C02C0E12CF12C02FF7B
:1031F00008C08091930180FD02C00C7F02C0C12CE9
:10320000D12C802F8370B82E19F081E00E94A43B4E
:10321000C0E0D1E010E084E1A82E802F8270982ECB
:10322000802F8071882E0870C114D10449F086E087
:10323000C816D10420F085E0C81AD10801C0D0E03A
:103240004F9935C08EE190E00E94961BC0E0DD23CF
:1032500011F04F9B04C0CB3108F05DC008C0CF5FB8
:10326000CB31C8F78AE090E00E94961BF0CF002394
:1032700009F454C082E390E00E94961BC4E111E07F
:103280004F990CC08EE190E00E94961B4F9906C0AA
:1032900088EC90E00E94961BC1E013E0C1508AE0E8
:1032A00090E00E94961BC111EBCFD0E03FC00E947E
:1032B0009F18811148C085E090E00E94961BCF5F67
:1032C0008C2F6A2D0E94043E91110BC080919F01AA
:1032D000823020F0815080939F0103C081100E94B2
:1032E000BC17C43619F5992059F0D13029F480E083
:1032F0000E94A43BD2E004C081E00E94A43BD1E044
:10330000E114F10471F081E0E816F10461F081E06C
:10331000E81AF10806C0D0E012E008C0D0E011E0E1
:1033200005C0C0E003C0C0E0D0E017E68091940182
:1033300080FF06C0809194018E7F8093940104C029
:10334000D11172CF01C0182FBB2019F080E00E946C
:10335000A43B10932F01173611F40E945417812FAC
:10336000CDB7DEB7ECE00C94D03E65E188EB9BE096
:103370000E94E21808950F931F93CF93DF93D82FE5
:10338000882321F00EE012E0C3E003C005E112E063
:10339000C0E00E941721C817E9F00E94673AC801EF
:1033A0000E94AC238FEF91E00E94D5230E94172149
:1033B000C81305C088EC90E00E94961B0BC060E12A
:1033C00084E690E00E94E218D13081F7882371F3FF
:1033D00080E001C081E0DF91CF911F910F910895AE
:1033E000681310C080EE9FEF909327018093260111
:1033F0008AE20E94323B80EE97E09093270180930F
:10340000260108950E94C4230895A0E0B0E0EBE0F7
:10341000FAE10C94B13E762E642E552E59010FEF31
:10342000080F90902401DD24DA94D90C0E942724FF
:103430000E94CC230E94152412E0D0E0C0E09A94B0
:103440009A9481E0882E8D1881E0D81202C01F5F07
:10345000DC2FE62CF52CED0EF11CED0EF11CC12C31
:10346000CD1488F562E06C0D81E00E94D439E1E072
:10347000DE1629F06C2F8D2F8C0D0E94F019113063
:10348000D1F0F1E07F1206C0F701808191810E94A6
:10349000AC2308C0C7010E94493FBC0180E090E016
:1034A0000E943925A114B10419F0C5010E94AC2372
:1034B00080E00E94FF39F2E0EF0EF11CC3940C157E
:1034C00078F6CD2CCDCF81E0D81209C060912401CF
:1034D000809123010E94D4398CE30E94323B60E149
:1034E00080E090E00E94E218813091F18430D1F0C8
:1034F000853089F4C11106C00D1538F1D82DD00FD3
:10350000C02F07C0C150DC1321C0CD2FDD23F1F047
:10351000D15012E099CF8230D9F08736B9F40E94A9
:10352000541714C00C1304C00D1558F012E00AC053
:10353000CF5F892D8D0FC81309C0C01738F4DF5F26
:10354000E8CF11E0D0E0C0E07FCFC02F11E07CCF0A
:103550000E94673A84EF91E00E94961B8C2FCDB7B2
:10356000DEB7EFE00C94CD3EA9E0B0E0EAEBFAE183
:103570000C94BD3E182F82EF90E09A83898381E0FE
:103580008F838FEE90E09C838B8382E088878AEE26
:1035900091E09E838D8319860E94673A60EE7FEFEB
:1035A000123019F48DE292E002C088E292E00E94AB
:1035B000FD2320E030E0AE014F5F5F4F61E083E02C
:1035C0000E94051AFE01E80FF11D6781662319F0BC
:1035D000812F0E94271C2996E3E00C94D93EA8E194
:1035E000B0E0E5EFFAE10C94BE3E82EA91E09A8306
:1035F000898383E1898B8DE791E09C838B8389E2CA
:103600008A8B82EC91E09E838D8381E08B8B82E3B9
:1036100092E098878F8382E08C8B8DE292E09A878C
:10362000898783E08D8B88E292E09C878B8784E09A
:103630008E8B8CE192E09E878D8785E08F8B8AEE62
:1036400091E0988B8F87188E0E94673A60EE7FEF2B
:103650008DE392E00E94FD2320E030E0AE014F5F59
:103660005F4F61E088E00E94051AFE01E80FF11D3E
:1036700081896896E2E00C94DA3ECF930E94EF1ABB
:103680009091930190FF10C0909194019F7D909331
:103690009401833059F008F1853099F070F083314E
:1036A000A9F08932B1F023C0833011F482E006C062
:1036B000843098F0853029F038F481E00E94B41A03
:1036C0000AC00E945E1C07C08331C1F40E943838D2
:1036D00002C00E944439C1E005C0813001F50E945A
:1036E000DD1EC82F8091930180FD02C00AC0C1E099
:1036F0008091940180628093940103C0893249F3E0
:10370000C1E00E94673AC11103C08FEE91E002C090
:1037100084E492E00E94AC238C2FCF9108958230F4
:1037200018F00E94CA1CDDCFC9E6DCCF0F931F93AF
:10373000409195019C01A4E1B0E00E948D3E46308D
:10374000D1F4072F182F292F33270F5F1F4F2F4F2B
:103750003F4F54E0000F111F221F331F5A95D1F71E
:10376000061717072807390728F4601B710B820B0F
:10377000930B01C040E01092B1001092B20022E021
:103780002093B0002093700023B7217F422B43BFCA
:103790000FB607FC03C0789430E001C031E047E089
:1037A0006115710581059105F9F0A8956F3F7105C7
:1037B0008105910509F010F4262F01C02FEF621B3F
:1037C00071098109910921502093B3004093B10000
:1037D0002091B100222321F323B7216023BF8895D4
:1037E00023B72E7F23BFF4CF311101C0F8941F916E
:1037F0000F9108951F920F920FB60F9211241092FD
:10380000B1000F900FBE0F901F901895EFECF1E0F4
:1038100088EC90E0918380838CED90E093838283A9
:1038200084E190E0958384838BE2868317821086FF
:1038300011860895EFECF1E080E09191890F91E01D
:10384000E93DF907D1F7811101C081E008951F9387
:10385000CF93DF93182F623019F0CDE8D2E002C089
:10386000C2E8D2E00E941A1C8093D9014BE050E0DC
:10387000BE018FEC91E0123019F40E944F3F1AC044
:103880000E94313F0E941A1C9091D901992391F016
:10389000891781F00E94673A81EE91E00E94AC2383
:1038A0008FEE91E00E94D52380ED97E00E94961B59
:1038B0000E94061CDF91CF911F9108950F931F93D3
:1038C000CF93DF9381E0809320010E94673A8CE1DF
:1038D00091E00E94D023CFECD1E06881798180E033
:1038E00090E024E04FEF0E94A42488E191E00E9440
:1038F000E0236A817B8180E090E024E04FEF0E942A
:10390000A42482E091E00E94E0236E8170E080E0D8
:1039100090E026E444EF0E94A4248FEF90E00E9400
:10392000E0236C817D8180E090E024E04EEF0E94F6
:10393000A42488E291E00E94E02303E911E0F80169
:103940006681778180E090E026E54DEF0E94A42417
:103950008BEF90E00E94E023F8016085718580E0A4
:1039600090E026E54DEF0E94A42485EF90E00E94B0
:10397000E0236885062E000C770B880B990B26E553
:103980004DEF0E943E250E94B519DF91CF911F9106
:103990000F910895A5E0B0E0E0EDFCE10C94AE3E9F
:1039A00081E00E94BB19612C712C1B82A12CB12CCF
:1039B0001A82C12CD12C412C882309F478C1812C86
:1039C000912C212CE12CF12C00E010E01D821C82B6
:1039D00062E0562E3324339421E029830E94673A13
:1039E0000E94272481E40E94323B80E3850D0E94DF
:1039F000323B0E9415240E94C42334E0531609F47C
:103A00004EC0351568F082E0581699F093E05912CF
:103A100005C180E00E94BB1980E094E69983FFC055
:103A200025E0521609F464C036E0531609F49FC02D
:103A3000F5C08FEF90E00E94D02385E091E00E94D6
:103A4000AC2360E081E00E94CE2080E00E9421262D
:103A50009D838C838639910518F4C80ED91E439432
:103A600060E082E00E94CE2080E00E9421268C014E
:103A70008639910518F4C80ED91E439461E082E09E
:103A80000E94CE2080E00E9421267C0186E9E81673
:103A9000F10408F0C3C0CE0CDF1C4394BFC08CE11E
:103AA00091E00E94AC2318B837B835B834B880E03C
:103AB0000E945E209D838C8322E027B955B854B8BC
:103AC00081E00E945E208C018C819D81800F911F7E
:103AD000A80EB91E57B830E135B934B982E00E945A
:103AE0005E207C01A80EB91E8A818D5F8A8396C0F4
:103AF00088E191E00E94AC2315B838B837B834B8E3
:103B000020919B0130919C013D832C8380E00E9499
:103B10005E202C813D81281B390B3D832C8332E0B4
:103B200038B937B984E084B900919B0110919C01A8
:103B300081E00E945E20081B190B8C819D81800F03
:103B4000911F680E791E94E098B997B920E124B9C5
:103B5000E0909B01F0909C0182E00E945E20E81AB8
:103B6000F90A6E0C7F1C3B813D5F3B8357C082E0AE
:103B700091E00E94D02385E091E00E94AC2340E0D8
:103B800060E081E00E94842D80914701843F91F4A0
:103B900080914C0190914D01A0914E01B0914F0147
:103BA00085369105A105B10528F49D838C83880E87
:103BB000991E239441E060E082E00E94842D809170
:103BC0005501843F89F480915A0190915B01A09145
:103BD0005C01B0915D0185369105A105B10520F428
:103BE0008C01880E991E239442E061E082E00E94DD
:103BF000842D80916301843F89F4809168019091C4
:103C00006901A0916A01B0916B0185369105A1050A
:103C1000B10520F47C01880E991E239481E017B829
:103C200018B814B815B88823B9F00E948A232C81DB
:103C30003D81B90180E090E00E9439250E94C423B3
:103C4000B80180E090E00E9439250E94C423B701AA
:103C500080E090E00E9439253981343681F060E1BE
:103C600088EE93E00E94E218882349F0823029F41C
:103C700054E6552E84E6898302C094E6998329810F
:103C80002F5F2983263008F4A9CE539436E03515EA
:103C900008F0A2CE8FE028120AC0C4016FE070E0E5
:103CA0000E941E3E6093D50191E0998301C0198264
:103CB0002FE042120CC0C6016FE070E00E941E3E71
:103CC0007093D4016093D30139813F5F39833A8186
:103CD0003F3009F069C08B818F3009F062C0E5E0A8
:103CE000F0E0C501BF010E941E3E9B01C301BF0160
:103CF0000E941E3E8B0180919B0190919C016C0162
:103D0000CC0CDD1CC80ED91EC21AD30AC61AD70A9B
:103D1000E12CF12CD90120EA39E041E050E00E9489
:103D2000A33EA70196010E94463ECA01B9016B5FFE
:103D30007F4F8F4F9F4F2AE030E040E050E00E94DD
:103D4000463E2A3F31054105510538F43093D001F4
:103D50002093CF0199819F5F9983D80120EA39E0B0
:103D600041E050E00E94A33EA70196010E94463E1A
:103D7000CA01B9016B5F7F4F8F4F9F4F2AE030E040
:103D800040E050E00E94463E283181E0380741057E
:103D9000510538F43093D2012093D10199819F5F6E
:103DA00099832981243011F080E003C00E945E1CB9
:103DB00081E02596E2E10C94CA3EA0E0B0E0E3EE9B
:103DC000FEE10C94AE3E81E00E94BB19882309F409
:103DD0000EC1C12CD12CE12CF12C00E010E0C1E08F
:103DE00092E0292E28E0322E3AE7432E35E0532E7A
:103DF000612C712CD1E00E94673A0E94272484E54F
:103E00000E94323B80E38C0F0E94323B0E941524BB
:103E10000E94C423C33009F46BC0C8F5C13009F453
:103E200051C0C23009F0A8C083E191E00E94D023C4
:103E300085E091E00E94AC2320919B0130919C0190
:103E4000ACEBB2E00E948D3EA30192010E94683E5D
:103E500049015A0181E085B985E084B982E00E9478
:103E600067206C01C818D90881E184B981E00E94FB
:103E700067207C01E818F90884E085B984E184B9F9
:103E800080E00E9467208C010819190975C0C530AF
:103E900009F45DC008F455C0C63009F06DC080E279
:103EA00091E00E94AC2325B824B880E00E946720EE
:103EB0008C0135B834B881E00E9467207C0180E233
:103EC00085B955C08EE00E94FD1F8EE00E94FD1F47
:103ED0005C0188E291E00E94AC230E948A23B50134
:103EE00080E090E026E54DEF0E94A42480E045C0EC
:103EF0008EE091E00E94D02385E091E00E94AC2307
:103F000000919B0110919C011695079525B88AE0B8
:103F100084B982E00E9467206C01C01AD10A82E253
:103F200084B981E00E9467207C01E01AF10A35B86B
:103F300088E284B980E00E946720801B910B8C018D
:103F40001BC080E00E94BB1980E0D4E616C084E26A
:103F500091E00E94AC2315B824B880E00E9467204D
:103F60008C0134B881E00E9467207C0180E284B932
:103F700082E00E9467206C0181E014B815B88823A4
:103F800009F10E948A2320E040E0B801012E000CD4
:103F9000880B990B0E947D240E94C42320E040E0FE
:103FA000B7010F2C000C880B990B0E947D240E94F6
:103FB000C42320E040E0B6010D2C000C880B990BC7
:103FC0000E947D24D43659F060E188EE93E00E948F
:103FD000E218882321F0823009F4C4E6D4E6DF5FDA
:103FE000D63008F408CFCF5FC73008F403CF81E0A4
:103FF000CDB7DEB7E2E10C94CA3ECF93DF938F706A
:10400000C82FC064C0937C00DC2FD07C80919801C5
:10401000D81721F00E943A3CD093980180917A0001
:10402000806480937A0080917A0086FDFCCF20E046
:1040300030E0A90180E0E09196018E1708F590919B
:104040007A00906490937A0090917A0096FDFCCF6C
:104050006091780070917900260F371F411D511D26
:10406000843061F4211594E0390740F4D03C31F0FC
:1040700090919701913011F4C06CC4CF8F5FDBCF6A
:10408000D03C29F4A0919901B0919A0104C0A0916B
:104090009B01B0919C010E94A33E2AE096958795D2
:1040A000779567952A95D1F72E2F30E040E050E0C4
:1040B0000E94463EC901DF91CF910895CF93C82F4A
:1040C0000E94313C8C2F0E94FD1FCF910895CF9309
:1040D000C82F0E942F3C8C2F0E94FD1FCF91089566
:1040E000A0E0B0E0E6E7F0E20C94B83EE62E042F44
:1040F000CDEBD1E0888369834A83C82ED12CC601D9
:10410000875F9F4F0E94413F8E83F12CC701875FDD
:104110009F4F0E94413F8F8310E0C801875F9F4FF0
:104120000E94413F8887C6018A5F9F4F0E94413F9E
:104130008987C7018A5F9F4F0E94413F8A87C801D4
:104140008A5F9F4F0E94413F8B87C6018D5F9F4FC3
:104150000E94413F8C87C7018D5F9F4F0E94413F66
:104160008D87C8018D5F9F4F0E94413F8E87C6019A
:10417000805090400E94413F8F87C70180509040FF
:104180000E94413F888BC801805090400E94413F6F
:10419000898BCDB7DEB7E8E00C94D43E43E0481BF2
:1041A000461B0E9470200895EDEBF1E0458164818B
:1041B00083810E9470200895EDEBF1E0808183837C
:1041C00081818483828185830895CF93DF930E94C8
:1041D000CE2017B89091C30195B98091C401892B65
:1041E00084B98091CC010E945E20EC018091CD01C8
:1041F0000E94FD1FAC0120919B0130919C013695DE
:104200002795C9014E978C179D0760F4225E3F4F9A
:10421000C217D30738F48417950720F481E04217BA
:10422000530708F080E014B8DF91CF910895CF9341
:1042300061E080E00E94E520C82F62E080E00E94FB
:10424000E520C80F62E081E00E94E5208C0FCF914D
:1042500008950F931F93CF93DF93D82FC62F17B8CE
:1042600018B814B815B80E94CE208091C90187B93A
:104270008091CD010E94FD1F8C018091CA0187B9F8
:104280008091CC010E94FD1F0817190720F46D2FA3
:104290008C2F0E94CE208091C90187B98091C401E2
:1042A00084B9C2E38091CD010E94FD1F9C01203999
:1042B00081E0380738F0C15069F084E690E00E9450
:1042C000961BF0CF87B19091CA01982B97B92832ED
:1042D000310588F717B814B8DF91CF911F910F916E
:1042E0000895A6E0B0E0E7E7F1E20C94B43E17B819
:1042F00018B815B88FE384B980E00E94FD1F9A8337
:10430000898381E00E94FD1F9C838B8382E00E9451
:10431000FD1F9E838D83E12C02E018E2FF24F394BD
:10432000AA24A394B12C0F5F033009F400E0C02E3F
:10433000D12C8E2D90E0002E02C0959587950A9481
:10434000E2F780FDF0CFC601805090400E94413FCF
:10435000982E0E94FD1FF601EE0FFF1F21E030E0B6
:104360002C0F3D1FE20FF31F20813181821793072D
:1043700068F491838083212F30E02F193109243193
:10438000310564F41B3E50F41C5E08C08A30910570
:1043900018F4183209F410E5F39402C0FF24F394E2
:1043A0008330910540F4C5010C2C01C0880F0A949C
:1043B000EAF7E82A0BC08032934040F487B0C60188
:1043C0008D5F9F4F0E94413F882987B987E0E8169B
:1043D00081F11F1540F581E0809300018093010178
:1043E00000930601C6018D5F9F4F0E94413F97B128
:1043F0008095982397B9C6018A5F9F4F0E94413FDD
:10440000182FC601875F9F4F0E94413F94B1812BB7
:104410008095892384B9892D0E94FD1F90930801FE
:104420008093070106C0A89582E390E00E94961B46
:104430007ACF14B817B82696ECE00C94D03ECF9300
:10444000C82FC09595B160FF02C0982B01C09C2376
:1044500095B994B1892B84B963FF03C00E94353CA0
:1044600002C00E94303C84B18C2384B985B1C8233A
:10447000C5B9CF910895A0E0B0E0E1E4F2E20C9478
:10448000B93E613039F0623071F06330A9F080E0FC
:1044900090E04DC0CCE4D0E0E7E0F0E002E310E0D3
:1044A00028EE33E011C0CEE5D0E0ECE2F0E009E127
:1044B00010E02CE231E008C0CCE0D0E0EEE1F0E02A
:1044C00009E110E028EC30E08217930768F1821BC5
:1044D000930BB8010E941E3ED02ED81ACB0199270B
:1044E000E817F90708F46E2FC60FD11DC60FD11DAE
:1044F000CE010E94493F7C01CE0102960E94493FB5
:10450000FC01E81AF90ADE9C9001DF9C300D1124B1
:10451000C80196958795820F931FB8010E941E3E91
:10452000CF01860F971F03C0D02E60E0DDCFCDB73F
:10453000DEB7E7E00C94D53ECF93DF939091000176
:10454000913009F4C3C0A8950E94702015B88091DD
:10455000C40184B98091C90187B988B960E18091AB
:10456000C5010E941F228091CD010E945E20EC01B6
:104570009091C4018091C501892B84B98091CD01AE
:104580000E945E202091C40124B98C179D0720F45D
:104590008530910508F498C0C13D23E0D20700F1B1
:1045A00061E18091C5010E941F228091CD010E948E
:1045B0005E20EC018091C50185B99091C401892BE1
:1045C00084B98091CD010E945E2015B82091C4016C
:1045D00024B98C179D0720F48530910508F474C028
:1045E000C031D10560F080910201811103C0CE017C
:1045F0000E94C532C13D83E0D80708F048C08091D1
:10460000020181111BC08091C40184B915B8809149
:10461000C90187B988B90E94313C9091C401809149
:10462000C501892B84B98091CD010E945E208F3510
:104630009D4020F0BE0182E00E940E318091020177
:1046400081112DC08091CA0187B918B89091C3011A
:104650008091C501892B84B985B98091CC010E94D4
:104660005E208034964060F40E948D34811108C031
:1046700080910001813221F0BE0181E00E940E3163
:104680008091020181110BC00E947F3508C080918A
:104690000201811102C00E942E350E94D12E80910C
:1046A0000001882311F08A3019F40E94ED2607C01A
:1046B0008F3129F48091010184FD0E94D02F17B819
:1046C00018B814B815B802C0EC0199CFDF91CF919A
:1046D0000895809103018823E1F09091020190FDFB
:1046E00018C091FD04C0909100019E3190F4809318
:1046F0000001809132018093A20180913301809367
:10470000A301809134018093A40180910A018093D8
:1047100009010895CF9360912201809124016813CB
:1047200015C0C0912001C0FD0E94B519C1FF0BC08A
:10473000C0912401C23028F08C2F0E94FF39C15053
:10474000F9CF62E004C00E94673A04C06F5F81E065
:104750000E94D439CF910895CF93DF93EC01CE011D
:104760000E94413F882321F00E94323B2196F7CFDF
:10477000DF91CF9108958F5C0E94323B08950E9493
:10478000AC110E94323B089580E20E94323B0895B2
:104790008DE20E94323B08958AE30E94323B0895E5
:1047A0000E94AC230E94C4230895CF93DF93EC01B1
:1047B0000E948A23CE010E94AC23DF91CF910895FD
:1047C000CF93DF93EC010E948A23CE010E94AC2399
:1047D0000E94C423DF91CF91089582E00E94FF39A7
:1047E00062E081E00E94D439089583E00E94FF399D
:1047F00063E081E00E94D43908950F931F93CF9313
:10480000DF93C0E2D1E00E811F817F836E830E941F
:10481000AC231F830E83DF91CF911F910F910895D9
:104820000E94FD230E94C4230895E0E2F1E0808508
:104830009185978386830895E0E2F1E086819781F0
:104840009187808780EE9FEF9783868308950E94EB
:104850001C240895A0E0B0E0E0E3F4E20C94B83E3C
:104860006B017C01D42F022F0E941C242AE049E313
:1048700051E0C701B6010E94E53EE9E3F1E0019095
:104880000020E9F73197CF0189539140F82EDD23BD
:1048900069F08D1728F0C82FCD1BD0E041F401C07E
:1048A000D81B80E30E94323BC0E001C0C4E689E32C
:1048B000C82E81E0D82E10E01F1598F41C130AC0F2
:1048C0008CE20E94323BDD2329F080E30E94323BE0
:1048D000D150F9CFF60181916F010E94323B1F5FE9
:1048E000EBCF0E941524002319F0802F0E94323B49
:1048F000CDB7DEB7E8E00C94D43ECF92DF92EF92D2
:10490000FF92CF93DF936B017C01C42FD22F97FFCF
:104910000EC00E941C240E94C8230E941524F094FB
:10492000E094D094C094C11CD11CE11CF11C2D2F2B
:104930004C2FC701B6010E942A24DF91CF91FF902E
:10494000EF90DF90CF900895A0E0B0E0EAEAF4E2C3
:104950000C94B43E6B017C01C42F122F9AE0892E77
:10496000912CA12CB12C30E1C31637E2D306E1041F
:10497000F10470F0C701B6016B5F7F4F8F4F9F4FFF
:10498000A50194010E94463E69017A01CF5FEBCFF9
:10499000C13FF4F08FE08C0F63E00E94103E282F9F
:1049A000D92F911107C0E8EECE16E3E0DE06E10450
:1049B000F10420F021E0280FD3E0D91B283048F47F
:1049C000822F90E086549F4F0E94413F082F02C0E3
:1049D000D0E000E00E941C244AE069E371E0C601D7
:1049E0000E94073FE9E3F1E001900020E9F73197E9
:1049F000E953F140BE2ECE2FCD1B1C165CF080E398
:104A00000E94323B8CE20E94323BCC2319F080E3BF
:104A10000E94323BD11101C0CFEFC15089E3C82EB3
:104A200081E0D82EE12CF12C0C2E000CDD0BEB14C8
:104A300078F4F60181916F010E94323BCE15DF05BB
:104A400019F48CE20E94323BFFEFEF1AFF0AEFCF1E
:104A50000E941524002319F0802F0E94323B11235D
:104A600019F0812F0E94323BCDB7DEB7ECE00C94F9
:104A7000D03E20E040E00E94A4240895CF92DF922F
:104A8000EF92FF92CF93DF936B017C01C42FD22F63
:104A900097FF0EC00E941C240E94C8230E94152468
:104AA000F094E094D094C094C11CD11CE11CF11C82
:104AB0002D2F4C2FC701B6010E94A424DF91CF9166
:104AC000FF90EF90DF90CF900895CF93C82F809103
:104AD0000901982F990F890FE62FF0E0E80FF11DDB
:104AE000EA58FF4FE491EE2389F120912D018FEFD9
:104AF000820F60912E01E4FF04C090912C019695E5
:104B0000690F3E2F3270E1FF0BC090912B01E5FF42
:104B100004C0892F8695820F01C0890FE3FD615083
:104B2000E2FF06C090912C01690F311101C0615064
:104B30000E94D4398C2F0E94AC11883721F48C2F1D
:104B40000E94BF2303C08C2F0E94BB23CF910895E6
:104B5000CF93DF9320912C013091240193E0920FA9
:104B60003917F0F190912301903120F02F5F280F39
:104B7000231738F0309322010E948A2393E083E0C8
:104B800004C09F5F20912B01921B90932D01809375
:104B90002E0160E08091A2010E94652561E0809174
:104BA000A3010E94652562E08091A4010E94652511
:104BB000C0912601D091270180EE9FEF90932701AD
:104BC0008093260160912E0180912D010E94D4399D
:104BD000809109010E94B33BD0932701C093260125
:104BE000DF91CF910895FF920F931F93CF93DF939F
:104BF000C82F90912C0181E0890F8C0F2091240106
:104C00002817D0F0809123018031B0F0F0902B0173
:104C10008F5FD82FDF19192F1C0FC11769F06C2F68
:104C20008D2F0E94D4390F2D002321F00E94C42320
:104C30000150FACFCF5FF1CFCDB7DEB7E5E00C94EE
:104C4000D73E4F925F926F927F928F929F92AF92D8
:104C5000BF92CF92DF92EF92FF921F93CF93DF9399
:104C6000C82F0E94712180910001813009F456C043
:104C700018B88091CA0187B98091C30185B984B9F8
:104C80000E94303CC12CD12C760181E0182F11708C
:104C900080FF03C08091CC0102C08091CD01A89516
:104CA000806C80937C000E943A3C80917A00806402
:104CB00080937A0080917A0086FDFCCFD4E6812C27
:104CC000912C540180917A00806480937A008091C5
:104CD0007A0086FDFCCF8091780090917900880E53
:104CE000991EA11CB11C0E94373CD15059F7A091CC
:104CF0009901B0919A01A50194010E94A33E4B0134
:104D00005C018AE0B694A794979487948A95D1F72A
:104D100082E0112331F075016401B8CF80E090E0AA
:104D20004CC015B89091CA018091C901892B87B9EF
:104D30008C149D04AE04BF04D8F520919B013091E2
:104D40009C01A4E6B0E00E948D3E9B01AC012C19B1
:104D50003D094E095F090E94A33E2B013C01A701BA
:104D60009601281939094A095B09A8EEB3E00E94A7
:104D7000A33E6B017C012091D1013091D2012057DB
:104D8000354E40E050E0C301B2010E94463EC701EB
:104D9000B6010E94463EC901C13061F46091D30161
:104DA0007091D4016217730718F4861B970B02C029
:104DB00080E090E020EC20939801DF91CF911F914B
:104DC000FF90EF90DF90CF90BF90AF909F908F902B
:104DD0007F906F905F904F900895A0E0B0E0E3EF78
:104DE000F6E20C94AE3EA89518B88091CA0187B936
:104DF0008091C30184B985B98091CD010E945E2064
:104E00004C018091CC010E94FD1FEC0115B88091EE
:104E1000C60184B98091CC010E945E20459708F0BC
:104E200044C28091C60185B98091CC010E945E2068
:104E30006C018091C90187B988B915B88091C40106
:104E400084B98091CC010E945E202C018091CD011B
:104E50000E94FD1F3C018091C70184B98091CD0162
:104E60000E945E205C01C03321E1D20728F432E6C3
:104E7000C316D10438F019C24CE6C41643E1D40677
:104E800008F013C259EA6516710408F070C086E292
:104E9000A816B10408F409C2D60120EF3BE247E0AE
:104EA00050E00E94A33EC0919B01D0919C019E01C5
:104EB0002C193D0940E050E00E94463E29013A018C
:104EC000DE01AA19BB0920EF3BE247E050E00E9457
:104ED000A33E850120E030E0A90198010E94463EF2
:104EE000EEEDCE16E3E0DE0680F4D301C201D2E09F
:104EF000880F991FAA1FBB1FDA95D1F7BC01CD01FE
:104F0000620F731F841F951F14C0FEEDAF16F3E0F0
:104F1000BF06B0F4DA01C901C2E0880F991FAA1FC9
:104F2000BB1FCA95D1F7BC01CD01640D751D861D4F
:104F3000971D25E030E040E050E00E94463E0CC066
:104F4000D301C201820F931FA41FB51F9C01AD01A5
:104F50005695479537952795225A3E4F4F4F5F4FAD
:104F6000AAE0B0E00E94A33E4B015C01B3C0C815AB
:104F7000D90508F483C04614570408F47FC0409153
:104F80009B0150919C01C417D50709F421972091EA
:104F9000D1013091D2012057354EDE01A819B9094F
:104FA0000E948D3E9A012C1B3D0B40E050E00E9478
:104FB000463E49015A012091CF013091D00120573E
:104FC000354ED201A619B7090E948D3E830120E01B
:104FD00030E0A90198010E94463ECE3DD34080F4C6
:104FE000D501C401F2E0880F991FAA1FBB1FFA95D3
:104FF000D1F7BC01CD01620F731F841F951F1BC029
:10500000EEED6E16E3E07E0660F5283FF4E23F0722
:10501000F1E04F075105A0F4DA01C901E2E0880F81
:10502000991FAA1FBB1FEA95D1F7BC01CD01680DDE
:10503000791D8A1D9B1D25E030E040E050E00CC04A
:10504000A9E0B0E00E94A33E680D791D8A1D9B1D5A
:105050002AE030E040E050E00E94463E49015A011B
:1050600039C0D501C401820F931FA41FB51F4C0185
:105070005D01B694A794979487942CC02FE862168C
:1050800022E1720608F001C181E00E9421262C0174
:10509000612C712C812C912C540120E030E0A9016D
:1050A000280D391D4A1D5B1DAAE0B0E00E94A33EF9
:1050B000611571058105910521F464E670E080E0D9
:1050C00090E0461657066806790658F453014201E7
:1050D000CEEF08C034E683169104A104B10408F4AD
:1050E000C0C0CFEF80E0D7E02AE0F22E909104011B
:1050F000891708F09DC0682E712CD69D9001D79D10
:10510000300D1124F901E55FFE4F6F012081909170
:10511000BD01291389C021819091BE01291384C04A
:10512000E12C02E010E020E030E04C2FC501B4019A
:105130000E9400188F3F09F03FC0F601638174811F
:105140008581968102E010E020E030E042810E94FB
:1051500000188F3F51F5F6014281C41719F055240C
:105160005A9402C055245394D69DC001D79D900DEA
:1051700011249C01255F3E4F6901F901638174810F
:1051800085819681EC2E950184010E940018F6011C
:10519000581206C083809480A580B680C28105C065
:1051A00083829482A582B682C2831401250156941B
:1051B0004794379427940AC0C501B40124E130E034
:1051C00040E050E00E94463E19012A01D69DC001F0
:1051D000D79D900D11249C01255F3E4F6901F90177
:1051E0006381748185819681EC2E95018401021979
:1051F00013092409350942810E94001887FD16C051
:1052000095018401020D131D241D351DF6016381D6
:1052100074818581968142810E940018181634F0AD
:10522000F092000184E662CF8F5F60CF88EC5ECFA2
:105230008436D9F19330C8F527E0929FF00111240C
:10524000E55FFE4F8091BE0180838091BD01818327
:1052500083829482A582B682C2839F5F9093040169
:1052600024C081E00E9421262C01612C712CA50113
:105270009401220F331F441F551F85E088169104A7
:10528000A104B10408F40CCF0FCF81E00E942126C5
:105290002C01612C712C8AE0882E912CA12CB12C30
:1052A00024E130E040E050E0FFCECDB7DEB7E2E1F0
:1052B0000C94CA3EEF920F931F93CF93C42F10927A
:1052C00004010E94CE200E94ED26809104018130CD
:1052D000B1F4CC23B1F000910E0110910F01209197
:1052E0001001309111016C2F70E080E090E0E090AF
:1052F0000D0143E00E94001891E0813019F090E028
:1053000001C091E0892FCF911F910F91EF900895E7
:10531000813138F0815115BC92E094BD87BD81E0A8
:10532000089580E0089516BC81E085BDA99BFECF5D
:1053300015BC82E085BB0895A4E0B0E0E2EAF9E2A2
:105340000C94AE3E009729F46FEF7FEF7C836B8364
:1053500038C19C838B83FC01638174818581968134
:10536000A7EFEA2E0AE010E020E030E042810E9440
:10537000001887FDE9CF0E947121809100018130E2
:1053800019F3EB81FC81618180810E942921EB81ED
:10539000FC81618180810E94CE200091CC018091AE
:1053A000CD01006C806C8A8315BC82E084BD85E3EE
:1053B00087BD18B800937C000E94303CFFEFF98352
:1053C000812C912C54018394412C512C3201439413
:1053D00080E090E052E3C52ED12C17EDA895C2973E
:1053E00058F48091CA0187B98091C30185B984B905
:1053F0000E94433C14B815B822E3C216D10458F4F5
:105400008091C90187B98091C40185B984B90E948E
:10541000433C14B815B88091C90187B98091C30184
:1054200085B984B900937C0010937A0080917A004A
:1054300086FDFCCF10937A0080917A0086FDFCCF28
:1054400020907800309079006A8160937C001093FE
:105450007A0080917A0086FDFCCF10937A000E943A
:105460003F3C0E9493298091C40185B984B90E9470
:10547000433C14B880917A0086FDFCCFC090780040
:10548000D09079008091CA0187B98091C40185B913
:1054900084B97A8170937C0010937A0080917A00AD
:1054A00086FDFCCF10937A0080917A0086FDFCCFB8
:1054B000E0907800F090790000937C0010937A00DF
:1054C00080917A0086FDFCCF10937A000E943F3CC9
:1054D0000E9493298091C30185B984B90E94433CFD
:1054E00014B880917A0086FDFCCF8091780090916D
:1054F0007900A70160E070E0420D531D611D711D30
:10550000440E551E661E771EAC0160E070E04C0D27
:105510005D1D611D711D840E951EA61EB71EE981BD
:10552000E150E983E1115ACF17B815B8481459046E
:105530006A047B04E8F58091CF019091D0012AE0C4
:10554000289FD001299FB00D1124A5019401241991
:105550003509460957090E94A33EA30192010E9402
:10556000463E8091D3019091D4018217930720F495
:10557000B901681B790B19C0EB81FC8163817481CF
:10558000858196812AEFE22E08EE13E020E030E0DC
:1055900042810E94001821E030E0181614F420E047
:1055A00030E066277727621B730B7C836B8304C014
:1055B0008FEF9FEF9C838B8380EC809398010E94F8
:1055C00071218B819C812496E2E10C94CA3EA0E07B
:1055D000B0E0EDEEFAE20C94AF3E6C01D1E1C3E035
:1055E0000E94712180910001813009F42AC118B80C
:1055F0008091CA0187B98091C40185B984B980912D
:10560000CC010E94FD1F5C018091CD010E94FD1F15
:10561000A81AB90A15B814B8E12CF12C8FEFE81AC2
:10562000F80A6D2F8091C3010E941F228091CC0146
:105630000E94FD1FA816B9060CF00FC18C010A19B3
:105640001B09EEE7EE16F10449F40C32F1E01F07F6
:105650008CF491E00B34110574F40CC00C3281E031
:10566000180714F491E001C090E0E4EFEE16E1E0D9
:10567000FE0609F490E0A8959111D0CF0C32F1E02C
:105680001F070CF4C1E081E0E816F10459F405317C
:10569000E5E01E073CF08D2F8071D9E009F0A0CF26
:1056A000C2E0D1C0C33009F0CEC08091CC010E94CD
:1056B000FD1F5C01470180E090E08114910449F0F6
:1056C000F1E08F1A91088091CC010E94FD1FA895EE
:1056D000F4CF8A159B0540F4A81AB90A85E6A816E6
:1056E000B10420F0C0E002C0A12CB12C8091CC010B
:1056F0000E94FD1F4C01ED2FE0713E2E19F00E941B
:10570000253C02C00E942A3C8091CC010E94FD1FD2
:105710008815990518F4881A990A02C0812C912CD1
:10572000C33009F090C062E0C8018A0D9B1D0E9441
:105730003B229C01D7010E948D3E2B013C0133206E
:1057400031F1AAE0B0E09B01AC010E94A33E2B0125
:105750003C016833F9E87F07F1E48F07910508F40D
:1057600074C0C301B20128EE33E040E050E00E9473
:10577000463E29013A01A8EEB3E00E94A33ECAEFDB
:10578000332089F022E434E040E050E010C0683378
:1057900079488144910528F7A8EEB3E0A30192016E
:1057A0000E94A33EC7EF20E134E040E050E00E94B9
:1057B000463E8091BE01F60180838091BD018183C8
:1057C000C2834782508661867286238334834583F1
:1057D00056839AE0492E512C612C712C2130F5E32F
:1057E0003F07FCE04F07510540F0CA01B901A30192
:1057F00092010E94463ECF5FF1CFD4010E94A33EAA
:1058000028EE33E040E050E00E94463ED3FDCF5FFB
:105810008AE0882E912CA12CB12C2115310581E034
:105820004807510540F0CA01B901A50194010E9441
:10583000463ECF5FF2CFF60134872387C58783E0EA
:1058400014C080E012C08C2F10C0A8EEB3E09B0102
:10585000AC010E94A33EC7EF95CF00E010E08EE7B9
:10586000E816F10409F0FECEF4CECDB7DEB7E1E1E3
:105870000C94CB3EA0E0B0E0E0E4FCE20C94B63E39
:10588000EC010E94712180910001813009F471C006
:1058900015B897E097B918B88091C60184B980E42B
:1058A00080937B0084E480BF8091CC0180648093EE
:1058B0007C0090937A000E94393C109280001092F4
:1058C0008100109285001092840087E286BB80914F
:1058D000C60185B9809100018F3129F48091C901F9
:1058E0008095877002C08091CA0191E090938100F9
:1058F00087B9E12CF12C86B385FD0CC080FFFBCF6E
:1059000096BBA8952FEFE21AF20A20EAE2162FE0E2
:10591000F20689F71092810090E296BBC090860053
:10592000D090870014B82091840030918500C21671
:10593000D30638F480FF05C081E086BB8FEFE81AFC
:10594000F80A87E980937A0080917B008F7B8093AF
:105950007B008091CC010E94FD1F5C0115B88091F5
:10596000C60184B920EAE2162FE0F20620F081E0B9
:10597000C6C080E0C4C0C601A0E0B0E06701E12C71
:10598000F12C7601DD24CC24C82AD92AEA2AFB2A64
:1059900083E0C816D104E104F104C8F082E0C81A1B
:1059A000D108E108F10828E3C21629E8D20621E46B
:1059B000E206F10460F0C701B60128EE33E040E0F2
:1059C00050E00E94463E69017A0117EF01C014EFD2
:1059D0002091D7018091990190919A0161E0820F05
:1059E000911D27FD9A950E943B22DC01A70196019B
:1059F0000E94A33E20ED37E040E050E00E94463E8A
:105A0000143F89F48091D50190E0A0E0B0E0281720
:105A100039074A075B0750F069017A01C81AD90AA9
:105A2000EA0AFB0A06C069017A0103C0C12CD12C25
:105A300076018091BE0188838091BD0189831A839C
:105A40002F83388749875A87CB82DC82ED82FE829A
:105A5000143F49F480EAC81686E8D80681E0E806D3
:105A6000F10460F44BC0173F09F048C021E2C216B0
:105A70002EE4D206E104F10408F040C08091CC018C
:105A80000E94FD1F853D9340C8F714B810929701FE
:105A90008091CC010E94FD1FEC0181E08093970171
:105AA0008091CC010E94FD1FAC018091C60184B998
:105AB000DE01A41BB50BC0919901D0919A01CD01D3
:105AC0000496099788F09E010E949C3E9A0140E04E
:105AD00050E00E94683E8091D601280F2093D601A5
