:100000000C94C0110C94D2110C94D2110C94D211F6
:100010000C94D2110C94D2110C94D2110C945E1C3D
:100020000C94D2110C94D2110C94D2110C94D211C4
:100030000C94D2110C94D2110C94D2110C94D211B4
:100040000C94D2110C94D2110C94D2110C94D211A4
:100050000C94D2110C94D2110C94D2110C94D21194
:100060000C94D2110C94D211D71BC31BC61BCA1BF4
:10007000CC1BD01BDD1BDD1BDD1BDD1BDD1BDD1BDE
:10008000DD1BDD1BDD1BDD1BDD1BDD1BDD1BD31BBA
:10009000D71BC31BC61BCA1BCC1BD01BE71BE71BF4
:1000A000E71BE71BE71BE71BE71BE71BE71BE71B40
:1000B000E71BE71BE71BD31B942E982E9F2EA52E24
:1000C000A22EA22EA82E110A0611060A050A06095A
:1000D000060A050A0609060A090A06050A06050AA5
:1000E0000605060A052A26052A26092A26090A06D9
:1000F000000000000000000000110A0600000010CF
:100100000000C0110000201200002010000020108C
:1001100000002010000020120000C011000000109C
:10012000000000087800000488000602880006012C
:1001300078008600880046008800260078001600B7
:1001400000000E0000000600FCFF07000000060093
:1001500000000E000000160000002602000046030A
:10016000000086030000C6030000E6030000000450
:10017000000000080000E013000020100000201024
:100180000000E01100002010000020100000E0132B
:100190000000001000000000000000100000E0134C
:1001A00000002010000020100000E01100002010CE
:1001B000000020100000E013000000100000000804
:1001C000780040048800C6028800C6017800C60393
:1001D0008800C607880026007800160000000E0080
:1001E00000000600FCFF07000000060000000E00F3
:1001F00000001600000026000000460000008600F7
:1002000000000601000006020000000400000008D3
:100210000000C0110000201200002010000020107B
:1002200000002010000020120000C011000000108B
:1002300000000000000000100000E010000020118D
:1002400000002012000020120000201200002011E7
:100250000036E010003600100036001000F6FF1FD8
:1002600000360004003600040036000400060004D6
:1002700000060004003604040036863F00360704FA
:1002800000F63F0E0036271F0036A63F38362404FE
:100290004406200404062004643620044436200466
:1002A0004436200438F6FF1F0036001000360010D8
:1002B000FE37C01100002012000020100000C01105
:1002C00000000012000020120000C0110000000019
:1002D000000000100000C0110000201200002010DB
:1002E0000000C0110000001200002012FE37C011F3
:1002F000003600100036001038F6FF1F4436200488
:1003000004362004643620044406200444062004F5
:10031000383621040036A33F0036270400F63F0E8E
:100320000036071F0036833F003601040006000434
:100330000006000400360004003600040036000405
:1003400000F6FF1F00360010003600100036E010E7
:1003500000002011000020120000201200002012D6
:10036000000020110000E01000000000000000105C
:100370000000E010000020110000201200002012F8
:1003800000002012000020110036E010003600109E
:100390000036001000F6FF1F00360004003600048F
:1003A0000036000400360004003600040036040461
:1003B0000036863F0036070400F63F0E0036271F42
:1003C0000036A63F38362404443620040436200480
:1003D00064362004443620044436200438F6FF1FD7
:1003E0000036001000360010FE37C0110000201249
:1003F000000020100000C0110000001200002012B8
:100400000000C01100000000000000100000C0113A
:1004100000002012000020100000C0110000001297
:1004200000002012FE37C011003600100036001008
:1004300038F6FF1F443620040436200464362004B6
:100440004436200444362004383621040036A33FC5
:100450000036270400F63F0E0036071F0036833FA4
:1004600000360104003600040036000400360004A3
:10047000003600040036000400F6FF1F00360010AE
:10048000003600100036E01000002011000020129D
:100490000000201200002012000020110000E010D7
:1004A00000000000000000103800C01144002012BD
:1004B000040020106400C011440000124400201207
:1004C00038C2C01100C6001000CE0010FEFFFF1F92
:1004D00000CE000000C6000000C2000000C0000006
:1004E00000C0000000C0000000C0000000C000000C
:1004F00000C0000000C0000000C0000000C00000FC
:1005000000C0000000C0000000C0000000C00000EB
:1005100000C0FF1F00C0001000C0001000C0E010AD
:100520000000201100002012000020120000201204
:10053000000020110000E01000000010000000008A
:10054000000000100000E010000020110000201248
:1005500000002012000020120000201100C0E01056
:1005600000C0001000C0001000C0FF1F00C000004D
:1005700000C0000000C0000000C0000000C000007B
:1005800000C0000000C0000038C0000044C00000EF
:1005900004C0000064C0000044C0000044C000006B
:1005A00038C8000000CC000000CE0000FEFFFF1F96
:1005B00000CE001000CC001000C8C01100002012B6
:1005C000000020100000C0110000001200002012E6
:1005D0000000C011000000100000000000000E101C
:1005E00000001110000001100000011000000110B7
:1005F0000000111100000E0B000000070000000FAA
:1006000000800D1F00808D0000807D0000800D00A7
:1006100000800D00008001000080010000800D00BE
:1006200000800D0038803D0044804D0004808D0026
:10063000648001004480010044800D0038800D007A
:1006400000807D0400808D06FEFF0D0700008007FE
:100650000000C00700001F0800000110000001108A
:1006600000000F10000001100000011000001F101A
:10067000000000100000000038001F1044000110AE
:100680000400011064000F10440001104400011127
:1006900038001F0B000000070000000FFEFF0D1FB9
:1006A00000808D0000807D0000800D0000800D0026
:1006B000008001000080010000800D0000800D001E
:1006C00000803D0000804D0000808D000080010012
:1006D0000080010000800D0000800D0000807D047E
:1006E00000808D0600800D07000080070000C00715
:1006F00000000E08000011100000011000000110A1
:10070000000001100000111000000E100000001089
:10071000000000000000100000001007000090081A
:10072000000090080000900F000090080000900862
:1007300000009008000010000000100000001000F1
:10074000000010000000100000FCFF7F00F8FF3FD9
:1007500000F0FF1F00E0FF0F00C0FF070080FF0355
:100760000000FF010000FE0000007C00380038009F
:100770004400100004FCFF7F64FCFF7F440018006D
:10078000440014003800120000001100008010071F
:10079000FE7F900800009000000090000000900094
:1007A000000090080000100700001000000000008A
:1007B00000001000008E1100005112000011120004
:1007C000001F1100009110000051100000D1130013
:1007D00000001000000010000000100000001000D9
:1007E00000FFFF3F00FC1F0200FC1F0700F80F077F
:1007F00000F88F0F00F0870F00F0C71F00E0C31F45
:1008000000E0E33F00C0E13F38C0F17F4480F07F6B
:1008100004FCFFFF648010004440100044201000DE
:10082000381010000008100000041047FE03906804
:10083000000090480000904F000090480000904851
:10084000000090E800001000000000000000100010
:100850000000100700009008000090080000900FB2
:10086000FE1F90080020900800409008388010007B
:100870004400110004001200640014004400180039
:1008800044FCFF7F38F8FF3F00F0FF1F00E0FF0F40
:1008900000C0FF070080FF030000FF010000FE0012
:1008A00000007C00000038000000100000FCFF7F0A
:1008B00000FCFF7F0000100000001000000010008E
:1008C00000001000000010070000900800009000D9
:1008D0000000900000009000000090080000100749
:1008E00000001000000000000000001000008F1148
:1008F000000051120000111200000F1100009110B1
:100900001E0051102000CF134000001080C80010BE
:1009100000CD00103ECEFF1F02CF000082CF0000AE
:100920001ED0000002E0000002C000003EC0000037
:1009300000C0000000C0000000C0000000C00000B7
:1009400000C0000000C0000000C0000000C00000A7
:1009500000C0FF1F00C0001000C000100000001009
:1009600000001E110000A2110000221100001E1143
:10097000000022110000221100009E130000001050
:100980000000000000000000000000000000000067
:1009900000FE010080FF0700C0FF0F00E0FF1F0006
:1009A000F0013E00F0FC3C0078027800780178010C
:1009B00078017801780178010000780100003C019D
:1009C0000000BE0000009F0000804F0000C0270014
:1009D00000E0130000F0090000F80400007C0200B1
:1009E000007C0100007C0100007C0100000001008F
:1009F00000F80100000000000000000000380000C6
:100A0000007C0000007C0100007C01000038010037
:100A100000800000007800000000000000000000DE
:100A200000001000000090080000900400009002F8
:100A30000000900100009002000090040000900867
:100A4000000010000004100000041000000410005A
:100A500000FCFF7F00FCFF7F0000104000003840DA
:100A600000007C400000FE000000FF010080FF034A
:100A700000C0FF0700E0FF0F00F0FF1F00F8FF3F7E
:100A800000FCFF7F000010000000100000001000BC
:100A900000001000000010070000900800009008FF
:100AA0000000900F000090080000900800009008DF
:100AB0000000100000000000000000000000000026
:100AC0000000000000000100000001000000010023
:100AD0000000010000000100000001000000010012
:100AE00000000100000001000000010080FFFF0184
:100AF00080FFFF010000000000000000F0FFFF0F7A
:100B0000F0FFFF0FF0FFFF0FF0FFFF0FF0FFFF0FF1
:100B1000F0FFFF0FF0FFFF0F0000000000000000DB
:100B200080FFFF0180FFFF010000010000000100C5
:100B300000000100000001000000010000000100B1
:100B400000000100000001000000010000000100A1
:100B50000000000000000000000080100000801075
:100B60000000E01300008010000080100000001062
:100B700000C07F1000404010007CC01F00444010A7
:100B800038C47F10480400108804001088E47F10E7
:100B900088E47F1048E4FF1F38E47F0000E47F0012
:100BA00000E47F00FCFF7F0000E07F0000E07F00AA
:100BB00000E07F0000E0FF1F00E07F1000E07F10FA
:100BC00000000010000000100000001000000010E5
:100BD00000000010000000100000001000000010D5
:100BE00000000010000000100000E01300000010E2
:100BF00000000000FF01020304050607FFFFFFFFDE
:100C0000FFFFFFFFFFFFFFFFFFFFFFFFFFFFFFFFF4
:100C1000FFFFFFFF101112131415161718191A1BD6
:100C20001C1D1E1F202122232425262728292A2B8C
:100C30002C2D2E2F303132333435363738393A3B7C
:100C40003C3D3E3F404142434445464748494A4B6C
:100C50004C4D4E4F505152535455565758595A5B5C
:100C60005C5D5E5F606162636465666768696A6B4C
:100C70006C6D6EFFFFFFFFFFFFFFFFFFFFFFFFFF3A
:100C8000FFFFFFFFFFFFFFFFFFFFFFFFFFFFFFFF74
:100C9000FFFFFFFFFFFFFFFFFFFFFFFFFFFFFFFF64
:100CA000FFFFFFFF0FFFFFFFFF05FFFFFFFFFFFF3E
:100CB000FFFFFFFFFFFFFFFF08FFFFFFFFFFFFFF3B
:100CC000FFFFFFFFFFFFFFFFFFFF09FFFFFFFFFF2A
:100CD0000AFFFF0BFFFFFFFF0CFFFFFFFFFFFFFF00
:100CE000FFFFFFFFFFFFFFFFFFFF0DFFFFFFFFFF06
:100CF0000EFFFFFF000000000000000000000000E9
:100D000000000000000000000000000000000000E3
:100D100000000000000000000000000000000000D3
:100D2000000000000000000000000000000004704F
:100D30000C701C703C707C70FC70FC71FC73FC7758
:100D4000FFFFFFFFFC77FC73FC71FC707C703C7054
:100D50001C700C7004700000000000000000000017
:100D600000000E200E300E380E3C0E3E0E3F8E3F21
:100D7000CE3FEE3FFFFFFFFFEE3FCE3F8E3F0E3FE9
:100D80000E3E0E3C0E380E300E200000000000001B
:100D90000000000000003C3C3C3C3C3C3C3C3C3CFB
:100DA0003C3C3C3C3C3C3C3C3FFC3FFC3C3C3C3CFD
:100DB0003C3C3C3C3C3C3C3C3C3C3C3C3C3C0000EB
:100DC00000000000000000000000C007E00F301825
:100DD00018300C600C6006C006C006C006C00C606F
:100DE0000C6018303018600C628C7EFC7EFC0000B9
:100DF00000000000000000000000000000000000F3
:100E00000000000000001C381C381C381C381C383E
:100E10001C381C381C381C381C383C3C7C3EFC3BC5
:100E2000DC7B1C001C001C001C001C0000000000DF
:100E3000000000000000FEFFFEFF060006000600A6
:100E40000600060007000700060006000600060070
:100E50000600FEFFFEFF0000000000000000000092
:100E600000000000000000000000FF7FFF7F006026
:100E7000006000600060006000E000E00060006072
:100E8000006000600060FF7FFF7F00000000000046
:100E900000000000300C300C000000000000C00119
:100EA000C003E003600760077006300E380E381C80
:100EB000181CFC3FFC3F0E380E700E7007E000005F
:100EC0000000000000000000300C300C00000000AA
:100ED0000000E007F00F381C1C381C380E700E7034
:100EE0000E700E700E700E701C381C38381CF00F0F
:100EF000E00700000000000000000000601860181B
:100F00000000000000001C701C701C701C701C7025
:100F10001C701C701C701C701C701C701C703C7849
:100F20003838F01FE00F0000000000000000000053
:100F30000000F003F8073C0E1C0E1C0E1C061C07DC
:100F40009C039C039C039C071C0F1C1E1C3C1C78D0
:100F50001C701C709C709C3F1C1F00000000000057
:100F600000000000000000000000600C600C0000A9
:100F70000000E007F80F181E001C001CE01FF01F07
:100F8000381C1C1C1C1C1C1C3C1EF87BF078000030
:100F9000000000000000000000000000000030061B
:100FA000300600000000E003F80F3C1E1C1C0E3849
:100FB0000E380E380E380E380E381C1C3C1EF80F3A
:100FC000E00300000000000000000000000000003E
:100FD000000030063006000000001C381C381C38A9
:100FE0001C381C381C381C381C381C381C381C3C5D
:100FF0003C3EF83BF038000000000000000000001C
:10100000000000008003C007600C600C600CC0078B
:10101000800300000000000000000000000000004D
:1010200000000000000000000000000000000000C0
:1010300000000000000000000000000000000000B0
:1010400000000000000000000000000000000000A0
:101050000000000000000000000000000000000090
:10106000000000000000000000000000800380037A
:101070008003800380038003800380038003800358
:10108000800380038003800300000000800380034E
:101090008003000000000000000000000000380E87
:1010A000380E380E380E380E100410040000000000
:1010B0000000000000000000000000000000000030
:1010C0000000000000000000000000000000000020
:1010D0000000000080318031C018C018C018C0184E
:1010E000FC7FFC7F600C60063006FE3FFE3F18036D
:1010F0001803180318038C018C0100000000000085
:101100000000000000030003C01FF03F70233803FD
:10111000380338037803F003E0038007001F001F43
:10112000003B003B003B003B181BF81FE00F000397
:101130000003000000000000000000003CC06660EA
:10114000C330C318C318C30CC30666033C03800135
:10115000C03CC06660C330C318C318C30CC3066666
:10116000033C000000000000000000000000000040
:10117000E003F007380E380E380E38067007F0011D
:10118000F800FCE0CEE1C7E387630767077E0F3E08
:101190001E3CFC7FF0F30000000000000000000097
:1011A0000000C001C001C001C001C001800080007A
:1011B000000000000000000000000000000000002F
:1011C000000000000000000000000000000000001F
:1011D0000000000000000018001E000F8003C00186
:1011E000E000E000E000700070007000700070002F
:1011F000700070007000E000E000E000C0018003BB
:10120000000F001E0018000000000C003C007800D9
:10121000E000C0018003800380030007000700078F
:101220000007000700070007000780038003800312
:10123000C001E00078003C000C000000000000004D
:10124000800380038003981B7C3E300C4002E00743
:10125000700E381C20040000000000000000000098
:10126000000000000000000000000000000000007E
:1012700000000000000000000000000000008001ED
:1012800080018001800180018001FE7FFE7F80015E
:1012900080018001800180018001000000000000C9
:1012A000000000000000000000000000000000003E
:1012B000000000000000000000000000000000002E
:1012C000000000000000C003C003C003C00300030F
:1012D00080038001C000000000000000000000004A
:1012E00000000000000000000000000000000000FE
:1012F000F81FF81F000000000000000000000000C0
:1013000000000000000000000000000000000000DD
:1013100000000000000000000000000000000000CD
:101320000000000000000000000000000000C003FA
:10133000C003C003C0030000000000000000000064
:10134000000000600030003000180018000C000C95
:10135000000600060003000380018001C000C000F9
:101360006000600030003000180018000C000C0015
:101370000600000000000000E003F007380E1C1C0F
:101380001C1C0E380E380E380E380E380E380E383B
:101390000E380E381C1C1C1C380EF007E003000031
:1013A0000000000000000000000000000003E00357
:1013B000FC038C038003800380038003800380038D
:1013C0008003800380038003800380038003FC7F0D
:1013D000FC7F000000000000000000000000000092
:1013E000F003FC070C0E001C001C001C001C000E6F
:1013F000000E00078003C001E000700030003800DC
:101400001C00FC1FFC1F000000000000000000008A
:1014100000000000F003F80F081E001C001C001C58
:10142000000C0006E003E007000F001E001C001C7B
:10143000001C001E080FF807F80300000000000061
:101440000000000000000000000E000F800F800F61
:10145000C00EE00E600E300E180E180E0C0E060EAA
:10146000FE7FFE7F000E000E000E000E000E00003C
:10147000000000000000000000000000F03FF03F0E
:10148000F03F30003000300030003000F003F00F4B
:10149000001E003C003800380038003C101EF00FE1
:1014A000F003000000000000000000000000000049
:1014B000801FE03FF0207000380038001C009C0FB7
:1014C000DC1F7C3C3C781C701C701C7038703838F9
:1014D0007038F01FC007000000000000000000008E
:1014E00000000000F83FF83FF83F00180018000C1B
:1014F000000C00060002000380018001C000C00053
:10150000600060007000300030000000000000004B
:101510000000000000000000C007F00F781E381C1B
:10152000381C381C780CF00FE003F00F381F181E21
:101530001C3C1C381C381C38381CF00FE00700001D
:10154000000000000000000000000000C007F01FC5
:10155000381C38381C381C701C701C703C78787C27
:10156000F077E073007000380038001C081EF80F98
:10157000F003000000000000000000000000000078
:1015800000000000000000000000C003C003C00312
:10159000C003000000000000000000000000C003C5
:1015A000C003C003C00300000000000000000000F2
:1015B0000000000000000000000000000000C00368
:1015C000C003C003C00300000000000000000000D2
:1015D0000000C003C003C003C003000380038001F8
:1015E000C00000000000000000000000000000003B
:1015F000000000400070003C000FC003F0003C0001
:101600003C00F000C003000F003C007000400000F0
:1016100000000000000000000000000000000000CA
:10162000000000000000000000000000FE7FFE7FC0
:10163000000000000000FE7FFE7F000000000000B0
:10164000000000000000000000000000000000009A
:101650000000000000000000000002000E003C003E
:10166000F000C003000F003C003C000FC003F0007E
:101670003C000E000200000000000000000000001E
:1016800000000000F807FC1F0C3C0C380038003844
:10169000001C001E000F80078003C001C001C001B4
:1016A00000000000C001C001C001000000000000F7
:1016B0000000000000000000C00FE01F703818306C
:1016C0001C3E0C318E31C630C630C638C638C63CDA
:1016D000C6348EF78CF31C003808F00FC0070000EA
:1016E00000000000000000000000000000000000FA
:1016F0000000C001C003E003600760077006300E01
:10170000380E381C181CFC3FFC3F0E380E700E7053
:1017100007E00000000000000000000000000000E2
:10172000000000000000FC07FC0F1C1E1C1C1C1C01
:101730001C0EFC07FC071C1E1C3C1C381C381C38EB
:101740001C3CFC1FFC070000000000000000000023
:1017500000000000000000000000C01FF03F7830D3
:101760003C001C000E000E000E000E000E000E00CD
:101770001C003C007820F03FC01F0000000000006B
:101780000000000000000000000000000000FC0756
:10179000FC0F1C3C1C381C781C701C701C701C70CE
:1017A0001C701C701C381C381C1EFC0FFC03000035
:1017B0000000000000000000000000000000000029
:1017C0000000F83FF83F3800380038003800380093
:1017D000F81FF81F38003800380038003800F87F4C
:1017E000F87F000000000000000000000000000082
:1017F000000000000000F87FF87F38003800380053
:1018000038003800F83FF83F38003800380038001A
:101810003800380038000000000000000000000020
:1018200000000000000000000000C01FF03F783002
:101830003C001C000E000E000E000E3F0E3F0E3846
:101840001C383C387838F03FC01F00000000000012
:1018500000000000000000000000000000001C3834
:101860001C381C381C381C381C381C38FC3FFC3F0A
:101870001C381C381C381C381C381C381C3800001C
:101880000000000000000000000000000000000058
:101890000000FC1FFC1FC001C001C001C001C0014D
:1018A000C001C001C001C001C001C001C001FC1FD6
:1018B000FC1F00000000000000000000000000000D
:1018C000000000000000F80FF80F000E000E000EE0
:1018D000000E000E000E000E000E000E000E000E98
:1018E0000407FC03FC0100000000000000000000F1
:1018F000000000000000000000001C781C3C1C1EC2
:101900001C0F1C079C03DC01FC00DC01DC039C07B2
:101910001C0F1C1E1C3C1C781CF800000000000062
:10192000000000000000000000000000000038007F
:1019300038003800380038003800380038003800E7
:1019400038003800380038003800F83FF83F000011
:101950000000000000000000000000000000000087
:1019600000000E381E3C1E3C1E3C363636363636DF
:10197000663266336633C631C631C631063006304C
:101980000630000000000000000000000000000021
:101990000000000000001C301C303C307C307C30EB
:1019A000FC30EC31CC31CC338C370C3F0C3E0C3E50
:1019B0000C3C0C380C380000000000000000000057
:1019C00000000000000000000000E007F00F381CDD
:1019D0001C381C380E700E700E700E700E700E706B
:1019E0001C381C38381CF00FE00700000000000015
:1019F0000000000000000000000000000000F81FD0
:101A0000F83F38783870387038703878383CF81FBC
:101A1000F807380038003800380038003800000077
:101A200000000000000000000000000000000000B6
:101A30000000E007F00F381C1C381C380E700E70C8
:101A40000E700E700E700E701C381C38381CF00FA3
:101A5000E007001E007800F00040000000000000D9
:101A6000000000000000FC07FC0F1C1E1C1C1C1CBE
:101A70001C1C1C0EFC07FC039C071C071C0F1C1ED7
:101A80001C3C1C381C780000000000000000000016
:101A900000000000000000000000E00FF81F3C18EC
:101AA0001C001C003C00F800F007C01F003E00387E
:101AB000003800380C1CFC1FF0070000000000007C
:101AC0000000000000000000000000000000FF7F98
:101AD000FF7FC001C001C001C001C001C001C00141
:101AE000C001C001C001C001C001C001C0010000AF
:101AF00000000000000000000000000000000000E6
:101B000000001C701C701C701C701C701C701C7001
:101B10001C701C701C701C701C703C783838F01FD6
:101B2000E00F0000000000000000000000000000C6
:101B300000000000000007E00E700E701C701C38E2
:101B40003C383838381C701C700CE00EE00EE00792
:101B5000C007C00780030000000000000000000074
:101B60000000000000000000000003C003C007C028
:101B70008661C663C663C663C6634E766C366C36D2
:101B80006C362C3E3C3C3C1C3C1C00000000000021
:101B900000000000000000000000000000001EE047
:101BA0003C707838781CF00EE007C003C003C00713
:101BB000E007600F301E183C1C380E7807F000005C
:101BC0000000000000000000000000000000000015
:101BD000000007E00E701C301C18381C780E7007CF
:101BE000E003E003C001C001C001C001C001C001A9
:101BF000C001000000000000000000000000000024
:101C0000000000000000FC3FFC3F0038001C000EFC
:101C1000000780038001C000E000700038001C0055
:101C20000E00FE3FFE3F000000000000000000002C
:101C30000000C03FC03FC001C001C001C001C001E1
:101C4000C001C001C001C001C001C001C001C0018C
:101C5000C001C001C001C001C001C001C001C03F3E
:101C6000C03F0000000006000C000C001800180027
:101C70003000300060006000C000C00080018001C2
:101C80000003000300060006000C000C00180018FA
:101C900000300030006000000000FC03FC03800303
:101CA000800380038003800380038003800380031C
:101CB000800380038003800380038003800380030C
:101CC000800380038003FC03FC030000000000008D
:101CD0000001000180038003C003C006E006600C21
:101CE000300C3018181818180C300C300660000032
:101CF00000000000000000000000000000000000E4
:101D000000000000000000000000000000000000D3
:101D100000000000000000000000000000000000C3
:101D200000000000000000000000FFFFFFFF0000B7
:101D300000000000C0018003000700000000000058
:101D40000000000000000000000000000000000093
:101D50000000000000000000000000000000000083
:101D60000000000000000000000000000000000073
:101D7000000000000000E007F80F181E001C001C07
:101D8000E01FF01F381C1C1C1C1C1C1C3C1EF87B7C
:101D9000F0780000000000000000000000001C00BF
:101DA0001C001C001C001C001C009C07DC1F7C1C71
:101DB0003C381C381C381C381C381C381C381C1C7F
:101DC0003C1EFC0FCC0700000000000000000000DB
:101DD0000000000000000000000000000000C01F24
:101DE000F03F782038001C001C001C001C001C0068
:101DF0003C003800F820F03FC01F00000000000049
:101E000000000000000000700070007000700070A2
:101E10000070C073F07F787C38701C701C701C7070
:101E20001C701C701C703C78387CF077E0730000EC
:101E300000000000000000000000000000000000A2
:101E4000000000000000C007F00F781C38381C3874
:101E50001C38FC3FFC3F1C001C0038007820F03F81
:101E6000C01F00000000000000000000000000FF94
:101E700080FFC003C001C001C001FC7FFC7FC00126
:101E8000C001C001C001C001C001C001C001C0014A
:101E9000C001C001C00100000000000000000000FF
:101EA0000000000000000000000000000000C073FF
:101EB000F07F787C38701C701C701C701C701C705B
:101EC0001C703C78387CF077E07300700038183C68
:101ED000F81F000700001C001C001C001C001C0058
:101EE0001C001C0FDC1F7C3C3C381C381C381C3888
:101EF0001C381C381C381C381C381C381C38000096
:101F00000000000000000000000080038003800348
:101F1000000000000000FC03FC038003800380033A
:101F20008003800380038003800380038003800399
:101F30008003000000000000000000000000000E10
:101F4000000E000E000000000000F80FF80F000E59
:101F5000000E000E000E000E000E000E000E000E11
:101F6000000E000E000E000E000E0407FC07F80124
:101F70000000380038003800380038003800383C9D
:101F8000381E380E380FB807B803F803B803B8077F
:101F9000380F380E381E383C38780000000000003A
:101FA000000000000000F807F8070007000700071E
:101FB00000070007000700070007000700070007E9
:101FC00000070007000700070007000700070000E0
:101FD0000000000000000000000000000000000001
:101FE000000000000000CE31EE79FE7F9E779E73E8
:101FF0008E738E738E738E738E738E738E738E73D9
:102000008E730000000000000000000000000000CF
:10201000000000000000000000001C0FDC1F7C3CE2
:102020003C381C381C381C381C381C381C381C38F0
:102030001C381C381C3800000000000000000000A4
:102040000000000000000000000000000000E003AD
:10205000F80F3C1E1C1C0E380E380E380E380E3889
:102060000E381C1C3C1EF80FE003000000000000AE
:102070000000000000000000000000000000000060
:1020800000009C07DC1F7C1C3C381C381C381C38AA
:102090001C381C381C381C1C3C1EFC0F9C071C00E8
:1020A0001C001C001C001C000000000000000000C0
:1020B000000000000000E039F83F3C3E1C380E38BC
:1020C0000E380E380E380E380E381E3C1C3EF83BCB
:1020D000F0380038003800380038003800000000C0
:1020E00000000000000000000000703E703FF03172
:1020F000F0307000700070007000700070007000B0
:10210000700070007000000000000000000000007F
:102110000000000000000000000000000000E00FD0
:10212000F01F781038003800F801F007801F003CDD
:1021300000380038183CF81FF007000000000000CD
:102140000000000000000000000000000000E000AF
:10215000E000FC3FFC3FE000E000E000E000E000C9
:10216000E000E000E000E000E001C03F803F000050
:10217000000000000000000000000000000000005F
:102180000000000000001C381C381C381C381C38AB
:102190001C381C381C381C381C381C3C3C3EF83B96
:1021A000F038000000000000000000000000000007
:1021B000000000000000000000001E701C381C38E9
:1021C0003C383818381C701C700CE00EE00EE0062D
:1021D000C007C007800300000000000000000000EE
:1021E000000000000000000000000000000003C02C
:1021F00087C38743C663C66346626E666E266C36C7
:102200002C363C3C3C3C3C1C181C000000000000F0
:1022100000000000000000000000000000000000BE
:1022200000001E303C18780C700EF006E003C0036E
:10223000C003E007700F300E381E1C3C0E78000003
:10224000000000000000000000000000000000008E
:102250000000000000001E701C301C383818381CAC
:10226000781C700EF00EE007E007C003C003C00149
:102270008001C001C000E0007C003C0000000000C4
:1022800000000000000000000000FC3FFC3F0038A0
:10229000001C000E00078003C001E0007000380041
:1022A0001C00FC3FFC3F000000000000000000009C
:1022B0000000001F801FC003C001C001C0018003D7
:1022C000800380038003C001F800F800C001800390
:1022D000800380038003C001C001C001C003801FD0
:1022E000001F00000000800180018001800180014A
:1022F00080018001800180018001800180018001D6
:1023000080018001800180018001800180018001C5
:10231000800180018001000000007C00FC00E001E1
:10232000C001C001C001E000E000E000E000C00129
:10233000800F800FC001E000E000E000E000C0017D
:10234000C001C001E001FC007C00000000000000B2
:10235000000000000000000000000000000000007D
:10236000000000007860FC63C63F061E000000000D
:10237000000000000000000000000000000000005D
:1023800011241FBECFEFD8E0DEBFCDBF21E0A0E01B
:10239000B1E001C01D92AD3EB207E1F70E94403CA2
:1023A0000C945E3F0C9400009091A601981303C01A
:1023B0008091A90108959091A701891303C080918C
:1023C000AA0108958091AB01089580E00E941A242B
:1023D00081E00E941A2482E00E941A248DE30E9468
:1023E0002B3B80E00E941E2481E00E941E2482E09C
:1023F0000E941E240895A3E0B0E0E1E0F2E10C9415
:10240000B13E89836A834B83CE0101967C0110E043
:10241000F70101917F01002351F0812F0E941A24BE
:102420000E942B24802F0E942B3B0E9423241F5F9D
:10243000133071F72396E6E00C94CD3E87E492E0EA
:102440000E940B2480E492E00E9434248EE080936A
:10245000090183E00E9407268091A4018F5F809389
:10246000A4010895809101018130C9F48CEE91E0BE
:102470000E940B240E94E923809106010E941A24E5
:102480000E942B240E94232460910701709108016F
:1024900080E090E026E54DEF0E940325089582300C
:1024A00011F40E941E120895CF93C62F0E942B3B59
:1024B00082EC90E00E940B248C2F0E942B3B0E9408
:1024C0002324EBE0F1E0638174818581968124E02F
:1024D00042810E940325CF910895A0E0B0E0E3E798
:1024E000F2E10C94AF3E80910401813039F4F09018
:1024F0000B0100E010E0CBE0D1E05BC0833009F0DD
:102500004CC000910E0110910F01209110013091EB
:102510001101609115017091160180911701909140
:102520001801E0900D01409114010E94281881309B
:1025300029F422E1C22E21E0D22E04C09BE0C92E54
:1025400091E0D92EF60103811481258136816091B5
:102550001C0170911D0180911E0190911F01E2806C
:1025600040911B010E942818813021F489E1C82E76
:1025700081E0D82EFBE0CF16F1E0DF0619F4C2E1CE
:10258000D1E002C0CBE0D1E08E01095F1F4FC01641
:10259000D10639F4095F1F4F04C002E111E0CBE01E
:1025A000D1E08881F801F0808F1519F0F1808F114A
:1025B000F9800E9486248881F81201C089810E94D6
:1025C0001A2482EC90E00E940B248F2D0E941A2482
:1025D0000115110561F082EC90E00E940B24F801D6
:1025E0008081F81202C0F80181810E941A240E94A1
:1025F00074240E94E9236B817C818D819E8124E07B
:102600004A810E9403250115110551F00E942324DF
:10261000F801638174818581968124E0428112C032
:10262000CE010E945037813079F40E9423246091BA
:10263000DF017091E0018091E1019091E20128E4D5
:102640004091DE010E940325CDB7DEB7E8E00C948F
:10265000CB3EEF920F931F93CF93DF9300914C01EA
:1026600010914D0120914E0130914F0160915A011E
:1026700070915B0180915C0190915D01E0904B0154
:10268000409159010E942818813019F4C7E5D1E022
:1026900002C0C9E4D1E00B811C812D813E81609193
:1026A00068017091690180916A0190916B01EA80E3
:1026B000409167010E942818813011F4C5E6D1E0ED
:1026C0000E94862488810E941A248FEC90E00E9448
:1026D0000B2489810E941A240E9474240E94E923F9
:1026E0006B817C818D819E8126E44A810E94032535
:1026F000CE010E94FB298C010F3F8FEF180749F094
:102700000E942324B80180E090E024E04EEF0E9474
:1027100003258B859C85892B61F086EE90E00E94D5
:102720003F246B857C8580E090E021E44D850E940C
:102730000325DF91CF911F910F91EF900895EF92B4
:102740000F931F93CF93DF93EC016091B7017091CA
:10275000B8018091B9019091BA0127EFE22E02E30E
:1027600010E020E030E04091BB010E94281887FD76
:1027700010C0CE010E943F246091B7017091B80152
:102780008091B9019091BA0121E44091BB010E946E
:102790000325DF91CF911F910F91EF90089540E0B5
:1027A000FC01608181810E94E32DE9E4F1E0638115
:1027B00074818581968126E442810E9403250895D3
:1027C000CF93C62F0E941E2481E00E942B3B8C2FAA
:1027D0000E941E24CF910895A0E0B0E0E2EFF3E163
:1027E0000C94AE3E0E94862480910501813051F404
:1027F000E0907401E5E0DE2EF5E0FF2E85E000E0DC
:1028000010E01FC18230F1F4F0907301D090790193
:10281000C0907401E0907A01FD1006C0DE2C75E0D6
:10282000E72EBB24B3945AC0CE1409F407C1FE109E
:10283000FFC0DC10FDC0EF2C35E0D32E45E0C42EE8
:10284000B12C4CC0833009F03FC080E066E0282FF7
:1028500030E090E0629FF001639FF00D1124EC588E
:10286000FE4F492F50E0981769F0649FD001659F93
:10287000B00D1124AD58BE4FC0817C91C71302C06A
:1028800095E085E09F5F933060F38F5F8330F8F2CF
:10289000853048F086E0849F8001859F100D1124CB
:1028A0000D581E4F02C000E010E086E0829FE0015C
:1028B000839FD00D1124CD58DE4FE98055E0D52EF1
:1028C00065E0F62E83E0BFC08BEC90E00E942F24E1
:1028D00080910501805D0E942B3BBCC082E08F157A
:1028E00090F0809174010E941A2487EC90E00E947D
:1028F0000B248F2D0E941A24C3E7D1E009E711E0D1
:10290000EF1017C01BC009E711E0C3E7D1E08881D1
:102910000E941A248BEC90E00E940B248E2D0E94C2
:102920001A240115110599F0FE1441F0F3E0FF158A
:1029300028F0F801E1808BEC90E004C0F801E08021
:1029400087EC90E00E940B248E2D0E941A240E9496
:102950007424F4E0FC15F8F049E16D2D8C2D0E94F3
:10296000B9298130C1F40E94232482E08F1518F028
:102970008FE491E002C083E591E00E940B248FE395
:102980000E942B3B0E94E92361E36D0D81E38C0DD6
:102990000E945412B12C8AE391E00E943F246A8184
:1029A0007B8180E090E026E54DEF0E9403250E94A8
:1029B00023240115110529F58C819D818A3F9105FC
:1029C00060F488E20E942B3B6C817D8180E090E086
:1029D0000E94982589E20E942B3B688189810E9490
:1029E0002D2181E00E94BA2E80E391E00E949F1386
:1029F000E1E0BE122FC088E391E00E943F24CE01A7
:102A000027C0F8016281738180E090E026E54DEFF8
:102A10000E940325F1E0BF121DC088E391E00E94EF
:102A20003F24CE010E94CF130E942324C80110C06E
:102A300085E0D82E95E0F92E25E0E22E85E009E725
:102A400011E0C3E7D1E0CF2CF82EBB24B3945FCFC5
:102A50000E94CF13CDB7DEB7E9E00C94CA3E8F9247
:102A60009F92AF92BF92EF92FF920F931F93CF93DB
:102A7000DF93809101019091A601C091A801D091AE
:102A8000A70180FF09C0192F0D2F7801DC2F93E5D6
:102A9000A92E91E0B92E08C01C2FC92F7E01012F4D
:102AA0008FE4A82E81E0B82E60EE7FEF83ED91E0F9
:102AB0000E946F2460EE7FEFC5010E945C2480912C
:102AC000010182FF03C08BE20E942B3B0E94E9239D
:102AD0000E94E511602F8D2F0E941D2F892B31F050
:102AE0000E942324602F8D2F0E94E01349E1612F63
:102AF0008C2F0E94B929813049F40E94E92365E4B2
:102B000082E40E94541284E080932A018BE491E0D5
:102B10000E943F246091B3017091B4018091B5018E
:102B20009091B6010E9498250E9423248091AC01C7
:102B300080FF02C085E603C081FF03C083E60E94D8
:102B40002B3B6C2F812F0E941D2F8C01892BA1F113
:102B500087E491E00E943F24F801C281D38124815F
:102B600035818090B3019090B401A090B501B090F0
:102B7000B601F4E68F169104A104B10498F0CE01D9
:102B8000821B930B63E070E00E94293E8AEF881657
:102B90009104A104B10418F4C61BD70B03C0EB01C8
:102BA000C20FD31FCE01A0E0B0E026E54DEFBC017F
:102BB000CD010E94032502C0C0E0D0E08DE391E08A
:102BC0000E949F13C53FD140E0F06E2D8F2D0E94D3
:102BD0001D2FEC01892BA9F08A819B81823C9140B9
:102BE00080F40E94E9236E2D8F2D0E94E0130E9435
:102BF00023246A817B8180E090E026E54DEF0E94EE
:102C00000325DF91CF911F910F91FF90EF90BF901F
:102C1000AF909F908F9008950F931F93CF93DF9362
:102C2000909101018091A801C091A70190FF02C07D
:102C3000D82F02C0DC2FC82F6C2F8D2F0E941D2F84
:102C40008C01892B31F00E9423246C2F8D2F0E9440
:102C5000E0138091010182FF3BC08091AF01909110
:102C6000B001892B81F084E391E00E943F246091C0
:102C7000AF017091B001072E000C880B990B26E56F
:102C80004DEF0E949D2587E591E00E943F246091D1
:102C9000BC017091BD018091BE019091BF0126E4FD
:102CA0004091C0010E9403258091AD019091AE0139
:102CB000892B71F082EE90E00E943F246091AD017B
:102CC0007091AE0180E090E024E04EEF0E94032579
:102CD00001151105A1F00E94E92381E00E942B3B20
:102CE0000E9423248AE391E00E942F24F80162814C
:102CF000738180E090E026E54DEF0E940325DF918F
:102D0000CF911F910F9108950E942324809101017A
:102D100080FF02C08EE401C080E50E942B3B8AE662
:102D200091E00E940B2408950E94232480910101C8
:102D300082FF03C085E691E002C080E691E00E9438
:102D40000B2408950E9486248091010184FF05C010
:102D500082E791E00E940B2403C08AE40E942B3B8F
:102D60008EE691E00E940B240E948416809101015E
:102D700084FD0E9494160E9474240E94E9230E94FC
:102D8000E5110E940C168091010183FF1EC08AEE9E
:102D900090E00E949F138091B1019091B201892B24
:102DA000A1F088ED90E00E943F240E94E9230E9458
:102DB00023246091B1017091B201072E000C880BA1
:102DC000990B26E54DEF0E949D2508950E948624CB
:102DD0008BE591E00E940B240E9484160E949416B9
:102DE0000E9474240E94E9230E94E5110E940C169F
:102DF00008958091000160EE7FEF823219F48FEC2C
:102E000091E002C089EC91E00E945C240E94E923D9
:102E10000E94E5118091AD019091AE01892B71F076
:102E200082E491E00E943F246091AD017091AE0177
:102E300080E090E026E54DEF0E9403250895CF93B2
:102E4000DF9360EE7FEF85EC91E00E945C240E94AE
:102E5000E9230E94E5118DE291E00E943F24C6E340
:102E6000D1E06D817E8180E090E026E54DEF0E940B
:102E700003258AE391E00E943F246B817C8180E0FE
:102E800090E026E54DEF0E940325DF91CF91089554
:102E900060EE7FEF84EA91E00E945C240E94E923C7
:102EA0000E94E51183ED90E00E943F24EBE0F1E009
:102EB000638174818581968124E042810E9403258B
:102EC0000895CF93DF938EE00E945C20C7E9D1E0A4
:102ED0009F838E8388EC8B838EE00E945C20209100
:102EE000DA01820F911D27FD9A959F838E8389E1D8
:102EF0008B83DF91CF9108950E94603A8FEF97E026
:102F0000909327018093260180EC91E00E940B248E
:102F1000F8940FB6F894A89580916000886180932A
:102F20006000109260000FBE80E48BB983B7817F90
:102F3000846083BF83B7816083BF889583B78E7FAA
:102F400083BF089584EB91E00E942F248091A1011A
:102F50009091A2016AE070E00E94153E80E090E04E
:102F600026E54EEF0E9403250E9423248091A101B3
:102F70009091A201811529E1920748F480E098EF31
:102F8000909327018093260188EA91E014C0883E3F
:102F90009C4148F480EE9FEF909327018093260197
:102FA0008CEA91E008C080EE97E09093270180932F
:102FB000260181EB91E00E940B2480EE97E0909334
:102FC000270180932601089585E00E945C209C01E2
:102FD000AEEBBFE00E94843E28EE33E040E050E0DC
:102FE0000E943D3E2E5D3E4F3093A2012093A101F1
:102FF00084E68093A3012115394150F40E94603A80
:103000000E94A21788EB9BE00E94FB1B0E947C178A
:103010000895CF92DF92EF92FF92CF93C1E02AE022
:10302000C22ED12CE12CF12C6A307105810591055D
:1030300040F0A70196010E943D3ECA01B901CF5F51
:10304000F3CF8C2FCF91FF90EF90DF90CF9008952A
:10305000A0E0B0E0EEE2F8E10C94A63E4B015C018A
:10306000342E280139011E2D9B01AC01D1E09AE0DC
:10307000C92ED12CE12CF12C2A3031054105510506
:1030800040F0CA01B901A70196010E943D3EDF5FF1
:10309000F3CFA3019201C1E08AE0C82ED12CE12C2C
:1030A000F12C2A3031054105510540F0CA01B90122
:1030B000A70196010E943D3ECF5FF3CF811491049A
:1030C000A104B10459F1411451046104710409F1DE
:1030D000432D4D0FE12EEC0EE4164CF14E1129C09C
:1030E000ED2FCD1754F4AAE0B0E0A30192010E94A5
:1030F0009A3E2B013C01CF5FF4CFEC1754F4AAE0C9
:10310000B0E0A50194010E949A3E4B015C01EF5F83
:10311000F4CF481459046A047B0448F081E0841415
:103120009504A604B70408F080E0819503C081E00F
:1031300001C08FEFCDB7DEB7E1E10C94C23ECF9274
:10314000DF92EF92FF92CF93DF93C42FD22F2AE02A
:10315000C22ED12CE12CF12CCD1791F0CD1744F4D7
:10316000A70196010E943D3ECA01B901CF5FF4CF8D
:10317000AAE0B0E09B01AC010E949A3EC150ECCFA6
:10318000DF91CF91FF90EF90DF90CF900895CF9394
:10319000CAB18AB18E7D8AB90E942F3C99B195FF40
:1031A00002C082E001C080E090FD8160CAB99091C8
:1031B0003301913031F48093320110923301109237
:1031C0003501909135012FEF290F293F18F49F5FAA
:1031D000909335019091320180933201891771F1FA
:1031E000282F292720FF2695213029F5990F22E73E
:1031F00030E002C0359527959A95E2F72370821743
:1032000011F085E001C084E0909134019F5F9093BC
:10321000340190913301891729F091E090933401A2
:10322000909335018093330190913401943030F0C4
:103230001092340104C081E08093330180E0CF918B
:103240000895A0E0B0E0E7E2F9E10C94A83E6C013B
:10325000062F81E080933301109234018093300176
:103260008091980185FF04C068E7E62EF12C02C02A
:10327000E12CF12C02FF08C08091970180FD02C073
:103280000C7F02C0C12CD12C202F2370922E19F05C
:1032900081E00E949D3B32E0832EB12C42E3A42EBC
:1032A000C0E011E0D0E058E2752E802F8270682EC9
:1032B000202F2071522E0870C114D10449F083E0F0
:1032C000C816D10420F022E0C21AD10801C010E0D3
:1032D0004F9935C08EE190E00E94FB1BC0E01123A6
:1032E00011F04F9B04C0CB3108F08EC008C0CF5FF7
:1032F000CB31C8F78AE090E00E94FB1BF0CF00239F
:1033000009F485C082E390E00E94FB1BC4E1D1E098
:103310004F990CC08EE190E00E94FB1B4F9906C0B4
:1033200088EC90E00E94FB1BC1E0D3E0C1508AE032
:1033300090E00E94FB1BC111EBCF10E070C00E9417
:10334000C718882351F1BB2019F08D1711F073C0F5
:10335000D82FB394809135016B2D0E94FB3D9CE0EA
:103360009A0DA82EA90E28E1829FC001112424E005
:10337000969587952A95E1F7893208F088E2869537
:1033800086958695833010F493E0892E8B1005C0C6
:1033900097E0981B909330014EC0BB2029F080919C
:1033A00035018A1508F047C082E090E00E94FB1BBF
:1033B000CF5F8C2F672D0E94FB3D91110BC0809138
:1033C000A301823020F081508093A30103C05110EB
:1033D0000E94E417C83C19F5662059F0113029F411
:1033E00080E00E949D3B12E004C081E00E949D3B72
:1033F00011E0E114F10471F081E0E816F10461F0EC
:1034000021E0E21AF10806C010E0D2E008C010E0A6
:10341000D1E005C0C0E003C0C0E010E0D7E6809175
:10342000980180FF06C0809198018E7F809398015B
:1034300002C0111141CF992019F080E00E949D3BFC
:10344000D0932F01D73611F40E947C178D2FCDB762
:10345000DEB7EFE00C94C43E65E188EB9BE00E9490
:10346000211908950F931F93CF93DF93D82F8823AB
:1034700021F004E012E0C3E003C00BE012E0C0E082
:103480000E947621C817E9F00E94603AC8010E94A4
:103490000B2485EF91E00E9434240E947621C8130A
:1034A00005C088EC90E00E94FB1B0BC060E184E645
:1034B00090E00E942119D13081F7882371F380E0D8
:1034C00001C081E0DF91CF911F910F9108956813A2
:1034D00010C080EE9FEF90932701809326018AE22F
:1034E0000E942B3B80EE97E090932701809326016A
:1034F00008950E9423240895A0E0B0E0E2E8FAE1F4
:103500000C94A83E762E642E552E59010FEF080F0D
:1035100090902401DD24DA94D90C0E9486240E9424
:103520002B240E94742412E0D0E0C0E09A949A9474
:1035300081E0882E8D1881E0D81202C01F5FDC2F39
:10354000E62CF52CED0EF11CED0EF11CC12CCD146A
:1035500088F562E06C0D81E00E94CD39E1E0DE1675
:1035600029F06C2F8D2F8C0D0E94671A1130D1F02D
:10357000F1E07F1206C0F701808191810E940B2447
:1035800008C0C7010E94403FBC0180E090E00E945B
:103590009825A114B10419F0C5010E940B2480E004
:1035A0000E94F839F2E0EF0EF11CC3940C1578F686
:1035B000CD2CCDCF81E0D81209C06091240180913B
:1035C00023010E94CD398CE30E942B3B60E180E017
:1035D00090E00E942119813091F18430D1F0853042
:1035E00089F4C11106C00D1538F1D82DD00FC02FA8
:1035F00007C0C150DC1321C0CD2FDD23F1F0D15025
:1036000012E099CF8230D9F08736B9F40E947C1746
:1036100014C00C1304C00D1558F012E00AC0CF5F9F
:10362000892D8D0FC81309C0C01738F4DF5FE8CFAC
:1036300011E0D0E0C0E07FCFC02F11E07CCF0E942E
:10364000603A84EF91E00E94FB1B8C2FCDB7DEB770
:10365000EFE00C94C43EA9E0B0E0E1E3FBE10C94A0
:10366000B43E182F82EF90E09A83898381E08F83A4
:103670008FEE90E09C838B8382E0888780EE91E0E0
:103680009E838D8319860E94603A60EE7FEF123030
:1036900019F483E292E002C08EE192E00E945C2481
:1036A00020E030E0AE014F5F5F4F61E083E00E94B9
:1036B0007C1AFE01E80FF11D6781662319F0812F46
:1036C0000E948B1C2996E3E00C94D03EA5E1B0E06B
:1036D000ECE6FBE10C94B53E88E991E09A8389839E
:1036E00083E18F8788EB91E09C838B8381E0888BDB
:1036F00088E292E09E838D8382E0898B83E292E070
:1037000098878F8383E08A8B8EE192E09A878987FE
:1037100084E08B8B82E192E09C878B8785E08C8BA9
:1037200080EE91E09E878D871D8A0E94603A60EE50
:103730007FEF83E392E00E945C2420E030E0AE0162
:103740004F5F5F4F61E087E00E947C1AFE01E80F47
:10375000F11D87856596E2E00C94D13ECF930E94DF
:10376000661B2091970190E020FF2EC020919801C8
:103770002F7D2093980184319105F8F4FC01EC5CD5
:10378000FF4F0C947E3E0E943C1F02C00E942E1DE3
:10379000C82F0EC082E001C081E00E942B1B05C033
:1037A0000E94C21C02C00E948138C1E001C0C9E66B
:1037B0008091970180FD02C00BC0C1E0809198010B
:1037C00080628093980104C08431910578F0C1E053
:1037D0000E94603AC11103C085EE91E002C08AE305
:1037E00092E00E940B248C2FCF910895FC01E85B9E
:1037F000FF4F0C947E3E20919901A0E0B0E0F4E0F0
:10380000880F991FAA1FBB1FFA95D1F72630D1F454
:10381000492F5A2F6B2F77274F5F5F4F6F4F7F4F87
:10382000E4E0440F551F661F771FEA95D1F748174C
:1038300059076A077B0728F4841B950BA60BB70B67
:1038400001C020E01092B1001092B20032E030933B
:10385000B0003093700033B7317F232B23BF0FB6F6
:1038600007FC03C0789430E001C031E047E00097E6
:10387000A105B105F9F0A8958F3F9105A105B10506
:1038800009F010F4282F01C02FEF821B9109A10924
:10389000B10921502093B3004093B1002091B100B1
:1038A000222329F323B7216023BF889523B72E7FD6
:1038B00023BFF4CF311101C0F89408951F920F92E5
:1038C0000FB60F9211241092B1000F900FBE0F90FF
:1038D0001F901895E3EDF1E088EC90E091838083F0
:1038E0008CED90E09383828384E190E095838483E0
:1038F0008BE286831782108611860895E3EDF1E04E
:1039000080E09191890F91E0ED3DF907D1F78111A8
:1039100001C081E008951F93CF93DF93182F623089
:1039200019F0C3E8D2E002C0C8E7D2E00E947E1CD2
:103930008093DD014BE050E0BE0183ED91E0123059
:1039400019F40E94463F1AC00E94283F0E947E1C24
:103950009091DD01992391F0891781F00E94603ADE
:1039600087ED91E00E940B2485EE91E00E943424C3
:1039700080ED97E00E94FB1B0E946A1CDF91CF91B3
:103980001F9108950F931F93CF93DF9381E080934E
:1039900020010E94603A8CE191E00E942F24C3ED47
:1039A000D1E06881798180E090E024E04FEF0E94CF
:1039B000032588E191E00E943F246A817B8180E0B9
:1039C00090E024E04FEF0E94032582E091E00E9406
:1039D0003F246E8170E080E090E026E444EF0E9496
:1039E00003258FEF90E00E943F246C817D8180E071
:1039F00090E024E04EEF0E94032588E291E00E94CF
:103A00003F2407E911E0F8016681778180E090E0CA
:103A100026E54DEF0E9403258BEF90E00E943F24A6
:103A2000F8016085718580E090E026E54DEF0E9409
:103A3000032585EF90E00E943F246885062E000C48
:103A4000770B880B990B26E54DEF0E949D250E9470
:103A50002C1ADF91CF911F910F910895A5E0B0E04E
:103A6000E4E3FDE10C94A53E81E00E94321A612C52
:103A7000712C1B82A12CB12C1A82C12CD12C412C6F
:103A8000882309F478C1812C912C212CE12CF12C74
:103A900000E010E01D821C8262E0562E3324339435
:103AA00021E029830E94603A0E94862481E40E94DA
:103AB0002B3B80E3850D0E942B3B0E9474240E94C7
:103AC000232434E0531609F44EC0351568F082E023
:103AD000581699F093E0591205C180E00E94321AFD
:103AE00080E094E69983FFC025E0521609F464C093
:103AF00036E0531609F49FC0F5C08FEF90E00E94A6
:103B00002F2485E091E00E940B2460E081E00E9478
:103B10002D2180E00E9480269D838C83863991052B
:103B200018F4C80ED91E439460E082E00E942D2153
:103B300080E00E9480268C018639910518F4C80E19
:103B4000D91E439461E082E00E942D2180E00E9412
:103B500080267C0186E9E816F10408F0C3C0CE0C8B
:103B6000DF1C4394BFC08CE191E00E940B2418B885
:103B700037B835B834B880E00E94BD209D838C836F
:103B800022E027B955B854B881E00E94BD208C01CD
:103B90008C819D81800F911FA80EB91E57B830E10E
:103BA00035B934B982E00E94BD207C01A80EB91E4F
:103BB0008A818D5F8A8396C088E191E00E940B2400
:103BC00015B838B837B834B820919F013091A001AA
:103BD0003D832C8380E00E94BD202C813D81281BE9
:103BE000390B3D832C8332E038B937B984E084B98E
:103BF00000919F011091A00181E00E94BD20081B4F
:103C0000190B8C819D81800F911F680E791E94E0A5
:103C100098B997B920E124B9E0909F01F090A001F4
:103C200082E00E94BD20E81AF90A6E0C7F1C3B81DD
:103C30003D5F3B8357C082E091E00E942F2485E0E6
:103C400091E00E940B2440E060E081E00E94E32DBF
:103C500080914B01843F91F48091500190915101EA
:103C6000A0915201B091530185369105A105B1058E
:103C700028F49D838C83880E991E239441E060E094
:103C800082E00E94E32D80915901843F89F4809164
:103C90005E0190915F01A0916001B0916101853654
:103CA0009105A105B10520F48C01880E991E23947D
:103CB00042E061E082E00E94E32D80916701843F51
:103CC00089F480916C0190916D01A0916E01B09189
:103CD0006F0185369105A105B10520F47C01880EA0
:103CE000991E239481E017B818B814B815B8882322
:103CF000B9F00E94E9232C813D81B90180E090E078
:103D00000E9498250E942324B80180E090E00E9440
:103D100098250E942324B70180E090E00E94982516
:103D20003981343681F060E188EE93E00E942119F8
:103D3000882349F0823029F454E6552E84E689839D
:103D400002C094E6998329812F5F2983263008F4E5
:103D5000A9CE539436E0351508F0A2CE8FE0281294
:103D60000AC0C4016FE070E00E94153E6093D90163
:103D700091E0998301C019822FE042120CC0C60164
:103D80006FE070E00E94153E7093D8016093D701F8
:103D900039813F5F39833A813F3009F064C08B81BC
:103DA0008F3009F05DC0E5E0F0E0C501BF010E9481
:103DB000153E9B01C301BF010E94153E8B018091FE
:103DC0009F019091A0016C01CC0CDD1CC80ED91E86
:103DD000C21AD30AC61AD70AE12CF12CA0EABCE811
:103DE0000E94843EA70196010E943D3ECA01B9018E
:103DF0006B5F7F4F8F4F9F4F2AE030E040E050E0F5
:103E00000E943D3E2A3F31054105510538F430936B
:103E1000D4012093D30199819F5F99839801A0EAEF
:103E2000BCE80E94843EA70196010E943D3ECA0163
:103E3000B9016B5F7F4F8F4F9F4F2AE030E040E02A
:103E400050E00E943D3E283181E038074105510590
:103E500038F43093D6012093D50199819F5F9983DF
:103E60002981243011F080E003C00E94C21C81E04F
:103E70002596E2E10C94C13EA0E0B0E0E2E4FFE16F
:103E80000C94A53E81E00E94321A882309F40EC1E9
:103E9000C12CD12CE12CF12C00E010E0C1E092E02B
:103EA000292E28E0322E3AEF432E32E0532E612C99
:103EB000712CD1E00E94603A0E94862484E50E9421
:103EC0002B3B80E38C0F0E942B3B0E9474240E94AA
:103ED0002324C33009F46BC0C8F5C13009F451C0C4
:103EE000C23009F0A8C083E191E00E942F2485E050
:103EF00091E00E940B2420919F013091A001ACE73A
:103F0000B1E00E94843EA30192010E945F3E4901FC
:103F10005A0181E085B985E084B982E00E94C6201B
:103F20006C01C818D90881E184B981E00E94C620DB
:103F30007C01E818F90884E085B984E184B980E05F
:103F40000E94C6208C010819190975C0C53009F4F2
:103F50005DC008F455C0C63009F06DC080E291E044
:103F60000E940B2425B824B880E00E94C6208C0152
:103F700035B834B881E00E94C6207C0180E285B962
:103F800055C08EE00E945C208EE00E945C205C01A7
:103F900088E291E00E940B240E94E923B50180E0B1
:103FA00090E026E54DEF0E94032580E045C08EE0BD
:103FB00091E00E942F2485E091E00E940B24009163
:103FC0009F011091A0011695079525B88AE084B944
:103FD00082E00E94C6206C01C01AD10A82E284B934
:103FE00081E00E94C6207C01E01AF10A35B888E21F
:103FF00084B980E00E94C620801B910B8C011BC0FD
:1040000080E00E94321A80E0D4E616C084E291E09B
:104010000E940B2415B824B880E00E94C6208C01B1
:1040200034B881E00E94C6207C0180E284B982E03D
:104030000E94C6206C0181E014B815B8882309F1EC
:104040000E94E92320E040E0B801012E000C880B1B
:10405000990B0E94DC240E94232420E040E0B70159
:104060000F2C000C880B990B0E94DC240E94232447
:1040700020E040E0B6010D2C000C880B990B0E944B
:10408000DC24D43659F060E188EE93E00E942119D7
:10409000882321F0823009F4C4E6D4E6DF5FD6300D
:1040A00008F408CFCF5FC73008F403CF81E0CDB765
:1040B000DEB7E2E10C94C13ECF93DF938F70C82F3F
:1040C000C064C0937C00DC2FD07C80919C01D81709
:1040D00021F00E94333CD0939C0180917A0080644F
:1040E00080937A0080917A0086FDFCCF20E030E05A
:1040F000A90180E0E0919A018E1708F590917A006D
:10410000906490937A0090917A0096FDFCCF609134
:10411000780070917900260F371F411D511D8430A2
:1041200061F4211594E0390740F4D03C31F09091CE
:104130009B01913011F4C06CC4CF8F5FDBCFD03CBA
:1041400029F4A0919D01B0919E0104C0A0919F010E
:10415000B091A0010E949A3E2AE0969587957795A6
:1041600067952A95D1F72E2F30E040E050E00E946D
:104170003D3EC901DF91CF910895CF93C82F0E9492
:104180002A3C8C2F0E945C20CF910895CF93C82F9A
:104190000E94283C8C2F0E945C20CF910895A0E0C3
:1041A000B0E0E5EDF0E20C94AF3EE62E042FC1EC5A
:1041B000D1E0888369834A83C82ED12CC601875FEA
:1041C0009F4F0E94383F8E83F12CC701875F9F4F1E
:1041D0000E94383F8F8310E0C801875F9F4F0E9485
:1041E000383F8887C6018A5F9F4F0E94383F898782
:1041F000C7018A5F9F4F0E94383F8A87C8018A5F44
:104200009F4F0E94383F8B87C6018D5F9F4F0E9452
:10421000383F8C87C7018D5F9F4F0E94383F8D8745
:10422000C8018D5F9F4F0E94383F8E87C601805026
:1042300090400E94383F8F87C701805090400E9475
:10424000383F888BC801805090400E94383F898B4E
:10425000CDB7DEB7E8E00C94CB3E43E0481B461BED
:104260000E94CF200895E1ECF1E0458164818381D3
:104270000E94CF200895E1ECF1E080818383818169
:104280008483828185830895CF93DF930E942D21BB
:1042900017B89091C70195B98091C801892B84B94D
:1042A0008091D0010E94BD20EC018091D1010E943B
:1042B0005C20AC0120919F013091A001369527959B
:1042C000C9014E978C179D0760F4225E3F4FC217BD
:1042D000D30738F48417950720F481E04217530779
:1042E00008F080E014B8DF91CF910895CF9361E09A
:1042F00080E00E944421C82F62E080E00E944421B7
:10430000C80F62E081E00E9444218C0FCF91089594
:104310000F931F93CF93DF93D82FC62F17B818B8DA
:1043200014B815B80E942D218091CD0187B98091D4
:10433000D1010E945C208C018091CE0187B98091CF
:10434000D0010E945C200817190720F46D2F8C2FD4
:104350000E942D218091CD0187B98091C80184B937
:10436000C2E38091D1010E945C209C01203981E050
:10437000380738F0C15069F084E690E00E94FB1BDA
:10438000F0CF87B19091CE01982B97B928323105A3
:1043900088F717B814B8DF91CF911F910F91089546
:1043A000A6E0B0E0E6EDF1E20C94AB3E17B818B829
:1043B00015B88FE384B980E00E945C209A838983DA
:1043C00081E00E945C209C838B8382E00E945C20C1
:1043D0009E838D83E12C02E018E2FF24F394AA244B
:1043E000A394B12C0F5F033009F400E0C02ED12C50
:1043F0008E2D90E0002E02C0959587950A94E2F7E5
:1044000080FDF0CFC601805090400E94383F982E2A
:104410000E945C20F601EE0FFF1F21E030E02C0F20
:104420003D1FE20FF31F208131818217930768F44B
:1044300091838083212F30E02F19310924313105F8
:1044400064F41B3E50F41C5E08C08A30910518F4D9
:10445000183209F410E5F39402C0FF24F39483307A
:10446000910540F4C5010C2C01C0880F0A94EAF7AD
:10447000E82A0BC08032934040F487B0C6018D5FBC
:104480009F4F0E94383F882987B987E0E81681F15D
:104490001F1540F581E08093000180930101009396
:1044A0000601C6018D5F9F4F0E94383F97B18095EE
:1044B000982397B9C6018A5F9F4F0E94383F182FF3
:1044C000C601875F9F4F0E94383F94B1812B809532
:1044D000892384B9892D0E945C20909308018093E0
:1044E000070106C0A89582E390E00E94FB1B7ACFEB
:1044F00014B817B82696ECE00C94C73ECF93C82F9B
:10450000C09595B160FF02C0982B01C09C2395B95E
:1045100094B1892B84B963FF03C00E942E3C02C072
:104520000E94293C84B18C2384B985B1C823C5B9C4
:10453000CF910895A0E0B0E0E0EAF2E20C94B03E42
:10454000613039F0623071F06330A9F080E090E0C2
:104550004DC0CCE4D0E0E7E0F0E002E310E028EE6C
:1045600033E011C0CEE5D0E0ECE2F0E009E110E08C
:104570002CE231E008C0CCE0D0E0EEE1F0E009E16F
:1045800010E028EC30E08217930768F1821B930B50
:10459000B8010E94153ED02ED81ACB019927E817F2
:1045A000F90708F46E2FC60FD11DC60FD11DCE011D
:1045B0000E94403F7C01CE0102960E94403FFC01D8
:1045C000E81AF90ADE9C9001DF9C300D1124C80125
:1045D00096958795820F931FB8010E94153ECF01D3
:1045E000860F971F03C0D02E60E0DDCFCDB7DEB7BA
:1045F000E7E00C94CC3ECF93DF9390910001913093
:1046000009F4C3C0A8950E94CF2015B88091C801B5
:1046100084B98091CD0187B988B960E18091C901E1
:104620000E947E228091D1010E94BD20EC019091D8
:10463000C8018091C901892B84B98091D1010E9460
:10464000BD202091C80124B98C179D0720F4853026
:10465000910508F498C0C13D23E0D20700F161E163
:104660008091C9010E947E228091D1010E94BD20CB
:10467000EC018091C90185B99091C801892B84B959
:104680008091D1010E94BD2015B82091C80124B9A4
:104690008C179D0720F48530910508F474C0C03153
:1046A000D10560F080910201811103C0CE010E940A
:1046B0002433C13D83E0D80708F048C0809102014F
:1046C00081111BC08091C80184B915B88091CD01BA
:1046D00087B988B90E942A3C9091C8018091C9018C
:1046E000892B84B98091D1010E94BD208F359D40D6
:1046F00020F0BE0182E00E946D31809102018111A3
:104700002DC08091CE0187B918B89091C7018091D2
:10471000C901892B84B985B98091D0010E94BD203F
:104720008034964060F40E94EC34811108C080917E
:104730000001813221F0BE0181E00E946D31809143
:10474000020181110BC00E94DE3508C08091020178
:10475000811102C00E948D350E94302F809100018E
:10476000882311F08A3019F40E944C2707C08F313A
:1047700029F48091010184FD0E942F3017B818B8E8
:1047800014B815B802C0EC0199CFDF91CF9108950C
:10479000809103018823E1F09091020190FD18C0FF
:1047A00091FD04C0909100019E3190F4809300012E
:1047B000809136018093A601809137018093A701F3
:1047C000809138018093A80180910A0180930901AA
:1047D0000895CF936091220180912401681315C040
:1047E000C0912001C0FD0E942C1AC1FF0BC0C091D6
:1047F0002401C23028F08C2F0E94F839C150F9CF23
:1048000062E004C00E94603A04C06F5F81E00E94D1
:10481000CD39CF910895CF93DF93EC01CE010E9463
:10482000383F882321F00E942B3B2196F7CFDF9160
:10483000CF9108958F5C0E942B3B08950E94D41164
:104840000E942B3B089580E20E942B3B08958DE24D
:104850000E942B3B08958AE30E942B3B08950E94FF
:104860000B240E9423240895CF93DF93EC010E9430
:10487000E923CE010E940B24DF91CF910895CF93BD
:10488000DF93EC010E94E923CE010E940B240E94D9
:104890002324DF91CF91089582E00E94F83962E0ED
:1048A00081E00E94CD39089583E00E94F83963E0E9
:1048B00081E00E94CD3908950F931F93CF93DF932A
:1048C000C0E2D1E00E811F817F836E830E940B24A2
:1048D0001F830E83DF91CF911F910F9108950E9446
:1048E0005C240E9423240895E0E2F1E08085918514
:1048F000978386830895E0E2F1E08681978191872E
:10490000808780EE9FEF9783868308950E947B24A3
:104910000895A0E0B0E0EFE8F4E20C94AF3E6B0144
:104920007C01D42F022F0E947B242AE04DE351E02A
:10493000C701B6010E94DC3EEDE3F1E001900020EA
:10494000E9F73197CF018D539140F82EDD2369F0BF
:104950008D1728F0C82FCD1BD0E041F401C0D81B23
:1049600080E30E942B3BC0E001C0C4E68DE3C82E6B
:1049700081E0D82E10E01F1598F41C130AC08CE2B9
:104980000E942B3BDD2329F080E30E942B3BD1507A
:10499000F9CFF60181916F010E942B3B1F5FEBCF96
:1049A0000E947424002319F0802F0E942B3BCDB766
:1049B000DEB7E8E00C94CB3ECF92DF92EF92FF920D
:1049C000CF93DF936B017C01C42FD22F97FF0EC0D2
:1049D0000E947B240E9427240E947424F094E09477
:1049E000D094C094C11CD11CE11CF11C2D2F4C2F64
:1049F000C701B6010E948924DF91CF91FF90EF900B
:104A0000DF90CF900895A0E0B0E0E9E0F5E20C94EB
:104A1000AB3E6B017C01C42F122F9AE0892E912CA2
:104A2000A12CB12C30E1C31637E2D306E104F10426
:104A300070F0C701B6016B5F7F4F8F4F9F4FA5018D
:104A400094010E943D3E69017A01CF5FEBCFC13FE7
:104A5000F4F08FE08C0F63E00E94073E282FD92FDF
:104A6000911107C0E8EECE16E3E0DE06E104F104A2
:104A700020F021E0280FD3E0D91B283048F4822F02
:104A800090E086549F4F0E94383F082F02C0D0E02C
:104A900000E00E947B244AE06DE371E0C6010E94C1
:104AA000FE3EEDE3F1E001900020E9F73197ED5390
:104AB000F140BE2ECE2FCD1B1C165CF080E30E9471
:104AC0002B3B8CE20E942B3BCC2319F080E30E940D
:104AD0002B3BD11101C0CFEFC1508DE3C82E81E037
:104AE000D82EE12CF12C0C2E000CDD0BEB1478F4FD
:104AF000F60181916F010E942B3BCE15DF0519F461
:104B00008CE20E942B3BFFEFEF1AFF0AEFCF0E94CF
:104B10007424002319F0802F0E942B3B112319F0DD
:104B2000812F0E942B3BCDB7DEB7ECE00C94C73E43
:104B300020E040E00E9403250895CF92DF92EF929B
:104B4000FF92CF93DF936B017C01C42FD22F97FF8D
:104B50000EC00E947B240E9427240E947424F0949B
:104B6000E094D094C094C11CD11CE11CF11C2D2FE9
:104B70004C2FC701B6010E940325DF91CF91FF9012
:104B8000EF90DF90CF900895CF93C82F80910901C7
:104B9000982F990F890FE62FF0E0E80FF11DEA53E7
:104BA000FF4FE491EE2389F120912D018FEF820FC9
:104BB00060912E01E4FF04C090912C019695690F3D
:104BC0003E2F3270E1FF0BC090912B01E5FF04C036
:104BD000892F8695820F01C0890FE3FD6150E2FFA6
:104BE00006C090912C01690F311101C061500E94E3
:104BF000CD398C2F0E94D411883721F48C2F0E943C
:104C00001E2403C08C2F0E941A24CF910895CF93A5
:104C1000DF9320912C013091240193E0920F3917FA
:104C2000F0F190912301903120F02F5F280F23178E
:104C300038F0309322010E94E92393E083E004C01E
:104C40009F5F20912B01921B90932D0180932E0149
:104C500060E08091A6010E94C42561E08091A701D7
:104C60000E94C42562E08091A8010E94C425C091E1
:104C70002601D091270180EE9FEF9093270180932A
:104C8000260160912E0180912D010E94CD398091E5
:104C900009010E94AC3BD0932701C0932601DF910C
:104CA000CF910895FF920F931F93CF93DF93C82F57
:104CB00090912C0181E0890F8C0F209124012817FD
:104CC000D0F0809123018031B0F0F0902B018F5F04
:104CD000D82FDF19192F1C0FC11769F06C2F8D2FDA
:104CE0000E94CD390F2D002321F00E942324015072
:104CF000FACFCF5FF1CFCDB7DEB7E5E00C94CE3E73
:104D00004F925F926F927F928F929F92AF92BF92DB
:104D1000CF92DF92EF92FF921F93CF93DF93C82F32
:104D20000E94D02180910001813009F456C018B84A
:104D30008091CE0187B98091C70185B984B90E945D
:104D4000293CC12CD12C760181E0182F117080FFF5
:104D500003C08091D00102C08091D101A895806CE0
:104D600080937C000E94333C80917A008064809321
:104D70007A0080917A0086FDFCCFD4E6812C912CBC
:104D8000540180917A00806480937A0080917A0047
:104D900086FDFCCF8091780090917900880E991E55
:104DA000A11CB11C0E94303CD15059F7A0919D012B
:104DB000B0919E01A50194010E949A3E4B015C01B5
:104DC0008AE0B694A794979487948A95D1F782E065
:104DD000112331F075016401B8CF80E090E04CC040
:104DE00015B89091CE018091CD01892B87B98C1493
:104DF0009D04AE04BF04D8F520919F013091A0011D
:104E0000A4E6B0E00E94843E9B01AC012C193D0950
:104E10004E095F090E949A3E2B013C01A7019601B1
:104E2000281939094A095B09A8EEB3E00E949A3EA5
:104E30006B017C012091D5013091D601205F314F6B
:104E400040E050E0C301B2010E943D3EC701B601FF
:104E50000E943D3EC901C13061F46091D70170915B
:104E6000D8016217730718F4861B970B02C080E005
:104E700090E020EC20939C01DF91CF911F91FF9057
:104E8000EF90DF90CF90BF90AF909F908F907F90EA
:104E90006F905F904F900895A0E0B0E0E2E5F7E2F8
:104EA0000C94A53EA89518B88091CE0187B9809141
:104EB000C70184B985B98091D1010E94BD204C0100
:104EC0008091D0010E945C20EC0115B88091CA014C
:104ED00084B98091D0010E94BD20459708F044C25A
:104EE0008091CA0185B98091D0010E94BD206C01DA
:104EF0008091CD0187B988B915B88091C80184B96E
:104F00008091D0010E94BD202C018091D1010E948E
:104F10005C203C018091CB0184B98091D1010E9439
:104F2000BD205C01C03321E1D20728F432E6C3166C
:104F3000D10438F019C24CE6C41643E1D40608F097
:104F400013C259EA6516710408F070C086E2A8160B
:104F5000B10408F409C2D60120EF3BE247E050E07B
:104F60000E949A3EC0919F01D091A0019E012C19F0
:104F70003D0940E050E00E943D3E29013A01DE013A
:104F8000AA19BB0920EF3BE247E050E00E949A3E9D
:104F9000850120E030E0A90198010E943D3EEEED40
:104FA000CE16E3E0DE0680F4D301C201D2E0880F22
:104FB000991FAA1FBB1FDA95D1F7BC01CD01620F63
:104FC000731F841F951F14C0FEEDAF16F3E0BF06DC
:104FD000B0F4DA01C901C2E0880F991FAA1FBB1FF4
:104FE000CA95D1F7BC01CD01640D751D861D971DB5
:104FF00025E030E040E050E00E943D3E0CC0D3018F
:10500000C201820F931FA41FB51F9C01AD015695CD
:10501000479537952795225A3E4F4F4F5F4FAAE04D
:10502000B0E00E949A3E4B015C01B3C0C815D9059F
:1050300008F483C04614570408F47FC040919F01D0
:105040005091A001C417D50709F421972091D501EB
:105050003091D601205F314FDE01A819B9090E94B5
:10506000843E9A012C1B3D0B40E050E00E943D3EE7
:1050700049015A012091D3013091D401205F314F71
:10508000D201A619B7090E94843E830120E030E0D6
:10509000A90198010E943D3ECE3DD34080F4D50148
:1050A000C401F2E0880F991FAA1FBB1FFA95D1F720
:1050B000BC01CD01620F731F841F951F1BC0EEED55
:1050C0006E16E3E07E0660F5283FF4E23F07F1E06C
:1050D0004F075105A0F4DA01C901E2E0880F991FDA
:1050E000AA1FBB1FEA95D1F7BC01CD01680D791D40
:1050F0008A1D9B1D25E030E040E050E00CC0A9E097
:10510000B0E00E949A3E680D791D8A1D9B1D2AE021
:1051100030E040E050E00E943D3E49015A0139C074
:10512000D501C401820F931FA41FB51F4C015D015F
:10513000B694A794979487942CC02FE8621622E126
:10514000720608F001C181E00E9480262C01612CCA
:10515000712C812C912C540120E030E0A901280D04
:10516000391D4A1D5B1DAAE0B0E00E949A3E611500
:1051700071058105910521F464E670E080E090E01E
:10518000461657066806790658F453014201CEEFD9
:1051900008C034E683169104A104B10408F4C0C029
:1051A000CFEF80E0D7E02AE0F22E9091040189173A
:1051B00008F09DC0682E712CD69D9001D79D300DB2
:1051C0001124F901E55FFE4F6F0120819091C1012B
:1051D000291389C021819091C201291384C0E12C37
:1051E00002E010E020E030E04C2FC501B4010E9445
:1051F00028188F3F09F03FC0F601638174818581D3
:10520000968102E010E020E030E042810E94281800
:105210008F3F51F5F6014281C41719F055245A9475
:1052200002C055245394D69DC001D79D900D1124E2
:105230009C01255F3E4F6901F9016381748185817D
:105240009681EC2E950184010E942818F6015812CF
:1052500006C083809480A580B680C28105C0838209
:105260009482A582B682C283140125015694479484
:10527000379427940AC0C501B40124E130E040E02E
:1052800050E00E943D3E19012A01D69DC001D79DE4
:10529000900D11249C01255F3E4F6901F901638146
:1052A000748185819681EC2E950184010219130980
:1052B0002409350942810E94281887FD16C09501EE
:1052C0008401020D131D241D351DF60163817481B7
:1052D0008581968142810E942818181634F0F09238
:1052E000000184E662CF8F5F60CF88EC5ECF8436AA
:1052F000D9F19330C8F527E0929FF0011124E55FC2
:10530000FE4F8091C20180838091C101818383829D
:105310009482A582B682C2839F5F9093040124C0C9
:1053200081E00E9480262C01612C712CA501940142
:10533000220F331F441F551F85E088169104A104D6
:10534000B10408F40CCF0FCF81E00E9480262C011D
:10535000612C712C8AE0882E912CA12CB12C24E197
:1053600030E040E050E0FFCECDB7DEB7E2E10C9494
:10537000C13EEF920F931F93CF93C42F109204015D
:105380000E942D210E944C27809104018130B1F4AC
:10539000CC23B1F000910E0110910F01209110016A
:1053A000309111016C2F70E080E090E0E0900D01F1
:1053B00043E00E94281891E0813019F090E001C08C
:1053C00091E0892FCF911F910F91EF900895813136
:1053D00038F0815115BC92E094BD87BD81E00895FD
:1053E00080E0089516BC81E085BDA99BFECF15BC69
:1053F00082E085BB0895A4E0B0E0E1E0FAE20C941D
:10540000A53E009729F46FEF7FEF7C836B8338C153
:105410009C838B83FC016381748185819681A7EFD6
:10542000EA2E0AE010E020E030E042810E942818D5
:1054300087FDE9CF0E94D02180910001813019F3CE
:10544000EB81FC81618180810E948821EB81FC815C
:10545000618180810E942D210091D0018091D10134
:10546000006C806C8A8315BC82E084BD85E687BDB4
:1054700018B800937C000E94293CFFEFF983812C2F
:10548000912C54018394412C512C3201439480E09F
:1054900090E052E3C52ED12C17EDA895C29758F491
:1054A0008091CE0187B98091C70185B984B90E94E6
:1054B0003C3C14B815B822E3C216D10458F48091CC
:1054C000CD0187B98091C80185B984B90E943C3C5F
:1054D00014B815B88091CD0187B98091C70185B9FD
:1054E00084B900937C0010937A0080917A0086FD45
:1054F000FCCF10937A0080917A0086FDFCCF20903B
:105500007800309079006A8160937C0010937A0073
:1055100080917A0086FDFCCF10937A000E94383C7F
:105520000E94F2298091C80185B984B90E943C3C4F
:1055300014B880917A0086FDFCCFC0907800D0909E
:1055400079008091CE0187B98091C80185B984B96D
:105550007A8170937C0010937A0080917A0086FDA6
:10556000FCCF10937A0080917A0086FDFCCFE0900A
:105570007800F090790000937C0010937A0080917D
:105580007A0086FDFCCF10937A000E94383C0E947E
:10559000F2298091C70185B984B90E943C3C14B8B6
:1055A00080917A0086FDFCCF8091780090917900FF
:1055B000A70160E070E0420D531D611D711D440E96
:1055C000551E661E771EAC0160E070E04C0D5D1D3F
:1055D000611D711D840E951EA61EB71EE981E15046
:1055E000E983E1115ACF17B815B8481459046A0471
:1055F0007B04E8F58091D3019091D4012AE0289FA3
:10560000D001299FB00D1124A50194012419350959
:10561000460957090E949A3EA30192010E943D3E0D
:105620008091D7019091D8018217930720F4B90196
:10563000681B790B19C0EB81FC81638174818581C2
:1056400096812AEFE22E08EE13E020E030E042815E
:105650000E94281821E030E0181614F420E030E011
:1056600066277727621B730B7C836B8304C08FEFE5
:105670009FEF9C838B8380EC80939C010E94D021C0
:105680008B819C812496E2E10C94C13EA0E0B0E0C5
:10569000ECE4FBE20C94A63E6C01D1E1C3E00E9475
:1056A000D02180910001813009F42AC118B880917D
:1056B000CE0187B98091C80185B984B98091D001A4
:1056C0000E945C205C018091D1010E945C20A81A9C
:1056D000B90A15B814B8E12CF12C8FEFE81AF80AC2
:1056E0006D2F8091C7010E947E228091D0010E947F
:1056F0005C20A816B9060CF00FC18C010A191B0911
:10570000EEE7EE16F10449F40C32F1E01F078CF4D9
:1057100091E00B34110574F40CC00C3281E01807D1
:1057200014F491E001C090E0E4EFEE16E1E0FE0633
:1057300009F490E0A8959111D0CF0C32F1E01F0749
:105740000CF4C1E081E0E816F10459F40531E5E01C
:105750001E073CF08D2F8071D9E009F0A0CFC2E088
:10576000D1C0C33009F0CEC08091D0010E945C202E
:105770005C01470180E090E08114910449F0F1E080
:105780008F1A91088091D0010E945C20A895F4CFD7
:105790008A159B0540F4A81AB90A85E6A816B10433
:1057A00020F0C0E002C0A12CB12C8091D0010E9459
:1057B0005C204C01ED2FE0713E2E19F00E941E3C42
:1057C00002C00E94233C8091D0010E945C20881579
:1057D000990518F4881A990A02C0812C912CC330BB
:1057E00009F090C062E0C8018A0D9B1D0E949A22B8
:1057F0009C01D7010E94843E2B013C01332031F1F2
:10580000AAE0B0E09B01AC010E949A3E2B013C0152
:105810006833F9E87F07F1E48F07910508F474C055
:10582000C301B20128EE33E040E050E00E943D3E6B
:1058300029013A01A8EEB3E00E949A3ECAEF332054
:1058400089F022E434E040E050E010C06833794849
:105850008144910528F7A8EEB3E0A30192010E94CC
:105860009A3EC7EF20E134E040E050E00E943D3E28
:105870008091C201F60180838091C1018183C2833E
:10588000478250866186728623833483458356839C
:105890009AE0492E512C612C712C2130F5E33F0701
:1058A000FCE04F07510540F0CA01B901A301920184
:1058B0000E943D3ECF5FF1CFD4010E949A3E28EE78
:1058C00033E040E050E00E943D3ED3FDCF5F8AE0F0
:1058D000882E912CA12CB12C2115310581E048078F
:1058E000510540F0CA01B901A50194010E943D3E55
:1058F000CF5FF2CFF60134872387C58783E014C0DA
:1059000080E012C08C2F10C0A8EEB3E09B01AC0168
:105910000E949A3EC7EF95CF00E010E08EE7E816B0
:10592000F10409F0FECEF4CECDB7DEB7E1E10C9480
:10593000C23EA0E0B0E0EFE9FCE20C94AD3EEC0129
:105940000E94D02180910001813009F471C015B806
:1059500097E097B918B88091CA0184B980E4809320
:105960007B0084E480BF8091D001806480937C00C0
:1059700090937A000E94323C109280001092810035
:10598000109285001092840087E286BB8091CA0144
:1059900085B9809100018F3129F48091CD018095E6
:1059A000877002C08091CE0191E09093810087B909
:1059B000E12CF12C86B385FD0CC080FFFBCF96BB9C
:1059C000A8952FEFE21AF20A20E8E2162CE0F20680
:1059D00089F71092810090E296BBC0908600D0902B
:1059E000870014B82091840030918500C216D30638
:1059F00038F480FF05C081E086BB8FEFE81AF80A13
:105A000087E980937A0080917B008F7B80937B0075
:105A10008091D0010E945C205C0115B88091CA0180
:105A200084B920E8E2162CE0F20620F081E0C6C03E
:105A300080E0C4C0C601A0E0B0E06701E12CF12C19
:105A40007601DD24CC24C82AD92AEA2AFB2A83E05D
:105A5000C816D104E104F104C8F082E0C81AD108E4
:105A6000E108F10828E3C21629E8D20621E4E2069B
:105A7000F10460F0C701B60128EE33E040E050E0E9
:105A80000E943D3E69017A0117EF01C014EF209199
:105A9000DB0180919D0190919E0161E0820F911D3B
:105AA00027FD9A950E949A22DC01A70196010E9487
:105AB0009A3E20E436E040E050E00E943D3E143F34
:105AC00089F48091D90190E0A0E0B0E0281739076F
:105AD0004A075B0750F069017A01C81AD90AEA0A35
