:100000000C94C0110C94D2110C94D2110C94D211F6
:100010000C94D2110C94D2110C94D2110C94351C66
:100020000C94D2110C94D2110C94D2110C94D211C4
:100030000C94D2110C94D2110C94D2110C94D211B4
:100040000C94D2110C94D2110C94D2110C94D211A4
:100050000C94D2110C94D2110C94D2110C94D21194
:100060000C94D2110C94D211AE1B9A1B9D1BA11B98
:10007000A31BA71BB41BB41BB41BB41BB41BB41B26
:10008000B41BB41BB41BB41BB41BB41BB41BAA1B02
:10009000AE1B9A1B9D1BA11BA31BA71BBE1BBE1B3C
:1000A000BE1BBE1BBE1BBE1BBE1BBE1BBE1BBE1B88
:1000B000BE1BBE1BBE1BAA1B722E762E7D2E832E50
:1000C000802E802E862E110A0611060A050A0609C0
:1000D000060A050A0609060A090A06050A06050AA5
:1000E0000605060A052A26052A26092A26090A06D9
:1000F000000000000000000000110A0600000010CF
:100100000000C0110000201200002010000020108C
:1001100000002010000020120000C011000000109C
:10012000000000087800000488000602880006012C
:1001300078008600880046008800260078001600B7
:1001400000000E0000000600FCFF07000000060093
:1001500000000E000000160000002602000046030A
:10016000000086030000C6030000E6030000000450
:10017000000000080000E013000020100000201024
:100180000000E01100002010000020100000E0132B
:100190000000001000000000000000100000E0134C
:1001A00000002010000020100000E01100002010CE
:1001B000000020100000E013000000100000000804
:1001C000780040048800C6028800C6017800C60393
:1001D0008800C607880026007800160000000E0080
:1001E00000000600FCFF07000000060000000E00F3
:1001F00000001600000026000000460000008600F7
:1002000000000601000006020000000400000008D3
:100210000000C0110000201200002010000020107B
:1002200000002010000020120000C011000000108B
:1002300000000000000000100000E010000020118D
:1002400000002012000020120000201200002011E7
:100250000036E010003600100036001000F6FF1FD8
:1002600000360004003600040036000400060004D6
:1002700000060004003604040036863F00360704FA
:1002800000F63F0E0036271F0036A63F38362404FE
:100290004406200404062004643620044436200466
:1002A0004436200438F6FF1F0036001000360010D8
:1002B000FE37C01100002012000020100000C01105
:1002C00000000012000020120000C0110000000019
:1002D000000000100000C0110000201200002010DB
:1002E0000000C0110000001200002012FE37C011F3
:1002F000003600100036001038F6FF1F4436200488
:1003000004362004643620044406200444062004F5
:10031000383621040036A33F0036270400F63F0E8E
:100320000036071F0036833F003601040006000434
:100330000006000400360004003600040036000405
:1003400000F6FF1F00360010003600100036E010E7
:1003500000002011000020120000201200002012D6
:10036000000020110000E01000000000000000105C
:100370000000E010000020110000201200002012F8
:1003800000002012000020110036E010003600109E
:100390000036001000F6FF1F00360004003600048F
:1003A0000036000400360004003600040036040461
:1003B0000036863F0036070400F63F0E0036271F42
:1003C0000036A63F38362404443620040436200480
:1003D00064362004443620044436200438F6FF1FD7
:1003E0000036001000360010FE37C0110000201249
:1003F000000020100000C0110000001200002012B8
:100400000000C01100000000000000100000C0113A
:1004100000002012000020100000C0110000001297
:1004200000002012FE37C011003600100036001008
:1004300038F6FF1F443620040436200464362004B6
:100440004436200444362004383621040036A33FC5
:100450000036270400F63F0E0036071F0036833FA4
:1004600000360104003600040036000400360004A3
:10047000003600040036000400F6FF1F00360010AE
:10048000003600100036E01000002011000020129D
:100490000000201200002012000020110000E010D7
:1004A00000000000000000103800C01144002012BD
:1004B000040020106400C011440000124400201207
:1004C00038C2C01100C6001000CE0010FEFFFF1F92
:1004D00000CE000000C6000000C2000000C0000006
:1004E00000C0000000C0000000C0000000C000000C
:1004F00000C0000000C0000000C0000000C00000FC
:1005000000C0000000C0000000C0000000C00000EB
:1005100000C0FF1F00C0001000C0001000C0E010AD
:100520000000201100002012000020120000201204
:10053000000020110000E01000000010000000008A
:10054000000000100000E010000020110000201248
:1005500000002012000020120000201100C0E01056
:1005600000C0001000C0001000C0FF1F00C000004D
:1005700000C0000000C0000000C0000000C000007B
:1005800000C0000000C0000038C0000044C00000EF
:1005900004C0000064C0000044C0000044C000006B
:1005A00038C8000000CC000000CE0000FEFFFF1F96
:1005B00000CE001000CC001000C8C01100002012B6
:1005C000000020100000C0110000001200002012E6
:1005D0000000C011000000100000000000000E101C
:1005E00000001110000001100000011000000110B7
:1005F0000000111100000E0B000000070000000FAA
:1006000000800D1F00808D0000807D0000800D00A7
:1006100000800D00008001000080010000800D00BE
:1006200000800D0038803D0044804D0004808D0026
:10063000648001004480010044800D0038800D007A
:1006400000807D0400808D06FEFF0D0700008007FE
:100650000000C00700001F0800000110000001108A
:1006600000000F10000001100000011000001F101A
:10067000000000100000000038001F1044000110AE
:100680000400011064000F10440001104400011127
:1006900038001F0B000000070000000FFEFF0D1FB9
:1006A00000808D0000807D0000800D0000800D0026
:1006B000008001000080010000800D0000800D001E
:1006C00000803D0000804D0000808D000080010012
:1006D0000080010000800D0000800D0000807D047E
:1006E00000808D0600800D07000080070000C00715
:1006F00000000E08000011100000011000000110A1
:10070000000001100000111000000E100000001089
:10071000000000000000100000001007000090081A
:10072000000090080000900F000090080000900862
:1007300000009008000010000000100000001000F1
:10074000000010000000100000FCFF7F00F8FF3FD9
:1007500000F0FF1F00E0FF0F00C0FF070080FF0355
:100760000000FF010000FE0000007C00380038009F
:100770004400100004FCFF7F64FCFF7F440018006D
:10078000440014003800120000001100008010071F
:10079000FE7F900800009000000090000000900094
:1007A000000090080000100700001000000000008A
:1007B00000001000008E1100005112000011120004
:1007C000001F1100009110000051100000D1130013
:1007D00000001000000010000000100000001000D9
:1007E00000FFFF3F00FC1F0200FC1F0700F80F077F
:1007F00000F88F0F00F0870F00F0C71F00E0C31F45
:1008000000E0E33F00C0E13F38C0F17F4480F07F6B
:1008100004FCFFFF648010004440100044201000DE
:10082000381010000008100000041047FE03906804
:10083000000090480000904F000090480000904851
:10084000000090E800001000000000000000100010
:100850000000100700009008000090080000900FB2
:10086000FE1F90080020900800409008388010007B
:100870004400110004001200640014004400180039
:1008800044FCFF7F38F8FF3F00F0FF1F00E0FF0F40
:1008900000C0FF070080FF030000FF010000FE0012
:1008A00000007C00000038000000100000FCFF7F0A
:1008B00000FCFF7F0000100000001000000010008E
:1008C00000001000000010070000900800009000D9
:1008D0000000900000009000000090080000100749
:1008E00000001000000000000000001000008F1148
:1008F000000051120000111200000F1100009110B1
:100900001E0051102000CF134000001080C80010BE
:1009100000CD00103ECEFF1F02CF000082CF0000AE
:100920001ED0000002E0000002C000003EC0000037
:1009300000C0000000C0000000C0000000C00000B7
:1009400000C0000000C0000000C0000000C00000A7
:1009500000C0FF1F00C0001000C000100000001009
:1009600000001E110000A2110000221100001E1143
:10097000000022110000221100009E130000001050
:100980000000000000000000000000000000000067
:1009900000FE010080FF0700C0FF0F00E0FF1F0006
:1009A000F0013E00F0FC3C0078027800780178010C
:1009B00078017801780178010000780100003C019D
:1009C0000000BE0000009F0000804F0000C0270014
:1009D00000E0130000F0090000F80400007C0200B1
:1009E000007C0100007C0100007C0100000001008F
:1009F00000F80100000000000000000000380000C6
:100A0000007C0000007C0100007C01000038010037
:100A100000800000007800000000000000000000DE
:100A200000001000000090080000900400009002F8
:100A30000000900100009002000090040000900867
:100A4000000010000004100000041000000410005A
:100A500000FCFF7F00FCFF7F0000104000003840DA
:100A600000007C400000FE000000FF010080FF034A
:100A700000C0FF0700E0FF0F00F0FF1F00F8FF3F7E
:100A800000FCFF7F000010000000100000001000BC
:100A900000001000000010070000900800009008FF
:100AA0000000900F000090080000900800009008DF
:100AB0000000100000000000000000000000000026
:100AC0000000000000000100000001000000010023
:100AD0000000010000000100000001000000010012
:100AE00000000100000001000000010080FFFF0184
:100AF00080FFFF010000000000000000F0FFFF0F7A
:100B0000F0FFFF0FF0FFFF0FF0FFFF0FF0FFFF0FF1
:100B1000F0FFFF0FF0FFFF0F0000000000000000DB
:100B200080FFFF0180FFFF010000010000000100C5
:100B300000000100000001000000010000000100B1
:100B400000000100000001000000010000000100A1
:100B50000000000000000000000080100000801075
:100B60000000E01300008010000080100000001062
:100B700000C07F1000404010007CC01F00444010A7
:100B800038C47F10480400108804001088E47F10E7
:100B900088E47F1048E4FF1F38E47F0000E47F0012
:100BA00000E47F00FCFF7F0000E07F0000E07F00AA
:100BB00000E07F0000E0FF1F00E07F1000E07F10FA
:100BC00000000010000000100000001000000010E5
:100BD00000000010000000100000001000000010D5
:100BE00000000010000000100000E01300000010E2
:100BF00000000000FF01020304050607FFFFFFFFDE
:100C0000FFFFFFFFFFFFFFFFFFFFFFFFFFFFFFFFF4
:100C1000FFFFFFFF101112131415161718191A1BD6
:100C20001C1D1E1F202122232425262728292A2B8C
:100C30002C2D2E2F303132333435363738393A3B7C
:100C40003C3D3E3F404142434445464748494A4B6C
:100C50004C4D4E4F505152535455565758595A5B5C
:100C60005C5D5E5F606162636465666768696A6B4C
:100C70006C6D6EFFFFFFFFFFFFFFFFFFFFFFFFFF3A
:100C8000FFFFFFFFFFFFFFFFFFFFFFFFFFFFFFFF74
:100C9000FFFFFFFFFFFFFFFFFFFFFFFFFFFFFFFF64
:100CA000FFFFFFFF0FFFFFFFFF05FFFFFFFFFFFF3E
:100CB000FFFFFFFFFFFFFFFF08FFFFFFFFFFFFFF3B
:100CC000FFFFFFFFFFFFFFFFFFFF09FFFFFFFFFF2A
:100CD0000AFFFF0BFFFFFFFF0CFFFFFFFFFFFFFF00
:100CE000FFFFFFFFFFFFFFFFFFFF0DFFFFFFFFFF06
:100CF0000EFFFFFF000000000000000000000000E9
:100D000000000000000000000000000000000000E3
:100D100000000000000000000000000000000000D3
:100D2000000000000000000000000000000004704F
:100D30000C701C703C707C70FC70FC71FC73FC7758
:100D4000FFFFFFFFFC77FC73FC71FC707C703C7054
:100D50001C700C7004700000000000000000000017
:100D600000000E200E300E380E3C0E3E0E3F8E3F21
:100D7000CE3FEE3FFFFFFFFFEE3FCE3F8E3F0E3FE9
:100D80000E3E0E3C0E380E300E200000000000001B
:100D90000000000000003C3C3C3C3C3C3C3C3C3CFB
:100DA0003C3C3C3C3C3C3C3C3FFC3FFC3C3C3C3CFD
:100DB0003C3C3C3C3C3C3C3C3C3C3C3C3C3C0000EB
:100DC00000000000000000000000C007E00F301825
:100DD00018300C600C6006C006C006C006C00C606F
:100DE0000C6018303018600C628C7EFC7EFC0000B9
:100DF00000000000000000000000000000000000F3
:100E00000000000000001C381C381C381C381C383E
:100E10001C381C381C381C381C383C3C7C3EFC3BC5
:100E2000DC7B1C001C001C001C001C0000000000DF
:100E3000000000000000FEFFFEFF060006000600A6
:100E40000600060007000700060006000600060070
:100E50000600FEFFFEFF0000000000000000000092
:100E600000000000000000000000FF7FFF7F006026
:100E7000006000600060006000E000E00060006072
:100E8000006000600060FF7FFF7F00000000000046
:100E900000000000300C300C000000000000C00119
:100EA000C003E003600760077006300E380E381C80
:100EB000181CFC3FFC3F0E380E700E7007E000005F
:100EC0000000000000000000300C300C00000000AA
:100ED0000000E007F00F381C1C381C380E700E7034
:100EE0000E700E700E700E701C381C38381CF00F0F
:100EF000E00700000000000000000000601860181B
:100F00000000000000001C701C701C701C701C7025
:100F10001C701C701C701C701C701C701C703C7849
:100F20003838F01FE00F0000000000000000000053
:100F30000000F003F8073C0E1C0E1C0E1C061C07DC
:100F40009C039C039C039C071C0F1C1E1C3C1C78D0
:100F50001C701C709C709C3F1C1F00000000000057
:100F600000000000000000000000600C600C0000A9
:100F70000000E007F80F181E001C001CE01FF01F07
:100F8000381C1C1C1C1C1C1C3C1EF87BF078000030
:100F9000000000000000000000000000000030061B
:100FA000300600000000E003F80F3C1E1C1C0E3849
:100FB0000E380E380E380E380E381C1C3C1EF80F3A
:100FC000E00300000000000000000000000000003E
:100FD000000030063006000000001C381C381C38A9
:100FE0001C381C381C381C381C381C381C381C3C5D
:100FF0003C3EF83BF038000000000000000000001C
:10100000000000008003C007600C600C600CC0078B
:10101000800300000000000000000000000000004D
:1010200000000000000000000000000000000000C0
:1010300000000000000000000000000000000000B0
:1010400000000000000000000000000000000000A0
:101050000000000000000000000000000000000090
:10106000000000000000000000000000800380037A
:101070008003800380038003800380038003800358
:10108000800380038003800300000000800380034E
:101090008003000000000000000000000000380E87
:1010A000380E380E380E380E100410040000000000
:1010B0000000000000000000000000000000000030
:1010C0000000000000000000000000000000000020
:1010D0000000000080318031C018C018C018C0184E
:1010E000FC7FFC7F600C60063006FE3FFE3F18036D
:1010F0001803180318038C018C0100000000000085
:101100000000000000030003C01FF03F70233803FD
:10111000380338037803F003E0038007001F001F43
:10112000003B003B003B003B181BF81FE00F000397
:101130000003000000000000000000003CC06660EA
:10114000C330C318C318C30CC30666033C03800135
:10115000C03CC06660C330C318C318C30CC3066666
:10116000033C000000000000000000000000000040
:10117000E003F007380E380E380E38067007F0011D
:10118000F800FCE0CEE1C7E387630767077E0F3E08
:101190001E3CFC7FF0F30000000000000000000097
:1011A0000000C001C001C001C001C001800080007A
:1011B000000000000000000000000000000000002F
:1011C000000000000000000000000000000000001F
:1011D0000000000000000018001E000F8003C00186
:1011E000E000E000E000700070007000700070002F
:1011F000700070007000E000E000E000C0018003BB
:10120000000F001E0018000000000C003C007800D9
:10121000E000C0018003800380030007000700078F
:101220000007000700070007000780038003800312
:10123000C001E00078003C000C000000000000004D
:10124000800380038003981B7C3E300C4002E00743
:10125000700E381C20040000000000000000000098
:10126000000000000000000000000000000000007E
:1012700000000000000000000000000000008001ED
:1012800080018001800180018001FE7FFE7F80015E
:1012900080018001800180018001000000000000C9
:1012A000000000000000000000000000000000003E
:1012B000000000000000000000000000000000002E
:1012C000000000000000C003C003C003C00300030F
:1012D00080038001C000000000000000000000004A
:1012E00000000000000000000000000000000000FE
:1012F000F81FF81F000000000000000000000000C0
:1013000000000000000000000000000000000000DD
:1013100000000000000000000000000000000000CD
:101320000000000000000000000000000000C003FA
:10133000C003C003C0030000000000000000000064
:10134000000000600030003000180018000C000C95
:10135000000600060003000380018001C000C000F9
:101360006000600030003000180018000C000C0015
:101370000600000000000000E003F007380E1C1C0F
:101380001C1C0E380E380E380E380E380E380E383B
:101390000E380E381C1C1C1C380EF007E003000031
:1013A0000000000000000000000000000003E00357
:1013B000FC038C038003800380038003800380038D
:1013C0008003800380038003800380038003FC7F0D
:1013D000FC7F000000000000000000000000000092
:1013E000F003FC070C0E001C001C001C001C000E6F
:1013F000000E00078003C001E000700030003800DC
:101400001C00FC1FFC1F000000000000000000008A
:1014100000000000F003F80F081E001C001C001C58
:10142000000C0006E003E007000F001E001C001C7B
:10143000001C001E080FF807F80300000000000061
:101440000000000000000000000E000F800F800F61
:10145000C00EE00E600E300E180E180E0C0E060EAA
:10146000FE7FFE7F000E000E000E000E000E00003C
:10147000000000000000000000000000F03FF03F0E
:10148000F03F30003000300030003000F003F00F4B
:10149000001E003C003800380038003C101EF00FE1
:1014A000F003000000000000000000000000000049
:1014B000801FE03FF0207000380038001C009C0FB7
:1014C000DC1F7C3C3C781C701C701C7038703838F9
:1014D0007038F01FC007000000000000000000008E
:1014E00000000000F83FF83FF83F00180018000C1B
:1014F000000C00060002000380018001C000C00053
:10150000600060007000300030000000000000004B
:101510000000000000000000C007F00F781E381C1B
:10152000381C381C780CF00FE003F00F381F181E21
:101530001C3C1C381C381C38381CF00FE00700001D
:10154000000000000000000000000000C007F01FC5
:10155000381C38381C381C701C701C703C78787C27
:10156000F077E073007000380038001C081EF80F98
:10157000F003000000000000000000000000000078
:1015800000000000000000000000C003C003C00312
:10159000C003000000000000000000000000C003C5
:1015A000C003C003C00300000000000000000000F2
:1015B0000000000000000000000000000000C00368
:1015C000C003C003C00300000000000000000000D2
:1015D0000000C003C003C003C003000380038001F8
:1015E000C00000000000000000000000000000003B
:1015F000000000400070003C000FC003F0003C0001
:101600003C00F000C003000F003C007000400000F0
:1016100000000000000000000000000000000000CA
:10162000000000000000000000000000FE7FFE7FC0
:10163000000000000000FE7FFE7F000000000000B0
:10164000000000000000000000000000000000009A
:101650000000000000000000000002000E003C003E
:10166000F000C003000F003C003C000FC003F0007E
:101670003C000E000200000000000000000000001E
:1016800000000000F807FC1F0C3C0C380038003844
:10169000001C001E000F80078003C001C001C001B4
:1016A00000000000C001C001C001000000000000F7
:1016B0000000000000000000C00FE01F703818306C
:1016C0001C3E0C318E31C630C630C638C638C63CDA
:1016D000C6348EF78CF31C003808F00FC0070000EA
:1016E00000000000000000000000000000000000FA
:1016F0000000C001C003E003600760077006300E01
:10170000380E381C181CFC3FFC3F0E380E700E7053
:1017100007E00000000000000000000000000000E2
:10172000000000000000FC07FC0F1C1E1C1C1C1C01
:101730001C0EFC07FC071C1E1C3C1C381C381C38EB
:101740001C3CFC1FFC070000000000000000000023
:1017500000000000000000000000C01FF03F7830D3
:101760003C001C000E000E000E000E000E000E00CD
:101770001C003C007820F03FC01F0000000000006B
:101780000000000000000000000000000000FC0756
:10179000FC0F1C3C1C381C781C701C701C701C70CE
:1017A0001C701C701C381C381C1EFC0FFC03000035
:1017B0000000000000000000000000000000000029
:1017C0000000F83FF83F3800380038003800380093
:1017D000F81FF81F38003800380038003800F87F4C
:1017E000F87F000000000000000000000000000082
:1017F000000000000000F87FF87F38003800380053
:1018000038003800F83FF83F38003800380038001A
:101810003800380038000000000000000000000020
:1018200000000000000000000000C01FF03F783002
:101830003C001C000E000E000E000E3F0E3F0E3846
:101840001C383C387838F03FC01F00000000000012
:1018500000000000000000000000000000001C3834
:101860001C381C381C381C381C381C38FC3FFC3F0A
:101870001C381C381C381C381C381C381C3800001C
:101880000000000000000000000000000000000058
:101890000000FC1FFC1FC001C001C001C001C0014D
:1018A000C001C001C001C001C001C001C001FC1FD6
:1018B000FC1F00000000000000000000000000000D
:1018C000000000000000F80FF80F000E000E000EE0
:1018D000000E000E000E000E000E000E000E000E98
:1018E0000407FC03FC0100000000000000000000F1
:1018F000000000000000000000001C781C3C1C1EC2
:101900001C0F1C079C03DC01FC00DC01DC039C07B2
:101910001C0F1C1E1C3C1C781CF800000000000062
:10192000000000000000000000000000000038007F
:1019300038003800380038003800380038003800E7
:1019400038003800380038003800F83FF83F000011
:101950000000000000000000000000000000000087
:1019600000000E381E3C1E3C1E3C363636363636DF
:10197000663266336633C631C631C631063006304C
:101980000630000000000000000000000000000021
:101990000000000000001C301C303C307C307C30EB
:1019A000FC30EC31CC31CC338C370C3F0C3E0C3E50
:1019B0000C3C0C380C380000000000000000000057
:1019C00000000000000000000000E007F00F381CDD
:1019D0001C381C380E700E700E700E700E700E706B
:1019E0001C381C38381CF00FE00700000000000015
:1019F0000000000000000000000000000000F81FD0
:101A0000F83F38783870387038703878383CF81FBC
:101A1000F807380038003800380038003800000077
:101A200000000000000000000000000000000000B6
:101A30000000E007F00F381C1C381C380E700E70C8
:101A40000E700E700E700E701C381C38381CF00FA3
:101A5000E007001E007800F00040000000000000D9
:101A6000000000000000FC07FC0F1C1E1C1C1C1CBE
:101A70001C1C1C0EFC07FC039C071C071C0F1C1ED7
:101A80001C3C1C381C780000000000000000000016
:101A900000000000000000000000E00FF81F3C18EC
:101AA0001C001C003C00F800F007C01F003E00387E
:101AB000003800380C1CFC1FF0070000000000007C
:101AC0000000000000000000000000000000FF7F98
:101AD000FF7FC001C001C001C001C001C001C00141
:101AE000C001C001C001C001C001C001C0010000AF
:101AF00000000000000000000000000000000000E6
:101B000000001C701C701C701C701C701C701C7001
:101B10001C701C701C701C701C703C783838F01FD6
:101B2000E00F0000000000000000000000000000C6
:101B300000000000000007E00E700E701C701C38E2
:101B40003C383838381C701C700CE00EE00EE00792
:101B5000C007C00780030000000000000000000074
:101B60000000000000000000000003C003C007C028
:101B70008661C663C663C663C6634E766C366C36D2
:101B80006C362C3E3C3C3C1C3C1C00000000000021
:101B900000000000000000000000000000001EE047
:101BA0003C707838781CF00EE007C003C003C00713
:101BB000E007600F301E183C1C380E7807F000005C
:101BC0000000000000000000000000000000000015
:101BD000000007E00E701C301C18381C780E7007CF
:101BE000E003E003C001C001C001C001C001C001A9
:101BF000C001000000000000000000000000000024
:101C0000000000000000FC3FFC3F0038001C000EFC
:101C1000000780038001C000E000700038001C0055
:101C20000E00FE3FFE3F000000000000000000002C
:101C30000000C03FC03FC001C001C001C001C001E1
:101C4000C001C001C001C001C001C001C001C0018C
:101C5000C001C001C001C001C001C001C001C03F3E
:101C6000C03F0000000006000C000C001800180027
:101C70003000300060006000C000C00080018001C2
:101C80000003000300060006000C000C00180018FA
:101C900000300030006000000000FC03FC03800303
:101CA000800380038003800380038003800380031C
:101CB000800380038003800380038003800380030C
:101CC000800380038003FC03FC030000000000008D
:101CD0000001000180038003C003C006E006600C21
:101CE000300C3018181818180C300C300660000032
:101CF00000000000000000000000000000000000E4
:101D000000000000000000000000000000000000D3
:101D100000000000000000000000000000000000C3
:101D200000000000000000000000FFFFFFFF0000B7
:101D300000000000C0018003000700000000000058
:101D40000000000000000000000000000000000093
:101D50000000000000000000000000000000000083
:101D60000000000000000000000000000000000073
:101D7000000000000000E007F80F181E001C001C07
:101D8000E01FF01F381C1C1C1C1C1C1C3C1EF87B7C
:101D9000F0780000000000000000000000001C00BF
:101DA0001C001C001C001C001C009C07DC1F7C1C71
:101DB0003C381C381C381C381C381C381C381C1C7F
:101DC0003C1EFC0FCC0700000000000000000000DB
:101DD0000000000000000000000000000000C01F24
:101DE000F03F782038001C001C001C001C001C0068
:101DF0003C003800F820F03FC01F00000000000049
:101E000000000000000000700070007000700070A2
:101E10000070C073F07F787C38701C701C701C7070
:101E20001C701C701C703C78387CF077E0730000EC
:101E300000000000000000000000000000000000A2
:101E4000000000000000C007F00F781C38381C3874
:101E50001C38FC3FFC3F1C001C0038007820F03F81
:101E6000C01F00000000000000000000000000FF94
:101E700080FFC003C001C001C001FC7FFC7FC00126
:101E8000C001C001C001C001C001C001C001C0014A
:101E9000C001C001C00100000000000000000000FF
:101EA0000000000000000000000000000000C073FF
:101EB000F07F787C38701C701C701C701C701C705B
:101EC0001C703C78387CF077E07300700038183C68
:101ED000F81F000700001C001C001C001C001C0058
:101EE0001C001C0FDC1F7C3C3C381C381C381C3888
:101EF0001C381C381C381C381C381C381C38000096
:101F00000000000000000000000080038003800348
:101F1000000000000000FC03FC038003800380033A
:101F20008003800380038003800380038003800399
:101F30008003000000000000000000000000000E10
:101F4000000E000E000000000000F80FF80F000E59
:101F5000000E000E000E000E000E000E000E000E11
:101F6000000E000E000E000E000E0407FC07F80124
:101F70000000380038003800380038003800383C9D
:101F8000381E380E380FB807B803F803B803B8077F
:101F9000380F380E381E383C38780000000000003A
:101FA000000000000000F807F8070007000700071E
:101FB00000070007000700070007000700070007E9
:101FC00000070007000700070007000700070000E0
:101FD0000000000000000000000000000000000001
:101FE000000000000000CE31EE79FE7F9E779E73E8
:101FF0008E738E738E738E738E738E738E738E73D9
:102000008E730000000000000000000000000000CF
:10201000000000000000000000001C0FDC1F7C3CE2
:102020003C381C381C381C381C381C381C381C38F0
:102030001C381C381C3800000000000000000000A4
:102040000000000000000000000000000000E003AD
:10205000F80F3C1E1C1C0E380E380E380E380E3889
:102060000E381C1C3C1EF80FE003000000000000AE
:102070000000000000000000000000000000000060
:1020800000009C07DC1F7C1C3C381C381C381C38AA
:102090001C381C381C381C1C3C1EFC0F9C071C00E8
:1020A0001C001C001C001C000000000000000000C0
:1020B000000000000000E039F83F3C3E1C380E38BC
:1020C0000E380E380E380E380E381E3C1C3EF83BCB
:1020D000F0380038003800380038003800000000C0
:1020E00000000000000000000000703E703FF03172
:1020F000F0307000700070007000700070007000B0
:10210000700070007000000000000000000000007F
:102110000000000000000000000000000000E00FD0
:10212000F01F781038003800F801F007801F003CDD
:1021300000380038183CF81FF007000000000000CD
:102140000000000000000000000000000000E000AF
:10215000E000FC3FFC3FE000E000E000E000E000C9
:10216000E000E000E000E000E001C03F803F000050
:10217000000000000000000000000000000000005F
:102180000000000000001C381C381C381C381C38AB
:102190001C381C381C381C381C381C3C3C3EF83B96
:1021A000F038000000000000000000000000000007
:1021B000000000000000000000001E701C381C38E9
:1021C0003C383818381C701C700CE00EE00EE0062D
:1021D000C007C007800300000000000000000000EE
:1021E000000000000000000000000000000003C02C
:1021F00087C38743C663C66346626E666E266C36C7
:102200002C363C3C3C3C3C1C181C000000000000F0
:1022100000000000000000000000000000000000BE
:1022200000001E303C18780C700EF006E003C0036E
:10223000C003E007700F300E381E1C3C0E78000003
:10224000000000000000000000000000000000008E
:102250000000000000001E701C301C383818381CAC
:10226000781C700EF00EE007E007C003C003C00149
:102270008001C001C000E0007C003C0000000000C4
:1022800000000000000000000000FC3FFC3F0038A0
:10229000001C000E00078003C001E0007000380041
:1022A0001C00FC3FFC3F000000000000000000009C
:1022B0000000001F801FC003C001C001C0018003D7
:1022C000800380038003C001F800F800C001800390
:1022D000800380038003C001C001C001C003801FD0
:1022E000001F00000000800180018001800180014A
:1022F00080018001800180018001800180018001D6
:1023000080018001800180018001800180018001C5
:10231000800180018001000000007C00FC00E001E1
:10232000C001C001C001E000E000E000E000C00129
:10233000800F800FC001E000E000E000E000C0017D
:10234000C001C001E001FC007C00000000000000B2
:10235000000000000000000000000000000000007D
:10236000000000007860FC63C63F061E000000000D
:10237000000000000000000000000000000000005D
:1023800011241FBECFEFD8E0DEBFCDBF21E0A0E01B
:10239000B1E001C01D92A93EB207E1F70E941E3CC8
:1023A0000C943C3F0C9400009091A201981303C040
:1023B0008091A50108959091A301891303C0809194
:1023C000A60108958091A701089580E00E94F82356
:1023D00081E00E94F82382E00E94F8238DE30E94AE
:1023E000093B80E00E94FC2381E00E94FC2382E004
:1023F0000E94FC230895A3E0B0E0E1E0F2E10C9438
:102400008F3E89836A834B83CE0101967C0110E065
:10241000F70101917F01002351F0812F0E94F823E1
:102420000E940924802F0E94093B0E9401241F5F03
:10243000133071F72396E6E00C94AB3E87E492E00C
:102440000E94E92380E492E00E9412248EE08093AF
:10245000090183E00E94E5258091A0018F5F8093B0
:10246000A0010895809101018130C9F48CEE91E0C2
:102470000E94E9230E94C723809106010E94F8234D
:102480000E9409240E9401246091070170910801B3
:1024900080E090E026E54DEF0E94E124089582302F
:1024A00011F40E941E120895CF93C62F0E94093B7B
:1024B00082EC90E00E94E9238C2F0E94093B0E944D
:1024C0000124EBE0F1E0638174818581968124E051
:1024D00042810E94E124CF910895A0E0B0E0E3E7BB
:1024E000F2E10C948D3E80910401813039F4F0903A
:1024F0000B0100E010E0CBE0D1E05BC0833009F0DD
:102500004CC000910E0110910F01209110013091EB
:102510001101609115017091160180911701909140
:102520001801E0900D01409114010E944E18813075
:1025300029F422E1C22E21E0D22E04C09BE0C92E54
:1025400091E0D92EF60103811481258136816091B5
:102550001C0170911D0180911E0190911F01E2806C
:1025600040911B010E944E18813021F489E1C82E50
:1025700081E0D82EFBE0CF16F1E0DF0619F4C2E1CE
:10258000D1E002C0CBE0D1E08E01095F1F4FC01641
:10259000D10639F4095F1F4F04C002E111E0CBE01E
:1025A000D1E08881F801F0808F1519F0F1808F114A
:1025B000F9800E9464248881F81201C089810E94F8
:1025C000F82382EC90E00E94E9238F2D0E94F823EB
:1025D0000115110561F082EC90E00E94E923F801F9
:1025E0008081F81202C0F80181810E94F8230E94C4
:1025F00052240E94C7236B817C818D819E8124E0BF
:102600004A810E94E1240115110551F00E94012424
:10261000F801638174818581968124E0428112C032
:10262000CE010E942E37813079F40E9401246091FE
:10263000DB017091DC018091DD019091DE0128E4E5
:102640004091DA010E94E124CDB7DEB7E8E00C94B6
:10265000A93EEF920F931F93CF93DF930091480110
:102660001091490120914A0130914B01609156012E
:10267000709157018091580190915901E090470164
:10268000409155010E944E18813019F4C3E5D1E004
:1026900002C0C5E4D1E00B811C812D813E81609197
:1026A0006401709165018091660190916701EA80F3
:1026B000409163010E944E18813011F4C1E6D1E0CF
:1026C0000E94642488810E94F8238FEC90E00E948D
:1026D000E92389810E94F8230E9452240E94C72383
:1026E0006B817C818D819E8126E44A810E94E12458
:1026F000CE010E94D9298C010F3F8FEF180749F0B6
:102700000E940124B80180E090E024E04EEF0E9496
:10271000E1248B859C85892B61F086EE90E00E94F8
:102720001D246B857C8580E090E021E44D850E942E
:10273000E124DF91CF911F910F91EF900895EF92D7
:102740000F931F93CF93DF93EC016091B3017091CE
:10275000B4018091B5019091B60127EFE22E02E31A
:1027600010E020E030E04091B7010E944E1887FD54
:1027700010C0CE010E941D246091B3017091B4017C
:102780008091B5019091B60121E44091B7010E947A
:10279000E124DF91CF911F910F91EF90089540E0D8
:1027A000FC01608181810E94C12DE5E4F1E063813B
:1027B00074818581968126E442810E94E1240895F6
:1027C000CF93C62F0E94FC2381E00E94093B8C2FEF
:1027D0000E94FC23CF910895A0E0B0E0E2EFF3E186
:1027E0000C948C3E0E94642480910501813051F448
:1027F000E0907001E5E0DE2EF5E0FF2E85E000E0E0
:1028000010E01FC18230F1F4F0906F01D09075019B
:10281000C0907001E0907601FD1006C0DE2C75E0DE
:10282000E72EBB24B3945AC0CE1409F407C1FE109E
:10283000FFC0DC10FDC0EF2C35E0D32E45E0C42EE8
:10284000B12C4CC0833009F03FC080E066E0282FF7
:1028500030E090E0629FF001639FF00D1124E05999
:10286000FE4F492F50E0981769F0649FD001659F93
:10287000B00D1124A159BE4FC0817C91C71302C075
:1028800095E085E09F5F933060F38F5F8330F8F2CF
:10289000853048F086E0849F8001859F100D1124CB
:1028A00001591E4F02C000E010E086E0829FE00167
:1028B000839FD00D1124C159DE4FE98055E0D52EFC
:1028C00065E0F62E83E0BFC08BEC90E00E940D2403
:1028D00080910501805D0E94093BBCC082E08F159C
:1028E00090F0809170010E94F82387EC90E00E94A4
:1028F000E9238F2D0E94F823CFE6D1E005E711E010
:10290000EF1017C01BC005E711E0CFE6D1E08881CA
:102910000E94F8238BEC90E00E94E9238E2D0E9408
:10292000F8230115110599F0FE1441F0F3E0FF15AD
:1029300028F0F801E1808BEC90E004C0F801E08021
:1029400087EC90E00E94E9238E2D0E94F8230E94DC
:102950005224F4E0FC15F8F049E16D2D8C2D0E9415
:1029600097298130C1F40E94012482E08F1518F06C
:102970008FE491E002C083E591E00E94E9238FE3B8
:102980000E94093B0E94C72361E36D0D81E38C0D1A
:102990000E945412B12C8AE391E00E941D246A81A6
:1029A0007B8180E090E026E54DEF0E94E1240E94CB
:1029B00001240115110529F58C819D818A3F91051E
:1029C00060F488E20E94093B6C817D8180E090E0A8
:1029D0000E94762589E20E94093B688189810E94D4
:1029E0000B2181E00E94982E80E391E00E949F13CA
:1029F000E1E0BE122FC088E391E00E941D24CE01C9
:102A000027C0F8016281738180E090E026E54DEFF8
:102A10000E94E124F1E0BF121DC088E391E00E9412
:102A20001D24CE010E94CF130E940124C80110C0B2
:102A300085E0D82E95E0F92E25E0E22E85E005E729
:102A400011E0CFE6D1E0CF2CF82EBB24B3945FCFBA
:102A50000E94CF13CDB7DEB7E9E00C94A83E8F9269
:102A60009F92AF92BF92EF92FF920F931F93CF93DB
:102A7000DF93809101019091A201C091A401D091B6
:102A8000A30180FF09C0192F0D2F7801DC2F93E5DA
:102A9000A92E91E0B92E08C01C2FC92F7E01012F4D
:102AA0008FE4A82E81E0B82E60EE7FEF83ED91E0F9
:102AB0000E944D2460EE7FEFC5010E943A24809170
:102AC000010182FF03C08BE20E94093B0E94C723E1
:102AD0000E94E511602F8D2F0E94FB2E892B31F073
:102AE0000E940124602F8D2F0E94E01349E1612F85
:102AF0008C2F0E949729813049F40E94C72365E4F6
:102B000082E40E94541284E080932A018BE491E0D5
:102B10000E941D246091AF017091B0018091B101BC
:102B20009091B2010E9476250E9401248091A80113
:102B300080FF02C085E603C081FF03C083E60E94D8
:102B4000093B6C2F812F0E94FB2E8C01892BA1F158
:102B500087E491E00E941D24F801C281D381248181
:102B600035818090AF019090B001A090B101B090FC
:102B7000B201F4E68F169104A104B10498F0CE01DD
:102B8000821B930B63E070E00E94073E8AEF881679
:102B90009104A104B10418F4C61BD70B03C0EB01C8
:102BA000C20FD31FCE01A0E0B0E026E54DEFBC017F
:102BB000CD010E94E12402C0C0E0D0E08DE391E0AD
:102BC0000E949F13C53FD140E0F06E2D8F2D0E94D3
:102BD000FB2EEC01892BA9F08A819B81823C9140DC
:102BE00080F40E94C7236E2D8F2D0E94E0130E9457
:102BF00001246A817B8180E090E026E54DEF0E9410
:102C0000E124DF91CF911F910F91FF90EF90BF9042
:102C1000AF909F908F9008950F931F93CF93DF9362
:102C2000909101018091A401C091A30190FF02C085
:102C3000D82F02C0DC2FC82F6C2F8D2F0E94FB2EA7
:102C40008C01892B31F00E9401246C2F8D2F0E9462
:102C5000E0138091010182FF3BC08091AB01909114
:102C6000AC01892B81F084E391E00E941D246091E6
:102C7000AB017091AC01072E000C880B990B26E577
:102C80004DEF0E947B2587E591E00E941D24609115
:102C9000B8017091B9018091BA019091BB0126E40D
:102CA0004091BC010E94E1248091A9019091AA0168
:102CB000892B71F082EE90E00E941D246091A901A1
:102CC0007091AA0180E090E024E04EEF0E94E124A0
:102CD00001151105A1F00E94C72381E00E94093B64
:102CE0000E9401248AE391E00E940D24F801628190
:102CF000738180E090E026E54DEF0E94E124DF91B2
:102D0000CF911F910F9108950E940124809101019C
:102D100080FF02C08EE401C080E50E94093B8AE684
:102D200091E00E94E92308950E940124809101010D
:102D300082FF03C085E691E002C080E691E00E9438
:102D4000E92308950E9464248091010184FF05C055
:102D500082E791E00E94E92303C08AE40E94093BD4
:102D60008EE691E00E94E9230E9484168091010181
:102D700084FD0E9494160E9452240E94C7230E9440
:102D8000E5110E940C168091010183FF1EC08AEE9E
:102D900090E00E949F138091AD019091AE01892B2C
:102DA000A1F088ED90E00E941D240E94C7230E949C
:102DB00001246091AD017091AE01072E000C880BCB
:102DC000990B26E54DEF0E947B2508950E9464240F
:102DD0008BE591E00E94E9230E9484160E949416DC
:102DE0000E9452240E94C7230E94E5110E940C16E3
:102DF00008958091000160EE7FEF823219F48FEC2C
:102E000091E002C089EC91E00E943A240E94C7231D
:102E10000E94E5118091A9019091AA01892B71F07E
:102E200082E491E00E941D246091A9017091AA01A1
:102E300080E090E026E54DEF0E94E1240895CF93D5
:102E4000DF9360EE7FEF85EC91E00E943A240E94D0
:102E5000C7230E94E5118DE291E00E941D24C2E388
:102E6000D1E06D817E8180E090E026E54DEF0E940B
:102E7000E1248AE391E00E941D246B817C8180E043
:102E800090E026E54DEF0E94E124DF91CF91089577
:102E900060EE7FEF84EA91E00E943A240E94C7230B
:102EA0000E94E51183ED90E00E941D24EBE0F1E02B
:102EB000638174818581968124E042810E94E124AE
:102EC0000895CF9388EC8093960184E00E943A2085
:102ED000AC018B5C9840C0919301833F914098F482
:102EE00020919B0130919C01A9E1BAE00E94623ED1
:102EF0009A0140E050E00E941B3E30939C012093D9
:102F00009B01C46001C0CB7FC09393018EE00E94FF
:102F10003A2090939A018093990188EC80939601CE
:102F20008EE00E943A202091D601820F911D27FD4C
:102F30009A9590939A018093990189E180939601E3
:102F4000CF9108950E943E3A8FEF97E0909327012A
:102F50008093260180EC91E00E94E923F8940FB65B
:102F6000F894A89580916000886180936000109229
:102F700060000FBE80E48BB983B7817F846083BF1C
:102F800083B7816083BF889583B78E7F83BF0895A1
:102F900084EB91E00E940D2480919D0190919E010F
:102FA0006AE070E00E94F33D80E090E026E54EEF9D
:102FB0000E94E1240E94012480919D0190919E0134
:102FC000811529E1920748F480E098EF909327015A
:102FD0008093260188EA91E014C0883E9C4148F421
:102FE00080EE9FEF90932701809326018CEA91E079
:102FF00008C080EE97E0909327018093260181EB33
:1030000091E00E94E92380EE97E09093270180935E
:103010002601089585E00E943A209C01AEEBBFE0B6
:103020000E94623E28EE33E040E050E00E941B3EEA
:103030002E5D3E4F30939E0120939D0184E6809348
:103040009F012115394150F40E943E3A0E94C81751
:1030500088EB9BE00E94D21B0E94A2170895CF929A
:10306000DF92EF92FF92CF93C1E02AE0C22ED12CE3
:10307000E12CF12C6A3071058105910540F0A70122
:1030800096010E941B3ECA01B901CF5FF3CF8C2F7E
:10309000CF91FF90EF90DF90CF900895A0E0B0E047
:1030A000E4E5F8E10C94843E4B015C01342E2801E8
:1030B00039011E2D9B01AC01D1E09AE0C92ED12C23
:1030C000E12CF12C2A3031054105510540F0CA01AF
:1030D000B901A70196010E941B3EDF5FF3CFA30158
:1030E0009201C1E08AE0C82ED12CE12CF12C2A30CB
:1030F00031054105510540F0CA01B901A70196010A
:103100000E941B3ECF5FF3CF81149104A104B10450
:1031100059F1411451046104710409F1432D4D0F1B
:10312000E12EEC0EE4164CF14E1129C0ED2FCD1717
:1031300054F4AAE0B0E0A30192010E94783E2B0172
:103140003C01CF5FF4CFEC1754F4AAE0B0E0A50146
:1031500094010E94783E4B015C01EF5FF4CF48146C
:1031600059046A047B0448F081E084149504A604A1
:10317000B70408F080E0819503C081E001C08FEFC3
:10318000CDB7DEB7E1E10C94A03ECF92DF92EF9293
:10319000FF92CF93DF93C42FD22F2AE0C22ED12CDF
:1031A000E12CF12CCD1791F0CD1744F4A701960135
:1031B0000E941B3ECA01B901CF5FF4CFAAE0B0E084
:1031C0009B01AC010E94783EC150ECCFDF91CF91C2
:1031D000FF90EF90DF90CF9008951F93CF93DF93F0
:1031E0001AB18AB18E7D8AB90E940D3CC0E0D0E050
:1031F00089B18095982F917269F080FDDF5F85FD20
:10320000CF5F8D2F8C0F8A3038F48EE190E00E94D2
:10321000D21BEECF90E001C092E0DD23A9F0C111F6
:103220001DC084E020912F01281308C0923031F492
:1032300090913101973018F49F5F01C091E0909315
:1032400031019093300103C0C11106C080E01AB96A
:10325000DF91CF911F91089585E0E4CF86E0E2CF22
:10326000A0E0B0E0E6E3F9E10C94893E6C01062FA2
:1032700081E0809330018091940185FF04C098E73C
:10328000E92EF12C02C0E12CF12C02FF08C0809144
:10329000930180FD02C00C7F02C0C12CD12C802F75
:1032A0008370B82E19F081E00E947B3BC0E0D1E032
:1032B00010E084E1A82E802F8270982E802F8071DC
:1032C000882E0870C114D10449F086E0C816D104D4
:1032D00020F085E0C81AD10801C0D0E04F9935C070
:1032E0008EE190E00E94D21BC0E0DD2311F04F9BE5
:1032F00004C0CB3108F05DC008C0CF5FCB31C8F748
:103300008AE090E00E94D21BF0CF002309F454C061
:1033100082E390E00E94D21BC4E111E04F990CC0FF
:103320008EE190E00E94D21B4F9906C088EC90E09D
:103330000E94D21BC1E013E0C1508AE090E00E94DD
:10334000D21BC111EBCFD0E03FC00E94ED1881111C
:1033500048C085E090E00E94D21BCF5F8C2F6A2D81
:103360000E94D93D91110BC080919F01823020F0C5
:10337000815080939F0103C081100E940A18C436B7
:1033800019F5992059F0D13029F480E00E947B3B57
:10339000D2E004C081E00E947B3BD1E0E114F10463
:1033A00071F081E0E816F10461F081E0E81AF108BB
:1033B00006C0D0E012E008C0D0E011E005C0C0E0D7
:1033C00003C0C0E0D0E017E68091940180FF06C002
:1033D000809194018E7F8093940104C0D11172CFAB
:1033E00001C0182FBB2019F080E00E947B3B109396
:1033F0002F01173611F40E94A217812FCDB7DEB727
:10340000ECE00C94A53E65E188EB9BE00E9430194E
:1034100008950F931F93CF93DF93D82F882321F024
:1034200004E012E0C3E003C00BE012E0C0E00E9441
:103430005421C817E9F00E943E3AC8010E94E923CE
:1034400085EF91E00E9412240E945421C81305C008
:1034500088EC90E00E94D21B0BC060E184E690E013
:103460000E943019D13081F7882371F380E001C0C8
:1034700081E0DF91CF911F910F910895681310C0E3
:1034800080EE9FEF90932701809326018AE20E94AD
:10349000093B80EE97E090932701809326010895E1
:1034A0000E9401240895A0E0B0E0E9E5FAE10C945F
:1034B000863E762E642E552E59010FEF080F909000
:1034C0002401DD24DA94D90C0E9464240E9409248A
:1034D0000E94522412E0D0E0C0E09A949A9481E0D5
:1034E000882E8D1881E0D81202C01F5FDC2FE62CD9
:1034F000F52CED0EF11CED0EF11CC12CCD1488F550
:1035000062E06C0D81E00E94AB39E1E0DE1629F04B
:103510006C2F8D2F8C0D0E943E1A1130D1F0F1E0EE
:103520007F1206C0F701808191810E94E92308C0C3
:10353000C7010E941E3FBC0180E090E00E947625FA
:10354000A114B10419F0C5010E94E92380E00E9492
:10355000D639F2E0EF0EF11CC3940C1578F6CD2CA1
:10356000CDCF81E0D81209C0609124018091230160
:103570000E94AB398CE30E94093B60E180E090E05F
:103580000E943019813091F18430D1F0853089F476
:10359000C11106C00D1538F1D82DD00FC02F07C0AE
:1035A000C150DC1321C0CD2FDD23F1F0D15012E04A
:1035B00099CF8230D9F08736B9F40E94A21714C08F
:1035C0000C1304C00D1558F012E00AC0CF5F892D0E
:1035D0008D0FC81309C0C01738F4DF5FE8CF11E0C2
:1035E000D0E0C0E07FCFC02F11E07CCF0E943E3AF8
:1035F00084EF91E00E94D21B8C2FCDB7DEB7EFE0B5
:103600000C94A23EA9E0B0E0E8E0FBE10C94923E0D
:10361000182F82EF90E09A83898381E08F838FEE69
:1036200090E09C838B8382E0888780EE91E09E838C
:103630008D8319860E943E3A60EE7FEF123019F4B6
:1036400083E292E002C08EE192E00E943A2420E000
:1036500030E0AE014F5F5F4F61E083E00E94531A9C
:10366000FE01E80FF11D6781662319F0812F0E948A
:10367000621C2996E3E00C94AE3EA5E1B0E0E3E4E1
:10368000FBE10C94933E88E991E09A83898383E17E
:103690008F8788EB91E09C838B8381E0888B88E225
:1036A00092E09E838D8382E0898B83E292E098870B
:1036B0008F8383E08A8B8EE192E09A87898784E00A
:1036C0008B8B82E192E09C878B8785E08C8B80EEF0
:1036D00091E09E878D871D8A0E943E3A60EE7FEFC3
:1036E00083E392E00E943A2420E030E0AE014F5F95
:1036F0005F4F61E087E00E94531AFE01E80FF11D61
:1037000087856596E2E00C94AF3ECF930E943D1B07
:103710002091930190E020FF2EC0209194012F7DF5
:103720002093940184319105F8F4FC01EC5CFF4F87
:103730000C945C3E0E941A1F02C00E940C1DC82FF0
:103740000EC082E001C081E00E94021B05C00E9401
:10375000991C02C00E945F38C1E001C0C9E6809197
:10376000930180FD02C00BC0C1E080919401806292
:103770008093940104C08431910578F0C1E00E94E7
:103780003E3AC11103C085EE91E002C08AE392E0A7
:103790000E94E9238C2FCF910895FC01E85BFF4F35
:1037A0000C945C3E20919501A0E0B0E0F4E0880F1D
:1037B000991FAA1FBB1FFA95D1F72630D1F4492FC4
:1037C0005A2F6B2F77274F5F5F4F6F4F7F4FE4E08C
:1037D000440F551F661F771FEA95D1F74817590701
:1037E0006A077B0728F4841B950BA60BB70B01C057
:1037F00020E01092B1001092B20032E03093B0009D
:103800003093700033B7317F232B23BF0FB607FCF3
:1038100003C0789430E001C031E047E00097A10593
:10382000B105F9F0A8958F3F9105A105B10509F003
:1038300010F4282F01C02FEF821B9109A109B109B3
:1038400021502093B3004093B1002091B100222376
:1038500029F323B7216023BF889523B72E7F23BF89
:10386000F4CF311101C0F89408951F920F920FB652
:103870000F9211241092B1000F900FBE0F901F9065
:103880001895EFECF1E088EC90E0918380838CED6B
:1038900090E09383828384E190E0958384838BE23C
:1038A00086831782108611860895EFECF1E080E0A0
:1038B0009191890F91E0E93DF907D1F7811101C09C
:1038C00081E008951F93CF93DF93182F623019F092
:1038D000C3E8D2E002C0C8E7D2E00E94551C809342
:1038E000D9014BE050E0BE018FEC91E0123019F4A9
:1038F0000E94243F1AC00E94063F0E94551C9091CE
:10390000D901992391F0891781F00E943E3A87ED01
:1039100091E00E94E92385EE91E00E94122480ED5F
:1039200097E00E94D21B0E94411CDF91CF911F9112
:10393000089581E0809320010E943E3A8CE191E05D
:103940000E940D246091CF017091D00180E090E041
:1039500024E04FEF0E94E12488E191E00E941D24C1
:103960006091D1017091D20180E090E024E04FEFAE
:103970000E94E12482E091E00E941D246091D50123
:1039800070E080E090E026E444EF0E94E1248FEFB5
:1039900090E00E941D246091D3017091D40180E0D9
:1039A00090E024E04EEF0E94E12488E291E00E9442
:1039B0001D246091990170919A0180E090E026E5C4
:1039C0004DEF0E94E1248BEF90E00E941D24609156
:1039D0009B0170919C0180E090E026E54DEF0E94F4
:1039E000E1248091930182FF05C00E9401248AE2B4
:1039F0000E94093B85EF90E00E941D246091D70151
:103A0000062E000C770B880B990B26E54DEF0E94D4
:103A10007B250E94031A0895A5E0B0E0E2E1FDE1F4
:103A20000C94833E81E00E94091A612C712C1B8248
:103A3000A12CB12C1A82C12CD12C412C882309F441
:103A400078C1812C912C212CE12CF12C00E010E08C
:103A50001D821C8262E0562E3324339421E0298398
:103A60000E943E3A0E94642481E40E94093B80E364
:103A7000850D0E94093B0E9452240E94012434E0DB
:103A8000531609F44EC0351568F082E0581699F0C7
:103A900093E0591205C180E00E94091A80E094E683
:103AA0009983FFC025E0521609F464C036E053162E
:103AB00009F49FC0F5C08FEF90E00E940D2485E0CF
:103AC00091E00E94E92360E081E00E940B2180E008
:103AD0000E945E269D838C838639910518F4C80E5A
:103AE000D91E439460E082E00E940B2180E00E9496
:103AF0005E268C018639910518F4C80ED91E4394B0
:103B000061E082E00E940B2180E00E945E267C0141
:103B100086E9E816F10408F0C3C0CE0CDF1C43941C
:103B2000BFC08CE191E00E94E92318B837B835B8DE
:103B300034B880E00E949B209D838C8322E027B9CB
:103B400055B854B881E00E949B208C018C819D81E6
:103B5000800F911FA80EB91E57B830E135B934B99E
:103B600082E00E949B207C01A80EB91E8A818D5F95
:103B70008A8396C088E191E00E94E92315B838B89D
:103B800037B834B820919B0130919C013D832C8340
:103B900080E00E949B202C813D81281B390B3D83B6
:103BA0002C8332E038B937B984E084B900919B01A5
:103BB00010919C0181E00E949B20081B190B8C81B5
:103BC0009D81800F911F680E791E94E098B997B976
:103BD00020E124B9E0909B01F0909C0182E00E94DA
:103BE0009B20E81AF90A6E0C7F1C3B813D5F3B83EA
:103BF00057C082E091E00E940D2485E091E00E9490
:103C0000E92340E060E081E00E94C12D80914701FE
:103C1000843F91F480914C0190914D01A0914E010F
:103C2000B0914F0185369105A105B10528F49D831A
:103C30008C83880E991E239441E060E082E00E940C
:103C4000C12D80915501843F89F480915A01909152
:103C50005B01A0915C01B0915D0185369105A105E4
:103C6000B10520F48C01880E991E239442E061E096
:103C700082E00E94C12D80916301843F89F480918C
:103C8000680190916901A0916A01B0916B0185363C
:103C90009105A105B10520F47C01880E991E23949D
:103CA00081E017B818B814B815B88823B9F00E9485
:103CB000C7232C813D81B90180E090E00E947625E8
:103CC0000E940124B80180E090E00E9476250E94C5
:103CD0000124B70180E090E00E94762539813436D6
:103CE00081F060E188EE93E00E943019882349F06A
:103CF000823029F454E6552E84E6898302C094E686
:103D0000998329812F5F2983263008F4A9CE539403
:103D100036E0351508F0A2CE8FE028120AC0C401A3
:103D20006FE070E00E94F33D6093D50191E09983CC
:103D300001C019822FE042120CC0C6016FE070E092
:103D40000E94F33D7093D4016093D30139813F5FAA
:103D500039833A813F3009F064C08B818F3009F09C
:103D60005DC0E5E0F0E0C501BF010E94F33D9B01AD
:103D7000C301BF010E94F33D8B0180919B01909193
:103D80009C016C01CC0CDD1CC80ED91EC21AD30AD2
:103D9000C61AD70AE12CF12CA0EABCE80E94623EC8
:103DA000A70196010E941B3ECA01B9016B5F7F4FBC
:103DB0008F4F9F4F2AE030E040E050E00E941B3ED2
:103DC0002A3F31054105510538F43093D001209345
:103DD000CF0199819F5F99839801A0EABCE80E9476
:103DE000623EA70196010E941B3ECA01B9016B5FAA
:103DF0007F4F8F4F9F4F2AE030E040E050E00E941D
:103E00001B3E283181E038074105510538F43093D5
:103E1000D2012093D10199819F5F99832981243018
:103E200011F080E003C00E94991C81E02596E2E138
:103E30000C949F3EA0E0B0E0E0E2FFE10C94833EF2
:103E400081E00E94091A882309F40EC1C12CD12CEB
:103E5000E12CF12C00E010E0C1E092E0292E28E0F6
:103E6000322E3AEF432E32E0532E612C712CD1E0EA
:103E70000E943E3A0E94642484E50E94093B80E34C
:103E80008C0F0E94093B0E9452240E940124C330DF
:103E900009F46BC0C8F5C13009F451C0C23009F053
:103EA000A8C083E191E00E940D2485E091E00E948A
:103EB000E92320919B0130919C01ACE7B1E00E9485
:103EC000623EA30192010E943D3E49015A0181E0F8
:103ED00085B985E084B982E00E94A4206C01C818ED
:103EE000D90881E184B981E00E94A4207C01E8180E
:103EF000F90884E085B984E184B980E00E94A420B7
:103F00008C010819190975C0C53009F45DC008F4A1
:103F100055C0C63009F06DC080E291E00E94E923EF
:103F200025B824B880E00E94A4208C0135B834B8AC
:103F300081E00E94A4207C0180E285B955C08EE01A
:103F40000E943A208EE00E943A205C0188E291E0D3
:103F50000E94E9230E94C723B50180E090E026E596
:103F60004DEF0E94E12480E045C08EE091E00E9488
:103F70000D2485E091E00E94E92300919B011091BE
:103F80009C011695079525B88AE084B982E00E94C5
:103F9000A4206C01C01AD10A82E284B981E00E9497
:103FA000A4207C01E01AF10A35B888E284B980E0E7
:103FB0000E94A420801B910B8C011BC080E00E94FA
:103FC000091A80E0D4E616C084E291E00E94E92359
:103FD00015B824B880E00E94A4208C0134B881E098
:103FE0000E94A4207C0180E284B982E00E94A42087
:103FF0006C0181E014B815B8882309F10E94C72329
:1040000020E040E0B801012E000C880B990B0E94C3
:10401000BA240E94012420E040E0B7010F2C000CDC
:10402000880B990B0E94BA240E94012420E040E0F2
:10403000B6010D2C000C880B990B0E94BA24D436C3
:1040400059F060E188EE93E00E943019882321F056
:10405000823009F4C4E6D4E6DF5FD63008F408CF36
:10406000CF5FC73008F403CF81E0CDB7DEB7E2E120
:104070000C949F3ECF93DF938F70C82FC064C09382
:104080007C00DC2FD07C80919801D81721F00E9411
:10409000113CD093980180917A00806480937A00DB
:1040A00080917A0086FDFCCF20E030E0A90180E01D
:1040B000E09196018E1708F590917A0090649093A4
:1040C0007A0090917A0096FDFCCF60917800709113
:1040D0007900260F371F411D511D843061F42115D1
:1040E00094E0390740F4D03C31F090919701913041
:1040F00011F4C06CC4CF8F5FDBCFD03C29F4A0910A
:104100009901B0919A0104C0A0919B01B0919C01CA
:104110000E94783E2AE096958795779567952A952F
:10412000D1F72E2F30E040E050E00E941B3EC90145
:10413000DF91CF910895CF93C82F0E94083C8C2F18
:104140000E943A20CF910895CF93C82F0E94063C39
:104150008C2F0E943A20CF910895A0E0B0E0E3EBCD
:10416000F0E20C948D3EE62E042FCDEBD1E0888357
:1041700069834A83C82ED12CC601875F9F4F0E9456
:10418000163F8E83F12CC701875F9F4F0E94163F19
:104190008F8310E0C801875F9F4F0E94163F88877A
:1041A000C6018A5F9F4F0E94163F8987C7018A5FB9
:1041B0009F4F0E94163F8A87C8018A5F9F4F0E94C7
:1041C000163F8B87C6018D5F9F4F0E94163F8C87DD
:1041D000C7018D5F9F4F0E94163F8D87C8018D5F7D
:1041E0009F4F0E94163F8E87C601805090400E94CC
:1041F000163F8F87C701805090400E94163F888BE2
:10420000C801805090400E94163F898BCDB7DEB721
:10421000E8E00C94A93E43E0481B461B0E94AD20F9
:104220000895EDEBF1E04581648183810E94AD202A
:104230000895EDEBF1E08081838381818483828125
:1042400085830895CF93DF930E940B2117B8909137
:10425000C30195B98091C401892B84B98091CC01A7
:104260000E949B20EC018091CD010E943A20AC017C
:1042700020919B0130919C0136952795C9014E975D
:104280008C179D0760F4225E3F4FC217D30738F4A6
:104290008417950720F481E04217530708F080E067
:1042A00014B8DF91CF910895CF9361E080E00E9430
:1042B0002221C82F62E080E00E942221C80F62E024
:1042C00081E00E9422218C0FCF9108950F931F93BC
:1042D000CF93DF93D82FC62F17B818B814B815B8D6
:1042E0000E940B218091C90187B98091CD010E9464
:1042F0003A208C018091CA0187B98091CC010E943B
:104300003A200817190720F46D2F8C2F0E940B21DB
:104310008091C90187B98091C40184B9C2E38091B9
:10432000CD010E943A209C01203981E0380738F005
:10433000C15069F084E690E00E94D21BF0CF87B1B3
:104340009091CA01982B97B92832310588F717B890
:1043500014B8DF91CF911F910F910895A6E0B0E0BE
:10436000E4EBF1E20C94893E17B818B815B88FE366
:1043700084B980E00E943A209A83898381E00E9478
:104380003A209C838B8382E00E943A209E838D8317
:10439000E12C02E018E2FF24F394AA24A394B12CA8
:1043A0000F5F033009F400E0C02ED12C8E2D90E079
:1043B000002E02C0959587950A94E2F780FDF0CF14
:1043C000C601805090400E94163F982E0E943A20CD
:1043D000F601EE0FFF1F21E030E02C0F3D1FE20F32
:1043E000F31F208131818217930768F491838083C2
:1043F000212F30E02F1931092431310564F41B3E9F
:1044000050F41C5E08C08A30910518F4183209F483
:1044100010E5F39402C0FF24F3948330910540F437
:10442000C5010C2C01C0880F0A94EAF7E82A0BC0DA
:104430008032934040F487B0C6018D5F9F4F0E9449
:10444000163F882987B987E0E81681F11F1540F5E6
:1044500081E0809300018093010100930601C60171
:104460008D5F9F4F0E94163F97B18095982397B913
:10447000C6018A5F9F4F0E94163F182FC601875FB3
:104480009F4F0E94163F94B1812B8095892384B958
:10449000892D0E943A20909308018093070106C05D
:1044A000A89582E390E00E94D21B7ACF14B817B887
:1044B0002696ECE00C94A53ECF93C82FC09595B1FD
:1044C00060FF02C0982B01C09C2395B994B1892B41
:1044D00084B963FF03C00E940C3C02C00E94073CE9
:1044E00084B18C2384B985B1C823C5B9CF9108950F
:1044F000A0E0B0E0EEE7F2E20C948E3E613039F0DD
:10450000623071F06330A9F080E090E04DC0CCE4FF
:10451000D0E0E7E0F0E002E310E028EE33E011C085
:10452000CEE5D0E0ECE2F0E009E110E02CE231E091
:1045300008C0CCE0D0E0EEE1F0E009E110E028ECCA
:1045400030E08217930768F1821B930BB8010E9439
:10455000F33DD02ED81ACB019927E817F90708F4B4
:104560006E2FC60FD11DC60FD11DCE010E941E3F5A
:104570007C01CE0102960E941E3FFC01E81AF90A56
:10458000DE9C9001DF9C300D1124C8019695879523
:10459000820F931FB8010E94F33DCF01860F971F32
:1045A00003C0D02E60E0DDCFCDB7DEB7E7E00C94DE
:1045B000AA3ECF93DF9390910001913009F4C3C0DC
:1045C000A8950E94AD2015B88091C40184B980914E
:1045D000C90187B988B960E18091C5010E945C2258
:1045E0008091CD010E949B20EC019091C4018091AB
:1045F000C501892B84B98091CD010E949B20209117
:10460000C40124B98C179D0720F48530910508F466
:1046100098C0C13D23E0D20700F161E18091C5015E
:104620000E945C228091CD010E949B20EC01809130
:10463000C50185B99091C401892B84B98091CD01C0
:104640000E949B2015B82091C40124B98C179D07A6
:1046500020F48530910508F474C0C031D10560F0B4
:1046600080910201811103C0CE010E940233C13D3D
:1046700083E0D80708F048C08091020181111BC077
:104680008091C40184B915B88091C90187B988B9EE
:104690000E94083C9091C4018091C501892B84B986
:1046A0008091CD010E949B208F359D4020F0BE015E
:1046B00082E00E944B318091020181112DC08091D6
:1046C000CA0187B918B89091C3018091C501892B9F
:1046D00084B985B98091CC010E949B20803496409A
:1046E00060F40E94CA34811108C0809100018132B7
:1046F00021F0BE0181E00E944B31809102018111C5
:104700000BC00E94BC3508C080910201811102C01B
:104710000E946B350E940E2F80910001882311F0BA
:104720008A3019F40E942A2707C08F3129F480911A
:10473000010184FD0E940D3017B818B814B815B8DF
:1047400002C0EC0199CFDF91CF91089580910301D0
:104750008823E1F09091020190FD18C091FD04C002
:10476000909100019E3190F480930001809132017C
:104770008093A201809133018093A3018091340141
:104780008093A40180910A01809309010895CF9339
:104790006091220180912401681315C0C09120010D
:1047A000C0FD0E94031AC1FF0BC0C0912401C2309A
:1047B00028F08C2F0E94D639C150F9CF62E004C096
:1047C0000E943E3A04C06F5F81E00E94AB39CF91F6
:1047D0000895CF93DF93EC01CE010E94163F88230A
:1047E00021F00E94093B2196F7CFDF91CF910895E8
:1047F0008F5C0E94093B08950E94D4110E94093BDE
:10480000089580E20E94093B08958DE20E94093BD1
:1048100008958AE30E94093B08950E94E9230E94BB
:1048200001240895CF93DF93EC010E94C723CE01AA
:104830000E94E923DF91CF910895CF93DF93EC019C
:104840000E94C723CE010E94E9230E940124DF9128
:10485000CF91089582E00E94D63962E081E00E9403
:10486000AB39089583E00E94D63963E081E00E946D
:10487000AB3908950F931F93CF93DF93C0E2D1E03C
:104880000E811F817F836E830E94E9231F830E8325
:10489000DF91CF911F910F9108950E943A240E94B9
:1048A00001240895E0E2F1E0808591859783868375
:1048B0000895E0E2F1E0868197819187808780EE1C
:1048C0009FEF9783868308950E9459240895A0E05E
:1048D000B0E0EDE6F4E20C948D3E6B017C01D42F48
:1048E000022F0E9459242AE049E351E0C701B60192
:1048F0000E94BA3EE9E3F1E001900020E9F7319728
:10490000CF0189539140F82EDD2369F08D1728F0EF
:10491000C82FCD1BD0E041F401C0D81B80E30E941A
:10492000093BC0E001C0C4E689E3C82E81E0D82E6F
:1049300010E01F1598F41C130AC08CE20E94093B7A
:10494000DD2329F080E30E94093BD150F9CFF60125
:1049500081916F010E94093B1F5FEBCF0E9452249F
:10496000002319F0802F0E94093BCDB7DEB7E8E0A5
:104970000C94A93ECF92DF92EF92FF92CF93DF93F8
:104980006B017C01C42FD22F97FF0EC00E945924C7
:104990000E9405240E945224F094E094D094C09484
:1049A000C11CD11CE11CF11C2D2F4C2FC701B601DD
:1049B0000E946724DF91CF91FF90EF90DF90CF901E
:1049C0000895A0E0B0E0E7EEF4E20C94893E6B01BC
:1049D0007C01C42F122F9AE0892E912CA12CB12C8E
:1049E00030E1C31637E2D306E104F10470F0C701E9
:1049F000B6016B5F7F4F8F4F9F4FA50194010E94BF
:104A00001B3E69017A01CF5FEBCFC13FF4F08FE02D
:104A10008C0F63E00E94E53D282FD92F911107C02C
:104A2000E8EECE16E3E0DE06E104F10420F021E03A
:104A3000280FD3E0D91B283048F4822F90E0865409
:104A40009F4F0E94163F082F02C0D0E000E00E9456
:104A500059244AE069E371E0C6010E94DC3EE9E3C3
:104A6000F1E001900020E9F73197E953F140BE2EC3
:104A7000CE2FCD1B1C165CF080E30E94093B8CE21C
:104A80000E94093BCC2319F080E30E94093BD1111D
:104A900001C0CFEFC15089E3C82E81E0D82EE12CB0
:104AA000F12C0C2E000CDD0BEB1478F4F601819147
:104AB0006F010E94093BCE15DF0519F48CE20E94BC
:104AC000093BFFEFEF1AFF0AEFCF0E9452240023A9
:104AD00019F0802F0E94093B112319F0812F0E94A9
:104AE000093BCDB7DEB7ECE00C94A53E20E040E0FA
:104AF0000E94E1240895CF92DF92EF92FF92CF932C
:104B0000DF936B017C01C42FD22F97FF0EC00E9450
:104B100059240E9405240E945224F094E094D094D9
:104B2000C094C11CD11CE11CF11C2D2F4C2FC701BE
:104B3000B6010E94E124DF91CF91FF90EF90DF90CA
:104B4000CF900895CF93C82F80910901982F990F86
:104B5000890FE62FF0E0E80FF11DEA53FF4FE491D3
:104B6000EE2389F120912D018FEF820F60912E01AC
:104B7000E4FF04C090912C019695690F3E2F32708E
:104B8000E1FF0BC090912B01E5FF04C0892F8695B2
:104B9000820F01C0890FE3FD6150E2FF06C09091D2
:104BA0002C01690F311101C061500E94AB398C2F6B
:104BB0000E94D411883721F48C2F0E94FC2303C05B
:104BC0008C2F0E94F823CF910895CF93DF932091EB
:104BD0002C013091240193E0920F3917F0F190915C
:104BE0002301903120F02F5F280F231738F03093E6
:104BF00022010E94C72393E083E004C09F5F2091BD
:104C00002B01921B90932D0180932E0160E08091E7
:104C1000A2010E94A22561E08091A3010E94A22529
:104C200062E08091A4010E94A225C0912601D0914A
:104C3000270180EE9FEF90932701809326016091DA
:104C40002E0180912D010E94AB39809109010E94B3
:104C50008A3BD0932701C0932601DF91CF9108951D
:104C6000FF920F931F93CF93DF93C82F90912C0146
:104C700081E0890F8C0F209124012817D0F08091BA
:104C800023018031B0F0F0902B018F5FD82FDF1916
:104C9000192F1C0FC11769F06C2F8D2F0E94AB3993
:104CA0000F2D002321F00E9401240150FACFCF5F85
:104CB000F1CFCDB7DEB7E5E00C94AC3E4F925F92FA
:104CC0006F927F928F929F92AF92BF92CF92DF921C
:104CD000EF92FF921F93CF93DF93C82F0E94AE21D4
:104CE00080910001813009F456C018B88091CA0142
:104CF00087B98091C30185B984B90E94073CC12C52
:104D0000D12C760181E0182F117080FF03C08091B3
:104D1000CC0102C08091CD01A895806C80937C006D
:104D20000E94113C80917A00806480937A00809187
:104D30007A0086FDFCCFD4E6812C912C5401809121
:104D40007A00806480937A0080917A0086FDFCCF9F
:104D50008091780090917900880E991EA11CB11C59
:104D60000E940E3CD15059F7A0919901B0919A013F
:104D7000A50194010E94783E4B015C018AE0B69443
:104D8000A794979487948A95D1F782E0112331F004
:104D900075016401B8CF80E090E04CC015B89091E7
:104DA000CA018091C901892B87B98C149D04AE0476
:104DB000BF04D8F520919B0130919C01A4E6B0E09E
:104DC0000E94623E9B01AC012C193D094E095F090E
:104DD0000E94783E2B013C01A70196012819390950
:104DE0004A095B09A8EEB3E00E94783E6B017C01A2
:104DF0002091D1013091D201205F314F40E050E04D
:104E0000C301B2010E941B3EC701B6010E941B3EB6
:104E1000C901C13061F46091D3017091D40162176E
:104E2000730718F4861B970B02C080E090E020EC1B
:104E300020939801DF91CF911F91FF90EF90DF9029
:104E4000CF90BF90AF909F908F907F906F905F902A
:104E50004F900895A0E0B0E0E0E3F7E20C94833EC9
:104E6000A89518B88091CA0187B98091C30184B907
:104E700085B98091CD010E949B204C018091CC018D
:104E80000E943A20EC0115B88091C60184B9809146
:104E9000CC010E949B20459708F044C28091C60136
:104EA00085B98091CC010E949B206C018091C90141
:104EB00087B988B915B88091C40184B98091CC01B3
:104EC0000E949B202C018091CD010E943A203C0140
:104ED0008091C70184B98091CD010E949B205C0123
:104EE000C03321E1D20728F432E6C316D10438F0EA
:104EF00019C24CE6C41643E1D40608F013C259EABD
:104F00006516710408F070C086E2A816B10408F4B2
:104F100009C2D60120EF3BE247E050E00E94783E14
:104F2000C0919B01D0919C019E012C193D0940E04C
:104F300050E00E941B3E29013A01DE01AA19BB097B
:104F400020EF3BE247E050E00E94783E850120E000
:104F500030E0A90198010E941B3EEEEDCE16E3E081
:104F6000DE0680F4D301C201D2E0880F991FAA1F88
:104F7000BB1FDA95D1F7BC01CD01620F731F841FEF
:104F8000951F14C0FEEDAF16F3E0BF06B0F4DA01D2
:104F9000C901C2E0880F991FAA1FBB1FCA95D1F78C
:104FA000BC01CD01640D751D861D971D25E030E007
:104FB00040E050E00E941B3E0CC0D301C201820FB2
:104FC000931FA41FB51F9C01AD01569547953795BA
:104FD0002795225A3E4F4F4F5F4FAAE0B0E00E9404
:104FE000783E4B015C01B3C0C815D90508F483C0F5
:104FF0004614570408F47FC040919B0150919C01D6
:10500000C417D50709F421972091D1013091D2011D
:10501000205F314FDE01A819B9090E94623E9A0152
:105020002C1B3D0B40E050E00E941B3E49015A0101
:105030002091CF013091D001205F314FD201A619CC
:10504000B7090E94623E830120E030E0A901980187
:105050000E941B3ECE3DD34080F4D501C401F2E056
:10506000880F991FAA1FBB1FFA95D1F7BC01CD016C
:10507000620F731F841F951F1BC0EEED6E16E3E0D9
:105080007E0660F5283FF4E23F07F1E04F07510547
:10509000A0F4DA01C901E2E0880F991FAA1FBB1F23
:1050A000EA95D1F7BC01CD01680D791D8A1D9B1DC4
:1050B00025E030E040E050E00CC0A9E0B0E00E9404
:1050C000783E680D791D8A1D9B1D2AE030E040E086
:1050D00050E00E941B3E49015A0139C0D501C4016C
:1050E000820F931FA41FB51F4C015D01B694A794B6
:1050F000979487942CC02FE8621622E1720608F07C
:1051000001C181E00E945E262C01612C712C812C52
:10511000912C540120E030E0A901280D391D4A1DD1
:105120005B1DAAE0B0E00E94783E61157105810523
:10513000910521F464E670E080E090E046165706A1
:105140006806790658F453014201CEEF08C034E6F0
:1051500083169104A104B10408F4C0C0CFEF80E02D
:10516000D7E02AE0F22E90910401891708F09DC043
:10517000682E712CD69D9001D79D300D1124F90118
:10518000E55FFE4F6F0120819091BD01291389C019
:1051900021819091BE01291384C0E12C02E010E02E
:1051A00020E030E04C2FC501B4010E944E188F3F23
:1051B00009F03FC0F601638174818581968102E028
:1051C00010E020E030E042810E944E188F3F51F500
:1051D000F6014281C41719F055245A9402C055248F
:1051E0005394D69DC001D79D900D11249C01255F3D
:1051F0003E4F6901F9016381748185819681EC2EAE
:10520000950184010E944E18F601581206C0838051
:105210009480A580B680C28105C083829482A582D5
:10522000B682C2831401250156944794379427947B
:105230000AC0C501B40124E130E040E050E00E9422
:105240001B3E19012A01D69DC001D79D900D112446
:105250009C01255F3E4F6901F9016381748185815D
:105260009681EC2E95018401021913092409350950
:1052700042810E944E1887FD16C095018401020DDF
:10528000131D241D351DF60163817481858196816E
:1052900042810E944E18181634F0F092000184E604
:1052A00062CF8F5F60CF88EC5ECF8436D9F19330C8
:1052B000C8F527E0929FF0011124E55FFE4F809131
:1052C000BE0180838091BD01818383829482A58207
:1052D000B682C2839F5F9093040124C081E00E9444
:1052E0005E262C01612C712CA5019401220F331F25
:1052F000441F551F85E088169104A104B10408F4E9
:105300000CCF0FCF81E00E945E262C01612C712C06
:105310008AE0882E912CA12CB12C24E130E040E0D1
:1053200050E0FFCECDB7DEB7E2E10C949F3EEF92A6
:105330000F931F93CF93C42F109204010E940B214F
:105340000E942A27809104018130B1F4CC23B1F06E
:1053500000910E0110910F01209110013091110167
:105360006C2F70E080E090E0E0900D0143E00E943F
:105370004E1891E0813019F090E001C091E0892F42
:10538000CF911F910F91EF900895813138F08151A5
:1053900015BC92E094BD87BD81E0089580E008953A
:1053A00016BC81E085BDA99BFECF15BC82E085BB04
:1053B0000895A4E0B0E0EFEDF9E20C94833E00978D
:1053C00029F46FEF7FEF7C836B8338C19C838B83E1
:1053D000FC016381748185819681A7EFEA2E0AE042
:1053E00010E020E030E042810E944E1887FDE9CFB6
:1053F0000E94AE2180910001813019F3EB81FC8184
:10540000618180810E946621EB81FC8161818081C4
:105410000E940B210091CC018091CD01006C806C29
:105420008A8315BC82E084BD85E687BD18B80093E9
:105430007C000E94073CFFEFF983812C912C5401E2
:105440008394412C512C3201439480E090E052E34C
:10545000C52ED12C17EDA895C29758F48091CA019A
:1054600087B98091C30185B984B90E941A3C14B8E8
:1054700015B822E3C216D10458F48091C90187B946
:105480008091C40185B984B90E941A3C14B815B83A
:105490008091C90187B98091C30185B984B900930E
:1054A0007C0010937A0080917A0086FDFCCF1093E7
:1054B0007A0080917A0086FDFCCF209078003090B1
:1054C00079006A8160937C0010937A0080917A0061
:1054D00086FDFCCF10937A000E94163C0E94D029D2
:1054E0008091C40185B984B90E941A3C14B8809196
:1054F0007A0086FDFCCFC0907800D0907900809132
:10550000CA0187B98091C40185B984B97A81709341
:105510007C0010937A0080917A0086FDFCCF109376
:105520007A0080917A0086FDFCCFE0907800F090C0
:10553000790000937C0010937A0080917A0086FDB8
:10554000FCCF10937A000E94163C0E94D0298091D3
:10555000C30185B984B90E941A3C14B880917A00BD
:1055600086FDFCCF8091780090917900A70160E0E2
:1055700070E0420D531D611D711D440E551E661EC7
:10558000771EAC0160E070E04C0D5D1D611D711D6A
:10559000840E951EA61EB71EE981E150E983E11134
:1055A0005ACF17B815B8481459046A047B04E8F5B3
:1055B0008091CF019091D0012AE0289FD001299FAE
:1055C000B00D1124A5019401241935094609570984
:1055D0000E94783EA30192010E941B3E8091D3015C
:1055E0009091D4018217930720F4B901681B790BBD
:1055F00019C0EB81FC8163817481858196812AEFDA
:10560000E22E08EE13E020E030E042810E944E18C6
:1056100021E030E0181614F420E030E06627772708
:10562000621B730B7C836B8304C08FEF9FEF9C83A3
:105630008B8380EC809398010E94AE218B819C81AA
:105640002496E2E10C949F3EA0E0B0E0EAE2FBE2A7
:105650000C94843E6C01D1E1C3E00E94AE218091A4
:105660000001813009F42AC118B88091CA0187B9B4
:105670008091C40185B984B98091CC010E943A20FF
:105680005C018091CD010E943A20A81AB90A15B890
:1056900014B8E12CF12C8FEFE81AF80A6D2F8091E5
:1056A000C3010E945C228091CC010E943A20A8167E
:1056B000B9060CF00FC18C010A191B09EEE7EE16B2
:1056C000F10449F40C32F1E01F078CF491E00B3443
:1056D000110574F40CC00C3281E0180714F491E049
:1056E00001C090E0E4EFEE16E1E0FE0609F490E080
:1056F000A8959111D0CF0C32F1E01F070CF4C1E056
:1057000081E0E816F10459F40531E5E01E073CF0AC
:105710008D2F8071D9E009F0A0CFC2E0D1C0C33095
:1057200009F0CEC08091CC010E943A205C01470173
:1057300080E090E08114910449F0F1E08F1A910823
:105740008091CC010E943A20A895F4CF8A159B0540
:1057500040F4A81AB90A85E6A816B10420F0C0E002
:1057600002C0A12CB12C8091CC010E943A204C01A6
:10577000ED2FE0713E2E19F00E94FC3B02C00E940A
:10578000013C8091CC010E943A208815990518F4BB
:10579000881A990A02C0812C912CC33009F090C05C
:1057A00062E0C8018A0D9B1D0E9478229C01D701EE
:1057B0000E94623E2B013C01332031F1AAE0B0E0AF
:1057C0009B01AC010E94783E2B013C016833F9E853
:1057D0007F07F1E48F07910508F474C0C301B2019B
:1057E00028EE33E040E050E00E941B3E29013A01E0
:1057F000A8EEB3E00E94783ECAEF332089F022E49D
:1058000034E040E050E010C06833794881449105AD
:1058100028F7A8EEB3E0A30192010E94783EC7EFFB
:1058200020E134E040E050E00E941B3E8091BE0148
:10583000F60180838091BD018183C28347825086B7
:105840006186728623833483458356839AE0492E8A
:10585000512C612C712C2130F5E33F07FCE04F0700
:10586000510540F0CA01B901A30192010E941B3EFB
:10587000CF5FF1CFD4010E94783E28EE33E040E0C4
:1058800050E00E941B3ED3FDCF5F8AE0882E912C12
:10589000A12CB12C2115310581E04807510540F0BC
:1058A000CA01B901A50194010E941B3ECF5FF2CF4E
:1058B000F60134872387C58783E014C080E012C0D7
:1058C0008C2F10C0A8EEB3E09B01AC010E94783E83
:1058D000C7EF95CF00E010E08EE7E816F10409F07D
:1058E000FECEF4CECDB7DEB7E1E10C94A03EA0E051
:1058F000B0E0EDE7FCE20C948B3EEC010E94AE219F
:1059000080910001813009F471C015B897E097B912
:1059100018B88091C60184B980E480937B0084E448
:1059200080BF8091CC01806480937C0090937A004A
:105930000E94103C1092800010928100109285000D
:105940001092840087E286BB8091C60185B9809160
:1059500000018F3129F48091C9018095877002C0C0
:105960008091CA0191E09093810087B9E12CF12CDC
:1059700086B385FD0CC080FFFBCF96BBA8952FEFAB
:10598000E21AF20A20E8E2162CE0F20689F71092F9
:10599000810090E296BBC0908600D090870014B83A
:1059A0002091840030918500C216D30638F480FF20
:1059B00005C081E086BB8FEFE81AF80A87E980937B
:1059C0007A0080917B008F7B80937B008091CC015B
:1059D0000E943A205C0115B88091C60184B920E884
:1059E000E2162CE0F20620F081E0C6C080E0C4C0E0
:1059F000C601A0E0B0E06701E12CF12C7601DD24C6
:105A0000CC24C82AD92AEA2AFB2A83E0C816D10462
:105A1000E104F104C8F082E0C81AD108E108F108F5
:105A200028E3C21629E8D20621E4E206F10460F078
:105A3000C701B60128EE33E040E050E00E941B3E73
:105A400069017A0117EF01C014EF2091D70180910D
:105A5000990190919A0161E0820F911D27FD9A951D
:105A60000E947822DC01A70196010E94783E20E482
:105A700036E040E050E00E941B3E143F89F48091E4
:105A8000D50190E0A0E0B0E0281739074A075B078E
:105A900050F069017A01C81AD90AEA0AFB0A06C05D
:105AA00069017A0103C0C12CD12C76018091BE011D
:105AB00088838091BD0189831A832F833887498722
:105AC0005A87CB82DC82ED82FE82143F49F480EA61
:105AD000C81686E8D80681E0E806F10460F44BC0F9
