:100000000C94C0110C94D2110C94D2110C94D211F6
:100010000C94D2110C94D2110C94D2110C94101C8B
:100020000C94D2110C94D2110C94D2110C94D211C4
:100030000C94D2110C94D2110C94D2110C94D211B4
:100040000C94D2110C94D2110C94D2110C94D211A4
:100050000C94D2110C94D2110C94D2110C94D21194
:100060000C94D2110C94D211881B741B771B7B1B30
:100070007D1B811B8E1B8E1B8E1B8E1B8E1B8E1B56
:100080008E1B8E1B8E1B8E1B8E1B8E1B8E1B841B32
:10009000881B741B771B7B1B7D1B811B981B981B6C
:1000A000981B981B981B981B981B981B981B981BB8
:1000B000981B981B981B841B4B2E4F2E562E5C2E84
:1000C000592E592E5F2E110A0611060A050A060935
:1000D000060A050A0609060A090A06050A06050AA5
:1000E0000605060A052A26052A26092A26090A06D9
:1000F000000000000000000000110A0600000010CF
:100100000000C0110000201200002010000020108C
:1001100000002010000020120000C011000000109C
:10012000000000087800000488000602880006012C
:1001300078008600880046008800260078001600B7
:1001400000000E0000000600FCFF07000000060093
:1001500000000E000000160000002602000046030A
:10016000000086030000C6030000E6030000000450
:10017000000000080000E013000020100000201024
:100180000000E01100002010000020100000E0132B
:100190000000001000000000000000100000E0134C
:1001A00000002010000020100000E01100002010CE
:1001B000000020100000E013000000100000000804
:1001C000780040048800C6028800C6017800C60393
:1001D0008800C607880026007800160000000E0080
:1001E00000000600FCFF07000000060000000E00F3
:1001F00000001600000026000000460000008600F7
:1002000000000601000006020000000400000008D3
:100210000000C0110000201200002010000020107B
:1002200000002010000020120000C011000000108B
:1002300000000000000000100000E010000020118D
:1002400000002012000020120000201200002011E7
:100250000036E010003600100036001000F6FF1FD8
:1002600000360004003600040036000400060004D6
:1002700000060004003604040036863F00360704FA
:1002800000F63F0E0036271F0036A63F38362404FE
:100290004406200404062004643620044436200466
:1002A0004436200438F6FF1F0036001000360010D8
:1002B000FE37C01100002012000020100000C01105
:1002C00000000012000020120000C0110000000019
:1002D000000000100000C0110000201200002010DB
:1002E0000000C0110000001200002012FE37C011F3
:1002F000003600100036001038F6FF1F4436200488
:1003000004362004643620044406200444062004F5
:10031000383621040036A33F0036270400F63F0E8E
:100320000036071F0036833F003601040006000434
:100330000006000400360004003600040036000405
:1003400000F6FF1F00360010003600100036E010E7
:1003500000002011000020120000201200002012D6
:10036000000020110000E01000000000000000105C
:100370000000E010000020110000201200002012F8
:1003800000002012000020110036E010003600109E
:100390000036001000F6FF1F00360004003600048F
:1003A0000036000400360004003600040036040461
:1003B0000036863F0036070400F63F0E0036271F42
:1003C0000036A63F38362404443620040436200480
:1003D00064362004443620044436200438F6FF1FD7
:1003E0000036001000360010FE37C0110000201249
:1003F000000020100000C0110000001200002012B8
:100400000000C01100000000000000100000C0113A
:1004100000002012000020100000C0110000001297
:1004200000002012FE37C011003600100036001008
:1004300038F6FF1F443620040436200464362004B6
:100440004436200444362004383621040036A33FC5
:100450000036270400F63F0E0036071F0036833FA4
:1004600000360104003600040036000400360004A3
:10047000003600040036000400F6FF1F00360010AE
:10048000003600100036E01000002011000020129D
:100490000000201200002012000020110000E010D7
:1004A00000000000000000103800C01144002012BD
:1004B000040020106400C011440000124400201207
:1004C00038C2C01100C6001000CE0010FEFFFF1F92
:1004D00000CE000000C6000000C2000000C0000006
:1004E00000C0000000C0000000C0000000C000000C
:1004F00000C0000000C0000000C0000000C00000FC
:1005000000C0000000C0000000C0000000C00000EB
:1005100000C0FF1F00C0001000C0001000C0E010AD
:100520000000201100002012000020120000201204
:10053000000020110000E01000000010000000008A
:10054000000000100000E010000020110000201248
:1005500000002012000020120000201100C0E01056
:1005600000C0001000C0001000C0FF1F00C000004D
:1005700000C0000000C0000000C0000000C000007B
:1005800000C0000000C0000038C0000044C00000EF
:1005900004C0000064C0000044C0000044C000006B
:1005A00038C8000000CC000000CE0000FEFFFF1F96
:1005B00000CE001000CC001000C8C01100002012B6
:1005C000000020100000C0110000001200002012E6
:1005D0000000C011000000100000000000000E101C
:1005E00000001110000001100000011000000110B7
:1005F0000000111100000E0B000000070000000FAA
:1006000000800D1F00808D0000807D0000800D00A7
:1006100000800D00008001000080010000800D00BE
:1006200000800D0038803D0044804D0004808D0026
:10063000648001004480010044800D0038800D007A
:1006400000807D0400808D06FEFF0D0700008007FE
:100650000000C00700001F0800000110000001108A
:1006600000000F10000001100000011000001F101A
:10067000000000100000000038001F1044000110AE
:100680000400011064000F10440001104400011127
:1006900038001F0B000000070000000FFEFF0D1FB9
:1006A00000808D0000807D0000800D0000800D0026
:1006B000008001000080010000800D0000800D001E
:1006C00000803D0000804D0000808D000080010012
:1006D0000080010000800D0000800D0000807D047E
:1006E00000808D0600800D07000080070000C00715
:1006F00000000E08000011100000011000000110A1
:10070000000001100000111000000E100000001089
:10071000000000000000100000001007000090081A
:10072000000090080000900F000090080000900862
:1007300000009008000010000000100000001000F1
:10074000000010000000100000FCFF7F00F8FF3FD9
:1007500000F0FF1F00E0FF0F00C0FF070080FF0355
:100760000000FF010000FE0000007C00380038009F
:100770004400100004FCFF7F64FCFF7F440018006D
:10078000440014003800120000001100008010071F
:10079000FE7F900800009000000090000000900094
:1007A000000090080000100700001000000000008A
:1007B00000001000008E1100005112000011120004
:1007C000001F1100009110000051100000D1130013
:1007D00000001000000010000000100000001000D9
:1007E00000FFFF3F00FC1F0200FC1F0700F80F077F
:1007F00000F88F0F00F0870F00F0C71F00E0C31F45
:1008000000E0E33F00C0E13F38C0F17F4480F07F6B
:1008100004FCFFFF648010004440100044201000DE
:10082000381010000008100000041047FE03906804
:10083000000090480000904F000090480000904851
:10084000000090E800001000000000000000100010
:100850000000100700009008000090080000900FB2
:10086000FE1F90080020900800409008388010007B
:100870004400110004001200640014004400180039
:1008800044FCFF7F38F8FF3F00F0FF1F00E0FF0F40
:1008900000C0FF070080FF030000FF010000FE0012
:1008A00000007C00000038000000100000FCFF7F0A
:1008B00000FCFF7F0000100000001000000010008E
:1008C00000001000000010070000900800009000D9
:1008D0000000900000009000000090080000100749
:1008E00000001000000000000000001000008F1148
:1008F000000051120000111200000F1100009110B1
:100900001E0051102000CF134000001080C80010BE
:1009100000CD00103ECEFF1F02CF000082CF0000AE
:100920001ED0000002E0000002C000003EC0000037
:1009300000C0000000C0000000C0000000C00000B7
:1009400000C0000000C0000000C0000000C00000A7
:1009500000C0FF1F00C0001000C000100000001009
:1009600000001E110000A2110000221100001E1143
:10097000000022110000221100009E130000001050
:100980000000000000000000000000000000000067
:1009900000FE010080FF0700C0FF0F00E0FF1F0006
:1009A000F0013E00F0FC3C0078027800780178010C
:1009B00078017801780178010000780100003C019D
:1009C0000000BE0000009F0000804F0000C0270014
:1009D00000E0130000F0090000F80400007C0200B1
:1009E000007C0100007C0100007C0100000001008F
:1009F00000F80100000000000000000000380000C6
:100A0000007C0000007C0100007C01000038010037
:100A100000800000007800000000000000000000DE
:100A200000001000000090080000900400009002F8
:100A30000000900100009002000090040000900867
:100A4000000010000004100000041000000410005A
:100A500000FCFF7F00FCFF7F0000104000003840DA
:100A600000007C400000FE000000FF010080FF034A
:100A700000C0FF0700E0FF0F00F0FF1F00F8FF3F7E
:100A800000FCFF7F000010000000100000001000BC
:100A900000001000000010070000900800009008FF
:100AA0000000900F000090080000900800009008DF
:100AB0000000100000000000000000000000000026
:100AC0000000000000000100000001000000010023
:100AD0000000010000000100000001000000010012
:100AE00000000100000001000000010080FFFF0184
:100AF00080FFFF010000000000000000F0FFFF0F7A
:100B0000F0FFFF0FF0FFFF0FF0FFFF0FF0FFFF0FF1
:100B1000F0FFFF0FF0FFFF0F0000000000000000DB
:100B200080FFFF0180FFFF010000010000000100C5
:100B300000000100000001000000010000000100B1
:100B400000000100000001000000010000000100A1
:100B50000000000000000000000080100000801075
:100B60000000E01300008010000080100000001062
:100B700000C07F1000404010007CC01F00444010A7
:100B800038C47F10480400108804001088E47F10E7
:100B900088E47F1048E4FF1F38E47F0000E47F0012
:100BA00000E47F00FCFF7F0000E07F0000E07F00AA
:100BB00000E07F0000E0FF1F00E07F1000E07F10FA
:100BC00000000010000000100000001000000010E5
:100BD00000000010000000100000001000000010D5
:100BE00000000010000000100000E01300000010E2
:100BF00000000000FF01020304050607FFFFFFFFDE
:100C0000FFFFFFFFFFFFFFFFFFFFFFFFFFFFFFFFF4
:100C1000FFFFFFFF101112131415161718191A1BD6
:100C20001C1D1E1F202122232425262728292A2B8C
:100C30002C2D2E2F303132333435363738393A3B7C
:100C40003C3D3E3F404142434445464748494A4B6C
:100C50004C4D4E4F505152535455565758595A5B5C
:100C60005C5D5E5F606162636465666768696A6B4C
:100C70006C6D6EFFFFFFFFFFFFFFFFFFFFFFFFFF3A
:100C8000FFFFFFFFFFFFFFFFFFFFFFFFFFFFFFFF74
:100C9000FFFFFFFFFFFFFFFFFFFFFFFFFFFFFFFF64
:100CA000FFFFFFFF0FFFFFFFFF05FFFFFFFFFFFF3E
:100CB000FFFFFFFFFFFFFFFF08FFFFFFFFFFFFFF3B
:100CC000FFFFFFFFFFFFFFFFFFFF09FFFFFFFFFF2A
:100CD0000AFFFF0BFFFFFFFF0CFFFFFFFFFFFFFF00
:100CE000FFFFFFFFFFFFFFFFFFFF0DFFFFFFFFFF06
:100CF0000EFFFFFF000000000000000000000000E9
:100D000000000000000000000000000000000000E3
:100D100000000000000000000000000000000000D3
:100D2000000000000000000000000000000004704F
:100D30000C701C703C707C70FC70FC71FC73FC7758
:100D4000FFFFFFFFFC77FC73FC71FC707C703C7054
:100D50001C700C7004700000000000000000000017
:100D600000000E200E300E380E3C0E3E0E3F8E3F21
:100D7000CE3FEE3FFFFFFFFFEE3FCE3F8E3F0E3FE9
:100D80000E3E0E3C0E380E300E200000000000001B
:100D90000000000000003C3C3C3C3C3C3C3C3C3CFB
:100DA0003C3C3C3C3C3C3C3C3FFC3FFC3C3C3C3CFD
:100DB0003C3C3C3C3C3C3C3C3C3C3C3C3C3C0000EB
:100DC00000000000000000000000C007E00F301825
:100DD00018300C600C6006C006C006C006C00C606F
:100DE0000C6018303018600C628C7EFC7EFC0000B9
:100DF00000000000000000000000000000000000F3
:100E00000000000000001C381C381C381C381C383E
:100E10001C381C381C381C381C383C3C7C3EFC3BC5
:100E2000DC7B1C001C001C001C001C0000000000DF
:100E3000000000000000FEFFFEFF060006000600A6
:100E40000600060007000700060006000600060070
:100E50000600FEFFFEFF0000000000000000000092
:100E600000000000000000000000FF7FFF7F006026
:100E7000006000600060006000E000E00060006072
:100E8000006000600060FF7FFF7F00000000000046
:100E900000000000300C300C000000000000C00119
:100EA000C003E003600760077006300E380E381C80
:100EB000181CFC3FFC3F0E380E700E7007E000005F
:100EC0000000000000000000300C300C00000000AA
:100ED0000000E007F00F381C1C381C380E700E7034
:100EE0000E700E700E700E701C381C38381CF00F0F
:100EF000E00700000000000000000000601860181B
:100F00000000000000001C701C701C701C701C7025
:100F10001C701C701C701C701C701C701C703C7849
:100F20003838F01FE00F0000000000000000000053
:100F30000000F003F8073C0E1C0E1C0E1C061C07DC
:100F40009C039C039C039C071C0F1C1E1C3C1C78D0
:100F50001C701C709C709C3F1C1F00000000000057
:100F600000000000000000000000600C600C0000A9
:100F70000000E007F80F181E001C001CE01FF01F07
:100F8000381C1C1C1C1C1C1C3C1EF87BF078000030
:100F9000000000000000000000000000000030061B
:100FA000300600000000E003F80F3C1E1C1C0E3849
:100FB0000E380E380E380E380E381C1C3C1EF80F3A
:100FC000E00300000000000000000000000000003E
:100FD000000030063006000000001C381C381C38A9
:100FE0001C381C381C381C381C381C381C381C3C5D
:100FF0003C3EF83BF038000000000000000000001C
:10100000000000008003C007600C600C600CC0078B
:10101000800300000000000000000000000000004D
:1010200000000000000000000000000000000000C0
:1010300000000000000000000000000000000000B0
:1010400000000000000000000000000000000000A0
:101050000000000000000000000000000000000090
:10106000000000000000000000000000800380037A
:101070008003800380038003800380038003800358
:10108000800380038003800300000000800380034E
:101090008003000000000000000000000000380E87
:1010A000380E380E380E380E100410040000000000
:1010B0000000000000000000000000000000000030
:1010C0000000000000000000000000000000000020
:1010D0000000000080318031C018C018C018C0184E
:1010E000FC7FFC7F600C60063006FE3FFE3F18036D
:1010F0001803180318038C018C0100000000000085
:101100000000000000030003C01FF03F70233803FD
:10111000380338037803F003E0038007001F001F43
:10112000003B003B003B003B181BF81FE00F000397
:101130000003000000000000000000003CC06660EA
:10114000C330C318C318C30CC30666033C03800135
:10115000C03CC06660C330C318C318C30CC3066666
:10116000033C000000000000000000000000000040
:10117000E003F007380E380E380E38067007F0011D
:10118000F800FCE0CEE1C7E387630767077E0F3E08
:101190001E3CFC7FF0F30000000000000000000097
:1011A0000000C001C001C001C001C001800080007A
:1011B000000000000000000000000000000000002F
:1011C000000000000000000000000000000000001F
:1011D0000000000000000018001E000F8003C00186
:1011E000E000E000E000700070007000700070002F
:1011F000700070007000E000E000E000C0018003BB
:10120000000F001E0018000000000C003C007800D9
:10121000E000C0018003800380030007000700078F
:101220000007000700070007000780038003800312
:10123000C001E00078003C000C000000000000004D
:10124000800380038003981B7C3E300C4002E00743
:10125000700E381C20040000000000000000000098
:10126000000000000000000000000000000000007E
:1012700000000000000000000000000000008001ED
:1012800080018001800180018001FE7FFE7F80015E
:1012900080018001800180018001000000000000C9
:1012A000000000000000000000000000000000003E
:1012B000000000000000000000000000000000002E
:1012C000000000000000C003C003C003C00300030F
:1012D00080038001C000000000000000000000004A
:1012E00000000000000000000000000000000000FE
:1012F000F81FF81F000000000000000000000000C0
:1013000000000000000000000000000000000000DD
:1013100000000000000000000000000000000000CD
:101320000000000000000000000000000000C003FA
:10133000C003C003C0030000000000000000000064
:10134000000000600030003000180018000C000C95
:10135000000600060003000380018001C000C000F9
:101360006000600030003000180018000C000C0015
:101370000600000000000000E003F007380E1C1C0F
:101380001C1C0E380E380E380E380E380E380E383B
:101390000E380E381C1C1C1C380EF007E003000031
:1013A0000000000000000000000000000003E00357
:1013B000FC038C038003800380038003800380038D
:1013C0008003800380038003800380038003FC7F0D
:1013D000FC7F000000000000000000000000000092
:1013E000F003FC070C0E001C001C001C001C000E6F
:1013F000000E00078003C001E000700030003800DC
:101400001C00FC1FFC1F000000000000000000008A
:1014100000000000F003F80F081E001C001C001C58
:10142000000C0006E003E007000F001E001C001C7B
:10143000001C001E080FF807F80300000000000061
:101440000000000000000000000E000F800F800F61
:10145000C00EE00E600E300E180E180E0C0E060EAA
:10146000FE7FFE7F000E000E000E000E000E00003C
:10147000000000000000000000000000F03FF03F0E
:10148000F03F30003000300030003000F003F00F4B
:10149000001E003C003800380038003C101EF00FE1
:1014A000F003000000000000000000000000000049
:1014B000801FE03FF0207000380038001C009C0FB7
:1014C000DC1F7C3C3C781C701C701C7038703838F9
:1014D0007038F01FC007000000000000000000008E
:1014E00000000000F83FF83FF83F00180018000C1B
:1014F000000C00060002000380018001C000C00053
:10150000600060007000300030000000000000004B
:101510000000000000000000C007F00F781E381C1B
:10152000381C381C780CF00FE003F00F381F181E21
:101530001C3C1C381C381C38381CF00FE00700001D
:10154000000000000000000000000000C007F01FC5
:10155000381C38381C381C701C701C703C78787C27
:10156000F077E073007000380038001C081EF80F98
:10157000F003000000000000000000000000000078
:1015800000000000000000000000C003C003C00312
:10159000C003000000000000000000000000C003C5
:1015A000C003C003C00300000000000000000000F2
:1015B0000000000000000000000000000000C00368
:1015C000C003C003C00300000000000000000000D2
:1015D0000000C003C003C003C003000380038001F8
:1015E000C00000000000000000000000000000003B
:1015F000000000400070003C000FC003F0003C0001
:101600003C00F000C003000F003C007000400000F0
:1016100000000000000000000000000000000000CA
:10162000000000000000000000000000FE7FFE7FC0
:10163000000000000000FE7FFE7F000000000000B0
:10164000000000000000000000000000000000009A
:101650000000000000000000000002000E003C003E
:10166000F000C003000F003C003C000FC003F0007E
:101670003C000E000200000000000000000000001E
:1016800000000000F807FC1F0C3C0C380038003844
:10169000001C001E000F80078003C001C001C001B4
:1016A00000000000C001C001C001000000000000F7
:1016B0000000000000000000C00FE01F703818306C
:1016C0001C3E0C318E31C630C630C638C638C63CDA
:1016D000C6348EF78CF31C003808F00FC0070000EA
:1016E00000000000000000000000000000000000FA
:1016F0000000C001C003E003600760077006300E01
:10170000380E381C181CFC3FFC3F0E380E700E7053
:1017100007E00000000000000000000000000000E2
:10172000000000000000FC07FC0F1C1E1C1C1C1C01
:101730001C0EFC07FC071C1E1C3C1C381C381C38EB
:101740001C3CFC1FFC070000000000000000000023
:1017500000000000000000000000C01FF03F7830D3
:101760003C001C000E000E000E000E000E000E00CD
:101770001C003C007820F03FC01F0000000000006B
:101780000000000000000000000000000000FC0756
:10179000FC0F1C3C1C381C781C701C701C701C70CE
:1017A0001C701C701C381C381C1EFC0FFC03000035
:1017B0000000000000000000000000000000000029
:1017C0000000F83FF83F3800380038003800380093
:1017D000F81FF81F38003800380038003800F87F4C
:1017E000F87F000000000000000000000000000082
:1017F000000000000000F87FF87F38003800380053
:1018000038003800F83FF83F38003800380038001A
:101810003800380038000000000000000000000020
:1018200000000000000000000000C01FF03F783002
:101830003C001C000E000E000E000E3F0E3F0E3846
:101840001C383C387838F03FC01F00000000000012
:1018500000000000000000000000000000001C3834
:101860001C381C381C381C381C381C38FC3FFC3F0A
:101870001C381C381C381C381C381C381C3800001C
:101880000000000000000000000000000000000058
:101890000000FC1FFC1FC001C001C001C001C0014D
:1018A000C001C001C001C001C001C001C001FC1FD6
:1018B000FC1F00000000000000000000000000000D
:1018C000000000000000F80FF80F000E000E000EE0
:1018D000000E000E000E000E000E000E000E000E98
:1018E0000407FC03FC0100000000000000000000F1
:1018F000000000000000000000001C781C3C1C1EC2
:101900001C0F1C079C03DC01FC00DC01DC039C07B2
:101910001C0F1C1E1C3C1C781CF800000000000062
:10192000000000000000000000000000000038007F
:1019300038003800380038003800380038003800E7
:1019400038003800380038003800F83FF83F000011
:101950000000000000000000000000000000000087
:1019600000000E381E3C1E3C1E3C363636363636DF
:10197000663266336633C631C631C631063006304C
:101980000630000000000000000000000000000021
:101990000000000000001C301C303C307C307C30EB
:1019A000FC30EC31CC31CC338C370C3F0C3E0C3E50
:1019B0000C3C0C380C380000000000000000000057
:1019C00000000000000000000000E007F00F381CDD
:1019D0001C381C380E700E700E700E700E700E706B
:1019E0001C381C38381CF00FE00700000000000015
:1019F0000000000000000000000000000000F81FD0
:101A0000F83F38783870387038703878383CF81FBC
:101A1000F807380038003800380038003800000077
:101A200000000000000000000000000000000000B6
:101A30000000E007F00F381C1C381C380E700E70C8
:101A40000E700E700E700E701C381C38381CF00FA3
:101A5000E007001E007800F00040000000000000D9
:101A6000000000000000FC07FC0F1C1E1C1C1C1CBE
:101A70001C1C1C0EFC07FC039C071C071C0F1C1ED7
:101A80001C3C1C381C780000000000000000000016
:101A900000000000000000000000E00FF81F3C18EC
:101AA0001C001C003C00F800F007C01F003E00387E
:101AB000003800380C1CFC1FF0070000000000007C
:101AC0000000000000000000000000000000FF7F98
:101AD000FF7FC001C001C001C001C001C001C00141
:101AE000C001C001C001C001C001C001C0010000AF
:101AF00000000000000000000000000000000000E6
:101B000000001C701C701C701C701C701C701C7001
:101B10001C701C701C701C701C703C783838F01FD6
:101B2000E00F0000000000000000000000000000C6
:101B300000000000000007E00E700E701C701C38E2
:101B40003C383838381C701C700CE00EE00EE00792
:101B5000C007C00780030000000000000000000074
:101B60000000000000000000000003C003C007C028
:101B70008661C663C663C663C6634E766C366C36D2
:101B80006C362C3E3C3C3C1C3C1C00000000000021
:101B900000000000000000000000000000001EE047
:101BA0003C707838781CF00EE007C003C003C00713
:101BB000E007600F301E183C1C380E7807F000005C
:101BC0000000000000000000000000000000000015
:101BD000000007E00E701C301C18381C780E7007CF
:101BE000E003E003C001C001C001C001C001C001A9
:101BF000C001000000000000000000000000000024
:101C0000000000000000FC3FFC3F0038001C000EFC
:101C1000000780038001C000E000700038001C0055
:101C20000E00FE3FFE3F000000000000000000002C
:101C30000000C03FC03FC001C001C001C001C001E1
:101C4000C001C001C001C001C001C001C001C0018C
:101C5000C001C001C001C001C001C001C001C03F3E
:101C6000C03F0000000006000C000C001800180027
:101C70003000300060006000C000C00080018001C2
:101C80000003000300060006000C000C00180018FA
:101C900000300030006000000000FC03FC03800303
:101CA000800380038003800380038003800380031C
:101CB000800380038003800380038003800380030C
:101CC000800380038003FC03FC030000000000008D
:101CD0000001000180038003C003C006E006600C21
:101CE000300C3018181818180C300C300660000032
:101CF00000000000000000000000000000000000E4
:101D000000000000000000000000000000000000D3
:101D100000000000000000000000000000000000C3
:101D200000000000000000000000FFFFFFFF0000B7
:101D300000000000C0018003000700000000000058
:101D40000000000000000000000000000000000093
:101D50000000000000000000000000000000000083
:101D60000000000000000000000000000000000073
:101D7000000000000000E007F80F181E001C001C07
:101D8000E01FF01F381C1C1C1C1C1C1C3C1EF87B7C
:101D9000F0780000000000000000000000001C00BF
:101DA0001C001C001C001C001C009C07DC1F7C1C71
:101DB0003C381C381C381C381C381C381C381C1C7F
:101DC0003C1EFC0FCC0700000000000000000000DB
:101DD0000000000000000000000000000000C01F24
:101DE000F03F782038001C001C001C001C001C0068
:101DF0003C003800F820F03FC01F00000000000049
:101E000000000000000000700070007000700070A2
:101E10000070C073F07F787C38701C701C701C7070
:101E20001C701C701C703C78387CF077E0730000EC
:101E300000000000000000000000000000000000A2
:101E4000000000000000C007F00F781C38381C3874
:101E50001C38FC3FFC3F1C001C0038007820F03F81
:101E6000C01F00000000000000000000000000FF94
:101E700080FFC003C001C001C001FC7FFC7FC00126
:101E8000C001C001C001C001C001C001C001C0014A
:101E9000C001C001C00100000000000000000000FF
:101EA0000000000000000000000000000000C073FF
:101EB000F07F787C38701C701C701C701C701C705B
:101EC0001C703C78387CF077E07300700038183C68
:101ED000F81F000700001C001C001C001C001C0058
:101EE0001C001C0FDC1F7C3C3C381C381C381C3888
:101EF0001C381C381C381C381C381C381C38000096
:101F00000000000000000000000080038003800348
:101F1000000000000000FC03FC038003800380033A
:101F20008003800380038003800380038003800399
:101F30008003000000000000000000000000000E10
:101F4000000E000E000000000000F80FF80F000E59
:101F5000000E000E000E000E000E000E000E000E11
:101F6000000E000E000E000E000E0407FC07F80124
:101F70000000380038003800380038003800383C9D
:101F8000381E380E380FB807B803F803B803B8077F
:101F9000380F380E381E383C38780000000000003A
:101FA000000000000000F807F8070007000700071E
:101FB00000070007000700070007000700070007E9
:101FC00000070007000700070007000700070000E0
:101FD0000000000000000000000000000000000001
:101FE000000000000000CE31EE79FE7F9E779E73E8
:101FF0008E738E738E738E738E738E738E738E73D9
:102000008E730000000000000000000000000000CF
:10201000000000000000000000001C0FDC1F7C3CE2
:102020003C381C381C381C381C381C381C381C38F0
:102030001C381C381C3800000000000000000000A4
:102040000000000000000000000000000000E003AD
:10205000F80F3C1E1C1C0E380E380E380E380E3889
:102060000E381C1C3C1EF80FE003000000000000AE
:102070000000000000000000000000000000000060
:1020800000009C07DC1F7C1C3C381C381C381C38AA
:102090001C381C381C381C1C3C1EFC0F9C071C00E8
:1020A0001C001C001C001C000000000000000000C0
:1020B000000000000000E039F83F3C3E1C380E38BC
:1020C0000E380E380E380E380E381E3C1C3EF83BCB
:1020D000F0380038003800380038003800000000C0
:1020E00000000000000000000000703E703FF03172
:1020F000F0307000700070007000700070007000B0
:10210000700070007000000000000000000000007F
:102110000000000000000000000000000000E00FD0
:10212000F01F781038003800F801F007801F003CDD
:1021300000380038183CF81FF007000000000000CD
:102140000000000000000000000000000000E000AF
:10215000E000FC3FFC3FE000E000E000E000E000C9
:10216000E000E000E000E000E001C03F803F000050
:10217000000000000000000000000000000000005F
:102180000000000000001C381C381C381C381C38AB
:102190001C381C381C381C381C381C3C3C3EF83B96
:1021A000F038000000000000000000000000000007
:1021B000000000000000000000001E701C381C38E9
:1021C0003C383818381C701C700CE00EE00EE0062D
:1021D000C007C007800300000000000000000000EE
:1021E000000000000000000000000000000003C02C
:1021F00087C38743C663C66346626E666E266C36C7
:102200002C363C3C3C3C3C1C181C000000000000F0
:1022100000000000000000000000000000000000BE
:1022200000001E303C18780C700EF006E003C0036E
:10223000C003E007700F300E381E1C3C0E78000003
:10224000000000000000000000000000000000008E
:102250000000000000001E701C301C383818381CAC
:10226000781C700EF00EE007E007C003C003C00149
:102270008001C001C000E0007C003C0000000000C4
:1022800000000000000000000000FC3FFC3F0038A0
:10229000001C000E00078003C001E0007000380041
:1022A0001C00FC3FFC3F000000000000000000009C
:1022B0000000001F801FC003C001C001C0018003D7
:1022C000800380038003C001F800F800C001800390
:1022D000800380038003C001C001C001C003801FD0
:1022E000001F00000000800180018001800180014A
:1022F00080018001800180018001800180018001D6
:1023000080018001800180018001800180018001C5
:10231000800180018001000000007C00FC00E001E1
:10232000C001C001C001E000E000E000E000C00129
:10233000800F800FC001E000E000E000E000C0017D
:10234000C001C001E001FC007C00000000000000B2
:10235000000000000000000000000000000000007D
:10236000000000007860FC63C63F061E000000000D
:10237000000000000000000000000000000000005D
:1023800011241FBECFEFD8E0DEBFCDBF21E0A0E01B
:10239000B1E001C01D92A93EB207E1F70E94F93BEE
:1023A0000C94173F0C9400009091A201981303C065
:1023B0008091A50108959091A301891303C0809194
:1023C000A60108958091A701089580E00E94D1237D
:1023D00081E00E94D12382E00E94D1238DE30E94FC
:1023E000E23A80E00E94D52381E00E94D52382E07A
:1023F0000E94D5230895A3E0B0E0E1E0F2E10C945F
:102400006A3E89836A834B83CE0101967C0110E08A
:10241000F70101917F01002351F0812F0E94D12308
:102420000E94E223802F0E94E23A0E94DA231F5F7B
:10243000133071F72396E6E00C94863E87E492E031
:102440000E94C22380E492E00E94EB238EE08093FE
:10245000090183E00E94BE258091A0018F5F8093D7
:10246000A0010895809101018130C9F48CEE91E0C2
:102470000E94C2230E94A023809106010E94D123C2
:102480000E94E2230E94DA23609107017091080103
:1024900080E090E026E54DEF0E94BA240895823056
:1024A00011F40E941E120895CF93C62F0E94E23AA3
:1024B00082EC90E00E94C2238C2F0E94E23A0E949C
:1024C000DA23EBE0F1E0638174818581968124E079
:1024D00042810E94BA24CF910895A0E0B0E0E3E7E2
:1024E000F2E10C94683E80910401813039F4F0905F
:1024F0000B0100E010E0CBE0D1E05BC0833009F0DD
:102500004CC000910E0110910F01209110013091EB
:102510001101609115017091160180911701909140
:102520001801E0900D01409114010E94281881309B
:1025300029F422E1C22E21E0D22E04C09BE0C92E54
:1025400091E0D92EF60103811481258136816091B5
:102550001C0170911D0180911E0190911F01E2806C
:1025600040911B010E942818813021F489E1C82E76
:1025700081E0D82EFBE0CF16F1E0DF0619F4C2E1CE
:10258000D1E002C0CBE0D1E08E01095F1F4FC01641
:10259000D10639F4095F1F4F04C002E111E0CBE01E
:1025A000D1E08881F801F0808F1519F0F1808F114A
:1025B000F9800E943D248881F81201C089810E941F
:1025C000D12382EC90E00E94C2238F2D0E94D12360
:1025D0000115110561F082EC90E00E94C223F80120
:1025E0008081F81202C0F80181810E94D1230E94EB
:1025F0002B240E94A0236B817C818D819E8124E00D
:102600004A810E94BA240115110551F00E94DA2373
:10261000F801638174818581968124E0428112C032
:10262000CE010E940737813079F40E94DA2360914D
:10263000DB017091DC018091DD019091DE0128E4E5
:102640004091DA010E94BA24CDB7DEB7E8E00C94DD
:10265000843EEF920F931F93CF93DF930091480135
:102660001091490120914A0130914B01609156012E
:10267000709157018091580190915901E090470164
:10268000409155010E942818813019F4C3E5D1E02A
:1026900002C0C5E4D1E00B811C812D813E81609197
:1026A0006401709165018091660190916701EA80F3
:1026B000409163010E942818813011F4C1E6D1E0F5
:1026C0000E943D2488810E94D1238FEC90E00E94DB
:1026D000C22389810E94D1230E942B240E94A0231F
:1026E0006B817C818D819E8126E44A810E94BA247F
:1026F000CE010E94B2298C010F3F8FEF180749F0DD
:102700000E94DA23B80180E090E024E04EEF0E94BE
:10271000BA248B859C85892B61F086EE90E00E941F
:10272000F6236B857C8580E090E021E44D850E9456
:10273000BA24DF91CF911F910F91EF900895EF92FE
:102740000F931F93CF93DF93EC016091B3017091CE
:10275000B4018091B5019091B60127EFE22E02E31A
:1027600010E020E030E04091B7010E94281887FD7A
:1027700010C0CE010E94F6236091B3017091B401A4
:102780008091B5019091B60121E44091B7010E947A
:10279000BA24DF91CF911F910F91EF90089540E0FF
:1027A000FC01608181810E949A2DE5E4F1E0638162
:1027B00074818581968126E442810E94BA2408951D
:1027C000CF93C62F0E94D52381E00E94E23A8C2F3E
:1027D0000E94D523CF910895A0E0B0E0E2EFF3E1AD
:1027E0000C94673E0E943D2480910501813051F494
:1027F000E0907001E5E0DE2EF5E0FF2E85E000E0E0
:1028000010E01FC18230F1F4F0906F01D09075019B
:10281000C0907001E0907601FD1006C0DE2C75E0DE
:10282000E72EBB24B3945AC0CE1409F407C1FE109E
:10283000FFC0DC10FDC0EF2C35E0D32E45E0C42EE8
:10284000B12C4CC0833009F03FC080E066E0282FF7
:1028500030E090E0629FF001639FF00D1124E05999
:10286000FE4F492F50E0981769F0649FD001659F93
:10287000B00D1124A159BE4FC0817C91C71302C075
:1028800095E085E09F5F933060F38F5F8330F8F2CF
:10289000853048F086E0849F8001859F100D1124CB
:1028A00001591E4F02C000E010E086E0829FE00167
:1028B000839FD00D1124C159DE4FE98055E0D52EFC
:1028C00065E0F62E83E0BFC08BEC90E00E94E6232B
:1028D00080910501805D0E94E23ABCC082E08F15C4
:1028E00090F0809170010E94D12387EC90E00E94CB
:1028F000C2238F2D0E94D123CFE6D1E005E711E05E
:10290000EF1017C01BC005E711E0CFE6D1E08881CA
:102910000E94D1238BEC90E00E94C2238E2D0E9456
:10292000D1230115110599F0FE1441F0F3E0FF15D4
:1029300028F0F801E1808BEC90E004C0F801E08021
:1029400087EC90E00E94C2238E2D0E94D1230E942A
:102950002B24F4E0FC15F8F049E16D2D8C2D0E943C
:1029600070298130C1F40E94DA2382E08F1518F0BB
:102970008FE491E002C083E591E00E94C2238FE3DF
:102980000E94E23A0E94A02361E36D0D81E38C0D69
:102990000E945412B12C8AE391E00E94F6236A81CE
:1029A0007B8180E090E026E54DEF0E94BA240E94F2
:1029B000DA230115110529F58C819D818A3F910546
:1029C00060F488E20E94E23A6C817D8180E090E0D0
:1029D0000E944F2589E20E94E23A688189810E9423
:1029E000E42081E00E94712E80E391E00E949F1319
:1029F000E1E0BE122FC088E391E00E94F623CE01F1
:102A000027C0F8016281738180E090E026E54DEFF8
:102A10000E94BA24F1E0BF121DC088E391E00E9439
:102A2000F623CE010E94CF130E94DA23C80110C002
:102A300085E0D82E95E0F92E25E0E22E85E005E729
:102A400011E0CFE6D1E0CF2CF82EBB24B3945FCFBA
:102A50000E94CF13CDB7DEB7E9E00C94833E8F928E
:102A60009F92AF92BF92EF92FF920F931F93CF93DB
:102A7000DF93809101019091A201C091A401D091B6
:102A8000A30180FF09C0192F0D2F7801DC2F93E5DA
:102A9000A92E91E0B92E08C01C2FC92F7E01012F4D
:102AA0008FE4A82E81E0B82E60EE7FEF83ED91E0F9
:102AB0000E94262460EE7FEFC5010E9413248091BE
:102AC000010182FF03C08BE20E94E23A0E94A02330
:102AD0000E94E511602F8D2F0E94D42E892B31F09A
:102AE0000E94DA23602F8D2F0E94E01349E1612FAD
:102AF0008C2F0E947029813049F40E94A02365E444
:102B000082E40E94541284E080932A018BE491E0D5
:102B10000E94F6236091AF017091B0018091B101E4
:102B20009091B2010E944F250E94DA238091A80162
:102B300080FF02C085E603C081FF03C083E60E94D8
:102B4000E23A6C2F812F0E94D42E8C01892BA1F1A7
:102B500087E491E00E94F623F801C281D3812481A9
:102B600035818090AF019090B001A090B101B090FC
:102B7000B201F4E68F169104A104B10498F0CE01DD
:102B8000821B930B63E070E00E94E23D8AEF88169F
:102B90009104A104B10418F4C61BD70B03C0EB01C8
:102BA000C20FD31FCE01A0E0B0E026E54DEFBC017F
:102BB000CD010E94BA2402C0C0E0D0E08DE391E0D4
:102BC0000E949F13C53FD140E0F06E2D8F2D0E94D3
:102BD000D42EEC01892BA9F08A819B81823C914003
:102BE00080F40E94A0236E2D8F2D0E94E0130E947E
:102BF000DA236A817B8180E090E026E54DEF0E9438
:102C0000BA24DF91CF911F910F91FF90EF90BF9069
:102C1000AF909F908F9008950F931F93CF93DF9362
:102C2000909101018091A401C091A30190FF02C085
:102C3000D82F02C0DC2FC82F6C2F8D2F0E94D42ECE
:102C40008C01892B31F00E94DA236C2F8D2F0E948A
:102C5000E0138091010182FF3BC08091AB01909114
:102C6000AC01892B81F084E391E00E94F62360910E
:102C7000AB017091AC01072E000C880B990B26E577
:102C80004DEF0E94542587E591E00E94F623609164
:102C9000B8017091B9018091BA019091BB0126E40D
:102CA0004091BC010E94BA248091A9019091AA018F
:102CB000892B71F082EE90E00E94F6236091A901C9
:102CC0007091AA0180E090E024E04EEF0E94BA24C7
:102CD00001151105A1F00E94A02381E00E94E23AB3
:102CE0000E94DA238AE391E00E94E623F8016281E0
:102CF000738180E090E026E54DEF0E94BA24DF91D9
:102D0000CF911F910F9108950E94DA2380910101C4
:102D100080FF02C08EE401C080E50E94E23A8AE6AC
:102D200091E00E94C22308950E94DA23809101015C
:102D300082FF03C085E691E002C080E691E00E9438
:102D4000C22308950E943D248091010184FF05C0A3
:102D500082E791E00E94C22303C08AE40E94E23A23
:102D60008EE691E00E94C2230E94841680910101A8
:102D700084FD0E9494160E942B240E94A0230E948E
:102D8000E5110E940C168091010183FF1EC08AEE9E
:102D900090E00E949F138091AD019091AE01892B2C
:102DA000A1F088ED90E00E94F6230E94A0230E94EB
:102DB000DA236091AD017091AE01072E000C880BF3
:102DC000990B26E54DEF0E94542508950E943D245D
:102DD0008BE591E00E94C2230E9484160E94941603
:102DE0000E942B240E94A0230E94E5110E940C1631
:102DF00008958091000160EE7FEF823219F48FEC2C
:102E000091E002C089EC91E00E9413240E94A0236B
:102E10000E94E5118091A9019091AA01892B71F07E
:102E200082E491E00E94F6236091A9017091AA01C9
:102E300080E090E026E54DEF0E94BA240895CF93FC
:102E4000DF9360EE7FEF85EC91E00E9413240E94F7
:102E5000A0230E94E5118DE291E00E94F623C2E3D7
:102E6000D1E06D817E8180E090E026E54DEF0E940B
:102E7000BA248AE391E00E94F6236B817C8180E092
:102E800090E026E54DEF0E94BA24DF91CF9108959E
:102E900060EE7FEF84EA91E00E9413240E94A02359
:102EA0000E94E51183ED90E00E94F623EBE0F1E053
:102EB000638174818581968124E042810E94BA24D5
:102EC0000895CF93DF938EE00E941320C3E9D1E0F1
:102ED0009F838E8388EC8B838EE00E941320209149
:102EE000D601820F911D27FD9A959F838E8389E1DC
:102EF0008B83DF91CF9108950E94173A8FEF97E06F
:102F0000909327018093260180EC91E00E94C223D8
:102F1000F8940FB6F894A89580916000886180932A
:102F20006000109260000FBE80E48BB983B7817F90
:102F3000846083BF83B7816083BF889583B78E7FAA
:102F400083BF089584EB91E00E94E62380919D0168
:102F500090919E016AE070E00E94CE3D80E090E09A
:102F600026E54EEF0E94BA240E94DA2380919D014B
:102F700090919E01811529E1920748F480E098EF35
:102F8000909327018093260188EA91E014C0883E3F
:102F90009C4148F480EE9FEF909327018093260197
:102FA0008CEA91E008C080EE97E09093270180932F
:102FB000260181EB91E00E94C22380EE97E090937E
:102FC000270180932601089585E00E9413209C012B
:102FD000AEEBBFE00E943D3E28EE33E040E050E023
:102FE0000E94F63D2E5D3E4F30939E0120939D0141
:102FF00084E680939F012115394150F40E94173ACD
:103000000E94A21788EB9BE00E94AC1B0E947C17D9
:103010000895CF92DF92EF92FF92CF93C1E02AE022
:10302000C22ED12CE12CF12C6A307105810591055D
:1030300040F0A70196010E94F63DCA01B901CF5F99
:10304000F3CF8C2FCF91FF90EF90DF90CF9008952A
:10305000A0E0B0E0EEE2F8E10C945F3E4B015C01D1
:10306000342E280139011E2D9B01AC01D1E09AE0DC
:10307000C92ED12CE12CF12C2A3031054105510506
:1030800040F0CA01B901A70196010E94F63DDF5F39
:10309000F3CFA3019201C1E08AE0C82ED12CE12C2C
:1030A000F12C2A3031054105510540F0CA01B90122
:1030B000A70196010E94F63DCF5FF3CF81149104E2
:1030C000A104B10459F1411451046104710409F1DE
:1030D000432D4D0FE12EEC0EE4164CF14E1129C09C
:1030E000ED2FCD1754F4AAE0B0E0A30192010E94A5
:1030F000533E2B013C01CF5FF4CFEC1754F4AAE010
:10310000B0E0A50194010E94533E4B015C01EF5FCA
:10311000F4CF481459046A047B0448F081E0841415
:103120009504A604B70408F080E0819503C081E00F
:1031300001C08FEFCDB7DEB7E1E10C947B3ECF92BB
:10314000DF92EF92FF92CF93DF93C42FD22F2AE02A
:10315000C22ED12CE12CF12CCD1791F0CD1744F4D7
:10316000A70196010E94F63DCA01B901CF5FF4CFD5
:10317000AAE0B0E09B01AC010E94533EC150ECCFED
:10318000DF91CF91FF90EF90DF90CF9008951F9344
:10319000CF93DF931AB18AB18E7D8AB90E94E63B44
:1031A000C0E0D0E089B18095982F917269F080FDE0
:1031B000DF5F85FDCF5F8D2F8C0F8A3038F48EE175
:1031C00090E00E94AC1BEECF90E001C092E0DD23C6
:1031D000A9F0C1111DC084E020912F01281308C05F
:1031E000923031F490913101973018F49F5F01C013
:1031F00091E0909331019093300103C0C11106C05A
:1032000080E01AB9DF91CF911F91089585E0E4CF56
:1032100086E0E2CFA0E0B0E0E0E1F9E10C94643EAA
:103220006C01062F81E0809330018091940185FF2D
:1032300004C098E7E92EF12C02C0E12CF12C02FF2A
:1032400008C08091930180FD02C00C7F02C0C12C98
:10325000D12C802F8370B82E19F081E00E94543B4E
:10326000C0E0D1E010E084E1A82E802F8270982E7B
:10327000802F8071882E0870C114D10449F086E037
:10328000C816D10420F085E0C81AD10801C0D0E0EA
:103290004F9935C08EE190E00E94AC1BC0E0DD2369
:1032A00011F04F9B04C0CB3108F05DC008C0CF5F68
:1032B000CB31C8F78AE090E00E94AC1BF0CF00232E
:1032C00009F454C082E390E00E94AC1BC4E111E019
:1032D0004F990CC08EE190E00E94AC1B4F9906C044
:1032E00088EC90E00E94AC1BC1E013E0C1508AE082
:1032F00090E00E94AC1BC111EBCFD0E03FC00E9418
:10330000C718811148C085E090E00E94AC1BCF5FD8
:103310008C2F6A2D0E94B43D91110BC080919F01AA
:10332000823020F0815080939F0103C081100E9461
:10333000E417C43619F5992059F0D13029F480E00A
:103340000E94543BD2E004C081E00E94543BD1E093
:10335000E114F10471F081E0E816F10461F081E01C
:10336000E81AF10806C0D0E012E008C0D0E011E091
:1033700005C0C0E003C0C0E0D0E017E68091940132
:1033800080FF06C0809194018E7F8093940104C0D9
:10339000D11172CF01C0182FBB2019F080E00E941C
:1033A000543B10932F01173611F40E947C17812F84
:1033B000CDB7DEB7ECE00C94803E65E188EB9BE096
:1033C0000E940A1908950F931F93CF93DF93D82F6C
:1033D000882321F004E012E0C3E003C00BE012E018
:1033E000C0E00E942D21C817E9F00E94173AC801D9
:1033F0000E94C22385EF91E00E94EB230E942D21C1
:10340000C81305C088EC90E00E94AC1B0BC060E1C3
:1034100084E690E00E940A19D13081F7882371F385
:1034200080E001C081E0DF91CF911F910F9108955D
:10343000681310C080EE9FEF9093270180932601C0
:103440008AE20E94E23A80EE97E09093270180930F
:10345000260108950E94DA230895A0E0B0E0E3E396
:10346000FAE10C94613E762E642E552E59010FEF31
:10347000080F90902401DD24DA94D90C0E943D2499
:103480000E94E2230E942B2412E0D0E0C0E09A9434
:103490009A9481E0882E8D1881E0D81202C01F5FB7
:1034A000DC2FE62CF52CED0EF11CED0EF11CC12CE1
:1034B000CD1488F562E06C0D81E00E948439E1E072
:1034C000DE1629F06C2F8D2F8C0D0E94181A1130EA
:1034D000D1F0F1E07F1206C0F701808191810E9456
:1034E000C22308C0C7010E94F93EBC0180E090E001
:1034F0000E944F25A114B10419F0C5010E94C223F6
:1035000080E00E94AF39F2E0EF0EF11CC3940C157D
:1035100078F6CD2CCDCF81E0D81209C0609124017E
:10352000809123010E9484398CE30E94E23A60E199
:1035300080E090E00E940A19813091F18430D1F04E
:10354000853089F4C11106C00D1538F1D82DD00F82
:10355000C02F07C0C150DC1321C0CD2FDD23F1F0F7
:10356000D15012E099CF8230D9F08736B9F40E9459
:103570007C1714C00C1304C00D1558F012E00AC0DB
:10358000CF5F892D8D0FC81309C0C01738F4DF5FD6
:10359000E8CF11E0D0E0C0E07FCFC02F11E07CCFBA
:1035A0000E94173A84EF91E00E94AC1B8C2FCDB79C
:1035B000DEB7EFE00C947D3EA9E0B0E0E2EEFAE188
:1035C0000C946D3E182F82EF90E09A83898381E0FE
:1035D0008F838FEE90E09C838B8382E0888780EEE0
:1035E00091E09E838D8319860E94173A60EE7FEFEB
:1035F000123019F483E292E002C08EE192E00E9460
:10360000132420E030E0AE014F5F5F4F61E083E0C4
:103610000E942D1AFE01E80FF11D6781662319F043
:10362000812F0E943D1C2996E3E00C94893EA5E180
:10363000B0E0EDE1FBE10C946E3E88E991E09A8305
:10364000898383E18F8788EB91E09C838B8381E082
:10365000888B88E292E09E838D8382E0898B83E26F
:1036600092E098878F8383E08A8B8EE192E09A873D
:10367000898784E08B8B82E192E09C878B8785E051
:103680008C8B80EE91E09E878D871D8A0E94173A71
:1036900060EE7FEF83E392E00E94132420E030E0AD
:1036A000AE014F5F5F4F61E087E00E942D1AFE017F
:1036B000E80FF11D87856596E2E00C948A3ECF9372
:1036C0000E94171B2091930190E020FF2EC02091B3
:1036D00094012F7D2093940184319105F8F4FC012D
:1036E000EC5CFF4F0C94373E0E94F31E02C00E9418
:1036F000E01CC82F0EC082E001C081E00E94DC1AED
:1037000005C00E94741C02C00E943838C1E001C08C
:10371000C9E68091930180FD02C00BC0C1E0809199
:10372000940180628093940104C08431910578F003
:10373000C1E00E94173AC11103C085EE91E002C0BA
:103740008AE392E00E94C2238C2FCF910895FC015E
:10375000E85BFF4F0C94373E0F931F934091950108
:103760009C01A4E1B0E00E943D3E4630D1F4072F19
:10377000182F292F33270F5F1F4F2F4F3F4F54E034
:10378000000F111F221F331F5A95D1F70617170775
:103790002807390728F4601B710B820B930B01C0BB
:1037A00040E01092B1001092B20022E02093B000ED
:1037B0002093700023B7217F422B43BF0FB607FC35
:1037C00003C0789430E001C031E047E06115710535
:1037D00081059105F9F0A8956F3F71058105910567
:1037E00009F010F4262F01C02FEF621B7109810927
:1037F000910921502093B3004093B1002091B10072
:10380000222321F323B7216023BF889523B72E7F7E
:1038100023BFF4CF311101C0F8941F910F91089587
:103820001F920F920FB60F9211241092B1000F90B9
:103830000FBE0F901F901895EFECF1E088EC90E030
:10384000918380838CED90E09383828384E190E088
:10385000958384838BE28683178210861186089570
:10386000EFECF1E080E09191890F91E0E93DF907FB
:10387000D1F7811101C081E008951F93CF93DF93A9
:10388000182F623019F0C3E8D2E002C0C8E7D2E0D6
:103890000E94301C8093D9014BE050E0BE018FECB8
:1038A00091E0123019F40E94FF3E1AC00E94E13EDE
:1038B0000E94301C9091D901992391F0891781F0D1
:1038C0000E94173A87ED91E00E94C22385EE91E0B5
:1038D0000E94EB2380ED97E00E94AC1B0E941C1C11
:1038E000DF91CF911F9108950F931F93CF93DF9393
:1038F00081E0809320010E94173A8CE191E00E94C0
:10390000E623CFECD1E06881798180E090E024E08B
:103910004FEF0E94BA2488E191E00E94F6236A8169
:103920007B8180E090E024E04FEF0E94BA2482E0A7
:1039300091E00E94F6236E8170E080E090E026E442
:1039400044EF0E94BA248FEF90E00E94F6236C812E
:103950007D8180E090E024E04EEF0E94BA2488E26E
:1039600091E00E94F62303E911E0F8016681778176
:1039700080E090E026E54DEF0E94BA248BEF90E0C6
:103980000E94F623F8016085718580E090E026E5CD
:103990004DEF0E94BA2485EF90E00E94F6236885DF
:1039A000062E000C770B880B990B26E54DEF0E9435
:1039B00054250E94DD19DF91CF911F910F91089539
:1039C000A5E0B0E0E6EEFCE10C945E3E81E00E94F2
:1039D000E319612C712C1B82A12CB12C1A82C12CF1
:1039E000D12C412C882309F478C1812C912C212CD5
:1039F000E12CF12C00E010E01D821C8262E0562ECA
:103A00003324339421E029830E94173A0E943D24F5
:103A100081E40E94E23A80E3850D0E94E23A0E942E
:103A20002B240E94DA2334E0531609F44EC03515D6
:103A300068F082E0581699F093E0591205C180E0D1
:103A40000E94E31980E094E69983FFC025E05216B6
:103A500009F464C036E0531609F49FC0F5C08FEF37
:103A600090E00E94E62385E091E00E94C22360E09E
:103A700081E00E94E42080E00E9437269D838C83B1
:103A80008639910518F4C80ED91E439460E082E08F
:103A90000E94E42080E00E9437268C01863991053F
:103AA00018F4C80ED91E439461E082E00E94E4201D
:103AB00080E00E9437267C0186E9E816F10408F0D0
:103AC000C3C0CE0CDF1C4394BFC08CE191E00E94C8
:103AD000C22318B837B835B834B880E00E947420D3
:103AE0009D838C8322E027B955B854B881E00E94A9
:103AF00074208C018C819D81800F911FA80EB91EAE
:103B000057B830E135B934B982E00E9474207C01A5
:103B1000A80EB91E8A818D5F8A8396C088E191E0E4
:103B20000E94C22315B838B837B834B820919B0129
:103B300030919C013D832C8380E00E9474202C8175
:103B40003D81281B390B3D832C8332E038B937B9CE
:103B500084E084B900919B0110919C0181E00E9456
:103B60007420081B190B8C819D81800F911F680E9A
:103B7000791E94E098B997B920E124B9E0909B01AF
:103B8000F0909C0182E00E947420E81AF90A6E0C01
:103B90007F1C3B813D5F3B8357C082E091E00E94E8
:103BA000E62385E091E00E94C22340E060E081E0EE
:103BB0000E949A2D80914701843F91F480914C019D
:103BC00090914D01A0914E01B0914F018536910524
:103BD000A105B10528F49D838C83880E991E23943A
:103BE00041E060E082E00E949A2D80915501843F7F
:103BF00089F480915A0190915B01A0915C01B09190
:103C00005D0185369105A105B10520F48C01880E72
:103C1000991E239442E061E082E00E949A2D8091F7
:103C20006301843F89F48091680190916901A091BA
:103C30006A01B0916B0185369105A105B10520F4AB
:103C40007C01880E991E239481E017B818B814B827
:103C500015B88823B9F00E94A0232C813D81B901B9
:103C600080E090E00E944F250E94DA23B80180E0B6
:103C700090E00E944F250E94DA23B70180E090E097
:103C80000E944F253981343681F060E188EE93E05F
:103C90000E940A19882349F0823029F454E6552EEF
:103CA00084E6898302C094E6998329812F5F298362
:103CB000263008F4A9CE539436E0351508F0A2CE8C
:103CC0008FE028120AC0C4016FE070E00E94CE3D70
:103CD0006093D50191E0998301C019822FE04212CF
:103CE0000CC0C6016FE070E00E94CE3D7093D4011D
:103CF0006093D30139813F5F39833A813F3009F0C6
:103D000069C08B818F3009F062C0E5E0F0E0C50149
:103D1000BF010E94CE3D9B01C301BF010E94CE3D69
:103D20008B0180919B0190919C016C01CC0CDD1C5E
:103D3000C80ED91EC21AD30AC61AD70AE12CF12C12
:103D4000D90120EA39E041E050E00E94533EA7014A
:103D500096010E94F63DCA01B9016B5F7F4F8F4FFC
:103D60009F4F2AE030E040E050E00E94F63D2A3FBD
:103D700031054105510538F43093D0012093CF012E
:103D800099819F5F9983D80120EA39E041E050E0B2
:103D90000E94533EA70196010E94F63DCA01B90157
:103DA0006B5F7F4F8F4F9F4F2AE030E040E050E045
:103DB0000E94F63D283181E038074105510538F46D
:103DC0003093D2012093D10199819F5F99832981FA
:103DD000243011F080E003C00E94741C81E025961D
:103DE000E2E10C947A3EA0E0B0E0E9EFFEE10C9451
:103DF0005E3E81E00E94E319882309F40EC1C12CC4
:103E0000D12CE12CF12C00E010E0C1E092E0292E51
:103E100028E0322E3AE7432E35E0532E612C712CE8
:103E2000D1E00E94173A0E943D2484E50E94E23AC4
:103E300080E38C0F0E94E23A0E942B240E94DA2336
:103E4000C33009F46BC0C8F5C13009F451C0C230A9
:103E500009F0A8C083E191E00E94E62385E091E0AB
:103E60000E94C22320919B0130919C01ACEBB2E0F7
:103E70000E943D3EA30192010E94183E49015A0151
:103E800081E085B985E084B982E00E947D206C01E3
:103E9000C818D90881E184B981E00E947D207C01A5
:103EA000E818F90884E085B984E184B980E00E94CB
:103EB0007D208C010819190975C0C53009F45DC051
:103EC00008F455C0C63009F06DC080E291E00E9450
:103ED000C22325B824B880E00E947D208C0135B82B
:103EE00034B881E00E947D207C0180E285B955C014
:103EF0008EE00E9413208EE00E9413205C0188E275
:103F000091E00E94C2230E94A023B50180E090E0CE
:103F100026E54DEF0E94BA2480E045C08EE091E096
:103F20000E94E62385E091E00E94C22300919B015C
:103F300010919C011695079525B88AE084B982E016
:103F40000E947D206C01C01AD10A82E284B981E00E
:103F50000E947D207C01E01AF10A35B888E284B91C
:103F600080E00E947D20801B910B8C011BC080E0B3
:103F70000E94E31980E0D4E616C084E291E00E943A
:103F8000C22315B824B880E00E947D208C0134B88B
:103F900081E00E947D207C0180E284B982E00E9461
:103FA0007D206C0181E014B815B8882309F10E94C6
:103FB000A02320E040E0B801012E000C880B990BF3
:103FC0000E9493240E94DA2320E040E0B7010F2CE6
:103FD000000C880B990B0E9493240E94DA2320E0A6
:103FE00040E0B6010D2C000C880B990B0E94932425
:103FF000D43659F060E188EE93E00E940A198823D4
:1040000021F0823009F4C4E6D4E6DF5FD63008F44C
:1040100008CFCF5FC73008F403CF81E0CDB7DEB75C
:10402000E2E10C947A3ECF93DF938F70C82FC06487
:10403000C0937C00DC2FD07C80919801D81721F0B0
:104040000E94EA3BD093980180917A00806480932B
:104050007A0080917A0086FDFCCF20E030E0A90153
:1040600080E0E09196018E1708F590917A009064B7
:1040700090937A0090917A0096FDFCCF6091780041
:1040800070917900260F371F411D511D843061F456
:10409000211594E0390740F4D03C31F0909197011C
:1040A000913011F4C06CC4CF8F5FDBCFD03C29F4CA
:1040B000A0919901B0919A0104C0A0919B01B09187
:1040C0009C010E94533E2AE09695879577956795C7
:1040D0002A95D1F72E2F30E040E050E00E94F63DC7
:1040E000C901DF91CF910895CF93C82F0E94E13B82
:1040F0008C2F0E941320CF910895CF93C82F0E9438
:10410000DF3B8C2F0E941320CF910895A0E0B0E0F8
:10411000ECE8F0E20C94683EE62E042FCDEBD1E003
:10412000888369834A83C82ED12CC601875F9F4F3D
:104130000E94F13E8E83F12CC701875F9F4F0E9442
:10414000F13E8F8310E0C801875F9F4F0E94F13ED0
:104150008887C6018A5F9F4F0E94F13E8987C70109
:104160008A5F9F4F0E94F13E8A87C8018A5F9F4FF6
:104170000E94F13E8B87C6018D5F9F4F0E94F13EEA
:104180008C87C7018D5F9F4F0E94F13E8D87C801CC
:104190008D5F9F4F0E94F13E8E87C60180509040F8
:1041A0000E94F13E8F87C701805090400E94F13EEF
:1041B000888BC801805090400E94F13E898BCDB71A
:1041C000DEB7E8E00C94843E43E0481B461B0E94A7
:1041D00086200895EDEBF1E04581648183810E94A2
:1041E00086200895EDEBF1E08081838381818483D3
:1041F000828185830895CF93DF930E94E42017B8CE
:104200009091C30195B98091C401892B84B98091A3
:10421000CC010E947420EC018091CD010E941320FA
:10422000AC0120919B0130919C0136952795C901E5
:104230004E978C179D0760F4225E3F4FC217D3073D
:1042400038F48417950720F481E04217530708F0EB
:1042500080E014B8DF91CF910895CF9361E080E0C2
:104260000E94FB20C82F62E080E00E94FB20C80F64
:1042700062E081E00E94FB208C0FCF9108950F93A4
:104280001F93CF93DF93D82FC62F17B818B814B841
:1042900015B80E94E4208091C90187B98091CD01B1
:1042A0000E9413208C018091CA0187B98091CC01B2
:1042B0000E9413200817190720F46D2F8C2F0E94DD
:1042C000E4208091C90187B98091C40184B9C2E317
:1042D0008091CD010E9413209C01203981E0380794
:1042E00038F0C15069F084E690E00E94AC1BF0CF3A
:1042F00087B19091CA01982B97B92832310588F778
:1043000017B814B8DF91CF911F910F910895A6E0CF
:10431000B0E0EDE8F1E20C94643E17B818B815B8B7
:104320008FE384B980E00E9413209A83898381E01F
:104330000E9413209C838B8382E00E9413209E8323
:104340008D83E12C02E018E2FF24F394AA24A394C5
:10435000B12C0F5F033009F400E0C02ED12C8E2D5C
:1043600090E0002E02C0959587950A94E2F780FDB3
:10437000F0CFC601805090400E94F13E982E0E94DE
:104380001320F601EE0FFF1F21E030E02C0F3D1F40
:10439000E20FF31F208131818217930768F4918324
:1043A0008083212F30E02F1931092431310564F445
:1043B0001B3E50F41C5E08C08A30910518F4183278
:1043C00009F410E5F39402C0FF24F39483309105BF
:1043D00040F4C5010C2C01C0880F0A94EAF7E82AC2
:1043E0000BC08032934040F487B0C6018D5F9F4F71
:1043F0000E94F13E882987B987E0E81681F11F15F0
:1044000040F581E080930001809301010093060153
:10441000C6018D5F9F4F0E94F13E97B18095982312
:1044200097B9C6018A5F9F4F0E94F13E182FC601BF
:10443000875F9F4F0E94F13E94B1812B8095892325
:1044400084B9892D0E94132090930801809307015D
:1044500006C0A89582E390E00E94AC1B7ACF14B806
:1044600017B82696ECE00C94803ECF93C82FC095E9
:1044700095B160FF02C0982B01C09C2395B994B1FF
:10448000892B84B963FF03C00E94E53B02C00E94F0
:10449000E03B84B18C2384B985B1C823C5B9CF91E1
:1044A0000895A0E0B0E0E7E5F2E20C94693E6130E7
:1044B00039F0623071F06330A9F080E090E04DC0D7
:1044C000CCE4D0E0E7E0F0E002E310E028EE33E0F7
:1044D00011C0CEE5D0E0ECE2F0E009E110E02CE222
:1044E00031E008C0CCE0D0E0EEE1F0E009E110E01E
:1044F00028EC30E08217930768F1821B930BB80118
:104500000E94CE3DD02ED81ACB019927E817F90783
:1045100008F46E2FC60FD11DC60FD11DCE010E940B
:10452000F93E7C01CE0102960E94F93EFC01E81A98
:10453000F90ADE9C9001DF9C300D1124C80196958C
:104540008795820F931FB8010E94CE3DCF01860F41
:10455000971F03C0D02E60E0DDCFCDB7DEB7E7E018
:104560000C94853ECF93DF9390910001913009F434
:10457000C3C0A8950E94862015B88091C40184B953
:104580008091C90187B988B960E18091C5010E9415
:1045900035228091CD010E947420EC019091C401DC
:1045A0008091C501892B84B98091CD010E9474202E
:1045B0002091C40124B98C179D0720F48530910502
:1045C00008F498C0C13D23E0D20700F161E1809179
:1045D000C5010E9435228091CD010E947420EC011A
:1045E0008091C50185B99091C401892B84B98091CE
:1045F000CD010E94742015B82091C40124B98C17F4
:104600009D0720F48530910508F474C0C031D105B0
:1046100060F080910201811103C0CE010E94DB3263
:10462000C13D83E0D80708F048C0809102018111A4
:104630001BC08091C40184B915B88091C90187B9A4
:1046400088B90E94E13B9091C4018091C501892BFA
:1046500084B98091CD010E9474208F359D4020F057
:10466000BE0182E00E9424318091020181112DC09F
:104670008091CA0187B918B89091C3018091C50192
:10468000892B84B985B98091CC010E947420803433
:10469000964060F40E94A334811108C0809100010B
:1046A000813221F0BE0181E00E942431809102011B
:1046B00081110BC00E94953508C0809102018111C3
:1046C00002C00E9444350E94E72E80910001882399
:1046D00011F08A3019F40E94032707C08F3129F4A2
:1046E0008091010184FD0E94E62F17B818B814B814
:1046F00015B802C0EC0199CFDF91CF910895809158
:1047000003018823E1F09091020190FD18C091FD12
:1047100004C0909100019E3190F48093000180913B
:1047200032018093A201809133018093A301809193
:1047300034018093A40180910A01809309010895B6
:10474000CF936091220180912401681315C0C0911C
:104750002001C0FD0E94DD19C1FF0BC0C0912401E2
:10476000C23028F08C2F0E94AF39C150F9CF62E0DF
:1047700004C00E94173A04C06F5F81E00E94843930
:10478000CF910895CF93DF93EC01CE010E94F13ECB
:10479000882321F00E94E23A2196F7CFDF91CF9152
:1047A00008958F5C0E94E23A08950E94D4110E94FD
:1047B000E23A089580E20E94E23A08958DE20E9472
:1047C000E23A08958AE30E94E23A08950E94C223E1
:1047D0000E94DA230895CF93DF93EC010E94A02377
:1047E000CE010E94C223DF91CF910895CF93DF9332
:1047F000EC010E94A023CE010E94C2230E94DA2372
:10480000DF91CF91089582E00E94AF3962E081E0AC
:104810000E948439089583E00E94AF3963E081E00B
:104820000E94843908950F931F93CF93DF93C0E2C2
:10483000D1E00E811F817F836E830E94C2231F837C
:104840000E83DF91CF911F910F9108950E94132441
:104850000E94DA230895E0E2F1E080859185978354
:1048600086830895E0E2F1E08681978191878087D1
:1048700080EE9FEF9783868308950E9432240895E7
:10488000A0E0B0E0E6E4F4E20C94683E6B017C0149
:10489000D42F022F0E9432242AE049E351E0C701BD
:1048A000B6010E94953EE9E3F1E001900020E9F7AE
:1048B0003197CF0189539140F82EDD2369F08D1790
:1048C00028F0C82FCD1BD0E041F401C0D81B80E3F5
:1048D0000E94E23AC0E001C0C4E689E3C82E81E04C
:1048E000D82E10E01F1598F41C130AC08CE20E9409
:1048F000E23ADD2329F080E30E94E23AD150F9CF79
:10490000F60181916F010E94E23A1F5FEBCF0E9496
:104910002B24002319F0802F0E94E23ACDB7DEB796
:10492000E8E00C94843ECF92DF92EF92FF92CF9317
:10493000DF936B017C01C42FD22F97FF0EC00E9422
:1049400032240E94DE230E942B24F094E094D09421
:10495000C094C11CD11CE11CF11C2D2F4C2FC70190
:10496000B6010E944024DF91CF91FF90EF90DF903D
:10497000CF900895A0E0B0E0E0ECF4E20C94643E47
:104980006B017C01C42F122F9AE0892E912CA12C4F
:10499000B12C30E1C31637E2D306E104F10470F024
:1049A000C701B6016B5F7F4F8F4F9F4FA5019401E9
:1049B0000E94F63D69017A01CF5FEBCFC13FF4F071
:1049C0008FE08C0F63E00E94C03D282FD92F9111FA
:1049D00007C0E8EECE16E3E0DE06E104F10420F0C5
:1049E00021E0280FD3E0D91B283048F4822F90E033
:1049F00086549F4F0E94F13E082F02C0D0E000E095
:104A00000E9432244AE069E371E0C6010E94B73E89
:104A1000E9E3F1E001900020E9F73197E953F14033
:104A2000BE2ECE2FCD1B1C165CF080E30E94E23A16
:104A30008CE20E94E23ACC2319F080E30E94E23A31
:104A4000D11101C0CFEFC15089E3C82E81E0D82E2B
:104A5000E12CF12C0C2E000CDD0BEB1478F4F6019C
:104A600081916F010E94E23ACE15DF0519F48CE2C4
:104A70000E94E23AFFEFEF1AFF0AEFCF0E942B24C9
:104A8000002319F0802F0E94E23A112319F0812FA0
:104A90000E94E23ACDB7DEB7ECE00C94803E20E015
:104AA00040E00E94BA240895CF92DF92EF92FF92E5
:104AB000CF93DF936B017C01C42FD22F97FF0EC0E1
:104AC0000E9432240E94DE230E942B24F094E09462
:104AD000D094C094C11CD11CE11CF11C2D2F4C2F73
:104AE000C701B6010E94BA24DF91CF91FF90EF90E9
:104AF000DF90CF900895CF93C82F80910901982F10
:104B0000990F890FE62FF0E0E80FF11DEA53FF4FF0
:104B1000E491EE2389F120912D018FEF820F6091B6
:104B20002E01E4FF04C090912C019695690F3E2F51
:104B30003270E1FF0BC090912B01E5FF04C0892F7B
:104B40008695820F01C0890FE3FD6150E2FF06C028
:104B500090912C01690F311101C061500E9484397C
:104B60008C2F0E94D411883721F48C2F0E94D523DA
:104B700003C08C2F0E94D123CF910895CF93DF9350
:104B800020912C013091240193E0920F3917F0F11C
:104B900090912301903120F02F5F280F231738F0D8
:104BA000309322010E94A02393E083E004C09F5F22
:104BB00020912B01921B90932D0180932E0160E098
:104BC0008091A2010E947B2561E08091A3010E9457
:104BD0007B2562E08091A4010E947B25C091260183
:104BE000D091270180EE9FEF9093270180932601BB
:104BF00060912E0180912D010E94843980910901DC
:104C00000E94633BD0932701C0932601DF91CF918F
:104C10000895FF920F931F93CF93DF93C82F909126
:104C20002C0181E0890F8C0F209124012817D0F0EE
:104C3000809123018031B0F0F0902B018F5FD82F4D
:104C4000DF19192F1C0FC11769F06C2F8D2F0E94CF
:104C500084390F2D002321F00E94DA230150FACF6E
:104C6000CF5FF1CFCDB7DEB7E5E00C94873E4F9232
:104C70005F926F927F928F929F92AF92BF92CF92EC
:104C8000DF92EF92FF921F93CF93DF93C82F0E9482
:104C9000872180910001813009F456C018B88091B5
:104CA000CA0187B98091C30185B984B90E94E03BEC
:104CB000C12CD12C760181E0182F117080FF03C028
:104CC0008091CC0102C08091CD01A895806C809329
:104CD0007C000E94EA3B80917A00806480937A0095
:104CE00080917A0086FDFCCFD4E6812C912C540172
:104CF00080917A00806480937A0080917A0086FDAA
:104D0000FCCF8091780090917900880E991EA11CAB
:104D1000B11C0E94E73BD15059F7A0919901B09185
:104D20009A01A50194010E94533E4B015C018AE067
:104D3000B694A794979487948A95D1F782E011232B
:104D400031F075016401B8CF80E090E04CC015B837
:104D50009091CA018091C901892B87B98C149D0457
:104D6000AE04BF04D8F520919B0130919C01A4E6CC
:104D7000B0E00E943D3E9B01AC012C193D094E095B
:104D80005F090E94533E2B013C01A701960128199F
:104D900039094A095B09A8EEB3E00E94533E6B0152
:104DA0007C012091D1013091D2012057354E40E055
:104DB00050E0C301B2010E94F63DC701B6010E9456
:104DC000F63DC901C13061F46091D3017091D40105
:104DD0006217730718F4861B970B02C080E090E0FF
:104DE00020EC20939801DF91CF911F91FF90EF90DD
:104DF000DF90CF90BF90AF909F908F907F906F90FB
:104E00005F904F900895A0E0B0E0E9E0F7E20C94E5
:104E10005E3EA89518B88091CA0187B98091C301F8
:104E200084B985B98091CD010E9474204C01809194
:104E3000CC010E941320EC0115B88091C60184B901
:104E40008091CC010E947420459708F044C2809163
:104E5000C60185B98091CC010E9474206C018091BB
:104E6000C90187B988B915B88091C40184B9809106
:104E7000CC010E9474202C018091CD010E9413204E
:104E80003C018091C70184B98091CD010E947420BA
:104E90005C01C03321E1D20728F432E6C316D10405
:104EA00038F019C24CE6C41643E1D40608F013C228
:104EB00059EA6516710408F070C086E2A816B104BC
:104EC00008F409C2D60120EF3BE247E050E00E941F
:104ED000533EC0919B01D0919C019E012C193D092C
:104EE00040E050E00E94F63D29013A01DE01AA1996
:104EF000BB0920EF3BE247E050E00E94533E8501B2
:104F000020E030E0A90198010E94F63DEEEDCE16BA
:104F1000E3E0DE0680F4D301C201D2E0880F991FDE
:104F2000AA1FBB1FDA95D1F7BC01CD01620F731F19
:104F3000841F951F14C0FEEDAF16F3E0BF06B0F45A
:104F4000DA01C901C2E0880F991FAA1FBB1FCA95C9
:104F5000D1F7BC01CD01640D751D861D971D25E09F
:104F600030E040E050E00E94F63D0CC0D301C201A9
:104F7000820F931FA41FB51F9C01AD015695479545
:104F800037952795225A3E4F4F4F5F4FAAE0B0E02A
:104F90000E94533E4B015C01B3C0C815D90508F40B
:104FA00083C04614570408F47FC040919B01509180
:104FB0009C01C417D50709F421972091D1013091A4
:104FC000D2012057354EDE01A819B9090E943D3E95
:104FD0009A012C1B3D0B40E050E00E94F63D490138
:104FE0005A012091CF013091D0012057354ED20186
:104FF000A619B7090E943D3E830120E030E0A901D7
:1050000098010E94F63DCE3DD34080F4D501C40105
:10501000F2E0880F991FAA1FBB1FFA95D1F7BC01B8
:10502000CD01620F731F841F951F1BC0EEED6E161E
:10503000E3E07E0660F5283FF4E23F07F1E04F072A
:105040005105A0F4DA01C901E2E0880F991FAA1FF7
:10505000BB1FEA95D1F7BC01CD01680D791D8A1DF2
:105060009B1D25E030E040E050E00CC0A9E0B0E03E
:105070000E94533E680D791D8A1D9B1D2AE030E079
:1050800040E050E00E94F63D49015A0139C0D50187
:10509000C401820F931FA41FB51F4C015D01B6947C
:1050A000A794979487942CC02FE8621622E1720689
:1050B00008F001C181E00E9437262C01612C712C7F
:1050C000812C912C540120E030E0A901280D391DDC
:1050D0004A1D5B1DAAE0B0E00E94533E61157105B8
:1050E0008105910521F464E670E080E090E04616C9
:1050F00057066806790658F453014201CEEF08C0FE
:1051000034E683169104A104B10408F4C0C0CFEFC3
:1051100080E0D7E02AE0F22E90910401891708F090
:105120009DC0682E712CD69D9001D79D300D112405
:10513000F901E55FFE4F6F0120819091BD012913B8
:1051400089C021819091BE01291384C0E12C02E025
:1051500010E020E030E04C2FC501B4010E94281877
:105160008F3F09F03FC0F60163817481858196818C
:1051700002E010E020E030E042810E9428188F3FDA
:1051800051F5F6014281C41719F055245A9402C012
:1051900055245394D69DC001D79D900D11249C0198
:1051A000255F3E4F6901F901638174818581968194
:1051B000EC2E950184010E942818F601581206C0B1
:1051C00083809480A580B680C28105C0838294824A
:1051D000A582B682C2831401250156944794379460
:1051E00027940AC0C501B40124E130E040E050E05A
:1051F0000E94F63D19012A01D69DC001D79D900D50
:1052000011249C01255F3E4F6901F901638174817E
:1052100085819681EC2E95018401021913092409D8
:10522000350942810E94281887FD16C09501840126
:10523000020D131D241D351DF601638174818581C6
:10524000968142810E942818181634F0F0920001CD
:1052500084E662CF8F5F60CF88EC5ECF8436D9F171
:105260009330C8F527E0929FF0011124E55FFE4FCF
:105270008091BE0180838091BD018183838294826D
:10528000A582B682C2839F5F9093040124C081E00F
:105290000E9437262C01612C712CA5019401220F4C
:1052A000331F441F551F85E088169104A104B104E3
:1052B00008F40CCF0FCF81E00E9437262C01612C1F
:1052C000712C8AE0882E912CA12CB12C24E130E0A5
:1052D00040E050E0FFCECDB7DEB7E2E10C947A3E7D
:1052E000EF920F931F93CF93C42F109204010E944B
:1052F000E4200E940327809104018130B1F4CC2383
:10530000B1F000910E0110910F0120911001309128
:1053100011016C2F70E080E090E0E0900D0143E01F
:105320000E94281891E0813019F090E001C091E0CE
:10533000892FCF911F910F91EF900895813138F00F
:10534000815115BC92E094BD87BD81E0089580E055
:10535000089516BC81E085BDA99BFECF15BC82E0F7
:1053600085BB0895A4E0B0E0E8EBF9E20C945E3E62
:10537000009729F46FEF7FEF7C836B8338C19C83A8
:105380008B83FC016381748185819681A7EFEA2E6E
:105390000AE010E020E030E042810E94281887FDFA
:1053A000E9CF0E94872180910001813019F3EB81C0
:1053B000FC81618180810E943F21EB81FC816181C0
:1053C00080810E94E4200091CC018091CD01006C8D
:1053D000806C8A8315BC82E084BD85E387BD18B8E4
:1053E00000937C000E94E03BFFEFF983812C912C1D
:1053F00054018394412C512C3201439480E090E07D
:1054000052E3C52ED12C17EDA895C29758F4809180
:10541000CA0187B98091C30185B984B90E94F33B61
:1054200014B815B822E3C216D10458F48091C9010A
:1054300087B98091C40185B984B90E94F33B14B83F
:1054400015B88091C90187B98091C30185B984B924
:1054500000937C0010937A0080917A0086FDFCCF47
:1054600010937A0080917A0086FDFCCF209078001E
:10547000309079006A8160937C0010937A0080916B
:105480007A0086FDFCCF10937A000E94EF3B0E94C9
:10549000A9298091C40185B984B90E94F33B14B84D
:1054A00080917A0086FDFCCFC0907800D090790082
:1054B0008091CA0187B98091C40185B984B97A8184
:1054C00070937C0010937A0080917A0086FDFCCF67
:1054D00010937A0080917A0086FDFCCFE0907800EE
:1054E000F090790000937C0010937A0080917A000C
:1054F00086FDFCCF10937A000E94EF3B0E94A92901
:105500008091C30185B984B90E94F33B14B880919E
:105510007A0086FDFCCF8091780090917900A701F8
:1055200060E070E0420D531D611D711D440E551E5B
:10553000661E771EAC0160E070E04C0D5D1D611DC4
:10554000711D840E951EA61EB71EE981E150E983E8
:10555000E1115ACF17B815B8481459046A047B04EE
:10556000E8F58091CF019091D0012AE0289FD001E9
:10557000299FB00D1124A50194012419350946096C
:1055800057090E94533EA30192010E94F63D80916B
:10559000D3019091D4018217930720F4B901681BBD
:1055A000790B19C0EB81FC816381748185819681BF
:1055B0002AEFE22E08EE13E020E030E042810E9464
:1055C000281821E030E0181614F420E030E06627B7
:1055D0007727621B730B7C836B8304C08FEF9FEF75
:1055E0009C838B8380EC809398010E9487218B8120
:1055F0009C812496E2E10C947A3EA0E0B0E0E3E0E6
:10560000FBE20C945F3E6C01D1E1C3E00E94872174
:1056100080910001813009F42AC118B88091CA0133
:1056200087B98091C40185B984B98091CC010E9469
:1056300013205C018091CD010E941320A81AB90AA1
:1056400015B814B8E12CF12C8FEFE81AF80A6D2F79
:105650008091C3010E9435228091CC010E941320C9
:10566000A816B9060CF00FC18C010A191B09EEE748
:10567000EE16F10449F40C32F1E01F078CF491E0CE
:105680000B34110574F40CC00C3281E0180714F4CB
:1056900091E001C090E0E4EFEE16E1E0FE0609F4CF
:1056A00090E0A8959111D0CF0C32F1E01F070CF4D7
:1056B000C1E081E0E816F10459F40531E5E01E0788
:1056C0003CF08D2F8071D9E009F0A0CFC2E0D1C0AD
:1056D000C33009F0CEC08091CC010E9413205C0140
:1056E000470180E090E08114910449F0F1E08F1AC5
:1056F00091088091CC010E941320A895F4CF8A15BF
:105700009B0540F4A81AB90A85E6A816B10420F052
:10571000C0E002C0A12CB12C8091CC010E941320CA
:105720004C01ED2FE0713E2E19F00E94D53B02C0D6
:105730000E94DA3B8091CC010E94132088159905C4
:1057400018F4881A990A02C0812C912CC33009F0F0
:1057500090C062E0C8018A0D9B1D0E9451229C01ED
:10576000D7010E943D3E2B013C01332031F1AAE0DC
:10577000B0E09B01AC010E94533E2B013C01683319
:10578000F9E87F07F1E48F07910508F474C0C301BD
:10579000B20128EE33E040E050E00E94F63D2901DE
:1057A0003A01A8EEB3E00E94533ECAEF332089F0DD
:1057B00022E434E040E050E010C06833794881448E
:1057C000910528F7A8EEB3E0A30192010E94533E91
:1057D000C7EF20E134E040E050E00E94F63D8091C8
:1057E000BE01F60180838091BD018183C28347821F
:1057F00050866186728623833483458356839AE07C
:10580000492E512C612C712C2130F5E33F07FCE02F
:105810004F07510540F0CA01B901A30192010E944E
:10582000F63DCF5FF1CFD4010E94533E28EE33E026
:1058300040E050E00E94F63DD3FDCF5F8AE0882E25
:10584000912CA12CB12C2115310581E0480751057F
:1058500040F0CA01B901A50194010E94F63DCF5F55
:10586000F2CFF60134872387C58783E014C080E038
:1058700012C08C2F10C0A8EEB3E09B01AC010E94B7
:10588000533EC7EF95CF00E010E08EE7E816F10435
:1058900009F0FECEF4CECDB7DEB7E1E10C947B3E4D
:1058A000A0E0B0E0E6E5FCE20C94663EEC010E946C
:1058B000872180910001813009F471C015B897E00B
:1058C00097B918B88091C60184B980E480937B00B1
:1058D00084E480BF8091CC01806480937C009093AD
:1058E0007A000E94E93B1092800010928100109291
:1058F00085001092840087E286BB8091C60185B93D
:10590000809100018F3129F48091C90180958770C1
:1059100002C08091CA0191E09093810087B9E12C87
:10592000F12C86B385FD0CC080FFFBCF96BBA895FC
:105930002FEFE21AF20A20EAE2162FE0F20689F7C8
:105940001092810090E296BBC0908600D0908700B4
:1059500014B82091840030918500C216D30638F423
:1059600080FF05C081E086BB8FEFE81AF80A87E95F
:1059700080937A0080917B008F7B80937B00809165
:10598000CC010E9413205C0115B88091C60184B936
:1059900020EAE2162FE0F20620F081E0C6C080E0A7
:1059A000C4C0C601A0E0B0E06701E12CF12C760193
:1059B000DD24CC24C82AD92AEA2AFB2A83E0C81687
:1059C000D104E104F104C8F082E0C81AD108E1086A
:1059D000F10828E3C21629E8D20621E4E206F10420
:1059E00060F0C701B60128EE33E040E050E00E94CD
:1059F000F63D69017A0117EF01C014EF2091D7013C
:105A00008091990190919A0161E0820F911D27FD8B
:105A10009A950E945122DC01A70196010E94533EF3
:105A200020ED37E040E050E00E94F63D143F89F45D
:105A30008091D50190E0A0E0B0E0281739074A072F
:105A40005B0750F069017A01C81AD90AEA0AFB0A11
:105A500006C069017A0103C0C12CD12C7601809166
:105A6000BE0188838091BD0189831A832F83388783
:105A700049875A87CB82DC82ED82FE82143F49F44B
:105A800080EAC81686E8D80681E0E806F10460F4EA
:105A90004BC0173F09F048C021E2C2162EE4D206DF
:105AA000E104F10408F040C08091CC010E94132071
:105AB000853D9340C8F714B8109297018091CC01AE
:105AC0000E941320EC0181E0809397018091CC012A
:105AD0000E941320AC018091C60184B9DE01A41B91
