:100000000C947C120C948E120C948E120C948E1202
:100010000C948E120C948E120C948E120C94DD1C87
:100020000C948E120C948E120C948E120C948E12D0
:100030000C948E120C948E120C948E120C948E12C0
:100040000C948E120C948E120C948E120C948E12B0
:100050000C948E120C948E120C948E120C948E12A0
:100060000C948E120C948E12571C591C5C1C601C34
:10007000621C661C6B1C6B1C6B1C6B1C6B1C6B1C56
:100080006B1C6B1C6B1C6B1C6B1C6B1C6B1C691C3A
:10009000132F172F1E2F242F212F212F272F110A27
:1000A0000611060A050A0609060A050A0609060ACD
:1000B000090A06050A06050A0605060A052A26058E
:1000C0002A26092A26090A0600000000000000006E
:1000D00000110A06000000100000C01100002012EC
:1000E000000020100000201000002010000020124E
:1000F0000000C0110000001000000008780000049B
:100100008800060288000601780086008800460004
:10011000880026007800160000000E00000006008F
:10012000FCFF07000000060000000E0000001600A3
:100130000000260200004603000086030000C603FC
:100140000000E60300000004000000080000E013C7
:1001500000002010000020100000E011000020101E
:10016000000020100000E01300000010000000005C
:10017000000000100000E01300002010000020101C
:100180000000E01100002010000020100000E0132B
:100190000000001000000008780040048800C6023B
:1001A0008800C6017800C6038800C60788002600BC
:1001B0007800160000000E0000000600FCFF07009B
:1001C0000000060000000E000000160000002600DF
:1001D0000000460000008600000006010000060244
:1001E00000000004000000080000C0110000201200
:1001F000000020100000201000002010000020123D
:100200000000C011000000100000000000000010FD
:100210000000E01000002011000020120000201259
:1002200000002012000020110036E01000360010FF
:100230000036001000F6FF1F0036000400360004F0
:100240000036000400060004000600040036040422
:100250000036863F0036070400F63F0E0036271FA3
:100260000036A63F38362404440620040406200441
:1002700064362004443620044436200438F6FF1F38
:100280000036001000360010FE37C01100002012AA
:10029000000020100000C011000000120000201219
:1002A0000000C01100000000000000100000C0119C
:1002B00000002012000020100000C01100000012F9
:1002C00000002012FE37C01100360010003600106A
:1002D00038F6FF1F44362004043620046436200418
:1002E0004406200444062004383621040036A33F87
:1002F0000036270400F63F0E0036071F0036833F06
:100300000036010400060004000600040036000464
:10031000003600040036000400F6FF1F003600100F
:10032000003600100036E0100000201100002012FE
:100330000000201200002012000020110000E01038
:1003400000000000000000100000E010000020117C
:1003500000002012000020120000201200002011D6
:100360000036E010003600100036001000F6FF1FC7
:100370000036000400360004003600040036000495
:1003800000360004003604040036863F00360704B9
:1003900000F63F0E0036271F0036A63F38362404ED
:1003A00044362004043620046436200444362004F5
:1003B0004436200438F6FF1F0036001000360010C7
:1003C000FE37C01100002012000020100000C011F4
:1003D00000000012000020120000C0110000000008
:1003E000000000100000C0110000201200002010CA
:1003F0000000C0110000001200002012FE37C011E2
:10040000003600100036001038F6FF1F4436200476
:100410000436200464362004443620044436200484
:10042000383621040036A33F0036270400F63F0E7D
:100430000036071F0036833F0036010400360004F3
:1004400000360004003600040036000400360004C4
:1004500000F6FF1F00360010003600100036E010D6
:1004600000002011000020120000201200002012C5
:10047000000020110000E01000000000000000104B
:100480003800C01144002012040020106400C01184
:10049000440000124400201238C2C01100C60010EF
:1004A00000CE0010FEFFFF1F00CE000000C60000BF
:1004B00000C2000000C0000000C0000000C000003A
:1004C00000C0000000C0000000C0000000C000002C
:1004D00000C0000000C0000000C0000000C000001C
:1004E00000C0000000C0000000C0FF1F00C00010DE
:1004F00000C0001000C0E010000020110000201219
:100500000000201200002012000020110000E01066
:100510000000001000000000000000100000E010CB
:100520000000201100002012000020120000201204
:100530000000201100C0E01000C0001000C000103A
:1005400000C0FF1F00C0000000C0000000C000008D
:1005500000C0000000C0000000C0000000C000009B
:1005600038C0000044C0000004C0000064C00000A7
:1005700044C0000044C0000038C8000000CC0000A7
:1005800000CE0000FEFFFF1F00CE001000CC0010C8
:1005900000C8C01100002012000020100000C0118F
:1005A00000000012000020120000C0110000001026
:1005B0000000000000000E100000111000000110EB
:1005C00000000110000001100000111100000E0BCE
:1005D000000000070000000F00800D1F00808D004C
:1005E00000807D0000800D0000800D000080010073
:1005F0000080010000800D0000800D0038803D006B
:1006000044804D0004808D0064800100448001001E
:1006100044800D0038800D0000807D0400808D0630
:10062000FEFF0D07000080070000C00700001F0844
:10063000000001100000011000000F100000011068
:100640000000011000001F1000000010000000005A
:1006500038001F10440001100400011064000F1046
:10066000440001104400011138001F0B0000000776
:100670000000000FFEFF0D1F00808D0000807D0038
:1006800000800D0000800D0000800100008001004E
:1006900000800D0000800D0000803D0000804D00B6
:1006A00000808D00008001000080010000800D00AE
:1006B00000800D0000807D0400808D0600800D0705
:1006C000000080070000C00700000E0800001110A5
:1006D00000000110000001100000011000001110C6
:1006E00000000E10000000100000000000001000CC
:1006F0000000100700009008000090080000900F14
:100700000000900800009008000090080000100011
:100710000000100000001000000010000000100099
:1007200000FCFF7F00F8FF3F00F0FF1F00E0FF0F1D
:1007300000C0FF070080FF030000FF010000FE0073
:1007400000007C00380038004400100004FCFF7FEB
:1007500064FCFF7F440018004400140038001200BD
:100760000000110000801007FE7F9008000090003C
:1007700000009000000090000000900800001007AA
:10078000000010000000000000001000008E1100AA
:100790000051120000111200001F11000091100002
:1007A0000051100000D113000000100000001000E4
:1007B000000010000000100000FFFF3F00FC1F02BF
:1007C00000FC1F0700F80F0700F88F0F00F0870FDD
:1007D00000F0C71F00E0C31F00E0E33F00C0E13F9F
:1007E00038C0F17F4480F07F04FCFFFF648010007C
:1007F0004440100044201000381010000008100081
:1008000000041047FE039068000090480000904FDD
:100810000000904800009048000090E800001000A0
:100820000000000000001000000010070000900809
:10083000000090080000900FFE1F90080020900814
:10084000004090083880100044001100040012009D
:10085000640014004400180044FCFF7F38F8FF3F98
:1008600000F0FF1F00E0FF0F00C0FF070080FF0344
:100870000000FF010000FE0000007C0000003800C6
:100880000000100000FCFF7F00FCFF7F0000100054
:100890000000100000001000000010000000100711
:1008A0000000900800009000000090000000900000
:1008B0000000900800001007000010000000000079
:1008C0000000001000008F110000511200001112F2
:1008D00000000F11000091101E0051102000CF13D6
:1008E0004000001080C8001000CD00103ECEFF1F59
:1008F00002CF000082CF00001ED0000002E0000006
:1009000002C000003EC0000000C0000000C00000A7
:1009100000C0000000C0000000C0000000C00000D7
:1009200000C0000000C0000000C0FF1F00C0001099
:1009300000C000100000001000001E110000A211F5
:100940000000221100001E110000221100002211DF
:1009500000009E13000000100000000000000000D6
:10096000000000000000000000FE010080FF070002
:10097000C0FF0F00E0FF1F00F0013E00F0FC3C0054
:10098000780278007801780178017801780178019F
:100990000000780100003C010000BE0000009F0044
:1009A00000804F0000C0270000E0130000F00900A5
:1009B00000F80400007C0200007C0100007C0100C3
:1009C000007C01000000010000F8010000000000B0
:1009D0000000000000380000007C0000007C0100E6
:1009E000007C010000380100008000000078000059
:1009F000000000000000000000001000000090084F
:100A0000000090040000900200009001000090029D
:100A10000000900400009008000010000004100086
:100A2000000410000004100000FCFF7F00FCFF7FAA
:100A3000000010400000384000007C400000FE0034
:100A40000000FF010080FF0300C0FF0700E0FF0F70
:100A500000F0FF1F00F8FF3F00FCFF7F00001000C8
:100A6000000010000000100000001000000010073F
:100A700000009008000090080000900F000090080F
:100A80000000900800009008000010000000000026
:100A90000000000000000000000000000000010055
:100AA0000000010000000100000001000000010042
:100AB0000000010000000100000001000000010032
:100AC0000000010080FFFF0180FFFF010000000027
:100AD00000000000F0FFFF0FF0FFFF0FF0FFFF0F1F
:100AE000F0FFFF0FF0FFFF0FF0FFFF0FF0FFFF0F12
:100AF000000000000000000080FFFF0180FFFF01F8
:100B000000000100000001000000010000000100E1
:100B100000000100000001000000010000000100D1
:100B200000000100000001000000000000000000C3
:100B300000008010000080100000E0130000801012
:100B4000000080100000001000C07F100040401026
:100B5000007CC01F0044401038C47F1048040010BF
:100B60008804001088E47F1088E47F1048E4FF1FA9
:100B700038E47F0000E47F0000E47F00FCFF7F009A
:100B800000E07F0000E07F0000E07F0000E0FF1F4A
:100B900000E07F1000E07F10000000100000001057
:100BA0000000001000000010000000100000001005
:100BB00000000010000000100000001000000010F5
:100BC0000000E0130000001000000000FF0102031D
:100BD000040506076F70717273747576FFFFFFFF6F
:100BE000FFFFFFFFFFFFFFFFFFFFFFFF10111213CB
:100BF0001415161718191A1B1C1D1E1F202122233D
:100C00002425262728292A2B2C2D2E2F303132332C
:100C10003435363738393A3B3C3D3E3F404142431C
:100C20004445464748494A4B4C4D4E4F505152530C
:100C30005455565758595A5B5C5D5E5F60616263FC
:100C40006465666768696A6B6C6D6EFFFFFFFFFF26
:100C5000FFFFFFFFFFFFFFFFFFFFFFFFFFFFFFFFA4
:100C6000FFFFFFFFFFFFFFFFFFFFFFFFFFFFFFFF94
:100C7000FFFFFFFFFFFFFFFFFFFFFFFF0FFFFFFF74
:100C8000FF05FFFFFFFFFFFFFFFFFFFFFFFFFFFF6E
:100C900008FFFFFFFFFFFFFFFFFFFFFFFFFFFFFF5B
:100CA000FFFF09FFFFFFFFFF0AFFFF0BFFFFFFFF33
:100CB0000CFFFFFFFFFFFFFFFFFFFFFFFFFFFFFF37
:100CC000FFFF0DFFFFFFFFFF0EFFFFFF0000000013
:100CD0000000000000000000000000000000000014
:100CE0000000000000000000000000000000000004
:100CF00000000000000000000000000000000000F4
:100D000000000000000004700C701C703C707C70CF
:100D1000FC70FC71FC73FC77FFFFFFFFFC77FC733A
:100D2000FC71FC707C703C701C700C7004700000D6
:100D3000000000000000000000000E200E300E3801
:100D40000E3C0E3E0E3F8E3FCE3FEE3FFFFFFFFFBD
:100D5000EE3FCE3F8E3F0E3F0E3E0E3C0E380E3025
:100D60000E200000000000000000000000003C3CDD
:100D70003C3C3C3C3C3C3C3C3C3C3C3C3C3C3C3CB3
:100D80003FFC3FFC3C3C3C3C3C3C3C3C3C3C3C3C1D
:100D90003C3C3C3C3C3C00000000000000000000EB
:100DA0000000C007E00F301818300C600C6006C05F
:100DB00006C006C006C00C600C6018303018600C0D
:100DC000628C7EFC7EFC0000000000000000000041
:100DD00000000000000000000000000000001C38BF
:100DE0001C381C381C381C381C381C381C381C3863
:100DF0001C383C3C7C3EFC3BDC7B1C001C001C008B
:100E00001C001C0000000000000000000000FEFFAD
:100E1000FEFF0600060006000600060007000700A9
:100E200006000600060006000600FEFFFEFF0000AA
:100E300000000000000000000000000000000000B2
:100E40000000FF7FFF7F00600060006000600060C6
:100E500000E000E000600060006000600060FF7F74
:100E6000FF7F00000000000000000000300C300C8C
:100E7000000000000000C001C003E003600760073D
:100E80007006300E380E381C181CFC3FFC3F0E3824
:100E90000E700E7007E0000000000000000000006F
:100EA000300C300C000000000000E007F00F381C90
:100EB0001C381C380E700E700E700E700E700E7096
:100EC0001C381C38381CF00FE00700000000000040
:100ED00000000000601860180000000000001C7096
:100EE0001C701C701C701C701C701C701C701C70A2
:100EF0001C701C701C703C783838F01FE00F00002C
:100F000000000000000000000000F003F8073C0EA5
:100F10001C0E1C0E1C061C079C039C039C039C07B8
:100F20001C0F1C1E1C3C1C781C701C709C709C3F71
:100F30001C1F000000000000000000000000000076
:100F40000000600C600C00000000E007F80F181EA5
:100F5000001C001CE01FF01F381C1C1C1C1C1C1C4F
:100F60003C1EF87BF078000000000000000000004C
:100F70000000000000003006300600000000E00322
:100F8000F80F3C1E1C1C0E380E380E380E380E386A
:100F90000E381C1C3C1EF80FE0030000000000008F
:100FA00000000000000000000000300630060000D5
:100FB00000001C381C381C381C381C381C381C38E5
:100FC0001C381C381C381C3C3C3EF83BF0380000F8
:100FD0000000000000000000000000008003C007C7
:100FE000600C600C600CC007800300000000000073
:100FF00000000000000000000000000000000000F1
:1010000000000000000000000000000000000000E0
:1010100000000000000000000000000000000000D0
:1010200000000000000000000000000000000000C0
:1010300000000000000000000000000000000000B0
:10104000000000008003800380038003800380038E
:101050008003800380038003800380038003800378
:1010600000000000800380038003000000000000F7
:10107000000000000000380E380E380E380E380E12
:101080001004100400000000000000000000000038
:101090000000000000000000000000000000000050
:1010A00000000000000000000000000080318031DE
:1010B000C018C018C018C018FC7FFC7F600C600608
:1010C0003006FE3FFE3F18031803180318038C0177
:1010D0008C0100000000000000000000000300037D
:1010E000C01FF03F70233803380338037803F00340
:1010F000E0038007001F001F003B003B003B003B5C
:10110000181BF81FE00F00030003000000000000A0
:10111000000000003CC06660C330C318C318C30C95
:10112000C30666033C038001C03CC06660C330C395
:1011300018C318C30CC30666033C0000000000007F
:101140000000000000000000E003F007380E380E39
:10115000380E38067007F001F800FCE0CEE1C7E376
:1011600087630767077E0F3E1E3CFC7FF0F300009D
:1011700000000000000000000000C001C001C0012C
:10118000C001C001800080000000000000000000DD
:10119000000000000000000000000000000000004F
:1011A0000000000000000000000000000000001827
:1011B000001E000F8003C001E000E000E0007000AE
:1011C0007000700070007000700070007000E0002F
:1011D000E000E000C0018003000F001E00180000C6
:1011E00000000C003C007800E000C0018003800398
:1011F000800300070007000700070007000700073B
:101200000007800380038003C001E00078003C00F9
:101210000C00000000000000800380038003981B86
:101220007C3E300C4002E007700E381C20040000A9
:1012300000000000000000000000000000000000AE
:10124000000000000000000000000000000000009E
:101250000000000000008001800180018001800109
:101260008001FE7FFE7F800180018001800180017E
:1012700080010000000000000000000000000000ED
:10128000000000000000000000000000000000005E
:101290000000000000000000000000000000C0038B
:1012A000C003C003C003000380038001C00000002E
:1012B000000000000000000000000000000000002E
:1012C0000000000000000000F81FF81F00000000F0
:1012D000000000000000000000000000000000000E
:1012E00000000000000000000000000000000000FE
:1012F00000000000000000000000000000000000EE
:10130000000000000000C003C003C003C0030000D1
:10131000000000000000000000000060003000300D
:1013200000180018000C000C000600060003000363
:1013300080018001C000C00060006000300030000B
:10134000180018000C000C0006000000000000004F
:10135000E003F007380E1C1C1C1C0E380E380E382B
:101360000E380E380E380E380E380E381C1C1C1C69
:10137000380EF007E003000000000000000000004D
:10138000000000000003E003FC038C0380038003E3
:101390008003800380038003800380038003800335
:1013A000800380038003FC7FFC7F000000000000BE
:1013B0000000000000000000F003FC070C0E001C01
:1013C000001C001C001C000E000E00078003C00162
:1013D000E0007000300038001C00FC1FFC1F000003
:1013E000000000000000000000000000F003F80F03
:1013F000081E001C001C001C000C0006E003E00797
:10140000000F001E001C001C001C001E080FF80727
:10141000F8030000000000000000000000000000D1
:10142000000E000F800F800FC00EE00E600E300E19
:10143000180E180E0C0E060EFE7FFE7F000E000E1C
:10144000000E000E000E0000000000000000000072
:1014500000000000F03FF03FF03F3000300030006F
:1014600030003000F003F00F001E003C0038003860
:101470000038003C101EF00FF003000000000000D8
:101480000000000000000000801FE03FF02070001E
:10149000380038001C009C0FDC1F7C3C3C781C7022
:1014A0001C701C70387038387038F01FC00700008E
:1014B000000000000000000000000000F83FF83FBE
:1014C000F83F00180018000C000C00060002000392
:1014D00080018001C000C00060006000700030002A
:1014E00030000000000000000000000000000000CC
:1014F000C007F00F781E381C381C381C780CF00F11
:10150000E003F00F381F181E1C3C1C381C381C3818
:10151000381CF00FE0070000000000000000000091
:1015200000000000C007F01F381C38381C381C7041
:101530001C701C703C78787CF077E0730070003889
:101540000038001C081EF80FF00300000000000027
:10155000000000000000000000000000000000008B
:101560000000C003C003C003C0030000000000006F
:10157000000000000000C003C003C003C00300005F
:10158000000000000000000000000000000000005B
:10159000000000000000C003C003C003C00300003F
:1015A00000000000000000000000C003C003C003F2
:1015B000C003000380038001C000000000000000A1
:1015C0000000000000000000000000400070003C2F
:1015D000000FC003F0003C003C00F000C003000F0F
:1015E000003C00700040000000000000000000000F
:1015F00000000000000000000000000000000000EB
:1016000000000000FE7FFE7F000000000000FE7F63
:10161000FE7F00000000000000000000000000004D
:1016200000000000000000000000000000000000BA
:10163000000002000E003C00F000C003000F003C60
:10164000003C000FC003F0003C000E000200000050
:10165000000000000000000000000000F807FC1F70
:101660000C3C0C3800380038001C001E000F8007AE
:101670008003C001C001C00100000000C001C00122
:10168000C001000000000000000000000000000099
:10169000C00FE01F703818301C3E0C318E31C63040
:1016A000C630C638C638C63CC6348EF78CF31C002C
:1016B0003808F00FC0070000000000000000000024
:1016C00000000000000000000000C001C003E003B3
:1016D000600760077006300E380E381C181CFC3F7F
:1016E000FC3F0E380E700E7007E000000000000096
:1016F0000000000000000000000000000000FC07E7
:10170000FC0F1C1E1C1C1C1C1C0EFC07FC071C1EBA
:101710001C3C1C381C381C381C3CFC1FFC070000FF
:1017200000000000000000000000000000000000B9
:101730000000C01FF03F78303C001C000E000E007F
:101740000E000E000E000E001C003C007820F03F42
:10175000C01F0000000000000000000000000000AA
:10176000000000000000FC07FC0F1C3C1C381C782B
:101770001C701C701C701C701C701C701C381C3879
:101780001C1EFC0FFC030000000000000000000015
:1017900000000000000000000000F83FF83F3800A3
:1017A0003800380038003800F81FF81F38003800BB
:1017B000380038003800F87FF87F00000000000093
:1017C0000000000000000000000000000000F87FA2
:1017D000F87F38003800380038003800F83FF83F0C
:1017E0003800380038003800380038003800000071
:1017F00000000000000000000000000000000000E9
:101800000000C01FF03F78303C001C000E000E00AE
:101810000E000E3F0E3F0E381C383C387838F03F33
:10182000C01F0000000000000000000000000000D9
:101830000000000000001C381C381C381C381C3804
:101840001C381C38FC3FFC3F1C381C381C381C382A
:101850001C381C381C38000000000000000000008C
:1018600000000000000000000000FC1FFC1FC00181
:10187000C001C001C001C001C001C001C001C00160
:10188000C001C001C001FC1FFC1F000000000000DF
:101890000000000000000000000000000000F80F41
:1018A000F80F000E000E000E000E000E000E000ECF
:1018B000000E000E000E000E0407FC03FC010000E9
:1018C0000000000000000000000000000000000018
:1018D00000001C781C3C1C1E1C0F1C079C03DC0118
:1018E000FC00DC01DC039C071C0F1C1E1C3C1C784C
:1018F0001CF80000000000000000000000000000D4
:1019000000000000000038003800380038003800BF
:101910003800380038003800380038003800380007
:101920003800F83FF83F0000000000000000000011
:10193000000000000000000000000E381E3C1E3CAD
:101940001E3C363636363636663266336633C63138
:10195000C631C631063006300630000000000000F7
:1019600000000000000000000000000000001C302B
:101970001C303C307C307C30FC30EC31CC31CC3312
:101980008C370C3F0C3E0C3E0C3C0C380C380000E5
:101990000000000000000000000000000000000047
:1019A0000000E007F00F381C1C381C380E700E7059
:1019B0000E700E700E700E701C381C38381CF00F34
:1019C000E007000000000000000000000000000030
:1019D000000000000000F81FF83F387838703870B9
:1019E00038703878383CF81FF8073800380038006D
:1019F000380038003800000000000000000000003F
:101A000000000000000000000000E007F00F381C9C
:101A10001C381C380E700E700E700E700E700E702A
:101A20001C381C38381CF00FE007001E007800F04E
:101A30000040000000000000000000000000FC0763
:101A4000FC0F1C1E1C1C1C1C1C1C1C0EFC07FC037D
:101A50009C071C071C0F1C1E1C3C1C381C7800001B
:101A60000000000000000000000000000000000076
:101A70000000E00FF81F3C181C001C003C00F800A0
:101A8000F007C01F003E0038003800380C1CFC1F57
:101A9000F00700000000000000000000000000004F
:101AA000000000000000FF7FFF7FC001C001C001F7
:101AB000C001C001C001C001C001C001C001C0011E
:101AC000C001C001C00100000000000000000000D3
:101AD000000000000000000000001C701C701C7062
:101AE0001C701C701C701C701C701C701C701C7096
:101AF0001C703C783838F01FE00F00000000000038
:101B0000000000000000000000000000000007E0EE
:101B10000E700E701C701C383C383838381C701C25
:101B2000700CE00EE00EE007C007C0078003000065
:101B300000000000000000000000000000000000A5
:101B4000000003C003C007C08661C663C663C663E6
:101B5000C6634E766C366C366C362C3E3C3C3C1C78
:101B60003C1C00000000000000000000000000001D
:101B70000000000000001EE03C707838781CF00E79
:101B8000E007C003C003C007E007600F301E183C29
:101B90001C380E7807F00000000000000000000074
:101BA0000000000000000000000007E00E701C3084
:101BB0001C18381C780E7007E003E003C001C00158
:101BC000C001C001C001C001C00100000000000050
:101BD0000000000000000000000000000000FC3FCA
:101BE000FC3F0038001C000E000780038001C0008D
:101BF000E000700038001C000E00FE3FFE3F0000B9
:101C000000000000000000000000C03FC03FC00115
:101C1000C001C001C001C001C001C001C001C001BC
:101C2000C001C001C001C001C001C001C001C001AC
:101C3000C001C001C001C03FC03F0000000006005D
:101C40000C000C001800180030003000600060002C
:101C5000C000C000800180010003000300060006F0
:101C6000000C000C0018001800300030006000006C
:101C70000000FC03FC0380038003800380038003D7
:101C8000800380038003800380038003800380033C
:101C90008003800380038003800380038003FC03B0
:101CA000FC0300000000000000010001800380032D
:101CB000C003C006E006600C300C30181818181865
:101CC0000C300C3006600000000000000000000036
:101CD0000000000000000000000000000000000004
:101CE00000000000000000000000000000000000F4
:101CF00000000000000000000000000000000000E4
:101D00000000FFFFFFFF000000000000C001800393
:101D100000070000000000000000000000000000BC
:101D200000000000000000000000000000000000B3
:101D300000000000000000000000000000000000A3
:101D40000000000000000000000000000000E007AC
:101D5000F80F181E001C001CE01FF01F381C1C1C74
:101D60001C1C1C1C3C1EF87BF078000000000000CE
:101D70000000000000001C001C001C001C001C00D7
:101D80001C009C07DC1F7C1C3C381C381C381C3891
:101D90001C381C381C381C1C3C1EFC0FCC070000D7
:101DA0000000000000000000000000000000000033
:101DB000000000000000C01FF03F782038001C0029
:101DC0001C001C001C001C003C003800F820F03FE8
:101DD000C01F0000000000000000000000000070B4
:101DE00000700070007000700070C073F07F787C2D
:101DF00038701C701C701C701C701C701C703C783F
:101E0000387CF077E0730000000000000000000064
:101E10000000000000000000000000000000C007FB
:101E2000F00F781C38381C381C38FC3FFC3F1C0075
:101E30001C0038007820F03FC01F000000000000A8
:101E400000000000000000FF80FFC003C001C001CF
:101E5000C001FC7FFC7FC001C001C001C001C00106
:101E6000C001C001C001C001C001C001C00100002B
:101E70000000000000000000000000000000000062
:101E8000000000000000C073F07F787C38701C7088
:101E90001C701C701C701C701C703C78387CF077B7
:101EA000E07300700038183CF81F000700001C00A9
:101EB0001C001C001C001C001C001C0FDC1F7C3CB8
:101EC0003C381C381C381C381C381C381C381C3852
:101ED0001C381C381C380000000000000000000006
:101EE0000000800380038003000000000000FC036A
:101EF000FC0380038003800380038003800380034E
:101F00008003800380038003800300000000000042
:101F1000000000000000000E000E000E0000000097
:101F20000000F80FF80F000E000E000E000E000E5D
:101F3000000E000E000E000E000E000E000E000E31
:101F4000000E0407FC07F8010000380038003800D4
:101F5000380038003800383C381E380E380FB807C3
:101F6000B803F803B803B807380F380E381E383CEA
:101F70003878000000000000000000000000F807B2
:101F8000F807000700070007000700070007000721
:101F90000007000700070007000700070007000709
:101FA000000700070007000000000000000000001C
:101FB0000000000000000000000000000000CE3122
:101FC000EE79FE7F9E779E738E738E738E738E7303
:101FD0008E738E738E738E738E73000000000000FC
:101FE00000000000000000000000000000000000F1
:101FF00000001C0FDC1F7C3C3C381C381C381C3893
:102000001C381C381C381C381C381C381C38000084
:1020100000000000000000000000000000000000C0
:10202000000000000000E003F80F3C1E1C1C0E38EE
:102030000E380E380E380E380E381C1C3C1EF80FA9
:10204000E0030000000000000000000000000000AD
:10205000000000000000000000009C07DC1F7C1C4A
:102060003C381C381C381C381C381C381C381C1CCC
:102070003C1EFC0F9C071C001C001C001C001C00CC
:102080000000000000000000000000000000E03937
:10209000F83F3C3E1C380E380E380E380E380E38DD
:1020A0000E381E3C1C3EF83BF03800380038003833
:1020B00000380038000000000000000000000000B0
:1020C0000000703E703FF031F03070007000700022
:1020D00070007000700070007000700070000000F0
:1020E00000000000000000000000000000000000F0
:1020F000000000000000E00FF01F781038003800EA
:10210000F801F007801F003C00380038183CF81F29
:10211000F0070000000000000000000000000000C8
:10212000000000000000E000E000FC3FFC3FE00099
:10213000E000E000E000E000E000E000E000E0009F
:10214000E001C03F803F00000000000000000000F0
:1021500000000000000000000000000000001C382B
:102160001C381C381C381C381C381C381C381C38CF
:102170001C381C3C3C3EF83BF038000000000000DE
:10218000000000000000000000000000000000004F
:1021900000001E701C381C383C383818381C701C65
:1021A000700CE00EE00EE006C007C00780030000E0
:1021B000000000000000000000000000000000001F
:1021C00000000000000003C087C38743C663C663E6
:1021D00046626E666E266C362C363C3C3C3C3C1CA3
:1021E000181C0000000000000000000000000000BB
:1021F000000000000000000000001E303C18780CB9
:10220000700EF006E003C003C003E007700F300E4D
:10221000381E1C3C0E78000000000000000000008A
:1022200000000000000000000000000000001E7020
:102230001C301C383818381C781C700EF00EE00763
:10224000E007C003C003C0018001C001C000E0007E
:102250007C003C00000000000000000000000000C6
:102260000000FC3FFC3F0038001C000E000780030C
:10227000C001E000700038001C00FC3FFC3F000083
:1022800000000000000000000000001F801FC003CD
:10229000C001C001C0018003800380038003C0012E
:1022A000F800F800C0018003800380038003C001B0
:1022B000C001C001C003801F001F0000000080019A
:1022C0008001800180018001800180018001800106
:1022D00080018001800180018001800180018001F6
:1022E0008001800180018001800180018001000067
:1022F00000007C00FC00E001C001C001C001E00062
:10230000E000E000E000C001800F800FC001E000AD
:10231000E000E000E000C001C001C001E001FC00FD
:102320007C00000000000000000000000000000031
:102330000000000000000000000000007860FC6366
:10234000C63F061E00000000000000000000000064
:1023500000000000000000000000FE7FFE7F7E7C89
:102360003E7C1E7C0E7C7E7C7E7C7E7C7E7C7E7CAD
:102370007E7C7E7C7E7C7E7C7E7C7E7C0E600E60A5
:10238000FE7FFE7F00000000000000000000FE7FD6
:10239000FE7F1E7C0E78C671E663E663FE63FE6315
:1023A000FE71FE787E7C3E7E1E7F8E7FC67FC67F5E
:1023B00006600660FE7FFE7F000000000000000057
:1023C0000000FE7FFE7F1E780E70C661E663E66346
:1023D000FE63FE713E783E78FE71FE63FE63E66347
:1023E000E663C6610E701E78FE7FFE7F000000006F
:1023F0000000000000000000000000000000FF7F5F
:10240000E143E363E363E363E363C7710F780F784A
:10241000C771E363E363E363E363E143FF7F0000CA
:1024200000000000000000000000000000000000AC
:102430000000FFFFFFFF0300030003000300030091
:102440000300030003000300030003000300FFFF79
:10245000FFFF00000000000000000000000000007E
:10246000000000000000FFFFFFFF03000300F33F38
:10247000F33FF33FF33FF33FF33FF33FF33F0300FB
:102480000300FFFFFFFF000000000000000000004D
:1024900000000000000000000000FF3FFF3F003090
:1024A000003000F000F000C000C000C000C000F02C
:1024B00000F000300030FF3FFF3F00000000000050
:1024C0000000000000000000000000000000FF3FCE
:1024D000FF3F00300030FFF3FFF3FFC3FFC3FFC334
:1024E000FFC3FFF3FFF300300030FF3FFF3F00006A
:1024F000000000000000000011241FBECFEFD8E054
:10250000DEBFCDBF21E0A0E0B1E001C01D92AD3E35
:10251000B207E1F70E94BF3C0C94D43F0C9400003A
:102520009091A601981303C08091A90108959091FC
:10253000A701891303C08091AA0108958091AB017E
:10254000089580E00E94992481E00E94992482E00D
:102550000E9499248DE30E94AA3B80E00E949D2462
:1025600081E00E949D2482E00E949D240895A3E0C2
:10257000B0E0EDEBF2E10C94273F89836A834B8353
:10258000CE0101967C0110E0F70101917F0100234B
:1025900051F0812F0E9499240E94AA24802F0E942A
:1025A000AA3B0E94A2241F5F133071F72396E6E036
:1025B0000C94433F87E392E00E948A2480E392E0F8
:1025C0000E94B3248EE08093090183E00E94862656
:1025D0008091A4018F5F8093A401089580910101EF
:1025E0008130C9F48CED91E00E948A240E94682415
:1025F000809106010E9499240E94AA240E94A2248C
:10260000609107017091080180E090E026E54DEFB0
:102610000E9482250895823011F40E94DA120895F2
:10262000CF93C62F0E94AA3B82EC90E00E948A249E
:102630008C2F0E94AA3B0E94A224EBE0F1E0638170
:1026400074818581968124E042810E948225CF9108
:102650000895A0E0B0E0EFE2F3E10C94253F809113
:102660000401813039F4F0900B0100E010E0CBE080
:10267000D1E05BC0833009F04CC000910E01109195
:102680000F0120911001309111016091150170919D
:1026900016018091170190911801E0900D01409171
:1026A00014010E94E418813029F422E1C22E21E0B5
:1026B000D22E04C09BE0C92E91E0D92EF6010381F1
:1026C00014812581368160911C0170911D018091DA
:1026D0001E0190911F01E28040911B010E94E418AD
:1026E000813021F489E1C82E81E0D82EFBE0CF169D
:1026F000F1E0DF0619F4C2E1D1E002C0CBE0D1E0A5
:102700008E01095F1F4FC016D10639F4095F1F4FB4
:1027100004C002E111E0CBE0D1E08881F801F08053
:102720008F1519F0F1808F11F9800E94052588819D
:10273000F81201C089810E94992482EC90E00E94E5
:102740008A248F2D0E9499240115110561F082ECD5
:1027500090E00E948A24F8018081F81202C0F801FA
:1027600081810E9499240E94F3240E9468246B8135
:102770007C818D819E8124E04A810E948225011501
:10278000110551F00E94A224F801638174818581B2
:10279000968124E0428112C0CE010E94CF37813061
:1027A00079F40E94A2246091DF017091E001809190
:1027B000E1019091E20128E44091DE010E9482252E
:1027C000CDB7DEB7E8E00C94413FEF920F931F9333
:1027D000CF93DF9300914C0110914D0120914E0158
:1027E00030914F0160915A0170915B0180915C01C1
:1027F00090915D01E0904B01409159010E94E418D5
:10280000813019F4C7E5D1E002C0C9E4D1E00B8101
:102810001C812D813E8160916801709169018091D8
:102820006A0190916B01EA80409167010E94E4186F
:10283000813011F4C5E6D1E00E94052588810E940F
:1028400099248FEC90E00E948A2489810E94992427
:102850000E94F3240E9468246B817C818D819E817B
:1028600026E44A810E948225CE010E947A2A8C01A8
:102870000F3F8FEF180749F00E94A224B80180E0B3
:1028800090E024E04EEF0E9482258B859C85892B69
:1028900061F086EE90E00E94BE246B857C8580E02E
:1028A00090E021E44D850E948225DF91CF911F9118
:1028B0000F91EF900895EF920F931F93CF93DF93B3
:1028C000EC016091B7017091B8018091B9019091CC
:1028D000BA0127EFE22E02E310E020E030E0409161
:1028E000BB010E94E41887FD10C0CE010E94BE24E7
:1028F0006091B7017091B8018091B9019091BA01CE
:1029000021E44091BB010E948225DF91CF911F916C
:102910000F91EF90089540E0FC01608181810E9459
:10292000622EE9E4F1E0638174818581968126E479
:1029300042810E9482250895CF93C62F0E949D2434
:1029400081E00E94AA3B8C2F0E949D24CF91089584
:10295000A0E0B0E0EEEAF4E10C94243F0E940525EB
:1029600080910501813051F4E0907401E5E0DE2EA4
:10297000F5E0FF2E85E000E010E01FC18230F1F4A9
:10298000F0907301D0907901C0907401E0907A01C9
:10299000FD1006C0DE2C75E0E72EBB24B3945AC0B0
:1029A000CE1409F407C1FE10FFC0DC10FDC0EF2CEF
:1029B00035E0D32E45E0C42EB12C4CC0833009F055
:1029C0003FC080E066E0282F30E090E0629FF00199
:1029D000639FF00D1124EC58FE4F492F50E09817DB
:1029E00069F0649FD001659FB00D1124AD58BE4FB2
:1029F000C0817C91C71302C095E085E09F5F933052
:102A000060F38F5F8330F8F2853048F086E0849F72
:102A10008001859F100D11240D581E4F02C000E04B
:102A200010E086E0829FE001839FD00D1124CD58F5
:102A3000DE4FE98055E0D52E65E0F62E83E0BFC07D
:102A40008BEC90E00E94AE2480910501805D0E9495
:102A5000AA3BBCC082E08F1590F0809174010E9467
:102A6000992487EC90E00E948A248F2D0E9499245B
:102A7000C3E7D1E009E711E0EF1017C01BC009E779
:102A800011E0C3E7D1E088810E9499248BEC90E0AB
:102A90000E948A248E2D0E9499240115110599F017
:102AA000FE1441F0F3E0FF1528F0F801E1808BEC13
:102AB00090E004C0F801E08087EC90E00E948A2456
:102AC0008E2D0E9499240E94F324F4E0FC15F8F066
:102AD00049E16D2D8C2D0E94382A8130C1F40E946D
:102AE000A22482E08F1518F08FE491E002C083E504
:102AF00091E00E948A248FE30E94AA3B0E946824EE
:102B000061E36D0D81E38C0D0E941013B12C8AE3FB
:102B100091E00E94BE246A817B8180E090E026E5FE
:102B20004DEF0E9482250E94A2240115110529F56E
:102B30008C819D818A3F910560F488E20E94AA3BC6
:102B40006C817D8180E090E00E94172689E20E94DE
:102B5000AA3B688189810E94AC2181E00E94392FC3
:102B600080E391E00E945B14E1E0BE122FC088E395
:102B700091E00E94BE24CE0127C0F80162817381DA
:102B800080E090E026E54DEF0E948225F1E0BF1243
:102B90001DC088E391E00E94BE24CE010E948B14E8
:102BA0000E94A224C80110C085E0D82E95E0F92E1D
:102BB00025E0E22E85E009E711E0C3E7D1E0CF2C64
:102BC000F82EBB24B3945FCF0E948B14CDB7DEB731
:102BD000E9E00C94403F8F929F92AF92BF92EF92A8
:102BE000FF920F931F93CF93DF93809101019091F8
:102BF000A601C091A801D091A70180FF09C0192F9B
:102C00000D2F7801DC2F93E5A92E91E0B92E08C095
:102C10001C2FC92F7E01012F8FE4A82E81E0B82E32
:102C200060EE7FEF83EC91E00E94EE2460EE7FEF98
:102C3000C5010E94DB248091010182FF03C08BE269
:102C40000E94AA3B0E9468240E94A112602F8D2F2F
:102C50000E949C2F892B31F00E94A224602F8D2F7F
:102C60000E949C1449E1612F8C2F0E94382A8130E8
:102C700049F40E94682465E482E40E94101384E011
:102C800080932A018BE491E00E94BE246091B301FD
:102C90007091B4018091B5019091B6010E94172600
:102CA0000E94A2248091AC0180FF02C085E603C08F
:102CB00081FF03C083E60E94AA3B6C2F812F0E94F4
:102CC0009C2F8C01892BA1F187E491E00E94BE2406
:102CD000F801C281D381248135818090B301909025
:102CE000B401A090B501B090B601F4E68F1691043E
:102CF000A104B10498F0CE01821B930B63E070E055
:102D00000E949F3E8AEF88169104A104B10418F432
:102D1000C61BD70B03C0EB01C20FD31FCE01A0E02F
:102D2000B0E026E54DEFBC01CD010E94822502C036
:102D3000C0E0D0E08DE391E00E945B14C53FD1403C
:102D4000E0F06E2D8F2D0E949C2FEC01892BA9F0B5
:102D50008A819B81823C914080F40E9468246E2D80
:102D60008F2D0E949C140E94A2246A817B8180E0A6
:102D700090E026E54DEF0E948225DF91CF911F91D3
:102D80000F91FF90EF90BF90AF909F908F9008951C
:102D90000F931F93CF93DF93909101018091A8012E
:102DA000C091A70190FF02C0D82F02C0DC2FC82F0E
:102DB0006C2F8D2F0E949C2F8C01892B31F00E944B
:102DC000A2246C2F8D2F0E949C148091010182FF00
:102DD0003BC08091AF019091B001892B81F084E3D9
:102DE00091E00E94BE246091AF017091B001072E66
:102DF000000C880B990B26E54DEF0E941C2687E5F9
:102E000091E00E94BE246091BC017091BD0180914F
:102E1000BE019091BF0126E44091C0010E9482252D
:102E20008091AD019091AE01892B71F082EE90E01E
:102E30000E94BE246091AD017091AE0180E090E0EF
:102E400024E04EEF0E94822501151105A1F00E9499
:102E5000682481E00E94AA3B0E94A2248AE391E0B8
:102E60000E94AE24F8016281738180E090E026E543
:102E70004DEF0E948225DF91CF911F910F91089510
:102E80000E94A2248091010180FF02C08EE401C053
:102E900080E50E94AA3B8AE691E00E948A24089578
:102EA0000E94A2248091010182FF03C085E691E087
:102EB00002C080E691E00E948A2408950E940525C0
:102EC0008091010184FF05C082E791E00E948A247D
:102ED00003C08AE40E94AA3B8EE691E00E948A2405
:102EE0000E9440178091010184FD0E9450170E94AA
:102EF000F3240E9468240E94A1120E94C8168091A7
:102F0000010183FF1EC08AEE90E00E945B14809155
:102F1000B1019091B201892BA1F088ED90E00E945F
:102F2000BE240E9468240E94A2246091B101709185
:102F3000B201072E000C880B990B26E54DEF0E947D
:102F40001C2608950E9405258BE591E00E948A24A5
:102F50000E9440170E9450170E94F3240E94682488
:102F60000E94A1120E94C81608958091000160EE8F
:102F70007FEF823219F48FEB91E002C089EB91E090
:102F80000E94DB240E9468240E94A1128091AD015E
:102F90009091AE01892B71F082E491E00E94BE24F1
:102FA0006091AD017091AE0180E090E026E54DEFBB
:102FB0000E9482250895CF93DF9360EE7FEF85EB2B
:102FC00091E00E94DB240E9468240E94A1128DE2FD
:102FD00091E00E94BE24C6E3D1E06D817E8180E055
:102FE00090E026E54DEF0E9482258AE391E00E9461
:102FF000BE246B817C8180E090E026E54DEF0E944D
:103000008225DF91CF91089560EE7FEF84EA91E011
:103010000E94DB240E9468240E94A11283ED90E0AC
:103020000E94BE24EBE0F1E063817481858196818A
:1030300024E042810E9482250895CF93DF938EE0A1
:103040000E94DB20C7E9D1E09F838E8388EC8B83CD
:103050008EE00E94DB202091DA01820F911D27FD76
:103060009A959F838E8389E18B83DF91CF91089519
:103070000E94DF3A8FEF97E090932701809326011B
:1030800080EB91E00E948A24F8940FB6F894A895FA
:1030900080916000886180936000109260000FBE94
:1030A00080E48BB983B7817F846083BF83B78160FD
:1030B00083BF889583B78E7F83BF0895CF93809118
:1030C000A1019091A201811529E1920748F480E0C5
:1030D00098EF9093270180932601CEE08CE013C0F7
:1030E000883E9C4140F480EE9FEF909327018093AF
:1030F0002601CEE007C080EE97E0909327018093F1
:103100002601CFE08DE00E94AA3B8C2F0E94AA3BB3
:103110000E94A22480EE97E09093270180932601DD
:103120008091A1019091A2016AE070E00E948B3E23
:1031300080E090E026E54EEF0E948225CF91089531
:1031400085E00E94DB209C01AEEBBFE00E94FA3ECE
:1031500028EE33E040E050E00E94B33E2E5D3E4F4B
:103160003093A2012093A10184E68093A30121154D
:10317000394150F40E94DF3A0E945E1888EB9BE0D0
:103180000E947A1C0E9438180895CF92DF92EF9225
:10319000FF92CF93C1E02AE0C22ED12CE12CF12C7A
:1031A0006A3071058105910540F0A70196010E94E2
:1031B000B33ECA01B901CF5FF3CF8C2FCF91FF90FF
:1031C000EF90DF90CF900895A0E0B0E0EAEEF8E154
:1031D0000C941C3F4B015C01342E280139011E2D3B
:1031E0009B01AC01D1E09AE0C92ED12CE12CF12C4D
:1031F0002A3031054105510540F0CA01B901A70146
:1032000096010E94B33EDF5FF3CFA3019201C1E0BC
:103210008AE0C82ED12CE12CF12C2A303105410551
:10322000510540F0CA01B901A70196010E94B33EC1
:10323000CF5FF3CF81149104A104B10459F141147B
:1032400051046104710409F1432D4D0FE12EEC0E80
:10325000E4164CF14E1129C0ED2FCD1754F4AAE01D
:10326000B0E0A30192010E94103F2B013C01CF5F0F
:10327000F4CFEC1754F4AAE0B0E0A50194010E9449
:10328000103F4B015C01EF5FF4CF481459046A040E
:103290007B0448F081E084149504A604B70408F088
:1032A00080E0819503C081E001C08FEFCDB7DEB72C
:1032B000E1E10C94383FCF92DF92EF92FF92CF93EF
:1032C000DF93C42FD22F2AE0C22ED12CE12CF12C77
:1032D000CD1791F0CD1744F4A70196010E94B33E9B
:1032E000CA01B901CF5FF4CFAAE0B0E09B01AC0105
:1032F0000E94103FC150ECCFDF91CF91FF90EF9033
:10330000DF90CF900895CF93CAB18AB18E7D8AB9EC
:103310000E94AE3C99B195FF02C082E001C080E0FE
:1033200090FD8160CAB990913301913031F480935E
:1033300032011092330110923501909135012FEF37
:10334000290F293F18F49F5F909335019091320126
:1033500080933201891771F1282F292720FF2695A4
:10336000213029F5990F22E730E002C035952795E5
:103370009A95E2F72370821711F085E001C084E08E
:10338000909134019F5F909334019091330189179C
:1033900029F091E0909334019093350180933301AB
:1033A00090913401943030F01092340104C081E0E7
:1033B0008093330180E0CF910895A0E0B0E0E3EE88
:1033C000F9E10C94203F7C01162F81E080933301BA
:1033D000109234018093300162FF08C08091970100
:1033E00080FD02C01C7F02C0E12CF12C212F237034
:1033F000B22E19F081E00E941C3C32E0A32ED12CA9
:1034000042E3C42EC0E0D1E000E058E2952E812FC7
:103410008270882E212F2071722E1870E114F10411
:1034200049F083E0E816F10420F022E0E21AF10806
:1034300001C0D0E04F9935C08EE190E00E947A1C27
:10344000C0E0DD2311F04F9B04C0CB3108F085C0F4
:1034500008C0CF5FCB31C8F78AE090E00E947A1CA9
:10346000F0CF112309F47CC082E390E00E947A1C23
:10347000C4E101E04F990CC08EE190E00E947A1CFB
:103480004F9906C088EC90E00E947A1CC1E003E0EE
:10349000C1508AE090E00E947A1CC111EBCFD0E0CD
:1034A00063C00E948319882351F1DD2019F0801731
:1034B00011F066C0082FD394809135016D2D0E94C4
:1034C000713E9CE09C0DC92EC80E28E1829FC00170
:1034D000112424E0969587952A95E1F7893208F022
:1034E00088E2869586958695833010F493E0A92E20
:1034F000AD1005C097E0981B9093300141C0DD20CE
:1035000021F0809135018C15D8F582E090E00E9481
:103510007A1CCF5F8C2F692D0E94713E91110BC0D8
:103520008091A301823020F081508093A30103C0D9
:1035300071100E94A018C83CB9F48820A1F0D130C5
:1035400031F480E00E941C3CC0E0D2E00DC081E07C
:103550000E941C3CC0E0D1E007C0D0E002E004C003
:10356000D0E001E001C0C0E08091980180FF06C07A
:10357000809198018E7F8093980102C0D1114ECF27
:10358000BB2019F080E00E941C3C00932F01802F8B
:10359000CDB7DEB7EDE00C943C3F65E188EB9BE0F6
:1035A0000E94DD1908950F931F93CF93DF93D82FB7
:1035B000882321F004EF11E0C3E003C00BEF11E01A
:1035C000C0E00E94F521C817E9F00E94DF3AC80167
:1035D0000E948A2485EE91E00E94B3240E94F52186
:1035E000C81305C088EC90E00E947A1C0BC060E113
:1035F00084E690E00E94DD19D13081F7882371F3D1
:1036000080E001C081E0DF91CF911F910F9108957B
:10361000681310C080EE9FEF9093270180932601DE
:103620008AE20E94AA3B80EE97E090932701809364
:10363000260108950E94A2240895A0E0B0E0E3E2EC
:10364000FBE10C941E3F762E642E552E59010FEF90
:10365000080F90902401DD24DA94D90C0E940525EE
:103660000E94AA240E94F32412E0D0E0C0E09A94C1
:103670009A9481E0882E8D1881E0D81202C01F5FD5
:10368000DC2FE62CF52CED0EF11CED0EF11CC12CFF
:10369000CD1488F562E06C0D81E00E944C3AE1E0C7
:1036A000DE1629F06C2F8D2F8C0D0E94081B113017
:1036B000D1F0F1E07F1206C0F701808191810E9474
:1036C0008A2408C0C7010E94B63FBC0180E090E098
:1036D0000E941726A114B10419F0C5010E948A2482
:1036E00080E00E94773AF2E0EF0EF11CC3940C15D3
:1036F00078F6CD2CCDCF81E0D81209C0609124019D
:10370000809123010E944C3A8CE30E94AA3B60E125
:1037100080E090E00E94DD19813071F18430B1F0D9
:10372000853089F4C11106C00D1518F1D82DD00FC0
:10373000C02F07C0C150DC131DC0CD2FDD23D1F039
:10374000D15012E099CF8230A9F416C00C1304C0F6
:103750000D1558F012E00AC0CF5F892D8D0FC813E8
:1037600009C0C01738F4DF5FECCF11E0D0E0C0E053
:1037700083CFC02F11E080CF0E94DF3A84EF91E029
:103780000E947A1C8C2FCDB7DEB7EFE00C943A3F45
:10379000A9E0B0E0EEECFBE10C942A3F182F82EF99
:1037A00090E09A83898381E08F838FEE90E09C8301
:1037B0008B8382E0888780ED91E09E838D831986DC
:1037C0000E94DF3A60EE7FEF123019F483E192E05D
:1037D00002C08EE092E00E94DB2420E030E0AE01E7
:1037E0004F5F5F4F61E083E00E941D1BFE01E80F09
:1037F000F11D6781662319F0812F0E940A1D299609
:10380000E3E00C94463FA5E1B0E0E9E0FCE10C9474
:103810002B3F88E991E09A83898383E18F8788EA47
:1038200091E09C838B8381E0888B88E192E09E838A
:103830008D8382E0898B83E192E098878F8383E098
:103840008A8B8EE092E09A87898784E08B8B82E076
:1038500092E09C878B8785E08C8B80ED91E09E8742
:103860008D871D8A0E94DF3A60EE7FEF83E292E04F
:103870000E94DB2420E030E0AE014F5F5F4F61E04B
:1038800087E00E941D1BFE01E80FF11D87856596EC
:10389000E2E00C94473FCF930E94031C90E08431F8
:1038A0009105C8F4FC01EC5CFF4F0C94F43EC9E6B2
:1038B00013C00E94BB1F02C00E94AD1DC82F0CC0C8
:1038C00082E001C081E00E94C81B05C00E94411D2A
:1038D00002C00E940039C1E00E94DF3AC11103C05A
:1038E00085ED91E002C08AE292E00E948A248C2F4A
:1038F000CF91089520919901A0E0B0E0F4E0880F05
:10390000991FAA1FBB1FFA95D1F72630D1F4492F72
:103910005A2F6B2F77274F5F5F4F6F4F7F4FE4E03A
:10392000440F551F661F771FEA95D1F748175907AF
:103930006A077B0728F4841B950BA60BB70B01C005
:1039400020E01092B1001092B20032E03093B0004B
:103950003093700033B7317F232B23BF0FB607FCA2
:1039600003C0789430E001C031E047E00097A10542
:10397000B105F9F0A8958F3F9105A105B10509F0B2
:1039800010F4282F01C02FEF821B9109A109B10962
:1039900021502093B3004093B1002091B100222325
:1039A00029F323B7216023BF889523B72E7F23BF38
:1039B000F4CF311101C0F89408951F920F920FB601
:1039C0000F9211241092B1000F900FBE0F901F9014
:1039D0001895E3EDF1E088EC90E0918380838CED25
:1039E00090E09383828384E190E0958384838BE2EB
:1039F00086831782108611860895E3EDF1E080E05A
:103A00009191890F91E0ED3DF907D1F7811101C046
:103A100081E008951F93CF93DF93182F623019F040
:103A2000C3E7D2E002C0C8E6D2E00E94FD1C80934A
:103A3000DD014BE050E0BE0183ED91E0123019F45E
:103A40000E94BC3F1AC00E949E3F0E94FD1C9091A4
:103A5000DD01992391F0891781F00E94DF3A87EC0C
:103A600091E00E948A2485ED91E00E94B32480EDCC
:103A700097E00E947A1C0E94E91CDF91CF911F9170
:103A800008950F931F93CF93DF9381E080932001DC
:103A90000E94DF3A8CE191E00E94AE24C3EDD1E0B8
:103AA0006881798180E090E024E04FEF0E948225D8
:103AB00088E191E00E94BE246A817B8180E090E0F1
:103AC00024E04FEF0E94822582E091E00E94BE2414
:103AD0006E8170E080E090E026E444EF0E94822551
:103AE0008FEF90E00E94BE246C817D8180E090E0A9
:103AF00024E04EEF0E94822588E291E00E94BE24DD
:103B000007E911E0F8016681778180E090E026E521
:103B10004DEF0E9482258BEF90E00E94BE24F801B9
:103B20006085718580E090E026E54DEF0E9482255A
:103B300085EF90E00E94BE246885062E000C770B6E
:103B4000880B990B26E54DEF0E941C260E94CD1A8A
:103B5000DF91CF911F910F910895A5E0B0E0E3EBC5
:103B6000FDE10C941B3F81E00E94D31A612C712C63
:103B70001B82A12CB12C1A82C12CD12C412C882360
:103B800009F478C1812C912C212CE12CF12C00E03E
:103B900010E01D821C8262E0562E3324339421E013
:103BA00029830E94DF3A0E94052581E40E94AA3BF6
:103BB00080E3850D0E94AA3B0E94F3240E94A22468
:103BC00034E0531609F44EC0351568F082E05816FB
:103BD00099F093E0591205C180E00E94D31A80E069
:103BE00094E69983FFC025E0521609F464C036E0DC
:103BF000531609F49FC0F5C08FEF90E00E94AE24E9
:103C000085E091E00E948A2460E081E00E94AC217E
:103C100080E00E94FF269D838C838639910518F4ED
:103C2000C80ED91E439460E082E00E94AC2180E07F
:103C30000E94FF268C018639910518F4C80ED91E02
:103C4000439461E082E00E94AC2180E00E94FF2664
:103C50007C0186E9E816F10408F0C3C0CE0CDF1C35
:103C60004394BFC08CE191E00E948A2418B837B811
:103C700035B834B880E00E943C219D838C8322E0DB
:103C800027B955B854B881E00E943C218C018C8141
:103C90009D81800F911FA80EB91E57B830E135B92C
:103CA00034B982E00E943C217C01A80EB91E8A81B1
:103CB0008D5F8A8396C088E191E00E948A2415B8BE
:103CC00038B837B834B820919F013091A0013D83B6
:103CD0002C8380E00E943C212C813D81281B390BE4
:103CE0003D832C8332E038B937B984E084B9009140
:103CF0009F011091A00181E00E943C21081B190B3B
:103D00008C819D81800F911F680E791E94E098B977
:103D100097B920E124B9E0909F01F090A00182E0E2
:103D20000E943C21E81AF90A6E0C7F1C3B813D5F22
:103D30003B8357C082E091E00E94AE2485E091E091
:103D40000E948A2440E060E081E00E94622E80911F
:103D50004B01843F91F48091500190915101A091C9
:103D60005201B091530185369105A105B10528F4A2
:103D70009D838C83880E991E239441E060E082E04D
:103D80000E94622E80915901843F89F480915E01E6
:103D900090915F01A0916001B0916101853691051C
:103DA000A105B10520F48C01880E991E239442E0F0
:103DB00061E082E00E94622E80916701843F89F475
:103DC00080916C0190916D01A0916E01B0916F0195
:103DD00085369105A105B10520F47C01880E991E58
:103DE000239481E017B818B814B815B88823B9F02F
:103DF0000E9468242C813D81B90180E090E00E94FE
:103E000017260E94A224B80180E090E00E941726A5
:103E10000E94A224B70180E090E00E941726398119
:103E2000343681F060E188EE93E00E94DD1988234A
:103E300049F0823029F454E6552E84E6898302C085
:103E400094E6998329812F5F2983263008F4A9CE2F
:103E5000539436E0351508F0A2CE8FE028120AC040
:103E6000C4016FE070E00E948B3E6093D90191E045
:103E7000998301C019822FE042120CC0C6016FE085
:103E800070E00E948B3E7093D8016093D701398116
:103E90003F5F39833A813F3009F064C08B818F30B6
:103EA00009F05DC0E5E0F0E0C501BF010E948B3E76
:103EB0009B01C301BF010E948B3E8B0180919F013A
:103EC0009091A0016C01CC0CDD1CC80ED91EC21A49
:103ED000D30AC61AD70AE12CF12CA0EABCE80E944A
:103EE000FA3EA70196010E94B33ECA01B9016B5F79
:103EF0007F4F8F4F9F4F2AE030E040E050E00E941C
:103F0000B33E2A3F31054105510538F43093D401C1
:103F10002093D30199819F5F99839801A0EABCE81F
:103F20000E94FA3EA70196010E94B33ECA01B90160
:103F30006B5F7F4F8F4F9F4F2AE030E040E050E0B3
:103F40000E94B33E283181E038074105510538F41D
:103F50003093D6012093D50199819F5F9983298160
:103F6000243011F080E003C00E94411D81E02596BD
:103F7000E2E10C94373FA0E0B0E0E1ECFFE10C940B
:103F80001B3F81E00E94D31A882309F40EC1C12C83
:103F9000D12CE12CF12C00E010E0C1E092E0292EC0
:103FA00028E0322E3AEF432E32E0532E612C712C52
:103FB000D1E00E94DF3A0E94052584E50E94AA3BD9
:103FC00080E38C0F0E94AA3B0E94F3240E94A2244B
:103FD000C33009F46BC0C8F5C13009F451C0C23018
:103FE00009F0A8C083E191E00E94AE2485E091E051
:103FF0000E948A2420919F013091A001ACE7B1E09A
:104000000E94FA3EA30192010E94D53E49015A0145
:1040100081E085B985E084B982E00E9445216C0188
:10402000C818D90881E184B981E00E9445217C014A
:10403000E818F90884E085B984E184B980E00E9439
:1040400045218C010819190975C0C53009F45DC0F6
:1040500008F455C0C63009F06DC080E291E00E94BE
:104060008A2425B824B880E00E9445218C0135B807
:1040700034B881E00E9445217C0180E285B955C0B9
:104080008EE00E94DB208EE00E94DB205C0188E253
:1040900091E00E948A240E946824B50180E090E0AB
:1040A00026E54DEF0E94822580E045C08EE091E03C
:1040B0000E94AE2485E091E00E948A2400919F0135
:1040C0001091A0011695079525B88AE084B982E081
:1040D0000E9445216C01C01AD10A82E284B981E0B4
:1040E0000E9445217C01E01AF10A35B888E284B9C2
:1040F00080E00E944521801B910B8C011BC080E059
:104100000E94D31A80E0D4E616C084E291E00E94B7
:104110008A2415B824B880E00E9445218C0134B867
:1041200081E00E9445217C0180E284B982E00E9406
:1041300045216C0181E014B815B8882309F10E946B
:10414000682420E040E0B801012E000C880B990B98
:104150000E945B250E94A22420E040E0B7010F2CC2
:10416000000C880B990B0E945B250E94A22420E082
:1041700040E0B6010D2C000C880B990B0E945B25CA
:10418000D43659F060E188EE93E00E94DD1988236F
:1041900021F0823009F4C4E6D4E6DF5FD63008F4BB
:1041A00008CFCF5FC73008F403CF81E0CDB7DEB7CB
:1041B000E2E10C94373FCF93DF938F70C82FC06438
:1041C000C0937C00DC2FD07C80919C01D81721F01B
:1041D0000E94B23CD0939C0180917A0080648093CD
:1041E0007A0080917A0086FDFCCF20E030E0A901C2
:1041F00080E0E0919A018E1708F590917A00906422
:1042000090937A0090917A0096FDFCCF60917800AF
:1042100070917900260F371F411D511D843061F4C4
:10422000211594E0390740F4D03C31F090919B0186
:10423000913011F4C06CC4CF8F5FDBCFD03C29F438
:10424000A0919D01B0919E0104C0A0919F01B091E9
:10425000A0010E94103F2AE0969587957795679573
:104260002A95D1F72E2F30E040E050E00E94B33E77
:10427000C901DF91CF910895CF93C82F0E94A93C27
:104280008C2F0E94DB20CF910895CF93C82F0E94DE
:10429000A73C8C2F0E94DB20CF910895A0E0B0E0D6
:1042A000E4E5F1E20C94253FE62E042FC1ECD1E0C9
:1042B000888369834A83C82ED12CC601875F9F4FAC
:1042C0000E94AE3F8E83F12CC701875F9F4F0E94F3
:1042D000AE3F8F8310E0C801875F9F4F0E94AE3FC3
:1042E0008887C6018A5F9F4F0E94AE3F8987C701BA
:1042F0008A5F9F4F0E94AE3F8A87C8018A5F9F4FA7
:104300000E94AE3F8B87C6018D5F9F4F0E94AE3FDC
:104310008C87C7018D5F9F4F0E94AE3F8D87C8017C
:104320008D5F9F4F0E94AE3F8E87C60180509040A8
:104330000E94AE3F8F87C701805090400E94AE3FE1
:10434000888BC801805090400E94AE3F898BCDB7CA
:10435000DEB7E8E00C94413F43E0481B461B0E9457
:104360004E210895E1ECF1E04581648183810E9452
:104370004E210895E1ECF1E0808183838181848383
:10438000828185830895CF93DF930E94AC2117B873
:104390009091C70195B98091C801892B84B980910A
:1043A000D0010E943C21EC018091D1010E94DB20D0
:1043B000AC0120919F013091A00136952795C9014C
:1043C0004E978C179D0760F4225E3F4FC217D307AC
:1043D00038F48417950720F481E04217530708F05A
:1043E00080E014B8DF91CF910895CF9361E080E031
:1043F0000E94C321C82F62E080E00E94C321C80F41
:1044000062E081E00E94C3218C0FCF9108950F9349
:104410001F93CF93DF93D82FC62F17B818B814B8AF
:1044200015B80E94AC218091CD0187B98091D1014E
:104430000E94DB208C018091CE0187B98091D00150
:104440000E94DB200817190720F46D2F8C2F0E9483
:10445000AC218091CD0187B98091C80184B9C2E3B4
:104460008091D1010E94DB209C01203981E0380736
:1044700038F0C15069F084E690E00E947A1CF0CFD9
:1044800087B19091CE01982B97B92832310588F7E2
:1044900017B814B8DF91CF911F910F910895A6E03E
:1044A000B0E0E5E5F2E20C94213F17B818B815B872
:1044B0008FE384B980E00E94DB209A83898381E0C6
:1044C0000E94DB209C838B8382E00E94DB209E8302
:1044D0008D83E12C02E018E2FF24F394AA24A39434
:1044E000B12C0F5F033009F400E0C02ED12C8E2DCB
:1044F00090E0002E02C0959587950A94E2F780FD22
:10450000F0CFC601805090400E94AE3F982E0E948E
:10451000DB20F601EE0FFF1F21E030E02C0F3D1FE6
:10452000E20FF31F208131818217930768F4918392
:104530008083212F30E02F1931092431310564F4B3
:104540001B3E50F41C5E08C08A30910518F41832E6
:1045500009F410E5F39402C0FF24F394833091052D
:1045600040F4C5010C2C01C0880F0A94EAF7E82A30
:104570000BC08032934040F487B0C6018D5F9F4FDF
:104580000E94AE3F882987B987E0E81681F11F15A0
:1045900040F581E0809300018093010100930601C2
:1045A000C6018D5F9F4F0E94AE3F97B180959823C3
:1045B00097B9C6018A5F9F4F0E94AE3F182FC60170
:1045C000875F9F4F0E94AE3F94B1812B80958923D6
:1045D00084B9892D0E94DB20909308018093070104
:1045E00006C0A89582E390E00E947A1C7ACF14B8A6
:1045F00017B82696ECE00C943D3FCF93C82FC0959A
:1046000095B160FF02C0982B01C09C2395B994B16D
:10461000892B84B963FF03C00E94AD3C02C00E9495
:10462000A83C84B18C2384B985B1C823C5B9CF9186
:104630000895A0E0B0E0EFE1F3E20C94263F613092
:1046400039F0623071F06330A9F080E090E04DC045
:10465000CCE4D0E0E7E0F0E002E310E028EE33E065
:1046600011C0CEE5D0E0ECE2F0E009E110E02CE290
:1046700031E008C0CCE0D0E0EEE1F0E009E110E08C
:1046800028EC30E08217930768F1821B930BB80186
:104690000E948B3ED02ED81ACB019927E817F90734
:1046A00008F46E2FC60FD11DC60FD11DCE010E947A
:1046B000B63F7C01CE0102960E94B63FFC01E81A8B
:1046C000F90ADE9C9001DF9C300D1124C8019695FB
:1046D0008795820F931FB8010E948B3ECF01860FF2
:1046E000971F03C0D02E60E0DDCFCDB7DEB7E7E087
:1046F0000C94423FCF93DF9390910001913009F4E5
:10470000C3C0A8950E944E2115B88091C80184B9F4
:104710008091CD0187B988B960E18091C9010E947B
:10472000FD228091D1010E943C21EC019091C801B1
:104730008091C901892B84B98091D1010E943C21CB
:104740002091C80124B98C179D0720F4853091056C
:1047500008F498C0C13D23E0D20700F161E18091E7
:10476000C9010E94FD228091D1010E943C21EC01EF
:104770008091C90185B99091C801892B84B9809134
:10478000D1010E943C2115B82091C80124B98C1791
:104790009D0720F48530910508F474C0C031D1051F
:1047A00060F080910201811103C0CE010E94A33309
:1047B000C13D83E0D80708F048C080910201811113
:1047C0001BC08091C80184B915B88091CD0187B90B
:1047D00088B90E94A93C9091C8018091C901892B98
:1047E00084B98091D1010E943C218F359D4020F0F9
:1047F000BE0182E00E94EC318091020181112DC046
:104800008091CE0187B918B89091C7018091C901F4
:10481000892B84B985B98091D0010E943C218034D4
:10482000964060F40E946B35811108C080910001B0
:10483000813221F0BE0181E00E94EC3180910201C1
:1048400081110BC00E945D3608C080910201811168
:1048500002C00E940C360E94AF2F80910001882375
:1048600011F08A3019F40E94CB2707C08F3129F448
:104870008091010184FD0E94AE3017B818B814B8B9
:1048800015B802C0EC0199CFDF91CF9108958091C6
:1048900003018823E1F09091020190FD18C091FD81
:1048A00004C0909100019E3190F4809300018091AA
:1048B00036018093A601809137018093A7018091F2
:1048C00038018093A80180910A018093090108951D
:1048D000CF936091220180912401681315C0C0918B
:1048E0002001C0FD0E94CD1AC1FF0BC0C091240160
:1048F000C23028F08C2F0E94773AC150F9CF62E085
:1049000004C00E94DF3A04C06F5F81E00E944C3A0D
:10491000CF910895CF93DF93EC01CE010E94AE3F7B
:10492000882321F00E94AA3B2196F7CFDF91CF91F7
:1049300008958F5C0E94AA3B08950E9490120E94E5
:10494000AA3B089580E20E94AA3B08958DE20E944E
:10495000AA3B08958AE30E94AA3B08950E948A24F4
:104960000E94A2240895CF93DF93EC010E94682453
:10497000CE010E948A24DF91CF910895CF93DF93D7
:10498000EC010E946824CE010E948A240E94A22485
:10499000DF91CF91089582E00E94773A62E081E052
:1049A0000E944C3A089583E00E94773A63E081E0E8
:1049B0000E944C3A08950F931F93CF93DF93C0E268
:1049C000D1E00E811F817F836E830E948A241F8322
:1049D0000E83DF91CF911F910F9108950E94DB24E8
:1049E0000E94A2240895E0E2F1E0808591859783FA
:1049F00086830895E0E2F1E0868197819187808740
:104A000080EE9FEF9783868308950E94FA2408958D
:104A1000A0E0B0E0EEE0F5E20C94253F6B017C01F4
:104A2000D42F022F0E94FA242AE04DE351E0C7015F
:104A3000B6010E94523FEDE3F1E001900020E9F75A
:104A40003197CF018D539140F82EDD2369F08D17FA
:104A500028F0C82FCD1BD0E041F401C0D81B80E363
:104A60000E94AA3BC0E001C0C4E68DE3C82E81E0ED
:104A7000D82E10E01F1598F41C130AC08CE20E9477
:104A8000AA3BDD2329F080E30E94AA3BD150F9CF55
:104A9000F60181916F010E94AA3B1F5FEBCF0E943C
:104AA000F324002319F0802F0E94AA3BCDB7DEB774
:104AB000E8E00C94413FCF92DF92EF92FF92CF93C8
:104AC000DF936B017C01C42FD22F97FF0EC00E9491
:104AD000FA240E94A6240E94F324F094E094D09437
:104AE000C094C11CD11CE11CF11C2D2F4C2FC701FF
:104AF000B6010E940825DF91CF91FF90EF90DF90E3
:104B0000CF900895A0E0B0E0E8E8F5E20C94213FF2
:104B10006B017C01C42F122F9AE0892E912CA12CBD
:104B2000B12C30E1C31637E2D306E104F10470F092
:104B3000C701B6016B5F7F4F8F4F9F4FA501940157
:104B40000E94B33E69017A01CF5FEBCFC13FF4F021
:104B50008FE08C0F63E00E947D3E282FD92F9111AA
:104B600007C0E8EECE16E3E0DE06E104F10420F033
:104B700021E0280FD3E0D91B283048F4822F90E0A1
:104B800086549F4F0E94AE3F082F02C0D0E000E045
:104B90000E94FA244AE06DE371E0C6010E94743F6E
:104BA000EDE3F1E001900020E9F73197ED53F1409A
:104BB000BE2ECE2FCD1B1C165CF080E30E94AA3BBC
:104BC0008CE20E94AA3BCC2319F080E30E94AA3B0E
:104BD000D11101C0CFEFC1508DE3C82E81E0D82E96
:104BE000E12CF12C0C2E000CDD0BEB1478F4F6010B
:104BF00081916F010E94AA3BCE15DF0519F48CE26A
:104C00000E94AA3BFFEFEF1AFF0AEFCF0E94F324A6
:104C1000002319F0802F0E94AA3B112319F0812F45
:104C20000E94AA3BCDB7DEB7ECE00C943D3F20E0FC
:104C300040E00E9482250895CF92DF92EF92FF928A
:104C4000CF93DF936B017C01C42FD22F97FF0EC04F
:104C50000E94FA240E94A6240E94F324F094E09477
:104C6000D094C094C11CD11CE11CF11C2D2F4C2FE1
:104C7000C701B6010E948225DF91CF91FF90EF908E
:104C8000DF90CF900895CF93C82F80910901982F7E
:104C9000990F890FE62FF0E0E80FF11DE256FF4F64
:104CA000E491EE2389F120912D018FEF820F609125
:104CB0002E01E4FF04C090912C019695690F3E2FC0
:104CC0003270E1FF0BC090912B01E5FF04C0892FEA
:104CD0008695820F01C0890FE3FD6150E2FF06C097
:104CE00090912C01690F311101C061500E944C3A22
:104CF0008C2F0E949012883721F48C2F0E949D24C3
:104D000003C08C2F0E949924CF910895CF93DF93F5
:104D100020912C013091240193E0920F3917F0F18A
:104D200090912301903120F02F5F280F231738F046
:104D3000309322010E94682493E083E004C09F5FC7
:104D400020912B01921B90932D0180932E0160E006
:104D50008091A6010E94432661E08091A7010E94F4
:104D6000432662E08091A8010E944326C09126015B
:104D7000D091270180EE9FEF909327018093260129
:104D800060912E0180912D010E944C3A8091090181
:104D90000E942B3CD0932701C0932601DF91CF9135
:104DA0000895FF920F931F93CF93DF93C82F909195
:104DB0002C0181E0890F8C0F209124012817D0F05D
:104DC000809123018031B0F0F0902B018F5FD82FBC
:104DD000DF19192F1C0FC11769F06C2F8D2F0E943E
:104DE0004C3A0F2D002321F00E94A2240150FACF4B
:104DF000CF5FF1CFCDB7DEB7E5E00C94443F4F92E3
:104E00005F926F927F928F929F92AF92BF92CF925A
:104E1000DF92EF92FF921F93CF93DF93C82F0E94F0
:104E20004F2280910001813009F456C018B880915A
:104E3000CE0187B98091C70185B984B90E94A83C89
:104E4000C12CD12C760181E0182F117080FF03C096
:104E50008091D00102C08091D101A895806C80938F
:104E60007C000E94B23C80917A00806480937A003A
:104E700080917A0086FDFCCFD4E6812C912C5401E0
:104E800080917A00806480937A0080917A0086FD18
:104E9000FCCF8091780090917900880E991EA11C1A
:104EA000B11C0E94AF3CD15059F7A0919D01B09127
:104EB0009E01A50194010E94103F4B015C018AE014
:104EC000B694A794979487948A95D1F782E011239A
:104ED00031F075016401B8CF80E090E04CC015B8A6
:104EE0009091CE018091CD01892B87B98C149D04BE
:104EF000AE04BF04D8F520919F013091A001A4E633
:104F0000B0E00E94FA3E9B01AC012C193D094E090C
:104F10005F090E94103F2B013C01A701960128194F
:104F200039094A095B09A8EEB3E00E94103F6B0102
:104F30007C012091D5013091D601205F314F40E0B6
:104F400050E0C301B2010E94B33EC701B6010E9406
:104F5000B33EC901C13061F46091D7017091D801AD
:104F60006217730718F4861B970B02C080E090E06D
:104F700020EC20939C01DF91CF911F91FF90EF9047
:104F8000DF90CF90BF90AF909F908F907F906F9069
:104F90005F904F900895A0E0B0E0E1EDF7E20C944F
:104FA0001B3FA89518B88091CE0187B98091C701A1
:104FB00084B985B98091D1010E943C214C01809136
:104FC000D0010E94DB20EC0115B88091CA0184B9A0
:104FD0008091D0010E943C21459708F044C2809105
:104FE000CA0185B98091D0010E943C216C01809159
:104FF000CD0187B988B915B88091C80184B980916D
:10500000D0010E943C212C018091D1010E94DB2023
:105010003C018091CB0184B98091D1010E943C2157
:105020005C01C03321E1D20728F432E6C316D10473
:1050300038F019C24CE6C41643E1D40608F013C296
:1050400059EA6516710408F070C086E2A816B1042A
:1050500008F409C2D60120EF3BE247E050E00E948D
:10506000103FC0919F01D091A0019E012C193D09D4
:1050700040E050E00E94B33E29013A01DE01AA1946
:10508000BB0920EF3BE247E050E00E94103F850162
:1050900020E030E0A90198010E94B33EEEEDCE166B
:1050A000E3E0DE0680F4D301C201D2E0880F991F4D
:1050B000AA1FBB1FDA95D1F7BC01CD01620F731F88
:1050C000841F951F14C0FEEDAF16F3E0BF06B0F4C9
:1050D000DA01C901C2E0880F991FAA1FBB1FCA9538
:1050E000D1F7BC01CD01640D751D861D971D25E00E
:1050F00030E040E050E00E94B33E0CC0D301C2015A
:10510000820F931FA41FB51F9C01AD0156954795B3
:1051100037952795225A3E4F4F4F5F4FAAE0B0E098
:105120000E94103F4B015C01B3C0C815D90508F4BB
:1051300083C04614570408F47FC040919F015091EA
:10514000A001C417D50709F421972091D50130910A
:10515000D601205F314FDE01A819B9090E94FA3E3D
:105160009A012C1B3D0B40E050E00E94B33E4901E8
:105170005A012091D3013091D401205F314FD201E7
:10518000A619B7090E94FA3E830120E030E0A90188
:1051900098010E94B33ECE3DD34080F4D501C401B6
:1051A000F2E0880F991FAA1FBB1FFA95D1F7BC0127
:1051B000CD01620F731F841F951F1BC0EEED6E168D
:1051C000E3E07E0660F5283FF4E23F07F1E04F0799
:1051D0005105A0F4DA01C901E2E0880F991FAA1F66
:1051E000BB1FEA95D1F7BC01CD01680D791D8A1D61
:1051F0009B1D25E030E040E050E00CC0A9E0B0E0AD
:105200000E94103F680D791D8A1D9B1D2AE030E029
:1052100040E050E00E94B33E49015A0139C0D50137
:10522000C401820F931FA41FB51F4C015D01B694EA
:10523000A794979487942CC02FE8621622E17206F7
:1052400008F001C181E00E94FF262C01612C712C25
:10525000812C912C540120E030E0A901280D391D4A
:105260004A1D5B1DAAE0B0E00E94103F6115710568
:105270008105910521F464E670E080E090E0461637
:1052800057066806790658F453014201CEEF08C06C
:1052900034E683169104A104B10408F4C0C0CFEF32
:1052A00080E0D7E02AE0F22E90910401891708F0FF
:1052B0009DC0682E712CD69D9001D79D300D112474
:1052C000F901E55FFE4F6F0120819091C101291323
:1052D00089C021819091C201291384C0E12C02E090
:1052E00010E020E030E04C2FC501B4010E94E4182A
:1052F0008F3F09F03FC0F6016381748185819681FB
:1053000002E010E020E030E042810E94E4188F3F8C
:1053100051F5F6014281C41719F055245A9402C080
:1053200055245394D69DC001D79D900D11249C0106
:10533000255F3E4F6901F901638174818581968102
:10534000EC2E950184010E94E418F601581206C063
:1053500083809480A580B680C28105C083829482B8
:10536000A582B682C28314012501569447943794CE
:1053700027940AC0C501B40124E130E040E050E0C8
:105380000E94B33E19012A01D69DC001D79D900D00
:1053900011249C01255F3E4F6901F90163817481ED
:1053A00085819681EC2E9501840102191309240947
:1053B000350942810E94E41887FD16C095018401D9
:1053C000020D131D241D351DF60163817481858135
:1053D000968142810E94E418181634F0F092000180
:1053E00084E662CF8F5F60CF88EC5ECF8436D9F1E0
:1053F0009330C8F527E0929FF0011124E55FFE4F3E
:105400008091C20180838091C101818383829482D3
:10541000A582B682C2839F5F9093040124C081E07D
:105420000E94FF262C01612C712CA5019401220FF2
:10543000331F441F551F85E088169104A104B10451
:1054400008F40CCF0FCF81E00E94FF262C01612CC5
:10545000712C8AE0882E912CA12CB12C24E130E013
:1054600040E050E0FFCECDB7DEB7E2E10C94373F2D
:10547000EF920F931F93CF93C42F109204010E94B9
:10548000AC210E94CB27809104018130B1F4CC2360
:10549000B1F000910E0110910F0120911001309197
:1054A00011016C2F70E080E090E0E0900D0143E08E
:1054B0000E94E41891E0813019F090E001C091E081
:1054C000892FCF911F910F91EF900895813138F07E
:1054D000815115BC92E094BD87BD81E0089580E0C4
:1054E000089516BC81E085BDA99BFECF15BC82E066
:1054F00085BB0895A4E0B0E0E0E8FAE20C941B3F1D
:10550000009729F46FEF7FEF7C836B8338C19C8316
:105510008B83FC016381748185819681A7EFEA2EDC
:105520000AE010E020E030E042810E94E41887FDAC
:10553000E9CF0E944F2280910001813019F3EB8165
:10554000FC81618180810E940722EB81FC81618165
:1055500080810E94AC210091D0018091D101006C2A
:10556000806C8A8315BC82E084BD85E687BD18B84F
:1055700000937C000E94A83CFFEFF983812C912CC2
:1055800054018394412C512C3201439480E090E0EB
:1055900052E3C52ED12C17EDA895C29758F48091EF
:1055A000CE0187B98091C70185B984B90E94BB3CFF
:1055B00014B815B822E3C216D10458F48091CD0175
:1055C00087B98091C80185B984B90E94BB3C14B8E1
:1055D00015B88091CD0187B98091C70185B984B98B
:1055E00000937C0010937A0080917A0086FDFCCFB6
:1055F00010937A0080917A0086FDFCCF209078008D
:10560000309079006A8160937C0010937A008091D9
:105610007A0086FDFCCF10937A000E94B73C0E946E
:10562000712A8091C80185B984B90E94BB3C14B825
:1056300080917A0086FDFCCFC0907800D0907900F0
:105640008091CE0187B98091C80185B984B97A81EA
:1056500070937C0010937A0080917A0086FDFCCFD5
:1056600010937A0080917A0086FDFCCFE09078005C
:10567000F090790000937C0010937A0080917A007A
:1056800086FDFCCF10937A000E94B73C0E94712ADD
:105690008091C70185B984B90E94BB3C14B8809140
:1056A0007A0086FDFCCF8091780090917900A70167
:1056B00060E070E0420D531D611D711D440E551ECA
:1056C000661E771EAC0160E070E04C0D5D1D611D33
:1056D000711D840E951EA61EB71EE981E150E98357
:1056E000E1115ACF17B815B8481459046A047B045D
:1056F000E8F58091D3019091D4012AE0289FD00150
:10570000299FB00D1124A5019401241935094609DA
:1057100057090E94103FA30192010E94B33E80915D
:10572000D7019091D8018217930720F4B901681B23
:10573000790B19C0EB81FC8163817481858196812D
:105740002AEFE22E08EE13E020E030E042810E94D2
:10575000E41821E030E0181614F420E030E0662769
:105760007727621B730B7C836B8304C08FEF9FEFE3
:105770009C838B8380EC80939C010E944F228B81C1
:105780009C812496E2E10C94373FA0E0B0E0EBEC82
:10579000FBE20C941C3F6C01D1E1C3E00E944F225C
:1057A00080910001813009F42AC118B88091CE019E
:1057B00087B98091C80185B984B98091D0010E94D0
:1057C000DB205C018091D1010E94DB20A81AB90A7C
:1057D00015B814B8E12CF12C8FEFE81AF80A6D2FE8
:1057E0008091C7010E94FD228091D0010E94DB20A0
:1057F000A816B9060CF00FC18C010A191B09EEE7B7
:10580000EE16F10449F40C32F1E01F078CF491E03C
:105810000B34110574F40CC00C3281E0180714F439
:1058200091E001C090E0E4EFEE16E1E0FE0609F43D
:1058300090E0A8959111D0CF0C32F1E01F070CF445
:10584000C1E081E0E816F10459F40531E5E01E07F6
:105850003CF08D2F8071D9E009F0A0CFC2E0D1C01B
:10586000C33009F0CEC08091D0010E94DB205C01E2
:10587000470180E090E08114910449F0F1E08F1A33
:1058800091088091D0010E94DB20A895F4CF8A1561
:105890009B0540F4A81AB90A85E6A816B10420F0C1
:1058A000C0E002C0A12CB12C8091D0010E94DB206D
:1058B0004C01ED2FE0713E2E19F00E949D3C02C07C
:1058C0000E94A23C8091D0010E94DB20881599059E
:1058D00018F4881A990A02C0812C912CC33009F05F
:1058E00090C062E0C8018A0D9B1D0E9419239C0193
:1058F000D7010E94FA3E2B013C01332031F1AAE08E
:10590000B0E09B01AC010E94103F2B013C016833C9
:10591000F9E87F07F1E48F07910508F474C0C3012B
:10592000B20128EE33E040E050E00E94B33E29018E
:105930003A01A8EEB3E00E94103FCAEF332089F08D
:1059400022E434E040E050E010C0683379488144FC
:10595000910528F7A8EEB3E0A30192010E94103F41
:10596000C7EF20E134E040E050E00E94B33E809178
:10597000C201F60180838091C1018183C283478285
:1059800050866186728623833483458356839AE0EA
:10599000492E512C612C712C2130F5E33F07FCE09E
:1059A0004F07510540F0CA01B901A30192010E94BD
:1059B000B33ECF5FF1CFD4010E94103F28EE33E019
:1059C00040E050E00E94B33ED3FDCF5F8AE0882ED6
:1059D000912CA12CB12C2115310581E048075105EE
:1059E00040F0CA01B901A50194010E94B33ECF5F06
:1059F000F2CFF60134872387C58783E014C080E0A7
:105A000012C08C2F10C0A8EEB3E09B01AC010E9425
:105A1000103FC7EF95CF00E010E08EE7E816F104E5
:105A200009F0FECEF4CECDB7DEB7E1E10C94383FFD
:105A3000A0E0B0E0EEE1FDE20C94233FEC010E9417
:105A40004F2280910001813009F471C015B897E0B0
:105A500097B918B88091CA0184B980E480937B001B
:105A600084E480BF8091D001806480937C00909317
:105A70007A000E94B13C1092800010928100109236
:105A800085001092840087E286BB8091CA0185B9A7
:105A9000809100018F3129F48091CD01809587702C
:105AA00002C08091CE0191E09093810087B9E12CF2
:105AB000F12C86B385FD0CC080FFFBCF96BBA8956B
:105AC0002FEFE21AF20A20E8E2162CE0F20689F73C
:105AD0001092810090E296BBC0908600D090870023
