:100000000C9449110C9466110C9466110C946611B1
:100010000C9466110C9466110C9466110C94A21B3E
:100020000C9466110C9466110C9466110C94661174
:100030000C9466110C9466110C9466110C94661164
:100040000C9466110C9466110C9466110C94661154
:100050000C9466110C9466110C9466110C94661144
:100060000C9466110C946611A62DAA2DB12DB72DF6
:10007000B42DB42DBA2D110A0611060A050A060977
:10008000060A050A0609060A090A06050A06050AF5
:100090000605060A052A26052A26092A26090A0629
:1000A000000000000000000000000000100000C080
:1000B000110000201200002010000020100000207D
:1000C00010000020120000C011000000100000000D
:1000D000087800000488000602880006017800867F
:1000E0000088004600880026007800160000000EF8
:1000F0000000000600FCFF07000000060000000EE4
:1001000000000016000000260200004603000086E2
:10011000030000C6030000E6030000000400000026
:10012000080000E01300002010000020100000E094
:100130001100002010000020100000E0130000005B
:100140001000000000000000100000E0130000207C
:1001500010000020100000E011000020100000201E
:10016000100000E0130000001000000008780040BC
:10017000048800C6028800C6017800C6038800C64D
:1001800007880026007800160000000E0000000618
:1001900000FCFF07000000060000000E0000001633
:1001A0000000002600000046000000860000000657
:1001B000010000060200000004000000080000C06A
:1001C000110000201200002010000020100000206C
:1001D00010000020120000C01100000010000000FC
:1001E00000000000100000E01000002011000020BE
:1001F000120000201200002012000020110036E042
:1002000010003600100036001000F6FF1F00360008
:100210000400360004003600040006000400060056
:1002200004003604040036863F0036070400F63F1B
:100230000E0036271F0036A63F3836240444062019
:100240000404062004643620044436200444362086
:100250000438F6FF1F0036001000360010FE37C0CD
:100260001100002012000020100000C0110000004A
:1002700012000020120000C0110000000000000069
:10028000100000C01100002012000020100000C06B
:10029000110000001200002012FE37C011003600CD
:1002A000100036001038F6FF1F44362004043620B4
:1002B0000464362004440620044406200438362111
:1002C000040036A33F0036270400F63F0E00360731
:1002D0001F0036833F0036010400060004000600BC
:1002E0000400360004003600040036000400F6FF67
:1002F0001F00360010003600100036E0100000200D
:100300001100002012000020120000201200002026
:10031000110000E01000000000000000100000E0EC
:100320001000002011000020120000201200002008
:1003300012000020110036E01000360010003600D8
:100340001000F6FF1F0036000400360004003600DF
:10035000040036000400360004003604040036862B
:100360003F0036070400F63F0E0036271F0036A672
:100370003F383624044436200404362004643620F2
:1003800004443620044436200438F6FF1F003600AB
:100390001000360010FE37C01100002012000020AF
:1003A000100000C01100000012000020120000C068
:1003B0001100000000000000100000C0110000202B
:1003C00012000020100000C01100000012000020E8
:1003D00012FE37C011003600100036001038F6FF4C
:1003E0001F4436200404362004643620044436209A
:1003F0000444362004383621040036A33F00362753
:100400000400F63F0E0036071F0036833F0036011A
:1004100004003600040036000400360004003600F4
:10042000040036000400F6FF1F00360010003600FE
:10043000100036E010000020110000201200002003
:100440001200002012000020110000E01000000047
:1004500000000000103800C01144002012040020E9
:10046000106400C011440000124400201238C2C0C1
:100470001100C6001000CE0010FEFFFF1F00CE00CE
:100480000000C6000000C2000000C0000000C00064
:100490000000C0000000C0000000C0000000C0005C
:1004A0000000C0000000C0000000C0000000C0004C
:1004B0000000C0000000C0000000C0000000C0FF3D
:1004C0001F00C0001000C0001000C0E0100000209D
:1004D0001100002012000020120000201200002055
:1004E000110000E0100000001000000000000000FB
:1004F000100000E010000020110000201200002079
:1005000012000020120000201100C0E01000C00006
:100510001000C0001000C0FF1F00C0000000C0009D
:100520000000C0000000C0000000C0000000C000CB
:100530000000C0000038C0000044C0000004C0003B
:100540000064C0000044C0000044C0000038C8007F
:100550000000CC000000CE0000FEFFFF1F00CE0018
:100560001000CC001000C8C01100002012000020B4
:10057000100000C01100000012000020120000C096
:1005800011000000100000000000000E100000111B
:100590001000000110000001100000011000001107
:1005A0001100000E0B000000070000000F00800D7E
:1005B0001F00808D0000807D0000800D0000800DF8
:1005C00000008001000080010000800D0000800D0F
:1005D0000038803D0044804D0004808D006480011F
:1005E000004480010044800D0038800D0000807DB3
:1005F0000400808D06FEFF0D07000080070000C08C
:100600000700001F08000001100000011000000F8B
:1006100010000001100000011000001F1000000079
:10062000100000000038001F1044000110040001F9
:100630001064000F10440001104400011138001F25
:100640000B000000070000000FFEFF0D1F00808D53
:100650000000807D0000800D0000800D0000800102
:10066000000080010000800D0000800D0000803D32
:100670000000804D0000808D00008001000080019E
:100680000000800D0000800D0000807D0400808D42
:100690000600800D07000080070000C00700000E64
:1006A00008000011100000011000000110000001FE
:1006B000100000111000000E1000000010000000DB
:1006C00000000010000000100700009008000090DB
:1006D000080000900F0000900800009008000090B3
:1006E00008000010000000100000001000000010C2
:1006F000000000100000FCFF7F00F8FF3F00F0FF4B
:100700001F00E0FF0F00C0FF070080FF030000FF95
:10071000010000FE0000007C00380038004400109A
:100720000004FCFF7F64FCFF7F44001800440014B9
:1007300000380012000000110000801007FE7F90BA
:100740000800009000000090000000900000009061
:10075000080000100700001000000000000000105A
:1007600000008E11000051120000111200001F1134
:1007700000009110000051100000D1130000001083
:100780000000001000000010000000100000FFFF3B
:100790003F00FC1F0200FC1F0700F80F0700F88F46
:1007A0000F00F0870F00F0C71F00E0C31F00E0E359
:1007B0003F00C0E13F38C0F17F4480F07F04FCFF80
:1007C000FF648010004440100044201000381010D6
:1007D000000008100000041047FE0390680000901D
:1007E000480000904F0000904800009048000090A2
:1007F000E8000010000000000000001000000010E1
:100800000700009008000090080000900FFE1F9065
:100810000800209008004090083880100044001123
:100820000004001200640014004400180044FCFF9F
:100830007F38F8FF3F00F0FF1F00E0FF0F00C0FF10
:10084000070080FF030000FF010000FE0000007CA5
:1008500000000038000000100000FCFF7F00FCFFDB
:100860007F000010000000100000001000000010C9
:1008700000000010070000900800009000000090A9
:100880000000009000000090080000100700001019
:1008900000000000000000001000008F1100005157
:1008A000120000111200000F11000091101E0051E3
:1008B000102000CF134000001080C8001000CD00B1
:1008C000103ECEFF1F02CF000082CF00001ED000DE
:1008D0000002E0000002C000003EC0000000C000B6
:1008E0000000C0000000C0000000C0000000C00008
:1008F0000000C0000000C0000000C0000000C0FFF9
:100900001F00C0001000C000100000001000001EFA
:10091000110000A2110000221100001E110000228F
:10092000110000221100009E1300000010000000C2
:100930000000000000000000000000000000FE01B8
:100940000080FF0700C0FF0F00E0FF1F00F0013E26
:1009500000F0FC3C0078027800780178017801789A
:1009600001780178010000780100003C010000BE20
:100970000000009F0000804F0000C0270000E0132F
:100980000000F0090000F80400007C0200007C0177
:1009900000007C0100007C01000000010000F80163
:1009A00000000000000000000000380000007C0093
:1009B00000007C0100007C01000038010000800084
:1009C000000078000000000000000000000000109F
:1009D00000000090080000900400009002000090C9
:1009E0000100009002000090040000900800001038
:1009F0000000041000000410000004100000FCFFC0
:100A00007F00FCFF7F000010400000384000007CA9
:100A1000400000FE000000FF010080FF0300C0FF57
:100A20000700E0FF0F00F0FF1F00F8FF3F00FCFF92
:100A30007F000010000000100000001000000010F7
:100A400000000010070000900800009008000090CF
:100A50000F000090080000900800009008000010AF
:100A60000000000000000000000000000000000086
:100A70000000000100000001000000010000000172
:100A80000000000100000001000000010000000162
:100A900000000001000000010080FFFF0180FFFF57
:100AA000010000000000000000F0FFFF0FF0FFFF5A
:100AB0000FF0FFFF0FF0FFFF0FF0FFFF0FF0FFFF42
:100AC0000FF0FFFF0F000000000000000080FFFF9C
:100AD0000180FFFF01000001000000010000000193
:100AE0000000000100000001000000010000000102
:100AF00000000001000000010000000100000000F3
:100B00000000000000FF01020304050607FFFFFFCD
:100B1000FFFFFFFFFFFFFFFFFFFFFFFFFFFFFFFFE5
:100B2000FFFFFFFFFF101112131415161718191AE3
:100B30001B1C1D1E1F202122232425262728292A8D
:100B40002B2C2D2E2F303132333435363738393A7D
:100B50003B3C3D3E3F404142434445464748494A6D
:100B60004B4C4D4E4F505152535455565758595A5D
:100B70005B5C5D5E5F606162636465666768696A4D
:100B80006B6C6D6EFFFFFFFFFFFFFFFFFFFFFFFFBF
:100B9000FFFFFFFFFFFFFFFFFFFFFFFFFFFFFFFF65
:100BA000FFFFFFFFFFFFFFFFFFFFFFFFFFFFFFFF55
:100BB000FFFFFFFFFF0FFFFFFFFF05FFFFFFFFFF2F
:100BC000FFFFFFFFFFFFFFFFFF08FFFFFFFFFFFF2C
:100BD000FFFFFFFFFFFFFFFFFFFFFF09FFFFFFFF1B
:100BE000FF0AFFFF0BFFFFFFFF0CFFFFFFFFFFFFF1
:100BF000FFFFFFFFFFFFFFFFFFFFFF0DFFFFFFFFF7
:100C0000FF0EFFFFFF0000000000000000000000DA
:100C100000000000000000000000000000000000D4
:100C200000000000000000000000000000000000C4
:100C300000000000000000000000000000000004B0
:100C4000700C701C703C707C70FC70FC71FC73FC50
:100C500077FFFFFFFFFC77FC73FC71FC707C703C3E
:100C6000701C700C70047000000000000000000098
:100C70000000000E200E300E380E3C0E3E0E3F8E51
:100C80003FCE3FEE3FFFFFFFFFEE3FCE3F8E3F0EDA
:100C90003F0E3E0E3C0E380E300E200000000000CD
:100CA000000000000000003C3C3C3C3C3C3C3C3C28
:100CB0003C3C3C3C3C3C3C3C3C3FFC3FFC3C3C3CEE
:100CC0003C3C3C3C3C3C3C3C3C3C3C3C3C3C3C00A0
:100CD0000000000000000000000000C007E00F302E
:100CE0001818300C600C6006C006C006C006C00CA8
:100CF000600C6018303018600C628C7EFC7EFC004A
:100D000000000000000000000000000000000000E3
:100D1000000000000000001C381C381C381C381C67
:100D2000381C381C381C381C381C383C3C7C3EFCB9
:100D30003BDC7B1C001C001C001C001C0000000095
:100D400000000000000000FEFFFEFF060006000697
:100D50000006000600070007000600060006000661
:100D6000000600FEFFFEFF00000000000000000083
:100D70000000000000000000000000FF7FFF7F0077
:100D800060006000600060006000E000E000600063
:100D900060006000600060FF7FFF7F0000000000D7
:100DA0000000000000300C300C000000000000C00B
:100DB00001C003E003600760077006300E380E388C
:100DC0001C181CFC3FFC3F0E380E700E7007E00034
:100DD000000000000000000000300C300C0000009B
:100DE000000000E007F00F381C1C381C380E700E95
:100DF000700E700E700E700E701C381C38381CF09F
:100E00000FE0070000000000000000000060186014
:100E1000180000000000001C701C701C701C701C6E
:100E2000701C701C701C701C701C701C701C703C42
:100E3000783838F01FE00F000000000000000000CC
:100E4000000000F003F8073C0E1C0E1C0E1C061CD4
:100E5000079C039C039C039C071C0F1C1E1C3C1C32
:100E6000781C701C709C709C3F1C1F0000000000D0
:100E70000000000000000000000000600C600C009A
:100E8000000000E007F80F181E001C001CE01FF017
:100E90001F381C1C1C1C1C1C1C3C1EF87BF0780002
:100EA0000000000000000000000000000000003012
:100EB00006300600000000E003F80F3C1E1C1C0E6C
:100EC000380E380E380E380E380E381C1C3C1EF802
:100ED0000FE0030000000000000000000000000020
:100EE00000000030063006000000001C381C381CD2
:100EF000381C381C381C381C381C381C381C381C52
:100F00003C3C3EF83BF038000000000000000000D0
:100F100000000000008003C007600C600C600CC083
:100F20000780030000000000000000000000000037
:100F300000000000000000000000000000000000B1
:100F400000000000000000000000000000000000A1
:100F50000000000000000000000000000000000091
:100F60000000000000000000000000000000000081
:100F7000000000000000000000000000008003806E
:100F80000380038003800380038003800380038049
:100F9000038003800380038003000000008003803F
:100FA0000380030000000000000000000000003883
:100FB0000E380E380E380E380E10041004000000E3
:100FC0000000000000000000000000000000000021
:100FD0000000000000000000000000000000000011
:100FE000000000000080318031C018C018C018C057
:100FF00018FC7FFC7F600C60063006FE3FFE3F1849
:10100000031803180318038C018C01000000000072
:10101000000000000000030003C01FF03F702338F1
:1010200003380338037803F003E0038007001F0050
:101030001F003B003B003B003B181BF81FE00F006C
:10104000030003000000000000000000003CC06638
:1010500060C330C318C318C30CC30666033C0380C7
:1010600001C03CC06660C330C318C318C30CC306BC
:1010700066033C00000000000000000000000000CB
:1010800000E003F007380E380E380E38067007F00F
:1010900001F800FCE0CEE1C7E387630767077E0F36
:1010A0003E1E3CFC7FF0F30000000000000000004A
:1010B000000000C001C001C001C001C0018000806B
:1010C0000000000000000000000000000000000020
:1010D0000000000000000000000000000000000010
:1010E000000000000000000018001E000F8003C078
:1010F00001E000E000E0007000700070007000701F
:1011000000700070007000E000E000E000C00180AE
:1011100003000F001E0018000000000C003C0078C7
:1011200000E000C001800380038003000700070087
:1011300007000700070007000700078003800380FF
:1011400003C001E00078003C000C0000000000003B
:1011500000800380038003981B7C3E300C4002E03B
:1011600007700E381C200400000000000000000082
:10117000000000000000000000000000000000006F
:1011800000000000000000000000000000000080DF
:101190000180018001800180018001FE7FFE7F804F
:1011A00001800180018001800180010000000000B9
:1011B000000000000000000000000000000000002F
:1011C000000000000000000000000000000000001F
:1011D00000000000000000C003C003C003C0030003
:1011E0000380038001C00000000000000000000038
:1011F00000000000000000000000000000000000EF
:1012000000F81FF81F0000000000000000000000B0
:1012100000000000000000000000000000000000CE
:1012200000000000000000000000000000000000BE
:10123000000000000000000000000000000000C0EE
:1012400003C003C003C00300000000000000000052
:1012500000000000600030003000180018000C0092
:101260000C000600060003000380018001C000C0DE
:10127000006000600030003000180018000C000C06
:10128000000600000000000000E003F007380E1C1C
:101290001C1C1C0E380E380E380E380E380E380E48
:1012A000380E380E381C1C1C1C380EF007E00300EA
:1012B000000000000000000000000000000003E04B
:1012C00003FC038C0380038003800380038003807E
:1012D000038003800380038003800380038003FC7A
:1012E0007FFC7F0000000000000000000000000004
:1012F00000F003FC070C0E001C001C001C001C006E
:101300000E000E00078003C001E0007000300038BE
:10131000001C00FC1FFC1F0000000000000000007B
:101320000000000000F003F80F081E001C001C0065
:101330001C000C0006E003E007000F001E001C006C
:101340001C001C001E080FF807F803000000000036
:10135000000000000000000000000E000F800F8061
:101360000FC00EE00E600E300E180E180E0C0E069A
:101370000EFE7FFE7F000E000E000E000E000E001F
:1013800000000000000000000000000000F03FF03E
:101390003FF03F30003000300030003000F003F00C
:1013A0000F001E003C003800380038003C101EF0D2
:1013B0000FF003000000000000000000000000002B
:1013C00000801FE03FF0207000380038001C009CB7
:1013D0000FDC1F7C3C3C781C701C701C7038703813
:1013E000387038F01FC00700000000000000000047
:1013F0000000000000F83FF83FF83F001800180018
:101400000C000C00060002000380018001C000C037
:10141000006000600070003000300000000000003C
:10142000000000000000000000C007F00F781E3828
:101430001C381C381C780CF00FE003F00F381F1814
:101440001E1C3C1C381C381C38381CF00FE00700F0
:1014500000000000000000000000000000C007F0D5
:101460001F381C38381C381C701C701C703C787875
:101470007CF077E073007000380038001C081EF81C
:101480000FF003000000000000000000000000005A
:101490000000000000000000000000C003C003C006
:1014A00003C003000000000000000000000000C0B6
:1014B00003C003C003C003000000000000000000E0
:1014C000000000000000000000000000000000C05C
:1014D00003C003C003C003000000000000000000C0
:1014E000000000C003C003C003C0030003800380EA
:1014F00001C000000000000000000000000000002B
:1015000000000000400070003C000FC003F0003CF1
:10151000003C00F000C003000F003C0070004000E1
:1015200000000000000000000000000000000000BB
:1015300000000000000000000000000000FE7FFE30
:101540007F000000000000FE7FFE7F000000000022
:10155000000000000000000000000000000000008B
:10156000000000000000000000000002000E003C2F
:1015700000F000C003000F003C003C000FC003F06F
:10158000003C000E0002000000000000000000000F
:101590000000000000F807FC1F0C3C0C380038006D
:1015A00038001C001E000F80078003C001C001C06E
:1015B0000100000000C001C001C0010000000000E7
:1015C000000000000000000000C00FE01F7038188D
:1015D000301C3E0C318E31C630C630C638C638C6D7
:1015E0003CC6348EF78CF31C003808F00FC007009F
:1015F00000000000000000000000000000000000EB
:10160000000000C001C003E00360076007700630FF
:101610000E380E381C181CFC3FFC3F0E380E700EA6
:101620007007E00000000000000000000000000063
:1016300000000000000000FC07FC0F1C1E1C1C1C0E
:101640001C1C0EFC07FC071C1E1C3C1C381C381CF8
:10165000381C3CFC1FFC07000000000000000000DC
:101660000000000000000000000000C01FF03F78F4
:10167000303C001C000E000E000E000E000E000E8E
:10168000001C003C007820F03FC01F00000000005C
:10169000000000000000000000000000000000FC4E
:1016A00007FC0F1C3C1C381C781C701C701C701C28
:1016B000701C701C701C381C381C1EFC0FFC0300B6
:1016C000000000000000000000000000000000001A
:1016D000000000F83FF83F38003800380038003884
:1016E00000F81FF81F38003800380038003800F8BC
:1016F0007FF87F00000000000000000000000000F4
:1017000000000000000000F87FF87F380038003843
:101710000038003800F83FF83F380038003800380B
:101720000038003800380000000000000000000011
:101730000000000000000000000000C01FF03F7823
:10174000303C001C000E000E000E000E3F0E3F0E3F
:10175000381C383C387838F03FC01F0000000000CB
:101760000000000000000000000000000000001C5D
:10177000381C381C381C381C381C381C38FC3FFC02
:101780003F1C381C381C381C381C381C381C3800CE
:101790000000000000000000000000000000000049
:1017A000000000FC1FFC1FC001C001C001C001C03F
:1017B00001C001C001C001C001C001C001C001FCE5
:1017C0001FFC1F00000000000000000000000000DF
:1017D00000000000000000F80FF80F000E000E00DF
:1017E0000E000E000E000E000E000E000E000E0089
:1017F0000E0407FC03FC01000000000000000000D4
:1018000000000000000000000000001C781C3C1CD0
:101810001E1C0F1C079C03DC01FC00DC01DC039C8C
:10182000071C0F1C1E1C3C1C781CF800000000004C
:101830000000000000000000000000000000003870
:1018400000380038003800380038003800380038D8
:101850000038003800380038003800F83FF83F0002
:101860000000000000000000000000000000000078
:101870000000000E381E3C1E3C1E3C363636363606
:1018800036663266336633C631C631C63106300637
:1018900030063000000000000000000000000000E2
:1018A000000000000000001C301C303C307C307C0C
:1018B00030FC30EC31CC31CC338C370C3F0C3E0C4F
:1018C0003E0C3C0C380C380000000000000000000A
:1018D0000000000000000000000000E007F00F38EA
:1018E0001C1C381C380E700E700E700E700E700EB0
:1018F000701C381C38381CF00FE007000000000096
:10190000000000000000000000000000000000F8DF
:101910001FF83F38783870387038703878383CF8AD
:101920001FF8073800380038003800380038000049
:1019300000000000000000000000000000000000A7
:10194000000000E007F00F381C1C381C380E700E29
:10195000700E700E700E700E701C381C38381CF033
:101960000FE007001E007800F000400000000000BB
:1019700000000000000000FC07FC0F1C1E1C1C1CCB
:101980001C1C1C1C0EFC07FC039C071C071C0F1CCA
:101990001E1C3C1C381C78000000000000000000E9
:1019A0000000000000000000000000E00FF81F3CF5
:1019B000181C001C003C00F800F007C01F003E008F
:1019C00038003800380C1CFC1FF007000000000035
:1019D000000000000000000000000000000000FF08
:1019E0007FFF7FC001C001C001C001C001C001C0B4
:1019F00001C001C001C001C001C001C001C001009F
:101A000000000000000000000000000000000000D6
:101A10000000001C701C701C701C701C701C701C62
:101A2000701C701C701C701C701C703C783838F076
:101A30001FE00F0000000000000000000000000098
:101A40000000000000000007E00E700E701C701C0B
:101A5000383C383838381C701C700CE00EE00EE052
:101A600007C007C00780030000000000000000005E
:101A7000000000000000000000000003C003C007D9
:101A8000C08661C663C663C663C6634E766C366C39
:101A9000366C362C3E3C3C3C1C3C1C0000000000DC
:101AA0000000000000000000000000000000001E18
:101AB000E03C707838781CF00EE007C003C003C02B
:101AC00007E007600F301E183C1C380E7807F00046
:101AD0000000000000000000000000000000000006
:101AE00000000007E00E701C301C18381C780E70C7
:101AF00007E003E003C001C001C001C001C001C094
:101B000001C0010000000000000000000000000013
:101B100000000000000000FC3FFC3F0038001C00FB
:101B20000E000780038001C000E000700038001C38
:101B3000000E00FE3FFE3F0000000000000000001D
:101B4000000000C03FC03FC001C001C001C001C0D3
:101B500001C001C001C001C001C001C001C001C07D
:101B600001C001C001C001C001C001C001C001C06D
:101B70003FC03F0000000006000C000C00180018D9
:101B8000003000300060006000C000C000800180B4
:101B9000010003000300060006000C000C00180002
:101BA0001800300030006000000000FC03FC0380DF
:101BB000038003800380038003800380038003800D
:101BC00003800380038003800380038003800380FD
:101BD00003800380038003FC03FC0300000000007B
:101BE000000001000180038003C003C006E006601E
:101BF0000C300C3018181818180C300C3006600017
:101C000000000000000000000000000000000000D4
:101C100000000000000000000000000000000000C4
:101C200000000000000000000000000000000000B4
:101C30000000000000000000000000FFFFFFFF00A8
:101C40000000000000C00180030007000000000049
:101C50000000000000000000000000000000000084
:101C60000000000000000000000000000000000074
:101C70000000000000000000000000000000000064
:101C800000000000000000E007F80F181E001C0014
:101C90001CE01FF01F381C1C1C1C1C1C1C3C1EF8CC
:101CA0007BF0780000000000000000000000001C35
:101CB000001C001C001C001C001C009C07DC1F7C7E
:101CC0001C3C381C381C381C381C381C381C381C70
:101CD0001C3C1EFC0FCC07000000000000000000B0
:101CE000000000000000000000000000000000C034
:101CF0001FF03F782038001C001C001C001C001C3A
:101D0000003C003800F820F03FC01F000000000039
:101D10000000000000000000700070007000700003
:101D2000700070C073F07F787C38701C701C701C61
:101D3000701C701C701C703C78387CF077E073006D
:101D40000000000000000000000000000000000093
:101D500000000000000000C007F00F781C38381C9D
:101D6000381C38FC3FFC3F1C001C0038007820F079
:101D70003FC01F0000000000000000000000000045
:101D8000FF80FFC003C001C001C001FC7FFC7FC019
:101D900001C001C001C001C001C001C001C001C03B
:101DA00001C001C001C001000000000000000000EF
:101DB000000000000000000000000000000000C063
:101DC00073F07F787C38701C701C701C701C701C49
:101DD000701C703C78387CF077E073007000381825
:101DE0003CF81F000700001C001C001C001C001C0D
:101DF000001C001C0FDC1F7C3C3C381C381C381CB1
:101E0000381C381C381C381C381C381C381C38004E
:101E1000000000000000000000000080038003803C
:101E200003000000000000FC03FC0380038003802B
:101E3000038003800380038003800380038003808A
:101E4000038003000000000000000000000000000C
:101E50000E000E000E000000000000F80FF80F004A
:101E60000E000E000E000E000E000E000E000E0002
:101E70000E000E000E000E000E000E0407FC07F808
:101E800001000038003800380038003800380038C9
:101E90003C381E380E380FB807B803F803B803B83B
:101EA00007380F380E381E383C3878000000000024
:101EB00000000000000000F807F807000700070016
:101EC00007000700070007000700070007000700DA
:101ED00007000700070007000700070007000700CA
:101EE00000000000000000000000000000000000F2
:101EF00000000000000000CE31EE79FE7F9E779E4C
:101F0000738E738E738E738E738E738E738E738EC9
:101F1000738E73000000000000000000000000004D
:101F200000000000000000000000001C0FDC1F7C0F
:101F30003C3C381C381C381C381C381C381C381CDD
:101F4000381C381C381C380000000000000000005D
:101F5000000000000000000000000000000000E0A1
:101F600003F80F3C1E1C1C0E380E380E380E380EAF
:101F7000380E381C1C3C1EF80FE003000000000067
:101F80000000000000000000000000000000000051
:101F90000000009C07DC1F7C1C3C381C381C381CD3
:101FA000381C381C381C381C1C3C1EFC0F9C071CA1
:101FB000001C001C001C001C0000000000000000B1
:101FC00000000000000000E039F83F3C3E1C380EE5
:101FD000380E380E380E380E380E381E3C1C3EF8BF
:101FE0003BF0380038003800380038003800000076
:101FF0000000000000000000000000703E703FF094
:1020000031F030700070007000700070007000706F
:102010000070007000700000000000000000000070
:10202000000000000000000000000000000000E0D0
:102030000FF01F781038003800F801F007801F00FB
:102040003C00380038183CF81FF007000000000082
:10205000000000000000000000000000000000E0A0
:1020600000E000FC3FFC3FE000E000E000E000E0BA
:1020700000E000E000E000E000E001C03F803F0041
:102080000000000000000000000000000000000050
:10209000000000000000001C381C381C381C381CD4
:1020A000381C381C381C381C381C381C3C3C3EF88A
:1020B0003BF03800000000000000000000000000BD
:1020C00000000000000000000000001E701C381C12
:1020D000383C383818381C701C700CE00EE00EE0EC
:1020E00006C007C0078003000000000000000000D9
:1020F00000000000000000000000000000000003DD
:10210000C087C38743C663C66346626E666E266C2D
:10211000362C363C3C3C3C3C1C181C0000000000AB
:1021200000000000000000000000000000000000AF
:102130000000001E303C18780C700EF006E003C062
:1021400003C003E007700F300E381E1C3C0E7800F1
:10215000000000000000000000000000000000007F
:10216000000000000000001E701C301C38381838B9
:102170001C781C700EF00EE007E007C003C003C01F
:10218000018001C001C000E0007C003C00000000B4
:102190000000000000000000000000FC3FFC3F00C9
:1021A00038001C000E00078003C001E000700038FA
:1021B000001C00FC3FFC3F0000000000000000008D
:1021C000000000001F801FC003C001C001C00180CB
:1021D00003800380038003C001F800F800C0018081
:1021E00003800380038003C001C001C001C00380DD
:1021F0001F001F000000008001800180018001801D
:1022000001800180018001800180018001800180C6
:1022100001800180018001800180018001800180B6
:1022200001800180018001000000007C00FC00E0D2
:1022300001C001C001C001E000E000E000E000C01A
:1022400001800F800FC001E000E000E000E000C06E
:1022500001C001C001E001FC007C000000000000A2
:10226000000000000000000000000000000000006E
:1022700000000000007860FC63C63F061E000000FE
:10228000000000000000000000000000000000004E
:10229000000011241FBECFEFD8E0DEBFCDBF11E09C
:1022A000A0E0B1E0E8E5FFE702C005900D92A6309E
:1022B000B107D9F721E0A6E0B1E001C01D92A13F2E
:1022C000B207E1F70E947A3C0C94AA3F0C940000FC
:1022D0009091A601981303C08091A901089590914F
:1022E000A701891303C08091AA0108958091AB01D1
:1022F000089580E00E94572381E00E94572382E0E6
:102300000E9457238DE30E94653B80E00E94732367
:1023100081E00E94732382E00E9473230895A3E06A
:10232000B0E0E5E9F1E10C94F73EA0902C01B0900B
:102330002D0189836A834B83CE0101966C0180E075
:10234000E82E81E0F82E10E0F60101916F010023E4
:10235000A9F0812F0E9457230E949823F7018081C2
:10236000918190932D0180932C01802F0E94653BD9
:10237000B0922D01A0922C010E9490231F5FF2E0E9
:10238000EF0EF11C133001F72396EAE00C94133F93
:102390008FE492E00E94482388E492E00E94A12307
:1023A0008EE080930F0183E00E942C258091A40190
:1023B0008F5F8093A4010895809107018130C9F453
:1023C0008FEE91E00E9448230E94262380910C0109
:1023D0000E9457230E9498230E94902360910D0130
:1023E00070910E0180E090E026E54DEF0E943E24C2
:1023F0000895823011F40E94C8110895CF93DF939D
:10240000C62FD42F442319F00E94732302C00E94C8
:10241000572382EC90E00E9448238C2FDD2319F093
:102420000E94732302C00E9457230E949023609150
:10243000140170911501809116019091170124E00B
:10244000409113010E943E24DF91CF910895A0E0B6
:10245000B0E0EDE2F2E10C94F93E80910A018130A6
:1024600039F4F090110100E010E0C1E1D1E05BC06F
:10247000833009F04CC00091140110911501209196
:1024800016013091170160911B0170911C01809120
:102490001D0190911E01E090130140911A010E94CC
:1024A000BC17813029F428E1C22E21E0D22E04C0CD
:1024B00091E1C92E91E0D92EF60103811481258185
:1024C00036816091220170912301809124019091C5
:1024D0002501E280409121010E94BC17813021F446
:1024E0008FE1C82E81E0D82EF1E1CF16F1E0DF06B2
:1024F00019F4C8E1D1E002C0C1E1D1E08E01095F69
:102500001F4FC016D10639F4095F1F4F04C008E100
:1025100011E0C1E1D1E08881F801F0808F1519F058
:10252000F1808F11F9800E94E1238881F81201C0A7
:1025300089810E94572382EC90E00E9448238F2DCE
:102540000E9457230115110561F082EC90E00E9472
:102550004823F8018081F81202C0F80181810E94AD
:1025600057230E94E8230E9426236B817C818D8162
:102570009E8124E04A810E943E240115110551F0FC
:102580000E949023F801638174818581968124E003
:10259000428112C0CE010E94D636813079F40E9469
:1025A00090236091E3017091E4018091E5019091A5
:1025B000E60128E44091E2010E943E24CDB7DEB757
:1025C000E8E00C94153FEF920F931F93CF93DF93A6
:1025D00000914C0110914D0120914E0130914F011D
:1025E00060915B0170915C0180915D0190915E0151
:1025F000E0904B0140915A010E94BC17813019F4C0
:10260000C8E5D1E002C0C9E4D1E00B811C812D8175
:102610003E8160916A0170916B0180916C01909193
:102620006D01EA80409169010E94BC17813011F46C
:10263000C7E6D1E00E94E12388810E9457238FECF6
:1026400090E00E94482389810E9457230E94E8233A
:102650000E9426236B817C818D819E8126E44A81A4
:102660000E943E24CE010E9421298C010F3F8FEF52
:10267000180749F00E949023B80180E090E024E020
:102680004EEF0E943E248B859C85AD85BE85892BAF
:102690008A2B8B2B61F08EEE90E00E94AC236B8531
:1026A0007C858D859E8521E448EF0E943E24DF9144
:1026B000CF911F910F91EF900895EF920F931F9379
:1026C000CF93DF93EC016091BB017091BC018091CD
:1026D000BD019091BE0127EFE22E02E310E020E061
:1026E00030E04091BF010E94BC1787FD10C0CE01B1
:1026F0000E94AC236091BB017091BC018091BD012F
:102700009091BE0121E44091BF010E943E24DF91DF
:10271000CF911F910F91EF90089540E0FC016081EF
:1027200081810E94F22CE9E4F1E06381748185816A
:10273000968126E442810E943E240895CF93C62FBD
:102740000E94732381E00E94653B8C2F0E947323BB
:10275000CF910895A0E0B0E0E0EBF3E10C94F83EF7
:102760000E94E12380910B01813051F4E0907701C8
:10277000E5E0DE2EF5E0FF2E85E000E010E021C16F
:102780008230F1F4F0907601D0907C01C090770116
:10279000E0907D01FD1006C0DE2C75E0E72EBB2425
:1027A000B3945AC0CE1409F409C1FE1001C1DC1063
:1027B000FFC0EF2C35E0D32E45E0C42EB12C4CC029
:1027C000833009F03FC080E066E0282F30E090E0E1
:1027D000629FF001639FF00D1124E958FE4F492FCD
:1027E00050E0981769F0649FD001659FB00D1124E7
:1027F000AA58BE4FC0817C91C71302C095E085E006
:102800009F5F933060F38F5F8330F8F2853048F03C
:1028100086E0849F8001859F100D11240A581E4F69
:1028200002C000E010E086E0829FE001839FD00DAF
:102830001124CA58DE4FE98055E0D52E65E0F62E0A
:1028400083E0C1C08BEC90E00E949C2380910B013F
:10285000805D0E94653BBEC082E08F1590F0809144
:1028600077010E94572387EC90E00E9448238F2D28
:102870000E945723C6E7D1E00CE711E0EF1017C024
:102880001BC00CE711E0C6E7D1E088810E94572306
:102890008BEC90E00E9448238E2D0E945723011557
:1028A000110599F0FE1441F0F3E0FF1528F0F8014E
:1028B000E1808BEC90E004C0F801E08087EC90E0D0
:1028C0000E9448238E2D0E9457230E94E823F4E0A3
:1028D000FC15F0F049E16D2D8C2D0E94DE28813031
:1028E000B9F40E94902382E08F1518F087E591E0FB
:1028F00002C08BE591E00E9448238FE30E94653B74
:102900000E94262340E06D2D8C2D0E94FE11B12CDB
:1029100082E491E00E94AC236A817B8180E090E0B8
:1029200026E54DEF0E943E240E94902301151105DB
:1029300041F58C819D818A3F910570F488E20E9467
:10294000653B6C817D8180E090E020E040E00E946A
:102950003E2489E20E94653B40E0688189810E94B3
:10296000372081E00E94CC2D88E391E00E945D1326
:10297000E1E0BE122FC080E491E00E94AC23CE01C2
:1029800027C0F8016281738180E090E026E54DEF79
:102990000E943E24F1E0BF121DC080E491E00E943D
:1029A000AC23CE010E948D130E949023C80110C059
:1029B00085E0D82E95E0F92E25E0E22E85E00CE7A3
:1029C00011E0C6E7D1E0CF2CF82EBB24B3945DCF45
:1029D0000E948D13CDB7DEB7E9E00C94143FA0E060
:1029E000B0E0E5EFF4E10C94F53E909107018091A1
:1029F000A601C091A801D091A70190FF09C0182F8E
:102A00000D2F7801DC2F9BE5C92E91E0D92E08C04F
:102A10001C2FC82F7E01012F87E5C82E81E0D82EFC
:102A200060EE7FEF86ED91E00E94DC2360EE7FEFA9
:102A3000C6010E94C9238091070182FF03C08BE277
:102A40000E94653B0E9426230E947911602F8D2FE2
:102A50000E942F2E6C01892B31F00E949023602F51
:102A60008D2F0E949E1349E1612F8C2F0E94DE283A
:102A7000813061F40E94262341E06091A801809199
:102A8000A6010E94FE1184E080932E0183E591E06F
:102A90000E94AC236091B3017091B4018091B501A3
:102AA0009091B60120E040E00E943E240E949023D5
:102AB0008091AC0180FF02C085E603C081FF03C0A6
:102AC00083E60E94653B88ED90E00E94A1238091FF
:102AD000AC0180FF02C083E403C081FF03C085E432
:102AE0000E94653B0E9490236091B1017091B201F8
:102AF000072E000C880B990B21E44AEF0E94C62494
:102B0000C114D104E1F48091B7019091B801A09172
:102B1000B901B091BA01892B8A2B8B2B81F083EDFF
:102B200090E00E94AC236091B7017091B801809150
:102B3000B9019091BA0120E040E00E943E246C2F40
:102B4000812F0E942F2E8C01892BA1F18FE491E01F
:102B50000E94AC23F801C281D38124813581809009
:102B6000B3019090B401A090B501B090B601F4E625
:102B70008F169104A104B10498F0CE01821B930B2F
:102B800063E070E00E94733E8AEF88169104A1040E
:102B9000B10418F4C61BD70B03C0EB01C20FD31F3F
:102BA000CE01A0E0B0E026E54DEFBC01CD010E94D2
:102BB0003E2402C0C0E0D0E085E491E00E945D13B5
:102BC000C53FD140E0F06E2D8F2D0E942F2EEC01DD
:102BD000892BA9F08A819B81823C914080F40E94DC
:102BE00026236E2D8F2D0E949E130E9490236A81B2
:102BF0007B8180E090E026E54DEF0E943E24CDB73A
:102C0000DEB7ECE00C94113F0F931F93CF93DF934B
:102C1000909107018091A801C091A70190FF02C087
:102C2000D82F02C0DC2FC82F6C2F8D2F0E942F2E83
:102C30008C01892B31F00E9490236C2F8D2F0E94E4
:102C40009E138091070183FD52C08091AF01909146
:102C5000B001892B81F08CE391E00E94AC2360915C
:102C6000AF017091B001072E000C880B990B26E57F
:102C70004DEF0E94C6248FE591E00E94AC23609145
:102C8000C0017091C1018091C2019091C30126E4FD
:102C90004091C4010E943E248091AD019091AE010B
:102CA000892B71F08AEE90E00E94AC236091AD0117
:102CB0007091AE0180E090E024E04EEF0E943E244F
:102CC00001151105A1F00E94262381E00E94653BB9
:102CD0000E94902382E491E00E949C23F80162818B
:102CE000738180E090E026E54DEF0E943E24DF9165
:102CF000CF911F910F9108950E9490238091070119
:102D000080FF02C08EE401C080E50E94653B82E73F
:102D100091E00E94482308950E949023809107012A
:102D200082FF03C08DE691E002C088E691E00E9438
:102D3000482308950E94E1238091070184FF05C084
:102D40008AE791E00E94482303C08AE40E94653B21
:102D500086E791E00E9448230E947C16809107013B
:102D600084FD0E948C160E94E8230E9426230E9464
:102D700079118091070184FD0E940416809107015A
:102D800083FF1EC082EF90E00E945D138091B1012D
:102D90009091B201892BA1F080EE90E00E94AC23CB
:102DA0000E9426230E9490236091B1017091B2018C
:102DB000072E000C880B990B26E54DEF0E94C624C8
:102DC00008950E94E12383E691E00E9448230E9437
:102DD0007C160E948C160E94E8230E9426230E94E3
:102DE00079110E94041608958091060160EE7FEF2C
:102DF000823219F482ED91E002C08CEC91E00E94E5
:102E0000C9230E9426230E9479118091AD019091DF
:102E1000AE01892B71F08AE491E00E94AC236091AD
:102E2000AD017091AE0180E090E026E54DEF0E948B
:102E30003E240895CF93DF9360EE7FEF88EC91E01E
:102E40000E94C9230E9426230E94791185E391E004
:102E50000E94AC23C6E3D1E06D817E8180E090E0EA
:102E600026E54DEF0E943E2482E491E00E94AC23CF
:102E70006B817C8180E090E026E54DEF0E943E244E
:102E8000DF91CF91089560EE7FEF8CEB91E00E948F
:102E9000C9230E9426230E9479118BED90E00E94A5
:102EA000AC23E1E1F1E0638174818581968124E0C6
:102EB00042810E943E240895CF93DF938EE00E94CA
:102EC000C41FCAE9D1E09F838E8388EC8B838EE098
:102ED0000E94C41F2091DE01820F911D27FD9A954B
:102EE0009F838E8389E18B83DF91CF9108950E9428
:102EF0009A3A8FEF97E090932D0180932C0183EC09
:102F000091E00E944823F8940FB6F894A895809118
:102F10006000886180936000109260000FBE80E4C2
:102F20008BB983B7817F846083BF83B7816083BFA0
:102F3000889583B78E7F83BF0895CF92DF92EF92FB
:102F4000FF92CF93C1E02AE0C22ED12CE12CF12CCC
:102F50006A3071058105910540F0A70196010E9434
:102F6000873ECA01B901CF5FF3CF8C2FCF91FF907D
:102F7000EF90DF90CF900895A0E0B0E0E2ECF7E1B1
:102F80000C94F03E4B015C01342E280139011E2DBA
:102F90009B01AC01D1E09AE0C92ED12CE12CF12C9F
:102FA0002A3031054105510540F0CA01B901A70198
:102FB00096010E94873EDF5FF3CFA3019201C1E03B
:102FC0008AE0C82ED12CE12CF12C2A3031054105A4
:102FD000510540F0CA01B901A70196010E94873E40
:102FE000CF5FF3CF81149104A104B10459F14114CE
:102FF00051046104710409F1432D4D0FE12EEC0ED3
:10300000E4164CF14E1129C0ED2FCD1754F4AAE06F
:10301000B0E0A30192010E94E43E2B013C01CF5F8E
:10302000F4CFEC1754F4AAE0B0E0A50194010E949B
:10303000E43E4B015C01EF5FF4CF481459046A048D
:103040007B0448F081E084149504A604B70408F0DA
:1030500080E0819503C081E001C08FEFCDB7DEB77E
:10306000E1E10C940C3FCF92DF92EF92FF92CF936D
:10307000DF93C42FD22F2AE0C22ED12CE12CF12CC9
:10308000CD1791F0CD1744F4A70196010E94873E19
:10309000CA01B901CF5FF4CFAAE0B0E09B01AC0157
:1030A0000E94E43EC150ECCFDF91CF91FF90EF90B2
:1030B000DF90CF9008951F93CF93DF931AB18AB119
:1030C0008E7D8AB90E94693CC0E0D0E089B18095CC
:1030D000982F917269F085FDDF5F80FDCF5F8D2FA6
:1030E0008C0F8A3038F48EE190E00E943F1BEECFC7
:1030F00090E001C092E0DD23A9F0C1111DC084E081
:1031000020913301281308C0923031F49091350199
:10311000973018F49F5F01C091E090933501909330
:10312000340103C0C11106C080E01AB9DF91CF910C
:103130001F91089585E0E4CF86E0E2CFA0E0B0E003
:10314000E4EAF8E10C94F53E6C01062F81E08093EF
:10315000340180919B0185FF04C088E7E82EF12CA3
:1031600002C0E12CF12C02FF08C080919A0180FD81
:1031700002C00C7F02C0C12CD12CA0902C01B090B9
:103180002D0180EE9FEF90932D0180932C01802FD5
:103190008370982E19F081E00E94D73BC0E0D1E007
:1031A00010E0802F8270882E0870C114D10449F07D
:1031B00086E0C816D10420F085E0C81AD10801C005
:1031C000D0E04F9935C08EE190E00E943F1BC0E0F7
:1031D000DD2311F04F9B04C0CB3108F04CC008C078
:1031E000CF5FCB31C8F78AE090E00E943F1BF0CF61
:1031F000002309F443C082E390E00E943F1BC4E136
:1032000011E04F990CC08EE190E00E943F1B4F9956
:1032100006C088EC90E00E943F1BC1E013E0C15063
:103220008AE090E00E943F1BC111EBCFD0E02EC09E
:103230000E945B18811137C085E090E00E943F1B1F
:10324000CF5FC43619F5882059F0D13029F480E0D9
:103250000E94D73BD2E004C081E00E94D73BD1E07E
:10326000E114F10471F081E0E816F10461F081E00D
:10327000E81AF10806C0D0E012E008C0D0E011E082
:1032800005C0C0E003C0C0E0D0E017E680919B011C
:1032900080FF06C080919B018E7F80939B0104C0BC
:1032A000D11183CF01C0182FB0922D01A0922C0113
:1032B000992019F080E00E94D73B10933301173614
:1032C00011F40E947717812FCDB7DEB7ECE00C9494
:1032D000113F65E188EB9BE00E949E1808950F93D3
:1032E0001F93CF93DF93D82F882321F007E012E0BC
:1032F000C3E003C00EE012E0C0E00E94DE20C81769
:10330000F9F00E949A3AC8010E9448230E9426239D
:1033100088EF91E00E9448230E94DE20C81305C078
:1033200088EC90E00E943F1B0BC060E184E690E0D7
:103330000E949E18D13081F7882371F380E001C08C
:1033400081E0DF91CF911F910F910895681310C014
:1033500080EE9FEF90932D0180932C018AE20E94D2
:10336000653B80EE97E090932D0180932C010895AA
:103370000E9490230895A0E0B0E0E1ECF9E10C9404
:10338000F23E762E642E552E59010FEF080F9090C5
:103390002A01DD24DA94D90C0E94E1230E949823AB
:1033A0000E94E82312E0D0E0C0E09A949A9481E071
:1033B000882E8D1881E0D81202C01F5FDC2FE62C0A
:1033C000F52CED0EF11CED0EF11CC12CCD1498F571
:1033D00062E06C0D81E00E94073AE1E0DE1629F020
:1033E0006C2F8D2F8C0D0E94A6191130E1F0F1E0A9
:1033F0007F1206C0F701808191810E9448230AC094
:10340000C7010E94863FBC0180E090E020E040E0E0
:103410000E943E24A114B10419F0C5010E94482362
:1034200080E00E94323AF2E0EF0EF11CC3940C15DA
:1034300068F6CD2CCBCF81E0D81209C060912A016B
:10344000809129010E94073A8CE30E94653B60E16C
:1034500080E090E00E949E18813071F18430B1F0DC
:10346000853089F4C11106C00D1518F1D82DD00F83
:10347000C02F07C0C150DC131DC0CD2FDD23D1F0FC
:10348000D15012E097CF8230A9F416C00C1304C0BB
:103490000D1558F012E00AC0CF5F892D8D0FC813AB
:1034A00009C0C01738F4DF5FECCF11E0D0E0C0E016
:1034B00081CFC02F11E07ECF0E949A3A84EF91E035
:1034C0000E943F1B8C2FCDB7DEB7EFE00C940E3F70
:1034D000A9E0B0E0EEE6FAE10C94FE3E182F8AEF88
:1034E00090E09A83898381E08F8387EF90E09C83CB
:1034F0008B8382E0888783EE91E09E838D8319869B
:103500000E949A3A60EE7FEF123019F486E292E060
:1035100002C081E292E00E94C92320E030E0AE01C7
:103520004F5F5F4F61E083E00E94BB19FE01E80F2F
:10353000F11D6781662319F0812F0E94CF1B299608
:10354000E3E00C941A3FABE1B0E0E9EAFAE10C9455
:10355000FF3E80EB91E09A83898383E18B8B89E83E
:1035600091E09C838B838CE18C8B86E392E09E833D
:103570008D8381E08D8B8BE292E098878F8382E050
:103580008E8B86E292E09A87898783E08F8B81E237
:1035900092E09C878B8784E0888F85E192E09E870C
:1035A0008D8785E0898F85E891E0988B8F8784E10E
:1035B0008A8F83EE91E09A8B898B1B8E0E949A3AB8
:1035C00060EE7FEF8BE392E00E94C92320E030E0C1
:1035D000AE014F5F5F4F61E089E00E94BB19FE01C1
:1035E000E80FF11D83896B96E2E00C941B3FCF93AB
:1035F0000E94A31A843061F148F48130C1F0A8F030
:103600008230C1F08330B9F582E023C0833121F1EB
:1036100028F4853081F50E94191C2DC08431F9F001
:103620008C3149F50E94103926C0C9E61DC00E94A0
:10363000A41E02C00E94851CC82F811113C00E94C5
:103640009A3A88EE91E00E9448230E94691914C0BA
:1036500081E00E94681A0FC00E941E380CC00E94B0
:10366000771709C0893641F40E949A3A82E492E0C1
:103670000E94482301C0C1E08C2FCF910895209172
:103680009C01A0E0B0E0F4E0880F991FAA1FBB1FC7
:10369000FA95D1F72630D1F4492F5A2F6B2F77277F
:1036A0004F5F5F4F6F4F7F4FE4E0440F551F661F22
:1036B000771FEA95D1F7481759076A077B0728F45F
:1036C000841B950BA60BB70B01C020E01092B10034
:1036D0001092B20032E03093B0003093700033B7F4
:1036E000317F232B23BF0FB607FC03C0789430E053
:1036F00001C031E047E00097A105B105F9F0A895B8
:103700008F3F9105A105B10509F010F4282F01C0E4
:103710002FEF821B9109A109B10921502093B30019
:103720004093B1002091B100222329F323B72160F7
:1037300023BF889523B72E7F23BFF4CF311101C05B
:10374000F89408951F920F920FB60F9211241092C1
:10375000B1000F900FBE0F901F901895E7EDF1E0AC
:1037600088EC90E0918380838CED90E0938382835A
:1037700084E190E0958384838BE2868317821086B0
:1037800011860895E7EDF1E080E09191890F91E0D5
:10379000E13EF907D1F7811101C081E00895EF9270
:1037A000FF920F931F93CF93DF93E82E623019F0AF
:1037B000CBE8D2E002C0C0E8D2E00E94C21B8093F6
:1037C000E1018BE0F82E07ED11E082E0E81206C07F
:1037D000F8016081CE010E948C3F05C0CE010E949D
:1037E0007E3FF80180830F5F1F4F2196FA94F110FE
:1037F000ECCFF2E0EF16C1F00E94C21B9091E10104
:10380000992391F0891781F00E949A3A8AED91E00C
:103810000E94482388EE91E00E94A12380ED97E06A
:103820000E943F1B0E94AE1BCDB7DEB7E6E00C94B2
:10383000173F0F931F93CF93DF9381E0809326016F
:103840000E949A3A84E291E00E949C23C7EDD1E065
:103850006881798180E090E024E04FEF0E943E246F
:1038600080E291E00E94AC236A817B8180E090E05D
:1038700024E04FEF0E943E248AE091E00E94AC23B6
:103880006E8170E080E090E026E444EF0E943E24E8
:1038900087E091E00E94AC236C817D8180E090E024
:1038A00024E04EEF0E943E2480E391E00E94AC238E
:1038B0000AE911E0F8016681778180E090E026E571
:1038C0004DEF0E943E2483E091E00E94AC23F8017A
:1038D0006085718580E090E026E54DEF0E943E24F2
:1038E0008DEF90E00E94AC236885062E000C770BCC
:1038F000880B990B26E54DEF0E94C6240E9469199A
:10390000DF91CF911F910F910895A5E0B0E0EBE812
:10391000FCE10C94EF3E81E00E946F19612C712C48
:103920001B82A12CB12C1A82C12CD12C412C8823B2
:1039300009F487C1812C912C212CE12CF12C00E081
:1039400010E01D821C8262E0562E3324339421E065
:1039500029830E949A3A0E94E12381E40E94653BF8
:1039600080E3850D0E94653B0E94E8230E9490231E
:1039700034E0531609F451C0351568F082E058164A
:1039800099F093E0591208C180E00E946F1980E01D
:1039900094E6998302C125E0521609F467C036E027
:1039A000531609F4A2C0F8C087E091E00E949C235E
:1039B0008DE091E00E94482340E060E081E00E94B9
:1039C000372080E00E94A5259D838C838639910550
:1039D00018F4C80ED91E439440E060E082E00E94D3
:1039E000372080E00E94A5258C018639910518F4C6
:1039F000C80ED91E439440E061E082E00E94372067
:103A000080E00E94A5257C0186E9E816F10408F013
:103A1000C3C0CE0CDF1C4394BFC084E291E00E947F
:103A2000482318B837B835B834B880E00E9425204C
:103A30009D838C8322E027B955B854B881E00E9459
:103A400025208C018C819D81800F911FA80EB91EAD
:103A500057B830E135B934B982E00E9425207C01A5
:103A6000A80EB91E8A818D5F8A8396C080E291E09C
:103A70000E94482315B838B837B834B82091A2014D
:103A80003091A3013D832C8380E00E9425202C816E
:103A90003D81281B390B3D832C8332E038B937B97F
:103AA00084E084B90091A2011091A30181E00E94F9
:103AB0002520081B190B8C819D81800F911F680E9A
:103AC000791E94E098B997B920E124B9E090A20159
:103AD000F090A30182E00E942520E81AF90A6E0CFA
:103AE0007F1C3B813D5F3B8357C08AE091E00E9491
:103AF0009C238DE091E00E94482340E060E081E05B
:103B00000E94F22C80914B01843F91F480915001EE
:103B100090915101A0915201B091530185369105C8
:103B2000A105B10528F49D838C83880E991E2394EA
:103B300041E060E082E00E94F22C80915A01843FD3
:103B400089F480915F0190916001A0916101B09131
:103B5000620185369105A105B10520F48C01880E1E
:103B6000991E239442E061E082E00E94F22C809151
:103B70006901843F89F480916E0190916F01A09159
:103B80007001B091710185369105A105B10520F450
:103B90007C01880E991E239481E017B818B814B8D8
:103BA00015B8882319F10E9426232C813D81C90173
:103BB000A0E0B0E020E040E0BC01CD010E943E2446
:103BC0000E949023C801A0E0B0E020E040E0BC01EA
:103BD000CD010E943E240E949023C701A0E0B0E0E6
:103BE00020E040E0BC01CD010E943E243981343602
:103BF00081F060E188EE93E00E949E18882349F0EE
:103C0000823029F454E6552E84E6898302C094E676
:103C1000998329812F5F2983263008F49ACE539403
:103C200036E0351508F093CE8FE028120AC0C401A3
:103C30006FE070E00E945F3E6093DD0191E0998348
:103C400001C019822FE042120CC0C6016FE070E083
:103C50000E945F3E7093DC016093DB0139813F5F1E
:103C600039833A813F3009F068C08B818F3009F089
:103C70005DC0E5E0F0E0C501BF010E945F3E9B0131
:103C8000C301BF010E945F3E8B018091A201909110
:103C9000A3016C01CC0CDD1CC80ED91EC21AD30ABC
:103CA000C61AD70AE12CF12CA0EABCE80E94CE3E4D
:103CB000A70196010E94873ECA01B9016B5F7F4F41
:103CC0008F4F9F4F2AE030E040E050E00E94873E57
:103CD0002A3F31054105510538F43093D80120932E
:103CE000D70199819F5F99839801A0EABCE80E945F
:103CF000CE3EA70196010E94873ECA01B9016B5FC3
:103D00007F4F8F4F9F4F2AE030E040E050E00E940D
:103D1000873E283181E038074105510538F430935A
:103D2000DA012093D90199819F5F99830E94191C20
:103D300081E02981243019F403C00E94191C80E01D
:103D40002596E2E10C940B3FA0E0B0E0EAEAFEE148
:103D50000C94EF3E81E00E946F19882309F40EC194
:103D6000C12CD12CE12CF12C00E010E0C1E092E05C
:103D7000292E28E0322E34E7432E34E0532E612CD6
:103D8000712CD1E00E949A3A0E94E12384E50E94BE
:103D9000653B80E38C0F0E94653B0E94E8230E94F4
:103DA0009023C33009F46BC0C8F5C13009F451C089
:103DB000C23009F0A8C08BE191E00E949C238DE005
:103DC00091E00E9448232091A2013091A301A0E339
:103DD000B2E00E94CE3EA30192010E94A93E490199
:103DE0005A0181E085B985E084B982E00E942E20E5
:103DF0006C01C818D90881E184B981E00E942E20A5
:103E00007C01E818F90884E085B984E184B980E090
:103E10000E942E208C010819190975C0C53009F4BB
:103E20005DC008F455C0C63009F06DC088E291E06D
:103E30000E94482325B824B880E00E942E208C01DF
:103E400035B834B881E00E942E207C0180E285B92B
:103E500055C08EE00E94C41F8EE00E94C41F5C010A
:103E600080E391E00E9448230E942623B50180E070
:103E700090E026E54DEF0E943E2480E045C086E1BB
:103E800091E00E949C238DE091E00E9448230091E4
:103E9000A2011091A3011695079525B88AE084B96F
:103EA00082E00E942E206C01C01AD10A82E284B9FD
:103EB00081E00E942E207C01E01AF10A35B888E2E8
:103EC00084B980E00E942E20801B910B8C011BC0C6
:103ED00080E00E946F1980E0D4E616C08CE291E089
:103EE0000E94482315B824B880E00E942E208C013F
:103EF00034B881E00E942E207C0180E284B982E007
:103F00000E942E206C0181E014B815B8882309F1B5
:103F10000E94262320E040E0B801012E000C880B0F
:103F2000990B0E94C6240E94902320E040E0B70134
:103F30000F2C000C880B990B0E94C6240E94902322
:103F400020E040E0B6010D2C000C880B990B0E947C
:103F5000C624D43659F060E188EE93E00E949E18A2
:103F6000882321F0823009F4C4E6D4E6DF5FD6303E
:103F700008F408CFCF5FC73008F403CF81E0CDB796
:103F8000DEB7E2E10C940B3FCF93DF938F70C82F25
:103F9000C064C0937C00DC2FD07C80919F01D81737
:103FA00021F00E946D3CD0939F0180917A00806443
:103FB00080937A0080917A0086FDFCCF20E030E08B
:103FC000A90180E0E0919D018E1708F590917A009B
:103FD000906490937A0090917A0096FDFCCF609166
:103FE000780070917900260F371F411D511D8430D4
:103FF00061F4211594E0390740F4D03C31F0909100
:104000009E01913011F4C06CC4CF8F5FDBCFD03CE8
:1040100029F4A091A001B091A10104C0A091A20136
:10402000B091A3010E94E43E2AE09695879577958A
:1040300067952A95D1F72E2F30E040E050E00E949E
:10404000873EC901DF91CF910895CF93C82F0E9479
:10405000643C8C2F0E94C41FCF910895CF93C82F2A
:104060000E94623C8C2F0E94C41FCF910895A0E053
:10407000B0E0EDE3F0E20C94F93EE62E042FC5EC3F
:10408000D1E0888369834A83C82ED12CC601875F1B
:104090009F4F0E947E3F8E83F12CC701875F9F4F09
:1040A0000E947E3F8F8310E0C801875F9F4F0E9470
:1040B0007E3F8887C6018A5F9F4F0E947E3F898727
:1040C000C7018A5F9F4F0E947E3F8A87C8018A5F2F
:1040D0009F4F0E947E3F8B87C6018D5F9F4F0E943E
:1040E0007E3F8C87C7018D5F9F4F0E947E3F8D87EB
:1040F000C8018D5F9F4F0E947E3F8E87C601805012
:1041000090400E947E3F8F87C701805090400E9460
:104110007E3F888BC801805090400E947E3F898BF3
:10412000CDB7DEB7E8E00C94153FE5ECF1E0458152
:10413000648183810E9437200895E5ECF1E080815D
:1041400083838181848382818583089593E0981B92
:10415000892F861B0895CF93DF9340E00E9437207C
:1041600017B89091CB0195B98091CC01892B84B976
:104170008091D4010E942520EC018091D5010E94FC
:10418000C41FAC012091A2013091A301369527955F
:10419000C9014E978C179D0760F4225E3F4FC217EE
:1041A000D30738F48417950720F481E042175307AA
:1041B00008F080E014B8DF91CF910895CF9361E0CB
:1041C00080E00E94AB20C82F62E080E00E94AB201C
:1041D000C80F62E081E00E94AB208C0FCF91089560
:1041E0000F931F93CF93DF93D82FC62F17B818B80C
:1041F00014B815B840E00E9437208091D10187B9EA
:104200008091D5010E94C41F8C018091D20187B991
:104210008091D4010E94C41F0817190728F440E0B8
:104220006D2F8C2F0E9437208091D10187B980910A
:10423000CC0184B9C2E38091D5010E94C41F9C01C6
:10424000203981E0380738F0C15069F084E690E009
:104250000E943F1BF0CF87B19091D201982B97B964
:104260002832310588F717B814B8DF91CF911F9124
:104270000F910895A6E0B0E0E0E4F1E20C94F63E80
:1042800017B818B815B88FE384B980E00E94C41F2E
:104290009A83898381E00E94C41F9C838B8382E080
:1042A0000E94C41F9E838D83E12C12E008E2FF244C
:1042B000F394AA24A394B12C1F5F133009F410E0E7
:1042C000C12ED12C8E2D90E0012E02C095958795A0
:1042D0000A94E2F780FDF0CF812F0E94C41FF601FF
:1042E000EE0FFF1F21E030E02C0F3D1FE20FF31F08
:1042F000208131818217930768F491838083202F76
:1043000030E02F1931092431310564F40B3E50F4AB
:104310000C5E08C08A30910518F4083209F400E5F3
:10432000F39402C0FF24F3948330910540F4C50157
:104330000C2C01C0880F0A94EAF7E82A0BC08032DF
:10434000934040F497B0C6018D5F9F4F0E947E3F1F
:10435000892987B987E0E81681F10F1540F581E0DA
:10436000809306018093070110930C01C6018D5FB5
:104370009F4F0E947E3F97B18095982397B9C601C1
:104380008A5F9F4F0E947E3F082FC601875F9F4F25
:104390000E947E3F94B1802B8095892384B9812F20
:1043A0000E94C41F90930E0180930D0106C0A89532
:1043B00082E390E00E943F1B7FCF14B817B8269687
:1043C000EBE00C94123FCF93C82FC09595B160FFDE
:1043D00002C0982B01C09C2395B994B1892B84B954
:1043E00063FF03C00E94683C02C00E94633C84B12A
:1043F0008C2384B985B1C823C5B9CF910895A0E0B5
:10440000B0E0E5E0F2E20C94FA3E613039F062305F
:1044100071F06330A9F080E090E04DC0CCE4D0E0D2
:10442000E7E0F0E002E310E028EE33E011C0CEE573
:10443000D0E0ECE2F0E009E110E02CE231E008C06D
:10444000CCE0D0E0EEE1F0E009E110E028EC30E073
:104450008217930768F1821B930BB8010E945F3E9D
:10446000D02ED81ACB019927E817F90708F46E2F38
:10447000C60FD11DC60FD11DCE010E94863F7C0103
:10448000CE0102960E94863FFC01E81AF90ADE9CE2
:104490009001DF9C300D1124C80196958795820FFD
:1044A000931FB8010E945F3ECF01860F971F03C084
:1044B000D02E60E0DDCFCDB7DEB7E7E00C94163F3D
:1044C0000F931F93CF93DF9390910601913009F4DE
:1044D00097C0062F182FA8950E94372015B88091F5
:1044E000CC0184B98091D10187B988B960E180910C
:1044F000CD010E94E3218091D5010E942520EC018D
:10450000813D934050F061E18091CD010E94E32113
:104510008091D5010E942520EC01C031D10528F4FD
:1045200080910801811128C00DC08091080181117E
:1045300003C0CE010E94D732C13D83E0D80708F006
:1045400043C0EECF8091CC0184B915B88091D101E0
:1045500087B988B90E94643C9091CC018091CD01CB
:10456000892B84B9802F0E9425208F359D4020F013
:10457000BE0182E00E94E5308091080181112CC0CB
:104580008091D20187B918B89091CB018091CD016B
:10459000892B84B985B9812F0E94252080349640CB
:1045A00060F40E947C34811108C080910601813240
:1045B00021F0BE0181E00E94E53080910801811167
:1045C0000BC00E946E3508C080910801811102C0A5
:1045D0000E941D350E94422E80910601882311F011
:1045E0008A3019F40E94712607C08F3129F4809116
:1045F000070184FD0E94412F17B818B814B815B8E8
:10460000DF91CF911F910F91089580910901882327
:10461000E1F09091080190FD18C091FD04C09091C7
:1046200006019E3190F480930601809136018093BB
:10463000A601809137018093A70180913801809372
:10464000A8018091100180930F010895CF9360918C
:10465000280180912A01681315C0C0912601C0FD70
:104660000E946919C1FF0BC0C0912A01C23028F015
:104670008C2F0E94323AC150F9CF62E004C00E94F0
:104680009A3A04C06F5F81E00E94073ACF91089583
:10469000CF93DF93EC01CE010E947E3F882321F06F
:1046A0000E94653B2196F7CFDF91CF9108950F933C
:1046B0001F93CF93DF93C6E2D1E00E811F81E82FD5
:1046C000F0E0EE0FFF1FE050FF4F208131813F836C
:1046D0002E838F5C0E94653B1F830E83DF91CF91F9
:1046E0001F910F9108950F931F93CF93DF93C6E20D
:1046F000D1E00E811F81E82FF0E0EE0FFF1FE050A8
:10470000FF4F208131813F832E830E9468110E94D8
:10471000653B1F830E83DF91CF911F910F91089509
:1047200080E20E94653B08958DE20E94653B0895FA
:104730008AE30E94653B08950E9448230E949023CB
:104740000895CF93DF93EC010E942623CE010E94AF
:104750004823DF91CF910895CF93DF93EC010E941E
:104760002623CE010E9448230E949023DF91CF91FF
:10477000089582E00E94323A62E081E00E94073AA6
:10478000089583E00E94323A63E081E00E94073A94
:1047900008950F931F93CF93DF93C6E2D1E00E816C
:1047A0001F817F836E830E9448231F830E83DF91C6
:1047B000CF911F910F9108950E94C9230E949023C9
:1047C000089580EE9FEF90932D0180932C01089522
:1047D00080EE97E090932D0180932C010895CF9265
:1047E000DF92FF920F931F93CF93DF93D42F022F6B
:1047F0002AE04DE351E00E94323FEDE3F1E0019009
:104800000020E9F73197CF018D539140F82EDD2339
:1048100069F08D1728F0C82FCD1BD0E041F401C0FE
:10482000D81B80E30E94653BC0E001C0C4E68DE375
:10483000C82E81E0D82E10E01F1598F41C130AC072
:104840008CE20E94653BDD2329F080E30E94653BFA
:10485000D150F9CFF60181916F010E94653B1F5F36
:10486000EBCF002319F0802F0E94653BDF91CF91A1
:104870001F910F91FF90DF90CF900895A0E0B0E0DE
:10488000E4E4F4E20C94F53E6B017C01C42F122F9A
:104890009AE0892E912CA12CB12C80E1C81687E2D8
:1048A000D806E104F10470F0C701B6016B5F7F4FD9
:1048B0008F4F9F4FA50194010E94873E69017A01A5
:1048C000CF5FEBCFC13FACF08FE08C0F23E0622FC6
:1048D0000E94513ED92F992319F08F5F291BD22FA7
:1048E000883040F490E086549F4F0E947E3F082F0E
:1048F00002C0D0E000E04AE06DE371E0C6010E9432
:10490000543FEDE3F1E001900020E9F73197ED53DA
:10491000F140BE2ECE2FCD1B1C165CF080E30E9412
:10492000653B8CE20E94653BCC2319F080E30E943A
:10493000653BD11101C0CFEFC1508DE3C82E81E09E
:10494000D82EE12CF12C0C2E000CDD0BEB1478F49E
:10495000F60181916F010E94653BCE15DF0519F4C8
:104960008CE20E94653BFFEFEF1AFF0AEFCF0023B6
:1049700019F0802F0E94653B112319F0812F0E94AE
:10498000653BCDB7DEB7ECE00C94113FCF92DF92E0
:10499000EF92FF92CF93DF936B017C01C42FD22F54
:1049A00097FF0AC00E949423F094E094D094C0949E
:1049B000C11CD11CE11CF11C2D2F4C2FC701B601CD
:1049C0000E943E24DF91CF91FF90EF90DF90CF9037
:1049D0000895CF93C82F80910F01982F990F890FB9
:1049E000E62FF0E0E80FF11DEA58FF4FE491EE23C7
:1049F00089F1209131018FEF820F60913201E4FF44
:104A000004C0909130019695690F3E2F3270E1FFFE
:104A10000BC090912F01E5FF04C0892F8695820F6E
:104A200001C0890FE3FD6150E2FF06C090913001A3
:104A3000690F311101C061500E94073A8C2F0E940A
:104A40006811883721F48C2F0E94732303C08C2FA8
:104A50000E945723CF910895CF93DF932091300187
:104A600030912A0193E0920F3917F0F190912901CA
:104A7000903120F02F5F280F231738F03093280152
:104A80000E94262393E083E004C09F5F20912F01C2
:104A9000921B909331018093320160E08091A601D6
:104AA0000E94E92461E08091A7010E94E92462E06C
:104AB0008091A8010E94E924C0912C01D0912D0180
:104AC00080EE9FEF90932D0180932C016091320135
:104AD000809131010E94073A80910F010E94E63BCC
:104AE000D0932D01C0932C01DF91CF910895FF92B7
:104AF0000F931F93CF93DF93C82F9091300181E0E4
:104B0000890F8C0F20912A012817D0F0809129015C
:104B10008031B0F0F0902F018F5FD82FDF19192F5F
:104B20001C0FC11769F06C2F8D2F0E94073A0F2DB3
:104B3000002321F00E9490230150FACFCF5FF1CFE4
:104B4000CDB7DEB7E5E00C94183F4F925F926F92BD
:104B50007F928F929F92AF92BF92CF92DF92EF920D
:104B6000FF921F93CF93DF93C82F0E943A21809129
:104B70000601813009F456C018B88091D20187B976
:104B80008091CB0185B984B90E94633CC12CD12CA2
:104B9000760181E0182F117080FF03C08091D4014D
:104BA00002C08091D501A895806C80937C000E9402
:104BB0006D3C80917A00806480937A0080917A00C5
:104BC00086FDFCCFD4E6812C912C540180917A0093
:104BD000806480937A0080917A0086FDFCCF80917A
:104BE000780090917900880E991EA11CB11C0E943A
:104BF0006A3CD15059F7A091A001B091A101A50143
:104C000094010E94E43E4B015C018AE0B694A794B3
:104C1000979487948A95D1F782E0112331F075013A
:104C20006401B8CF80E090E04CC015B89091D201FB
:104C30008091D101892B87B98C149D04AE04BF04E7
:104C4000D8F52091A2013091A301A4E6B0E00E9422
:104C5000CE3E9B01AC012C193D094E095F090E9413
:104C6000E43E2B013C01A7019601281939094A09A4
:104C70005B09A8EEB3E00E94E43E6B017C01209149
:104C8000D9013091DA01205F314F40E050E0C3019B
:104C9000B2010E94873EC701B6010E94873EC9014A
:104CA000C13061F46091DB017091DC016217730720
:104CB00018F4861B970B02C080E090E020EC209354
:104CC0009F01DF91CF911F91FF90EF90DF90CF90E8
:104CD000BF90AF909F908F907F906F905F904F901C
:104CE0000895A0E0B0E0E7E7F6E20C94EF3EA89567
:104CF00018B88091D20187B98091CB0184B985B968
:104D00008091D5010E9425204C018091D4010E9400
:104D1000C41FEC0115B88091CE0184B98091D401F3
:104D20000E942520459708F044C28091CE0185B9A4
:104D30008091D4010E9425206C018091D10187B916
:104D400088B915B88091CC0184B98091D4010E94B2
:104D500025202C018091D5010E94C41F3C01809127
:104D6000CF0184B98091D5010E9425205C01C03318
:104D700021E1D20728F432E6C316D10438F019C273
:104D80004CE6C41643E1D40608F013C259EA65168E
:104D9000710408F070C086E2A816B10408F409C2D4
:104DA000D60120EF3BE247E050E00E94E43EC09194
:104DB000A201D091A3019E012C193D0940E050E0D1
:104DC0000E94873E29013A01DE01AA19BB0920EFA2
:104DD0003BE247E050E00E94E43E850120E030E005
:104DE000A90198010E94873EEEEDCE16E3E0DE06B3
:104DF00080F4D301C201D2E0880F991FAA1FBB1F04
:104E0000DA95D1F7BC01CD01620F731F841F951F86
:104E100014C0FEEDAF16F3E0BF06B0F4DA01C9012D
:104E2000C2E0880F991FAA1FBB1FCA95D1F7BC010A
:104E3000CD01640D751D861D971D25E030E040E015
:104E400050E00E94873E0CC0D301C201820F931F25
:104E5000A41FB51F9C01AD01569547953795279521
:104E6000225A3E4F4F4F5F4FAAE0B0E00E94E43E0F
:104E70004B015C01B3C0C815D90508F483C04614C2
:104E8000570408F47FC04091A2015091A301C417B8
:104E9000D50709F421972091D9013091DA01205FDB
:104EA000314FDE01A819B9090E94CE3E9A012C1B90
:104EB0003D0B40E050E00E94873E49015A0120919D
:104EC000D7013091D801205F314FD201A619B7091F
:104ED0000E94CE3E830120E030E0A90198010E94AB
:104EE000873ECE3DD34080F4D501C401F2E0880F67
:104EF000991FAA1FBB1FFA95D1F7BC01CD01620F04
:104F0000731F841F951F1BC0EEED6E16E3E07E0637
:104F100060F5283FF4E23F07F1E04F075105A0F4A8
:104F2000DA01C901E2E0880F991FAA1FBB1FEA95A9
:104F3000D1F7BC01CD01680D791D8A1D9B1D25E0AF
:104F400030E040E050E00CC0A9E0B0E00E94E43E58
:104F5000680D791D8A1D9B1D2AE030E040E050E07D
:104F60000E94873E49015A0139C0D501C401820F10
:104F7000931FA41FB51F4C015D01B694A79497948D
:104F800087942CC02FE8621622E1720608F001C156
:104F900081E00E94A5252C01612C712C812C912C83
:104FA000540120E030E0A901280D391D4A1D5B1D88
:104FB000AAE0B0E00E94E43E61157105810591050B
:104FC00021F464E670E080E090E04616570668063B
:104FD000790658F453014201CEEF08C034E6831637
:104FE0009104A104B10408F4C0C0CFEF80E0D7E081
:104FF0002AE0F22E90910A01891708F09DC0682ED0
:10500000712CD69D9001D79D300D1124F901EF5ED2
:10501000FE4F6F0120819091C501291389C0218124
:105020009091C601291384C0E12C02E010E020E039
:1050300030E04C2FC501B4010E94BC178F3F09F02E
:105040003FC0F601638174818581968102E010E0A2
:1050500020E030E042810E94BC178F3F51F5F601FD
:105060004281C41719F055245A9402C05524539410
:10507000D69DC001D79D900D11249C012F5E3E4FFF
:105080006901F9016381748185819681EC2E950116
:1050900084010E94BC17F601581206C083809480D8
:1050A000A580B680C28105C083829482A582B68223
:1050B000C2831401250156944794379427940AC05B
:1050C000C501B40124E130E040E050E00E94873E99
:1050D00019012A01D69DC001D79D900D11249C0174
:1050E0002F5E3E4F6901F90163817481858196814C
:1050F000EC2E950184010219130924093509428116
:105100000E94BC1787FD16C095018401020D131D76
:10511000241D351DF601638174818581968142814C
:105120000E94BC17181634F0F092060184E662CF94
:105130008F5F60CF88EC5ECF8436D9F19330C8F5AD
:1051400027E0929FF0011124EF5EFE4F8091C6018F
:1051500080838091C501818383829482A582B682F7
:10516000C2839F5F90930A0124C081E00E94A5251D
:105170002C01612C712CA5019401220F331F441FB7
:10518000551F85E088169104A104B10408F40CCFE2
:105190000FCF81E00E94A5252C01612C712C8AE0A3
:1051A000882E912CA12CB12C24E130E040E050E07D
:1051B000FFCECDB7DEB7E2E10C940B3FEF920F9339
:1051C0001F93CF93C42F10920A0140E00E94372012
:1051D0000E94712680910A018130B1F4CC23B1F094
:1051E00000911401109115012091160130911701C1
:1051F0006C2F70E080E090E0E090130143E00E94AB
:10520000BC1791E0813019F090E001C091E0892F46
:10521000CF911F910F91EF900895813138F0815116
:1052200015BC92E094BD87BD81E0089580E00895AB
:1052300016BC81E085BDA99BFECF15BC82E085BB75
:105240000895A4E0B0E0E7E2F9E20C94EF3E0097A5
:1052500029F46FEF7FEF7C836B8339C19C838B8351
:10526000FC016381748185819681A7EFEA2E0AE0B3
:1052700010E020E030E042810E94BC1787FDE9CFBA
:105280000E943A2180910601813019F3EB81FC8163
:10529000618180810E94F02040E0EB81FC8161818E
:1052A00080810E9437200091D4018091D501006C4B
:1052B000806C8A8315BC82E084BD85E687BD18B802
:1052C00000937C000E94633CFFEFF983812C912CBA
:1052D00054018394412C512C3201439480E090E09E
:1052E00052E3C52ED12C17EDA895C29758F48091A2
:1052F000D20187B98091CB0185B984B90E94763CEF
:1053000014B815B822E3C216D10458F48091D10123
:1053100087B98091CC0185B984B90E94763C14B8D4
:1053200015B88091D10187B98091CB0185B984B935
:1053300000937C0010937A0080917A0086FDFCCF68
:1053400010937A0080917A0086FDFCCF209078003F
:10535000309079006A8160937C0010937A0080918C
:105360007A0086FDFCCF10937A000E94723C0E9466
:1053700018298091CC0185B984B90E94763C14B873
:1053800080917A0086FDFCCFC0907800D0907900A3
:105390008091D20187B98091CC0185B984B97A8195
:1053A00070937C0010937A0080917A0086FDFCCF88
:1053B00010937A0080917A0086FDFCCFE09078000F
:1053C000F090790000937C0010937A0080917A002D
:1053D00086FDFCCF10937A000E94723C0E9418292F
:1053E0008091CB0185B984B90E94763C14B8809134
:1053F0007A0086FDFCCF8091780090917900A7011A
:1054000060E070E0420D531D611D711D440E551E7C
:10541000661E771EAC0160E070E04C0D5D1D611DE5
:10542000711D840E951EA61EB71EE981E150E98309
:10543000E1115ACF17B815B8481459046A047B040F
:10544000E8F58091D7019091D8012AE0289FD001FA
:10545000299FB00D1124A50194012419350946098D
:1054600057090E94E43EA30192010E94873E809169
:10547000DB019091DC018217930720F4B901681BCE
:10548000790B19C0EB81FC816381748185819681E0
:105490002AEFE22E08EE13E020E030E042810E9485
:1054A000BC1721E030E0181614F420E030E0662745
:1054B0007727621B730B7C836B8304C08FEF9FEF96
:1054C0009C838B8380EC80939F010E943A218B8187
:1054D0009C812496E2E10C940B3FA0E0B0E0E3E76E
:1054E000FAE20C94F03E6C0101E113E00E943A21D3
:1054F00080910601813009F413C118B88091D2015E
:1055000087B915B814B88091D4010E94C41F5C01FA
:10551000E12CF12C8FEFE81AF80A602F8091CB0173
:105520000E94E3218091D4010E94C41FA816B906ED
:1055300090F4EC01CA19DB099EE7E916F10429F49D
:10554000CB34D10508F0F0C00CC0CC32E1E0DE076E
:1055500040F481E007C0C0E0D0E0FEE7EF16F104C0
:10556000C1F780E0F4EFEF16F1E0FF0609F480E008
:10557000A8958111CFCFCC3281E0D80708F411E093
:1055800091E0E916F10459F4C531E5E0DE0738F0A1
:10559000802F807109E009F0A9CF12E0C3C0133059
:1055A00009F0C0C0470180E090E08114910459F0F7
:1055B000F1E08F1A91088091D4010E94C41F8A19CA
:1055C0009B09A895F2CF8C179D0748F44E01881AC5
:1055D000990A85E68816910420F010E002C0812C1B
:1055E000912C8091D4010E94C41F5C01902F907176
:1055F000392E19F00E94583C02C00E945D3C8091F7
:10560000D4010E94C41F8A159B0518F4A81AB90A70
:1056100002C0A12CB12C133009F084C062E0CE018D
:10562000880D991D0E94FF219C01D7010E94CE3E4A
:105630002B013C01332031F1AAE0B0E09B01AC0129
:105640000E94E43E2B013C016833E9E87E07E1E477
:105650008E07910508F46FC0C301B20128EE33E054
:1056600040E050E00E94873E29013A01A8EEB3E0F5
:105670000E94E43ECAEF332089F022E434E040E0A7
:1056800050E010C0683379488144910528F7A8EEAE
:10569000B3E0A30192010E94E43EC7EF20E134E0B1
:1056A00040E050E00E94873E8091C601F601808371
:1056B0008091C5018183C28347825086618672864C
:1056C00023833483458356838AE0482E512C612CF2
:1056D000712C2130F5E33F07FCE04F07510540F006
:1056E000CA01B901A30192010E94873ECF5FF1CFA9
:1056F000D5010E94E43E28EE33E040E050E00E94F5
:10570000873ECA01B90103FDCF5F28EF4C2F0E94ED
:105710003318F601638774878587968783E013C003
:1057200080E011C0812F0FC081E0CC3291E0D90719
:1057300008F41ECF1CCFA8EEB3E09B01AC010E9481
:10574000E43EC7EF9ACFCDB7DEB7E1E10C940C3F52
:10575000A0E0B0E0EEEAFBE20C94F73EEC010E9420
:105760003A2180910601813009F471C015B897E0A3
:1057700097B918B88091CE0184B980E480937B00FA
:1057800084E480BF8091D401806480937C009093F6
:105790007A000E946C3C109280001092810010925E
:1057A00085001092840087E286BB8091CE0185B986
:1057B000809106018F3129F48091D1018095877005
:1057C00002C08091D20191E09093810087B9E12CD1
:1057D000F12C86B385FD0CC080FFFBCF96BBA8954E
:1057E0002FEFE21AF20A20E8E2162CE0F20689F71F
:1057F0001092810090E296BBC0908600D090870006
:1058000014B82091840030918500C216D30638F474
:1058100080FF05C081E086BB8FEFE81AF80A87E9B0
:1058200080937A0080917B008F7B80937B008091B6
:10583000D4010E94C41F5C0115B88091CE0184B9C7
:1058400020E8E2162CE0F20620F081E0C6C080E0FD
:10585000C4C0C601A0E0B0E06701E12CF12C7601E4
:10586000DD24CC24C82AD92AEA2AFB2A83E0C816D8
:10587000D104E104F104C8F082E0C81AD108E108BB
:10588000F10828E3C21629E8D20621E4E206F10471
:1058900060F0C701B60128EE33E040E050E00E941E
:1058A000873E69017A0117EF01C014EF2091DF01F3
:1058B0008091A0019091A10161E0820F911D27FDCF
:1058C0009A950E94FF21DC01A70196010E94E43E07
:1058D00020E436E040E050E00E94873E143F89F427
:1058E0008091DD0190E0A0E0B0E0281739074A0779
:1058F0005B0750F069017A01C81AD90AEA0AFB0A63
:1059000006C069017A0103C0C12CD12C76018091B7
:10591000C60188838091C50189831A832F833887C4
:1059200049875A87CB82DC82ED82FE82143F49F49C
:1059300080EAC81686E8D80681E0E806F10460F43B
:105940004BC0173F09F048C021E2C2162EE4D20630
:10595000E104F10408F040C08091D4010E94C41F0A
:10596000853D9340C8F714B810929E018091D401F0
:105970000E94C41FEC0181E080939E018091D401BC
:105980000E94C41FAC018091CE0184B9DE01A41B2A
:10599000B50BC091A001D091A101CD01049609974A
:1059A00088F09E010E94DD3E9A0140E050E00E9496
:1059B000A93E8091DE01280F2093DE01CC0DD11D80
:1059C000C7FCDA9585010C1B1D0BC801C1968336F7
:1059D000910510F40093DF0183E0CDB7DEB7EAE074
:1059E0000C94133FA0E0B0E0E8EFFCE20C94F73E2B
:1059F000C42ED12C2FE0429FF0011124E75BFE4F13
:105A00001082118294EF928317821086118612867B
:105A100013821482158216821386148615861686C2
:105A200090910601913009F47FC0B62EF82E9A307D
:105A300091F4C1E1D1E0A12C07C088818F1591F0CC
:105A40008B15A1F0A394279680910A01A816A8F3BC
:105A500084E6A81269C06B2D8F2D0E942F2E00970F
:105A6000C9F41FC099819B11EBCF03C08981F81243
:105A7000E9CF6B817C818D819E81E12C0AE010E071
:105A800020E030E04A810E94BC178F3FD9F683E6C0
:105A9000A82ED8CFFC01828193818C3D954008F4DB
:105AA00043C08FE08C9DE0018D9DD00D1124C75B1C
:105AB000DE4F40E06B2D8F2D0E943720CE010E94DB
:105AC0006D2A823019F4CE010E94A82B8091060124
:105AD000843120F58A3079F48FE08C9DF0018D9D22
